{
  "contractName": "Admin",
  "abi": [
    {
      "anonymous": false,
      "inputs": [
        {
          "indexed": true,
          "internalType": "address",
          "name": "owner",
          "type": "address"
        },
        {
          "indexed": true,
          "internalType": "address",
          "name": "spender",
          "type": "address"
        },
        {
          "indexed": false,
          "internalType": "uint256",
          "name": "value",
          "type": "uint256"
        }
      ],
      "name": "Approval",
      "type": "event"
    },
    {
      "anonymous": false,
      "inputs": [
        {
          "indexed": false,
          "internalType": "bool",
          "name": "status",
          "type": "bool"
        },
        {
          "indexed": true,
          "internalType": "address",
          "name": "sender",
          "type": "address"
        }
      ],
      "name": "Pause",
      "type": "event"
    },
    {
      "anonymous": false,
      "inputs": [
        {
          "indexed": true,
          "internalType": "address",
          "name": "oldPauser",
          "type": "address"
        },
        {
          "indexed": true,
          "internalType": "address",
          "name": "newPauser",
          "type": "address"
        },
        {
          "indexed": true,
          "internalType": "address",
          "name": "sender",
          "type": "address"
        }
      ],
      "name": "PauserChanged",
      "type": "event"
    },
    {
      "anonymous": false,
      "inputs": [
        {
          "indexed": true,
          "internalType": "address",
          "name": "oldProhibiter",
          "type": "address"
        },
        {
          "indexed": true,
          "internalType": "address",
          "name": "newProhibiter",
          "type": "address"
        },
        {
          "indexed": true,
          "internalType": "address",
          "name": "sender",
          "type": "address"
        }
      ],
      "name": "ProhibiterChanged",
      "type": "event"
    },
    {
      "anonymous": false,
      "inputs": [
        {
          "indexed": true,
          "internalType": "address",
          "name": "prohibited",
          "type": "address"
        },
        {
          "indexed": false,
          "internalType": "bool",
          "name": "status",
          "type": "bool"
        },
        {
          "indexed": true,
          "internalType": "address",
          "name": "sender",
          "type": "address"
        }
      ],
      "name": "Prohibition",
      "type": "event"
    },
    {
      "anonymous": false,
      "inputs": [
        {
          "indexed": true,
          "internalType": "contract IERC20",
          "name": "tokenAddr",
          "type": "address"
        },
        {
          "indexed": true,
          "internalType": "address",
          "name": "toAddr",
          "type": "address"
        },
        {
          "indexed": false,
          "internalType": "uint256",
          "name": "amount",
          "type": "uint256"
        }
      ],
      "name": "Rescue",
      "type": "event"
    },
    {
      "anonymous": false,
      "inputs": [
        {
          "indexed": true,
          "internalType": "address",
          "name": "oldRescuer",
          "type": "address"
        },
        {
          "indexed": true,
          "internalType": "address",
          "name": "newRescuer",
          "type": "address"
        },
        {
          "indexed": true,
          "internalType": "address",
          "name": "sender",
          "type": "address"
        }
      ],
      "name": "RescuerChanged",
      "type": "event"
    },
    {
      "anonymous": false,
      "inputs": [
        {
          "indexed": true,
          "internalType": "address",
          "name": "from",
          "type": "address"
        },
        {
          "indexed": true,
          "internalType": "address",
          "name": "to",
          "type": "address"
        },
        {
          "indexed": false,
          "internalType": "uint256",
          "name": "value",
          "type": "uint256"
        }
      ],
      "name": "Transfer",
      "type": "event"
    },
    {
      "anonymous": false,
      "inputs": [
        {
          "indexed": true,
          "internalType": "address",
          "name": "addr",
          "type": "address"
        },
        {
          "indexed": false,
          "internalType": "uint256",
          "name": "amount",
          "type": "uint256"
        }
      ],
      "name": "Wipe",
      "type": "event"
    },
    {
      "anonymous": false,
      "inputs": [
        {
          "indexed": true,
          "internalType": "address",
          "name": "oldWiper",
          "type": "address"
        },
        {
          "indexed": true,
          "internalType": "address",
          "name": "newWiper",
          "type": "address"
        },
        {
          "indexed": true,
          "internalType": "address",
          "name": "sender",
          "type": "address"
        }
      ],
      "name": "WiperChanged",
      "type": "event"
    },
    {
      "constant": true,
      "inputs": [],
      "name": "admin",
      "outputs": [
        {
          "internalType": "address",
          "name": "",
          "type": "address"
        }
      ],
      "payable": false,
      "stateMutability": "view",
      "type": "function"
    },
    {
      "constant": true,
      "inputs": [
        {
          "internalType": "address",
          "name": "owner",
          "type": "address"
        },
        {
          "internalType": "address",
          "name": "spender",
          "type": "address"
        }
      ],
      "name": "allowance",
      "outputs": [
        {
          "internalType": "uint256",
          "name": "",
          "type": "uint256"
        }
      ],
      "payable": false,
      "stateMutability": "view",
      "type": "function"
    },
    {
      "constant": false,
      "inputs": [
        {
          "internalType": "address",
          "name": "spender",
          "type": "address"
        },
        {
          "internalType": "uint256",
          "name": "value",
          "type": "uint256"
        }
      ],
      "name": "approve",
      "outputs": [
        {
          "internalType": "bool",
          "name": "",
          "type": "bool"
        }
      ],
      "payable": false,
      "stateMutability": "nonpayable",
      "type": "function"
    },
    {
      "constant": true,
      "inputs": [
        {
          "internalType": "address",
          "name": "account",
          "type": "address"
        }
      ],
      "name": "balanceOf",
      "outputs": [
        {
          "internalType": "uint256",
          "name": "",
          "type": "uint256"
        }
      ],
      "payable": false,
      "stateMutability": "view",
      "type": "function"
    },
    {
      "constant": false,
      "inputs": [
        {
          "internalType": "address",
          "name": "spender",
          "type": "address"
        },
        {
          "internalType": "uint256",
          "name": "subtractedValue",
          "type": "uint256"
        }
      ],
      "name": "decreaseAllowance",
      "outputs": [
        {
          "internalType": "bool",
          "name": "",
          "type": "bool"
        }
      ],
      "payable": false,
      "stateMutability": "nonpayable",
      "type": "function"
    },
    {
      "constant": false,
      "inputs": [
        {
          "internalType": "address",
          "name": "spender",
          "type": "address"
        },
        {
          "internalType": "uint256",
          "name": "addedValue",
          "type": "uint256"
        }
      ],
      "name": "increaseAllowance",
      "outputs": [
        {
          "internalType": "bool",
          "name": "",
          "type": "bool"
        }
      ],
      "payable": false,
      "stateMutability": "nonpayable",
      "type": "function"
    },
    {
      "constant": false,
      "inputs": [],
      "name": "pause",
      "outputs": [],
      "payable": false,
      "stateMutability": "nonpayable",
      "type": "function"
    },
    {
      "constant": true,
      "inputs": [],
      "name": "paused",
      "outputs": [
        {
          "internalType": "bool",
          "name": "",
          "type": "bool"
        }
      ],
      "payable": false,
      "stateMutability": "view",
      "type": "function"
    },
    {
      "constant": true,
      "inputs": [],
      "name": "pauser",
      "outputs": [
        {
          "internalType": "address",
          "name": "",
          "type": "address"
        }
      ],
      "payable": false,
      "stateMutability": "view",
      "type": "function"
    },
    {
      "constant": false,
      "inputs": [
        {
          "internalType": "address",
          "name": "_account",
          "type": "address"
        }
      ],
      "name": "prohibit",
      "outputs": [],
      "payable": false,
      "stateMutability": "nonpayable",
      "type": "function"
    },
    {
      "constant": true,
      "inputs": [
        {
          "internalType": "address",
          "name": "",
          "type": "address"
        }
      ],
      "name": "prohibiteds",
      "outputs": [
        {
          "internalType": "bool",
          "name": "",
          "type": "bool"
        }
      ],
      "payable": false,
      "stateMutability": "view",
      "type": "function"
    },
    {
      "constant": true,
      "inputs": [],
      "name": "prohibiter",
      "outputs": [
        {
          "internalType": "address",
          "name": "",
          "type": "address"
        }
      ],
      "payable": false,
      "stateMutability": "view",
      "type": "function"
    },
    {
      "constant": false,
      "inputs": [
        {
          "internalType": "contract IERC20",
          "name": "_tokenContract",
          "type": "address"
        },
        {
          "internalType": "address",
          "name": "_to",
          "type": "address"
        },
        {
          "internalType": "uint256",
          "name": "_amount",
          "type": "uint256"
        }
      ],
      "name": "rescue",
      "outputs": [],
      "payable": false,
      "stateMutability": "nonpayable",
      "type": "function"
    },
    {
      "constant": true,
      "inputs": [],
      "name": "rescuer",
      "outputs": [
        {
          "internalType": "address",
          "name": "",
          "type": "address"
        }
      ],
      "payable": false,
      "stateMutability": "view",
      "type": "function"
    },
    {
      "constant": true,
      "inputs": [],
      "name": "totalSupply",
      "outputs": [
        {
          "internalType": "uint256",
          "name": "",
          "type": "uint256"
        }
      ],
      "payable": false,
      "stateMutability": "view",
      "type": "function"
    },
    {
      "constant": false,
      "inputs": [
        {
          "internalType": "address",
          "name": "recipient",
          "type": "address"
        },
        {
          "internalType": "uint256",
          "name": "amount",
          "type": "uint256"
        }
      ],
      "name": "transfer",
      "outputs": [
        {
          "internalType": "bool",
          "name": "",
          "type": "bool"
        }
      ],
      "payable": false,
      "stateMutability": "nonpayable",
      "type": "function"
    },
    {
      "constant": false,
      "inputs": [
        {
          "internalType": "address",
          "name": "sender",
          "type": "address"
        },
        {
          "internalType": "address",
          "name": "recipient",
          "type": "address"
        },
        {
          "internalType": "uint256",
          "name": "amount",
          "type": "uint256"
        }
      ],
      "name": "transferFrom",
      "outputs": [
        {
          "internalType": "bool",
          "name": "",
          "type": "bool"
        }
      ],
      "payable": false,
      "stateMutability": "nonpayable",
      "type": "function"
    },
    {
      "constant": false,
      "inputs": [],
      "name": "unpause",
      "outputs": [],
      "payable": false,
      "stateMutability": "nonpayable",
      "type": "function"
    },
    {
      "constant": false,
      "inputs": [
        {
          "internalType": "address",
          "name": "_account",
          "type": "address"
        }
      ],
      "name": "unprohibit",
      "outputs": [],
      "payable": false,
      "stateMutability": "nonpayable",
      "type": "function"
    },
    {
      "constant": false,
      "inputs": [
        {
          "internalType": "address",
          "name": "_account",
          "type": "address"
        }
      ],
      "name": "wipe",
      "outputs": [],
      "payable": false,
      "stateMutability": "nonpayable",
      "type": "function"
    },
    {
      "constant": true,
      "inputs": [],
      "name": "wiper",
      "outputs": [
        {
          "internalType": "address",
          "name": "",
          "type": "address"
        }
      ],
      "payable": false,
      "stateMutability": "view",
      "type": "function"
    },
    {
      "constant": false,
      "inputs": [
        {
          "internalType": "address",
          "name": "_account",
          "type": "address"
        }
      ],
      "name": "changePauser",
      "outputs": [],
      "payable": false,
      "stateMutability": "nonpayable",
      "type": "function"
    },
    {
      "constant": false,
      "inputs": [
        {
          "internalType": "address",
          "name": "_account",
          "type": "address"
        }
      ],
      "name": "changeProhibiter",
      "outputs": [],
      "payable": false,
      "stateMutability": "nonpayable",
      "type": "function"
    },
    {
      "constant": false,
      "inputs": [
        {
          "internalType": "address",
          "name": "_account",
          "type": "address"
        }
      ],
      "name": "changeWiper",
      "outputs": [],
      "payable": false,
      "stateMutability": "nonpayable",
      "type": "function"
    },
    {
      "constant": false,
      "inputs": [
        {
          "internalType": "address",
          "name": "_account",
          "type": "address"
        }
      ],
      "name": "changeRescuer",
      "outputs": [],
      "payable": false,
      "stateMutability": "nonpayable",
      "type": "function"
    }
  ],
  "bytecode": "0x6080604052600080546001600160a81b0319169055600180546001600160a01b03199081169091556002805482169055600780548216905560088054909116905534801561004c57600080fd5b50611a718061005c6000396000f3fe608060405234801561001057600080fd5b50600436106101735760003560e01c8063664dc724116100de578063a9059cbb11610097578063dcb413c811610071578063dcb413c81461045e578063dd62ed3e14610466578063dd75049b14610494578063f851a4401461049c57610173565b8063a9059cbb146103e6578063c4e1ccf214610412578063cffdd46c1461043857610173565b8063664dc7241461033857806370a082311461035e5780638456cb5914610384578063988749d11461038c5780639fd0506d146103b2578063a457c2d7146103ba57610173565b80632fee80d0116101305780632fee80d01461028c57806338a63183146102b257806339509351146102d65780633f4ba83a14610302578063597636281461030a5780635c975abb1461033057610173565b8063095ea7b31461017857806318160ddd146101b857806320ff430b146101d257806323b872dd1461020a5780632ad3ed6d146102405780632cd271e714610266575b600080fd5b6101a46004803603604081101561018e57600080fd5b506001600160a01b0381351690602001356104a4565b604080519115158252519081900360200190f35b6101c06104ba565b60408051918252519081900360200190f35b610208600480360360608110156101e857600080fd5b506001600160a01b038135811691602081013590911690604001356104c0565b005b6101a46004803603606081101561022057600080fd5b506001600160a01b038135811691602081013590911690604001356105d6565b6101a46004803603602081101561025657600080fd5b50356001600160a01b031661062d565b6102086004803603602081101561027c57600080fd5b50356001600160a01b0316610642565b610208600480360360208110156102a257600080fd5b50356001600160a01b0316610730565b6102ba61086c565b604080516001600160a01b039092168252519081900360200190f35b6101a4600480360360408110156102ec57600080fd5b506001600160a01b03813516906020013561087b565b6102086108b7565b6102086004803603602081101561032057600080fd5b50356001600160a01b03166109c6565b6101a4610b02565b6102086004803603602081101561034e57600080fd5b50356001600160a01b0316610b12565b6101c06004803603602081101561037457600080fd5b50356001600160a01b0316610cd1565b610208610cec565b610208600480360360208110156103a257600080fd5b50356001600160a01b0316610def565b6102ba610f65565b6101a4600480360360408110156103d057600080fd5b506001600160a01b038135169060200135610f74565b6101a4600480360360408110156103fc57600080fd5b506001600160a01b038135169060200135610fb0565b6102086004803603602081101561042857600080fd5b50356001600160a01b0316610fbd565b6102086004803603602081101561044e57600080fd5b50356001600160a01b031661118b565b6102ba6112c7565b6101c06004803603604081101561047c57600080fd5b506001600160a01b03813581169160200135166112d6565b6102ba611301565b6102ba611310565b60006104b133848461131f565b50600192915050565b60065490565b600054600160a01b900460ff161561050d576040805162461bcd60e51b81526020600482015260196024820152600080516020611989833981519152604482015290519081900360640190fd5b6001546001600160a01b0316331461056c576040805162461bcd60e51b815260206004820152601d60248201527f7468652073656e646572206973206e6f74207468652072657363756572000000604482015290519081900360640190fd5b6105866001600160a01b038416838363ffffffff61140b16565b816001600160a01b0316836001600160a01b03167fe01920728668d89f092ef9cb92036bad90964bb622eec508d2c3ffe1d582efb2836040518082815260200191505060405180910390a3505050565b60006105e3848484611462565b6001600160a01b03841660009081526005602090815260408083203380855292529091205461062391869161061e908663ffffffff6115a616565b61131f565b5060019392505050565b60036020526000908152604090205460ff1681565b6008546001600160a01b0316331461068f576040805162461bcd60e51b815260206004820152601b6024820152600080516020611927833981519152604482015290519081900360640190fd5b806001600160a01b0381166106d9576040805162461bcd60e51b81526020600482018190526024820152600080516020611969833981519152604482015290519081900360640190fd5b600080546001600160a01b038481166001600160a01b0319831617808455604051928216933393919092169184917f8b1ee37fa817a066fe12c7c9bf109c0c9f8f03ef0a5cfe0c03d5196e8c2e46579190a4505050565b6008546001600160a01b0316331461077d576040805162461bcd60e51b815260206004820152601b6024820152600080516020611927833981519152604482015290519081900360640190fd5b600054600160a01b900460ff16156107ca576040805162461bcd60e51b81526020600482015260196024820152600080516020611989833981519152604482015290519081900360640190fd5b806001600160a01b038116610814576040805162461bcd60e51b81526020600482018190526024820152600080516020611969833981519152604482015290519081900360640190fd5b600780546001600160a01b038481166001600160a01b03198316179283905560405191811692339291169083907fd8d09cf07cabd1c0519931ab387ce1b6e580584a26fb2787b8ed7f446c34603f90600090a4505050565b6001546001600160a01b031681565b3360008181526005602090815260408083206001600160a01b038716845290915281205490916104b191859061061e908663ffffffff61160316565b6000546001600160a01b03163314610916576040805162461bcd60e51b815260206004820152601c60248201527f7468652073656e646572206973206e6f74207468652070617573657200000000604482015290519081900360640190fd5b600054600160a01b900460ff16610974576040805162461bcd60e51b815260206004820152601d60248201527f74686973206973206e6f7420612070617573656420636f6e7472616374000000604482015290519081900360640190fd5b6000805460ff60a01b19169081905560408051600160a01b90920460ff16151582525133917f5a9dfee0981174e5203ccf9368a8cabb254f9dea6ca43f96b4bbd10c69415d8a919081900360200190a2565b6008546001600160a01b03163314610a13576040805162461bcd60e51b815260206004820152601b6024820152600080516020611927833981519152604482015290519081900360640190fd5b600054600160a01b900460ff1615610a60576040805162461bcd60e51b81526020600482015260196024820152600080516020611989833981519152604482015290519081900360640190fd5b806001600160a01b038116610aaa576040805162461bcd60e51b81526020600482018190526024820152600080516020611969833981519152604482015290519081900360640190fd5b600180546001600160a01b038481166001600160a01b03198316179283905560405191811692339291169083907f4e26e78832abd61f25bef51e06a1c7575a525edb4d215e56d6c4fbbe363cc03390600090a4505050565b600054600160a01b900460ff1681565b6002546001600160a01b03163314610b71576040805162461bcd60e51b815260206004820181905260248201527f7468652073656e646572206973206e6f74207468652070726f68696269746572604482015290519081900360640190fd5b600054600160a01b900460ff1615610bbe576040805162461bcd60e51b81526020600482015260196024820152600080516020611989833981519152604482015290519081900360640190fd5b806001600160a01b038116610c08576040805162461bcd60e51b81526020600482018190526024820152600080516020611969833981519152604482015290519081900360640190fd5b6001600160a01b038216600090815260036020526040902054829060ff16610c77576040805162461bcd60e51b815260206004820152601e60248201527f74686973206163636f756e74206973206e6f742070726f686962697465640000604482015290519081900360640190fd5b6001600160a01b0383166000818152600360209081526040808320805460ff191690558051928352513393927fab0ab2fa6ff81b10c5afab4726a665d4379f2d0acaaafbe4c4d737ade05a8e4692908290030190a3505050565b6001600160a01b031660009081526004602052604090205490565b6000546001600160a01b03163314610d4b576040805162461bcd60e51b815260206004820152601c60248201527f7468652073656e646572206973206e6f74207468652070617573657200000000604482015290519081900360640190fd5b600054600160a01b900460ff1615610d98576040805162461bcd60e51b81526020600482015260196024820152600080516020611989833981519152604482015290519081900360640190fd5b6000805460ff60a01b1916600160a01b90811791829055604080519190920460ff1615158152905133917f5a9dfee0981174e5203ccf9368a8cabb254f9dea6ca43f96b4bbd10c69415d8a919081900360200190a2565b600054600160a01b900460ff1615610e3c576040805162461bcd60e51b81526020600482015260196024820152600080516020611989833981519152604482015290519081900360640190fd5b6007546001600160a01b03163314610e9b576040805162461bcd60e51b815260206004820152601b60248201527f7468652073656e646572206973206e6f74207468652077697065720000000000604482015290519081900360640190fd5b6001600160a01b038116600090815260036020526040902054819060ff16610f0a576040805162461bcd60e51b815260206004820152601e60248201527f74686973206163636f756e74206973206e6f742070726f686962697465640000604482015290519081900360640190fd5b6000610f1583610cd1565b9050610f218382611664565b6040805182815290516001600160a01b038516917f2d2c7da251295f4d722a8ddaf337627952c957ce21b2757c852e47fe81b3a2af919081900360200190a2505050565b6000546001600160a01b031681565b3360008181526005602090815260408083206001600160a01b038716845290915281205490916104b191859061061e908663ffffffff6115a616565b60006104b1338484611462565b6002546001600160a01b0316331461101c576040805162461bcd60e51b815260206004820181905260248201527f7468652073656e646572206973206e6f74207468652070726f68696269746572604482015290519081900360640190fd5b600054600160a01b900460ff1615611069576040805162461bcd60e51b81526020600482015260196024820152600080516020611989833981519152604482015290519081900360640190fd5b806001600160a01b0381166110b3576040805162461bcd60e51b81526020600482018190526024820152600080516020611969833981519152604482015290519081900360640190fd5b6001600160a01b038216600090815260036020526040902054829060ff1615611123576040805162461bcd60e51b815260206004820152601a60248201527f74686973206163636f756e742069732070726f68696269746564000000000000604482015290519081900360640190fd5b6001600160a01b038316600081815260036020908152604091829020805460ff191660011790819055825160ff919091161515815291513393927fab0ab2fa6ff81b10c5afab4726a665d4379f2d0acaaafbe4c4d737ade05a8e4692908290030190a3505050565b6008546001600160a01b031633146111d8576040805162461bcd60e51b815260206004820152601b6024820152600080516020611927833981519152604482015290519081900360640190fd5b600054600160a01b900460ff1615611225576040805162461bcd60e51b81526020600482015260196024820152600080516020611989833981519152604482015290519081900360640190fd5b806001600160a01b03811661126f576040805162461bcd60e51b81526020600482018190526024820152600080516020611969833981519152604482015290519081900360640190fd5b600280546001600160a01b038481166001600160a01b03198316179283905560405191811692339291169083907f85ae865187b1d7c0069f5fab638cbfcb8f3f9d23bc090e1084abc0dc42def0d290600090a4505050565b6007546001600160a01b031681565b6001600160a01b03918216600090815260056020908152604080832093909416825291909152205490565b6002546001600160a01b031681565b6008546001600160a01b031681565b6001600160a01b0383166113645760405162461bcd60e51b81526004018080602001828103825260248152602001806119ef6024913960400191505060405180910390fd5b6001600160a01b0382166113a95760405162461bcd60e51b81526004018080602001828103825260228152602001806119476022913960400191505060405180910390fd5b6001600160a01b03808416600081815260056020908152604080832094871680845294825291829020859055815185815291517f8c5be1e5ebec7d5bd14f71427d1e84f3dd0314c0f7b2291e5b200ac8c7c3b9259281900390910190a3505050565b604080516001600160a01b038416602482015260448082018490528251808303909101815260649091019091526020810180516001600160e01b031663a9059cbb60e01b17905261145d90849061173f565b505050565b6001600160a01b0383166114a75760405162461bcd60e51b81526004018080602001828103825260258152602001806119ca6025913960400191505060405180910390fd5b6001600160a01b0382166114ec5760405162461bcd60e51b81526004018080602001828103825260238152602001806119046023913960400191505060405180910390fd5b6001600160a01b038316600090815260046020526040902054611515908263ffffffff6115a616565b6001600160a01b03808516600090815260046020526040808220939093559084168152205461154a908263ffffffff61160316565b6001600160a01b0380841660008181526004602090815260409182902094909455805185815290519193928716927fddf252ad1be2c89b69c2b068fc378daa952ba7f163c4a11628f55a4df523b3ef92918290030190a3505050565b6000828211156115fd576040805162461bcd60e51b815260206004820152601e60248201527f536166654d6174683a207375627472616374696f6e206f766572666c6f770000604482015290519081900360640190fd5b50900390565b60008282018381101561165d576040805162461bcd60e51b815260206004820152601b60248201527f536166654d6174683a206164646974696f6e206f766572666c6f770000000000604482015290519081900360640190fd5b9392505050565b6001600160a01b0382166116a95760405162461bcd60e51b81526004018080602001828103825260218152602001806119a96021913960400191505060405180910390fd5b6006546116bc908263ffffffff6115a616565b6006556001600160a01b0382166000908152600460205260409020546116e8908263ffffffff6115a616565b6001600160a01b0383166000818152600460209081526040808320949094558351858152935191937fddf252ad1be2c89b69c2b068fc378daa952ba7f163c4a11628f55a4df523b3ef929081900390910190a35050565b611751826001600160a01b03166118fd565b6117a2576040805162461bcd60e51b815260206004820152601f60248201527f5361666545524332303a2063616c6c20746f206e6f6e2d636f6e747261637400604482015290519081900360640190fd5b60006060836001600160a01b0316836040518082805190602001908083835b602083106117e05780518252601f1990920191602091820191016117c1565b6001836020036101000a0380198251168184511680821785525050505050509050019150506000604051808303816000865af19150503d8060008114611842576040519150601f19603f3d011682016040523d82523d6000602084013e611847565b606091505b50915091508161189e576040805162461bcd60e51b815260206004820181905260248201527f5361666545524332303a206c6f772d6c6576656c2063616c6c206661696c6564604482015290519081900360640190fd5b8051156118f7578080602001905160208110156118ba57600080fd5b50516118f75760405162461bcd60e51b815260040180806020018281038252602a815260200180611a13602a913960400191505060405180910390fd5b50505050565b3b15159056fe45524332303a207472616e7366657220746f20746865207a65726f20616464726573737468652073656e646572206973206e6f74207468652061646d696e000000000045524332303a20617070726f766520746f20746865207a65726f206164647265737374686973206163636f756e7420697320746865207a65726f20616464726573737468697320697320612070617573656420636f6e74726163740000000000000045524332303a206275726e2066726f6d20746865207a65726f206164647265737345524332303a207472616e736665722066726f6d20746865207a65726f206164647265737345524332303a20617070726f76652066726f6d20746865207a65726f20616464726573735361666545524332303a204552433230206f7065726174696f6e20646964206e6f742073756363656564a265627a7a7231582077b22971d0c6ac2165df7e9bce255dddea0b95d8252e6481b6ffbf3846197d0f64736f6c63430005100032",
  "source": "pragma solidity 0.5.16;\n\nimport \"./Wiper.sol\";\nimport \"./Rescuer.sol\";\n\ncontract Admin is Rescuer, Wiper {\n    address public admin = address(0);\n\n    event PauserChanged(address indexed oldPauser, address indexed newPauser, address indexed sender);\n    event ProhibiterChanged(address indexed oldProhibiter, address indexed newProhibiter, address indexed sender);\n    event WiperChanged(address indexed oldWiper, address indexed newWiper, address indexed sender);\n    event RescuerChanged(address indexed oldRescuer, address indexed newRescuer, address indexed sender);\n\n    modifier onlyAdmin() {\n        require(msg.sender == admin, \"the sender is not the admin\");\n        _;\n    }\n\n    /**\n     * Change Pauser\n     * @dev \"whenNotPaused\" modifier should not be used here\n     */\n    function changePauser(address _account) public onlyAdmin isNotZeroAddress(_account) {\n        address old = pauser;\n        pauser = _account;\n        emit PauserChanged(old, pauser, msg.sender);\n    }\n\n    function changeProhibiter(address _account) public onlyAdmin whenNotPaused isNotZeroAddress(_account) {\n        address old = prohibiter;\n        prohibiter = _account;\n        emit ProhibiterChanged(old, prohibiter, msg.sender);\n    }\n\n    function changeWiper(address _account) public onlyAdmin whenNotPaused isNotZeroAddress(_account) {\n        address old = wiper;\n        wiper = _account;\n        emit WiperChanged(old, wiper, msg.sender);\n    }\n\n    function changeRescuer(address _account) public onlyAdmin whenNotPaused isNotZeroAddress(_account) {\n        address old = rescuer;\n        rescuer = _account;\n        emit RescuerChanged(old, rescuer, msg.sender);\n    }\n}",
  "sourcePath": "/Users/usr0102794/gyen2022/contracts-2024/contracts/contracts/Roles/Admin.sol",
  "compiler": {
    "name": "solc",
    "version": "0.5.16+commit.9c3226ce.Emscripten.clang"
  },
  "schemaVersion": "3.0.16",
  "updatedAt": "2024-03-26T14:29:45.081Z",
  "devdoc": {
    "methods": {
      "allowance(address,address)": {
        "details": "See `IERC20.allowance`."
      },
      "approve(address,uint256)": {
        "details": "See `IERC20.approve`.     * Requirements:     * - `spender` cannot be the zero address."
      },
      "balanceOf(address)": {
        "details": "See `IERC20.balanceOf`."
      },
      "changePauser(address)": {
        "details": "\"whenNotPaused\" modifier should not be used here"
      },
      "decreaseAllowance(address,uint256)": {
        "details": "Atomically decreases the allowance granted to `spender` by the caller.     * This is an alternative to `approve` that can be used as a mitigation for problems described in `IERC20.approve`.     * Emits an `Approval` event indicating the updated allowance.     * Requirements:     * - `spender` cannot be the zero address. - `spender` must have allowance for the caller of at least `subtractedValue`."
      },
      "increaseAllowance(address,uint256)": {
        "details": "Atomically increases the allowance granted to `spender` by the caller.     * This is an alternative to `approve` that can be used as a mitigation for problems described in `IERC20.approve`.     * Emits an `Approval` event indicating the updated allowance.     * Requirements:     * - `spender` cannot be the zero address."
      },
      "totalSupply()": {
        "details": "See `IERC20.totalSupply`."
      },
      "transfer(address,uint256)": {
        "details": "See `IERC20.transfer`.     * Requirements:     * - `recipient` cannot be the zero address. - the caller must have a balance of at least `amount`."
      },
      "transferFrom(address,address,uint256)": {
        "details": "See `IERC20.transferFrom`.     * Emits an `Approval` event indicating the updated allowance. This is not required by the EIP. See the note at the beginning of `ERC20`;     * Requirements: - `sender` and `recipient` cannot be the zero address. - `sender` must have a balance of at least `value`. - the caller must have allowance for `sender`'s tokens of at least `amount`."
      }
    }
  },
  "userdoc": {
    "methods": {
      "changePauser(address)": {
        "notice": "Change Pauser"
      }
    }
  }
}