{
  "contractName": "Admin",
  "abi": [
    {
      "constant": true,
      "inputs": [
        {
          "name": "",
          "type": "address"
        }
      ],
      "name": "prohibiteds",
      "outputs": [
        {
          "name": "",
          "type": "bool"
        }
      ],
      "payable": false,
      "stateMutability": "view",
      "type": "function"
    },
    {
      "constant": false,
      "inputs": [],
      "name": "unpause",
      "outputs": [],
      "payable": false,
      "stateMutability": "nonpayable",
      "type": "function"
    },
    {
      "constant": true,
      "inputs": [],
      "name": "capper",
      "outputs": [
        {
          "name": "",
          "type": "address"
        }
      ],
      "payable": false,
      "stateMutability": "view",
      "type": "function"
    },
    {
      "constant": true,
      "inputs": [],
      "name": "paused",
      "outputs": [
        {
          "name": "",
          "type": "bool"
        }
      ],
      "payable": false,
      "stateMutability": "view",
      "type": "function"
    },
    {
      "constant": true,
      "inputs": [],
      "name": "capacity",
      "outputs": [
        {
          "name": "",
          "type": "uint256"
        }
      ],
      "payable": false,
      "stateMutability": "view",
      "type": "function"
    },
    {
      "constant": false,
      "inputs": [
        {
          "name": "_account",
          "type": "address"
        }
      ],
      "name": "unprohibit",
      "outputs": [],
      "payable": false,
      "stateMutability": "nonpayable",
      "type": "function"
    },
    {
      "constant": false,
      "inputs": [],
      "name": "pause",
      "outputs": [],
      "payable": false,
      "stateMutability": "nonpayable",
      "type": "function"
    },
    {
      "constant": true,
      "inputs": [],
      "name": "pauser",
      "outputs": [
        {
          "name": "",
          "type": "address"
        }
      ],
      "payable": false,
      "stateMutability": "view",
      "type": "function"
    },
    {
      "constant": false,
      "inputs": [
        {
          "name": "_account",
          "type": "address"
        }
      ],
      "name": "prohibit",
      "outputs": [],
      "payable": false,
      "stateMutability": "nonpayable",
      "type": "function"
    },
    {
      "constant": true,
      "inputs": [],
      "name": "prohibiter",
      "outputs": [
        {
          "name": "",
          "type": "address"
        }
      ],
      "payable": false,
      "stateMutability": "view",
      "type": "function"
    },
    {
      "constant": true,
      "inputs": [],
      "name": "admin",
      "outputs": [
        {
          "name": "",
          "type": "address"
        }
      ],
      "payable": false,
      "stateMutability": "view",
      "type": "function"
    },
    {
      "anonymous": false,
      "inputs": [
        {
          "indexed": true,
          "name": "oldCapper",
          "type": "address"
        },
        {
          "indexed": true,
          "name": "newCapper",
          "type": "address"
        },
        {
          "indexed": true,
          "name": "sender",
          "type": "address"
        }
      ],
      "name": "CapperChanged",
      "type": "event"
    },
    {
      "anonymous": false,
      "inputs": [
        {
          "indexed": true,
          "name": "oldPauser",
          "type": "address"
        },
        {
          "indexed": true,
          "name": "newPauser",
          "type": "address"
        },
        {
          "indexed": true,
          "name": "sender",
          "type": "address"
        }
      ],
      "name": "PauserChanged",
      "type": "event"
    },
    {
      "anonymous": false,
      "inputs": [
        {
          "indexed": true,
          "name": "oldProhibiter",
          "type": "address"
        },
        {
          "indexed": true,
          "name": "newProhibiter",
          "type": "address"
        },
        {
          "indexed": true,
          "name": "sender",
          "type": "address"
        }
      ],
      "name": "ProhibiterChanged",
      "type": "event"
    },
    {
      "anonymous": false,
      "inputs": [
        {
          "indexed": false,
          "name": "prohibited",
          "type": "address"
        },
        {
          "indexed": false,
          "name": "status",
          "type": "bool"
        },
        {
          "indexed": false,
          "name": "sender",
          "type": "address"
        }
      ],
      "name": "Prohibition",
      "type": "event"
    },
    {
      "anonymous": false,
      "inputs": [
        {
          "indexed": true,
          "name": "newCapacity",
          "type": "uint256"
        },
        {
          "indexed": true,
          "name": "sender",
          "type": "address"
        }
      ],
      "name": "Cap",
      "type": "event"
    },
    {
      "anonymous": false,
      "inputs": [
        {
          "indexed": false,
          "name": "status",
          "type": "bool"
        },
        {
          "indexed": false,
          "name": "sender",
          "type": "address"
        }
      ],
      "name": "Pause",
      "type": "event"
    },
    {
      "constant": false,
      "inputs": [
        {
          "name": "_account",
          "type": "address"
        }
      ],
      "name": "changeCapper",
      "outputs": [],
      "payable": false,
      "stateMutability": "nonpayable",
      "type": "function"
    },
    {
      "constant": false,
      "inputs": [
        {
          "name": "_account",
          "type": "address"
        }
      ],
      "name": "changePauser",
      "outputs": [],
      "payable": false,
      "stateMutability": "nonpayable",
      "type": "function"
    },
    {
      "constant": false,
      "inputs": [
        {
          "name": "_account",
          "type": "address"
        }
      ],
      "name": "changeProhibiter",
      "outputs": [],
      "payable": false,
      "stateMutability": "nonpayable",
      "type": "function"
    }
  ],
  "bytecode": "0x6080604052600080546001600160a81b0319168155600155600280546001600160a01b0319908116909155600380548216905560058054909116905534801561004757600080fd5b50610cbd806100576000396000f3fe608060405234801561001057600080fd5b50600436106100ea5760003560e01c80638456cb591161008c578063c4e1ccf211610066578063c4e1ccf2146101fb578063cffdd46c14610221578063dd75049b14610247578063f851a4401461024f576100ea565b80638456cb59146101c55780639fd0506d146101cd578063b0e71766146101d5576100ea565b806350a6aaf4116100c857806350a6aaf4146101595780635c975abb1461017d5780635cfc1a5114610185578063664dc7241461019f576100ea565b80632ad3ed6d146100ef5780632cd271e7146101295780633f4ba83a14610151575b600080fd5b6101156004803603602081101561010557600080fd5b50356001600160a01b0316610257565b604080519115158252519081900360200190f35b61014f6004803603602081101561013f57600080fd5b50356001600160a01b031661026c565b005b61014f610372565b61016161048e565b604080516001600160a01b039092168252519081900360200190f35b61011561049d565b61018d6104ad565b60408051918252519081900360200190f35b61014f600480360360208110156101b557600080fd5b50356001600160a01b03166104b3565b61014f610688565b610161610798565b61014f600480360360208110156101eb57600080fd5b50356001600160a01b03166107a7565b61014f6004803603602081101561021157600080fd5b50356001600160a01b03166108fe565b61014f6004803603602081101561023757600080fd5b50356001600160a01b0316610adc565b610161610c33565b610161610c42565b60046020526000908152604090205460ff1681565b6005546001600160a01b031633146102ce5760408051600160e51b62461bcd02815260206004820152601b60248201527f7468652073656e646572206973206e6f74207468652061646d696e0000000000604482015290519081900360640190fd5b806001600160a01b03811661031b5760408051600160e51b62461bcd0281526020600482018190526024820152600080516020610c52833981519152604482015290519081900360640190fd5b600080546001600160a01b038481166001600160a01b0319831617808455604051928216933393919092169184917f8b1ee37fa817a066fe12c7c9bf109c0c9f8f03ef0a5cfe0c03d5196e8c2e46579190a4505050565b6000546001600160a01b031633146103d45760408051600160e51b62461bcd02815260206004820152601c60248201527f7468652073656e646572206973206e6f74207468652070617573657200000000604482015290519081900360640190fd5b600054600160a01b900460ff166104355760408051600160e51b62461bcd02815260206004820152601d60248201527f74686973206973206e6f7420612070617573656420636f6e7472616374000000604482015290519081900360640190fd5b60008054600160a01b60ff0219169081905560408051600160a01b90920460ff161515825233602083015280517f5a9dfee0981174e5203ccf9368a8cabb254f9dea6ca43f96b4bbd10c69415d8a9281900390910190a1565b6002546001600160a01b031681565b600054600160a01b900460ff1681565b60015481565b6003546001600160a01b031633146105155760408051600160e51b62461bcd02815260206004820181905260248201527f7468652073656e646572206973206e6f74207468652070726f68696269746572604482015290519081900360640190fd5b600054600160a01b900460ff16156105655760408051600160e51b62461bcd0281526020600482015260196024820152600080516020610c72833981519152604482015290519081900360640190fd5b806001600160a01b0381166105b25760408051600160e51b62461bcd0281526020600482018190526024820152600080516020610c52833981519152604482015290519081900360640190fd5b6001600160a01b038216600090815260046020526040902054829060ff166106245760408051600160e51b62461bcd02815260206004820181905260248201527f74686973206163636f756e74206973206e6f7420612070726f68696269746564604482015290519081900360640190fd5b6001600160a01b0383166000818152600460209081526040808320805460ff191690558051938452908301919091523382820152517fab0ab2fa6ff81b10c5afab4726a665d4379f2d0acaaafbe4c4d737ade05a8e469181900360600190a1505050565b6000546001600160a01b031633146106ea5760408051600160e51b62461bcd02815260206004820152601c60248201527f7468652073656e646572206973206e6f74207468652070617573657200000000604482015290519081900360640190fd5b600054600160a01b900460ff161561073a5760408051600160e51b62461bcd0281526020600482015260196024820152600080516020610c72833981519152604482015290519081900360640190fd5b60008054600160a01b60ff021916600160a01b90811791829055604080519190920460ff161515815233602082015281517f5a9dfee0981174e5203ccf9368a8cabb254f9dea6ca43f96b4bbd10c69415d8a929181900390910190a1565b6000546001600160a01b031681565b6005546001600160a01b031633146108095760408051600160e51b62461bcd02815260206004820152601b60248201527f7468652073656e646572206973206e6f74207468652061646d696e0000000000604482015290519081900360640190fd5b600054600160a01b900460ff16156108595760408051600160e51b62461bcd0281526020600482015260196024820152600080516020610c72833981519152604482015290519081900360640190fd5b806001600160a01b0381166108a65760408051600160e51b62461bcd0281526020600482018190526024820152600080516020610c52833981519152604482015290519081900360640190fd5b600280546001600160a01b038481166001600160a01b03198316179283905560405191811692339291169083907fc4d5c17597bd0c5594a7545f36de213c6a58e2f235b165887331fe368618197090600090a4505050565b6003546001600160a01b031633146109605760408051600160e51b62461bcd02815260206004820181905260248201527f7468652073656e646572206973206e6f74207468652070726f68696269746572604482015290519081900360640190fd5b600054600160a01b900460ff16156109b05760408051600160e51b62461bcd0281526020600482015260196024820152600080516020610c72833981519152604482015290519081900360640190fd5b806001600160a01b0381166109fd5760408051600160e51b62461bcd0281526020600482018190526024820152600080516020610c52833981519152604482015290519081900360640190fd5b6001600160a01b038216600090815260046020526040902054829060ff1615610a705760408051600160e51b62461bcd02815260206004820152601c60248201527f74686973206163636f756e7420697320612070726f6869626974656400000000604482015290519081900360640190fd5b6001600160a01b038316600081815260046020908152604091829020805460ff191660011790819055825193845260ff161515908301523382820152517fab0ab2fa6ff81b10c5afab4726a665d4379f2d0acaaafbe4c4d737ade05a8e469181900360600190a1505050565b6005546001600160a01b03163314610b3e5760408051600160e51b62461bcd02815260206004820152601b60248201527f7468652073656e646572206973206e6f74207468652061646d696e0000000000604482015290519081900360640190fd5b600054600160a01b900460ff1615610b8e5760408051600160e51b62461bcd0281526020600482015260196024820152600080516020610c72833981519152604482015290519081900360640190fd5b806001600160a01b038116610bdb5760408051600160e51b62461bcd0281526020600482018190526024820152600080516020610c52833981519152604482015290519081900360640190fd5b600380546001600160a01b038481166001600160a01b03198316179283905560405191811692339291169083907f85ae865187b1d7c0069f5fab638cbfcb8f3f9d23bc090e1084abc0dc42def0d290600090a4505050565b6003546001600160a01b031681565b6005546001600160a01b03168156fe74686973206163636f756e7420697320746865207a65726f20616464726573737468697320697320612070617573656420636f6e747261637400000000000000a165627a7a72305820e0d416e6e66676130e87e934f91f031b30a230d083c69166cc840b2c73e0a4680029",
  "source": "pragma solidity ^0.5.8;\n\nimport \"./Capper.sol\";\nimport \"./Pauser.sol\";\nimport \"./Prohibiter.sol\";\n\ncontract Admin is Capper, Prohibiter {\n    address public admin = address(0);\n\n    event CapperChanged(address indexed oldCapper, address indexed newCapper, address indexed sender);\n    event PauserChanged(address indexed oldPauser, address indexed newPauser, address indexed sender);\n    event ProhibiterChanged(address indexed oldProhibiter, address indexed newProhibiter, address indexed sender);\n    \n    modifier onlyAdmin() {\n        require(msg.sender == admin, \"the sender is not the admin\");\n        _;\n    }\n\n    function changeCapper(address _account) public onlyAdmin whenNotPaused isNotZeroAddress(_account) {\n        address old = capper;\n        capper = _account;\n        emit CapperChanged(old, capper, msg.sender);\n    }\n\n    function changePauser(address _account) public onlyAdmin /* whenNotPaused */ isNotZeroAddress(_account) {\n        address old = pauser;\n        pauser = _account;\n        emit PauserChanged(old, pauser, msg.sender);\n    }\n\n    function changeProhibiter(address _account) public onlyAdmin whenNotPaused isNotZeroAddress(_account) {\n        address old = prohibiter;\n        prohibiter = _account;\n        emit ProhibiterChanged(old, prohibiter, msg.sender);\n    }\n}",
  "sourcePath": "/Users/usr0101757/Projects/GYEN/gyen-solidity/contracts/Roles/Admin.sol",
  "compiler": {
    "name": "solc",
    "version": "0.5.8+commit.23d335f2.Emscripten.clang"
  },
  "schemaVersion": "3.0.16",
  "updatedAt": "2019-10-10T07:00:16.457Z",
  "devdoc": {
    "methods": {}
  },
  "userdoc": {
    "methods": {}
  }
}