{
  "contractName": "ArbToken_v1",
  "abi": [
    {
      "anonymous": false,
      "inputs": [
        {
          "indexed": true,
          "internalType": "address",
          "name": "oldAdmin",
          "type": "address"
        },
        {
          "indexed": true,
          "internalType": "address",
          "name": "newAdmin",
          "type": "address"
        },
        {
          "indexed": true,
          "internalType": "address",
          "name": "sender",
          "type": "address"
        }
      ],
      "name": "AdminChanged",
      "type": "event"
    },
    {
      "anonymous": false,
      "inputs": [
        {
          "indexed": true,
          "internalType": "address",
          "name": "owner",
          "type": "address"
        },
        {
          "indexed": true,
          "internalType": "address",
          "name": "spender",
          "type": "address"
        },
        {
          "indexed": false,
          "internalType": "uint256",
          "name": "value",
          "type": "uint256"
        }
      ],
      "name": "Approval",
      "type": "event"
    },
    {
      "anonymous": false,
      "inputs": [
        {
          "indexed": true,
          "internalType": "address",
          "name": "burnee",
          "type": "address"
        },
        {
          "indexed": false,
          "internalType": "uint256",
          "name": "amount",
          "type": "uint256"
        },
        {
          "indexed": true,
          "internalType": "address",
          "name": "sender",
          "type": "address"
        }
      ],
      "name": "Burn",
      "type": "event"
    },
    {
      "anonymous": false,
      "inputs": [
        {
          "indexed": true,
          "internalType": "address",
          "name": "mintee",
          "type": "address"
        },
        {
          "indexed": false,
          "internalType": "uint256",
          "name": "amount",
          "type": "uint256"
        },
        {
          "indexed": true,
          "internalType": "address",
          "name": "sender",
          "type": "address"
        }
      ],
      "name": "Mint",
      "type": "event"
    },
    {
      "anonymous": false,
      "inputs": [
        {
          "indexed": true,
          "internalType": "address",
          "name": "oldOwner",
          "type": "address"
        },
        {
          "indexed": true,
          "internalType": "address",
          "name": "newOwner",
          "type": "address"
        },
        {
          "indexed": true,
          "internalType": "address",
          "name": "sender",
          "type": "address"
        }
      ],
      "name": "OwnerChanged",
      "type": "event"
    },
    {
      "anonymous": false,
      "inputs": [
        {
          "indexed": false,
          "internalType": "bool",
          "name": "status",
          "type": "bool"
        },
        {
          "indexed": true,
          "internalType": "address",
          "name": "sender",
          "type": "address"
        }
      ],
      "name": "Pause",
      "type": "event"
    },
    {
      "anonymous": false,
      "inputs": [
        {
          "indexed": true,
          "internalType": "address",
          "name": "oldPauser",
          "type": "address"
        },
        {
          "indexed": true,
          "internalType": "address",
          "name": "newPauser",
          "type": "address"
        },
        {
          "indexed": true,
          "internalType": "address",
          "name": "sender",
          "type": "address"
        }
      ],
      "name": "PauserChanged",
      "type": "event"
    },
    {
      "anonymous": false,
      "inputs": [
        {
          "indexed": true,
          "internalType": "address",
          "name": "oldProhibiter",
          "type": "address"
        },
        {
          "indexed": true,
          "internalType": "address",
          "name": "newProhibiter",
          "type": "address"
        },
        {
          "indexed": true,
          "internalType": "address",
          "name": "sender",
          "type": "address"
        }
      ],
      "name": "ProhibiterChanged",
      "type": "event"
    },
    {
      "anonymous": false,
      "inputs": [
        {
          "indexed": true,
          "internalType": "address",
          "name": "prohibited",
          "type": "address"
        },
        {
          "indexed": false,
          "internalType": "bool",
          "name": "status",
          "type": "bool"
        },
        {
          "indexed": true,
          "internalType": "address",
          "name": "sender",
          "type": "address"
        }
      ],
      "name": "Prohibition",
      "type": "event"
    },
    {
      "anonymous": false,
      "inputs": [
        {
          "indexed": true,
          "internalType": "contract IERC20",
          "name": "tokenAddr",
          "type": "address"
        },
        {
          "indexed": true,
          "internalType": "address",
          "name": "toAddr",
          "type": "address"
        },
        {
          "indexed": false,
          "internalType": "uint256",
          "name": "amount",
          "type": "uint256"
        }
      ],
      "name": "Rescue",
      "type": "event"
    },
    {
      "anonymous": false,
      "inputs": [
        {
          "indexed": true,
          "internalType": "address",
          "name": "oldRescuer",
          "type": "address"
        },
        {
          "indexed": true,
          "internalType": "address",
          "name": "newRescuer",
          "type": "address"
        },
        {
          "indexed": true,
          "internalType": "address",
          "name": "sender",
          "type": "address"
        }
      ],
      "name": "RescuerChanged",
      "type": "event"
    },
    {
      "anonymous": false,
      "inputs": [
        {
          "indexed": true,
          "internalType": "address",
          "name": "from",
          "type": "address"
        },
        {
          "indexed": true,
          "internalType": "address",
          "name": "to",
          "type": "address"
        },
        {
          "indexed": false,
          "internalType": "uint256",
          "name": "value",
          "type": "uint256"
        }
      ],
      "name": "Transfer",
      "type": "event"
    },
    {
      "anonymous": false,
      "inputs": [
        {
          "indexed": true,
          "internalType": "address",
          "name": "addr",
          "type": "address"
        },
        {
          "indexed": false,
          "internalType": "uint256",
          "name": "amount",
          "type": "uint256"
        }
      ],
      "name": "Wipe",
      "type": "event"
    },
    {
      "anonymous": false,
      "inputs": [
        {
          "indexed": true,
          "internalType": "address",
          "name": "oldWiper",
          "type": "address"
        },
        {
          "indexed": true,
          "internalType": "address",
          "name": "newWiper",
          "type": "address"
        },
        {
          "indexed": true,
          "internalType": "address",
          "name": "sender",
          "type": "address"
        }
      ],
      "name": "WiperChanged",
      "type": "event"
    },
    {
      "constant": true,
      "inputs": [],
      "name": "PERMIT_TYPEHASH",
      "outputs": [
        {
          "internalType": "bytes32",
          "name": "",
          "type": "bytes32"
        }
      ],
      "payable": false,
      "stateMutability": "view",
      "type": "function"
    },
    {
      "constant": true,
      "inputs": [],
      "name": "admin",
      "outputs": [
        {
          "internalType": "address",
          "name": "",
          "type": "address"
        }
      ],
      "payable": false,
      "stateMutability": "view",
      "type": "function"
    },
    {
      "constant": true,
      "inputs": [
        {
          "internalType": "address",
          "name": "owner",
          "type": "address"
        },
        {
          "internalType": "address",
          "name": "spender",
          "type": "address"
        }
      ],
      "name": "allowance",
      "outputs": [
        {
          "internalType": "uint256",
          "name": "",
          "type": "uint256"
        }
      ],
      "payable": false,
      "stateMutability": "view",
      "type": "function"
    },
    {
      "constant": false,
      "inputs": [
        {
          "internalType": "address",
          "name": "spender",
          "type": "address"
        },
        {
          "internalType": "uint256",
          "name": "value",
          "type": "uint256"
        }
      ],
      "name": "approve",
      "outputs": [
        {
          "internalType": "bool",
          "name": "",
          "type": "bool"
        }
      ],
      "payable": false,
      "stateMutability": "nonpayable",
      "type": "function"
    },
    {
      "constant": true,
      "inputs": [
        {
          "internalType": "address",
          "name": "account",
          "type": "address"
        }
      ],
      "name": "balanceOf",
      "outputs": [
        {
          "internalType": "uint256",
          "name": "",
          "type": "uint256"
        }
      ],
      "payable": false,
      "stateMutability": "view",
      "type": "function"
    },
    {
      "constant": false,
      "inputs": [
        {
          "internalType": "address",
          "name": "_account",
          "type": "address"
        }
      ],
      "name": "changeAdmin",
      "outputs": [],
      "payable": false,
      "stateMutability": "nonpayable",
      "type": "function"
    },
    {
      "constant": false,
      "inputs": [
        {
          "internalType": "address",
          "name": "_account",
          "type": "address"
        }
      ],
      "name": "changeOwner",
      "outputs": [],
      "payable": false,
      "stateMutability": "nonpayable",
      "type": "function"
    },
    {
      "constant": false,
      "inputs": [
        {
          "internalType": "address",
          "name": "_account",
          "type": "address"
        }
      ],
      "name": "changePauser",
      "outputs": [],
      "payable": false,
      "stateMutability": "nonpayable",
      "type": "function"
    },
    {
      "constant": false,
      "inputs": [
        {
          "internalType": "address",
          "name": "_account",
          "type": "address"
        }
      ],
      "name": "changeProhibiter",
      "outputs": [],
      "payable": false,
      "stateMutability": "nonpayable",
      "type": "function"
    },
    {
      "constant": false,
      "inputs": [
        {
          "internalType": "address",
          "name": "_account",
          "type": "address"
        }
      ],
      "name": "changeRescuer",
      "outputs": [],
      "payable": false,
      "stateMutability": "nonpayable",
      "type": "function"
    },
    {
      "constant": false,
      "inputs": [
        {
          "internalType": "address",
          "name": "_account",
          "type": "address"
        }
      ],
      "name": "changeWiper",
      "outputs": [],
      "payable": false,
      "stateMutability": "nonpayable",
      "type": "function"
    },
    {
      "constant": true,
      "inputs": [],
      "name": "decimals",
      "outputs": [
        {
          "internalType": "uint8",
          "name": "",
          "type": "uint8"
        }
      ],
      "payable": false,
      "stateMutability": "view",
      "type": "function"
    },
    {
      "constant": false,
      "inputs": [
        {
          "internalType": "address",
          "name": "spender",
          "type": "address"
        },
        {
          "internalType": "uint256",
          "name": "subtractedValue",
          "type": "uint256"
        }
      ],
      "name": "decreaseAllowance",
      "outputs": [
        {
          "internalType": "bool",
          "name": "",
          "type": "bool"
        }
      ],
      "payable": false,
      "stateMutability": "nonpayable",
      "type": "function"
    },
    {
      "constant": true,
      "inputs": [],
      "name": "deploymentChainId",
      "outputs": [
        {
          "internalType": "uint256",
          "name": "",
          "type": "uint256"
        }
      ],
      "payable": false,
      "stateMutability": "view",
      "type": "function"
    },
    {
      "constant": false,
      "inputs": [
        {
          "internalType": "address",
          "name": "spender",
          "type": "address"
        },
        {
          "internalType": "uint256",
          "name": "addedValue",
          "type": "uint256"
        }
      ],
      "name": "increaseAllowance",
      "outputs": [
        {
          "internalType": "bool",
          "name": "",
          "type": "bool"
        }
      ],
      "payable": false,
      "stateMutability": "nonpayable",
      "type": "function"
    },
    {
      "constant": true,
      "inputs": [],
      "name": "l1Address",
      "outputs": [
        {
          "internalType": "address",
          "name": "",
          "type": "address"
        }
      ],
      "payable": false,
      "stateMutability": "view",
      "type": "function"
    },
    {
      "constant": true,
      "inputs": [],
      "name": "l2Gateway",
      "outputs": [
        {
          "internalType": "address",
          "name": "",
          "type": "address"
        }
      ],
      "payable": false,
      "stateMutability": "view",
      "type": "function"
    },
    {
      "constant": true,
      "inputs": [],
      "name": "name",
      "outputs": [
        {
          "internalType": "string",
          "name": "",
          "type": "string"
        }
      ],
      "payable": false,
      "stateMutability": "view",
      "type": "function"
    },
    {
      "constant": true,
      "inputs": [
        {
          "internalType": "address",
          "name": "",
          "type": "address"
        }
      ],
      "name": "nonces",
      "outputs": [
        {
          "internalType": "uint256",
          "name": "",
          "type": "uint256"
        }
      ],
      "payable": false,
      "stateMutability": "view",
      "type": "function"
    },
    {
      "constant": true,
      "inputs": [],
      "name": "owner",
      "outputs": [
        {
          "internalType": "address",
          "name": "",
          "type": "address"
        }
      ],
      "payable": false,
      "stateMutability": "view",
      "type": "function"
    },
    {
      "constant": false,
      "inputs": [],
      "name": "pause",
      "outputs": [],
      "payable": false,
      "stateMutability": "nonpayable",
      "type": "function"
    },
    {
      "constant": true,
      "inputs": [],
      "name": "paused",
      "outputs": [
        {
          "internalType": "bool",
          "name": "",
          "type": "bool"
        }
      ],
      "payable": false,
      "stateMutability": "view",
      "type": "function"
    },
    {
      "constant": true,
      "inputs": [],
      "name": "pauser",
      "outputs": [
        {
          "internalType": "address",
          "name": "",
          "type": "address"
        }
      ],
      "payable": false,
      "stateMutability": "view",
      "type": "function"
    },
    {
      "constant": false,
      "inputs": [
        {
          "internalType": "address",
          "name": "_account",
          "type": "address"
        }
      ],
      "name": "prohibit",
      "outputs": [],
      "payable": false,
      "stateMutability": "nonpayable",
      "type": "function"
    },
    {
      "constant": true,
      "inputs": [
        {
          "internalType": "address",
          "name": "",
          "type": "address"
        }
      ],
      "name": "prohibiteds",
      "outputs": [
        {
          "internalType": "bool",
          "name": "",
          "type": "bool"
        }
      ],
      "payable": false,
      "stateMutability": "view",
      "type": "function"
    },
    {
      "constant": true,
      "inputs": [],
      "name": "prohibiter",
      "outputs": [
        {
          "internalType": "address",
          "name": "",
          "type": "address"
        }
      ],
      "payable": false,
      "stateMutability": "view",
      "type": "function"
    },
    {
      "constant": false,
      "inputs": [
        {
          "internalType": "contract IERC20",
          "name": "_tokenContract",
          "type": "address"
        },
        {
          "internalType": "address",
          "name": "_to",
          "type": "address"
        },
        {
          "internalType": "uint256",
          "name": "_amount",
          "type": "uint256"
        }
      ],
      "name": "rescue",
      "outputs": [],
      "payable": false,
      "stateMutability": "nonpayable",
      "type": "function"
    },
    {
      "constant": true,
      "inputs": [],
      "name": "rescuer",
      "outputs": [
        {
          "internalType": "address",
          "name": "",
          "type": "address"
        }
      ],
      "payable": false,
      "stateMutability": "view",
      "type": "function"
    },
    {
      "constant": true,
      "inputs": [],
      "name": "symbol",
      "outputs": [
        {
          "internalType": "string",
          "name": "",
          "type": "string"
        }
      ],
      "payable": false,
      "stateMutability": "view",
      "type": "function"
    },
    {
      "constant": true,
      "inputs": [],
      "name": "totalSupply",
      "outputs": [
        {
          "internalType": "uint256",
          "name": "",
          "type": "uint256"
        }
      ],
      "payable": false,
      "stateMutability": "view",
      "type": "function"
    },
    {
      "constant": false,
      "inputs": [],
      "name": "unpause",
      "outputs": [],
      "payable": false,
      "stateMutability": "nonpayable",
      "type": "function"
    },
    {
      "constant": false,
      "inputs": [
        {
          "internalType": "address",
          "name": "_account",
          "type": "address"
        }
      ],
      "name": "unprohibit",
      "outputs": [],
      "payable": false,
      "stateMutability": "nonpayable",
      "type": "function"
    },
    {
      "constant": true,
      "inputs": [],
      "name": "version",
      "outputs": [
        {
          "internalType": "string",
          "name": "",
          "type": "string"
        }
      ],
      "payable": false,
      "stateMutability": "view",
      "type": "function"
    },
    {
      "constant": false,
      "inputs": [
        {
          "internalType": "address",
          "name": "_account",
          "type": "address"
        }
      ],
      "name": "wipe",
      "outputs": [],
      "payable": false,
      "stateMutability": "nonpayable",
      "type": "function"
    },
    {
      "constant": true,
      "inputs": [],
      "name": "wiper",
      "outputs": [
        {
          "internalType": "address",
          "name": "",
          "type": "address"
        }
      ],
      "payable": false,
      "stateMutability": "view",
      "type": "function"
    },
    {
      "constant": false,
      "inputs": [
        {
          "internalType": "string",
          "name": "_name",
          "type": "string"
        },
        {
          "internalType": "string",
          "name": "_symbol",
          "type": "string"
        },
        {
          "internalType": "uint8",
          "name": "_decimals",
          "type": "uint8"
        },
        {
          "internalType": "address",
          "name": "_owner",
          "type": "address"
        },
        {
          "internalType": "address",
          "name": "_admin",
          "type": "address"
        },
        {
          "internalType": "address",
          "name": "_prohibiter",
          "type": "address"
        },
        {
          "internalType": "address",
          "name": "_pauser",
          "type": "address"
        },
        {
          "internalType": "address",
          "name": "_wiper",
          "type": "address"
        },
        {
          "internalType": "address",
          "name": "_rescuer",
          "type": "address"
        },
        {
          "internalType": "address",
          "name": "_l1Address",
          "type": "address"
        },
        {
          "internalType": "address",
          "name": "_l2Gateway",
          "type": "address"
        }
      ],
      "name": "initialize",
      "outputs": [],
      "payable": false,
      "stateMutability": "nonpayable",
      "type": "function"
    },
    {
      "constant": false,
      "inputs": [
        {
          "internalType": "address",
          "name": "_recipient",
          "type": "address"
        },
        {
          "internalType": "uint256",
          "name": "_amount",
          "type": "uint256"
        }
      ],
      "name": "transfer",
      "outputs": [
        {
          "internalType": "bool",
          "name": "",
          "type": "bool"
        }
      ],
      "payable": false,
      "stateMutability": "nonpayable",
      "type": "function"
    },
    {
      "constant": false,
      "inputs": [
        {
          "internalType": "address",
          "name": "_sender",
          "type": "address"
        },
        {
          "internalType": "address",
          "name": "_recipient",
          "type": "address"
        },
        {
          "internalType": "uint256",
          "name": "_amount",
          "type": "uint256"
        }
      ],
      "name": "transferFrom",
      "outputs": [
        {
          "internalType": "bool",
          "name": "",
          "type": "bool"
        }
      ],
      "payable": false,
      "stateMutability": "nonpayable",
      "type": "function"
    },
    {
      "constant": false,
      "inputs": [
        {
          "internalType": "address",
          "name": "account",
          "type": "address"
        },
        {
          "internalType": "uint256",
          "name": "amount",
          "type": "uint256"
        }
      ],
      "name": "bridgeMint",
      "outputs": [],
      "payable": false,
      "stateMutability": "nonpayable",
      "type": "function"
    },
    {
      "constant": false,
      "inputs": [
        {
          "internalType": "address",
          "name": "account",
          "type": "address"
        },
        {
          "internalType": "uint256",
          "name": "amount",
          "type": "uint256"
        }
      ],
      "name": "bridgeBurn",
      "outputs": [],
      "payable": false,
      "stateMutability": "nonpayable",
      "type": "function"
    },
    {
      "constant": true,
      "inputs": [],
      "name": "DOMAIN_SEPARATOR",
      "outputs": [
        {
          "internalType": "bytes32",
          "name": "",
          "type": "bytes32"
        }
      ],
      "payable": false,
      "stateMutability": "view",
      "type": "function"
    },
    {
      "constant": false,
      "inputs": [
        {
          "internalType": "address",
          "name": "owner",
          "type": "address"
        },
        {
          "internalType": "address",
          "name": "spender",
          "type": "address"
        },
        {
          "internalType": "uint256",
          "name": "value",
          "type": "uint256"
        },
        {
          "internalType": "uint256",
          "name": "deadline",
          "type": "uint256"
        },
        {
          "internalType": "uint8",
          "name": "v",
          "type": "uint8"
        },
        {
          "internalType": "bytes32",
          "name": "r",
          "type": "bytes32"
        },
        {
          "internalType": "bytes32",
          "name": "s",
          "type": "bytes32"
        }
      ],
      "name": "permit",
      "outputs": [],
      "payable": false,
      "stateMutability": "nonpayable",
      "type": "function"
    }
  ],
  "bytecode": "0x6080604052603380546001600160a81b0319169055603480546001600160a01b03199081169091556035805482169055603a805482169055603b805482169055603c8054909116905534801561005457600080fd5b5061313f806100646000396000f3fe608060405234801561001057600080fd5b506004361061025e5760003560e01c80637ecebe0011610146578063a6f9dae1116100c3578063cffdd46c11610087578063cffdd46c14610841578063d505accf14610867578063dcb413c8146108b8578063dd62ed3e146108c0578063dd75049b146108ee578063f851a440146108f65761025e565b8063a6f9dae1146107b9578063a9059cbb146107df578063c2eeeebd1461080b578063c4e1ccf214610813578063cd0d0096146108395761025e565b80638fa74a0e1161010a5780638fa74a0e1461074f57806395d89b4114610757578063988749d11461075f5780639fd0506d14610785578063a457c2d71461078d5761025e565b80637ecebe00146106c75780638456cb59146106ed5780638c2a993e146106f55780638da5cb5b146107215780638f283970146107295761025e565b8063313ce567116101df57806354fd4d50116101a357806354fd4d501461061957806359763628146106215780635c975abb14610647578063664dc7241461064f57806370a082311461067557806374f4f5471461069b5761025e565b8063313ce5671461059b5780633644e515146105b957806338a63183146105c157806339509351146105e55780633f4ba83a146106115761025e565b806323b872dd1161022657806323b872dd146104eb5780632ad3ed6d146105215780632cd271e7146105475780632fee80d01461056d57806330adf81f146105935761025e565b806306fdde0314610263578063095ea7b3146102e057806318160ddd14610320578063189179561461033a57806320ff430b146104b5575b600080fd5b61026b6108fe565b6040805160208082528351818301528351919283929083019185019080838360005b838110156102a557818101518382015260200161028d565b50505050905090810190601f1680156102d25780820380516001836020036101000a031916815260200191505b509250505060405180910390f35b61030c600480360360408110156102f657600080fd5b506001600160a01b03813516906020013561098c565b604080519115158252519081900360200190f35b6103286109a2565b60408051918252519081900360200190f35b6104b3600480360361016081101561035157600080fd5b81019060208101813564010000000081111561036c57600080fd5b82018360208201111561037e57600080fd5b803590602001918460018302840111640100000000831117156103a057600080fd5b91908080601f01602080910402602001604051908101604052809392919081815260200183838082843760009201919091525092959493602081019350359150506401000000008111156103f357600080fd5b82018360208201111561040557600080fd5b8035906020019184600183028401116401000000008311171561042757600080fd5b91908080601f0160208091040260200160405190810160405280939291908181526020018383808284376000920191909152509295505050813560ff1692505060208101356001600160a01b039081169160408101358216916060820135811691608081013582169160a082013581169160c081013582169160e08201358116916101000135166109a9565b005b6104b3600480360360608110156104cb57600080fd5b506001600160a01b03813581169160208101359091169060400135610ec2565b61030c6004803603606081101561050157600080fd5b506001600160a01b03813581169160208101359091169060400135610fd8565b61030c6004803603602081101561053757600080fd5b50356001600160a01b031661113a565b6104b36004803603602081101561055d57600080fd5b50356001600160a01b031661114f565b6104b36004803603602081101561058357600080fd5b50356001600160a01b031661123e565b61032861137a565b6105a3611395565b6040805160ff9092168252519081900360200190f35b61032861139e565b6105c96113c4565b604080516001600160a01b039092168252519081900360200190f35b61030c600480360360408110156105fb57600080fd5b506001600160a01b0381351690602001356113d3565b6104b3611414565b61026b611523565b6104b36004803603602081101561063757600080fd5b50356001600160a01b0316611540565b61030c61167c565b6104b36004803603602081101561066557600080fd5b50356001600160a01b031661168c565b6103286004803603602081101561068b57600080fd5b50356001600160a01b031661184b565b6104b3600480360360408110156106b157600080fd5b506001600160a01b038135169060200135611866565b610328600480360360208110156106dd57600080fd5b50356001600160a01b0316611902565b6104b3611914565b6104b36004803603604081101561070b57600080fd5b506001600160a01b038135169060200135611a17565b6105c9611ab3565b6104b36004803603602081101561073f57600080fd5b50356001600160a01b0316611ac2565b6105c9611bc3565b61026b611bd2565b6104b36004803603602081101561077557600080fd5b50356001600160a01b0316611c2d565b6105c9611da3565b61030c600480360360408110156107a357600080fd5b506001600160a01b038135169060200135611db2565b6104b3600480360360208110156107cf57600080fd5b50356001600160a01b0316611dee565b61030c600480360360408110156107f557600080fd5b506001600160a01b038135169060200135611f3c565b6105c9612094565b6104b36004803603602081101561082957600080fd5b50356001600160a01b03166120a8565b610328612264565b6104b36004803603602081101561085757600080fd5b50356001600160a01b031661226a565b6104b3600480360360e081101561087d57600080fd5b506001600160a01b03813581169160208101359091169060408101359060608101359060ff6080820135169060a08101359060c001356123a6565b6105c96125a0565b610328600480360360408110156108d657600080fd5b506001600160a01b03813581169160200135166125af565b6105c96125da565b6105c96125e9565b603d805460408051602060026001851615610100026000190190941693909304601f810184900484028201840190925281815292918301828280156109845780601f1061095957610100808354040283529160200191610984565b820191906000526020600020905b81548152906001019060200180831161096757829003601f168201915b505050505081565b60006109993384846125f8565b50600192915050565b6039545b90565b600054610100900460ff16806109c257506109c26126e4565b806109d0575060005460ff16155b610a0b5760405162461bcd60e51b815260040180806020018281038252602e815260200180613026602e913960400191505060405180910390fd5b600054610100900460ff16158015610a36576000805460ff1961ff0019909116610100171660011790555b6001600160a01b038916610a91576040805162461bcd60e51b815260206004820152601a60248201527f5f6f776e657220697320746865207a65726f2061646472657373000000000000604482015290519081900360640190fd5b6001600160a01b038816610aec576040805162461bcd60e51b815260206004820152601a60248201527f5f61646d696e20697320746865207a65726f2061646472657373000000000000604482015290519081900360640190fd5b6001600160a01b038716610b47576040805162461bcd60e51b815260206004820152601f60248201527f5f70726f6869626974657220697320746865207a65726f206164647265737300604482015290519081900360640190fd5b6001600160a01b038616610ba2576040805162461bcd60e51b815260206004820152601b60248201527f5f70617573657220697320746865207a65726f20616464726573730000000000604482015290519081900360640190fd5b6001600160a01b038516610bfd576040805162461bcd60e51b815260206004820152601a60248201527f5f776970657220697320746865207a65726f2061646472657373000000000000604482015290519081900360640190fd5b6001600160a01b038416610c58576040805162461bcd60e51b815260206004820152601c60248201527f5f7265736375657220697320746865207a65726f206164647265737300000000604482015290519081900360640190fd5b6001600160a01b038316610cb3576040805162461bcd60e51b815260206004820152601e60248201527f5f6c314164647265737320697320746865207a65726f20616464726573730000604482015290519081900360640190fd5b6001600160a01b038216610d0e576040805162461bcd60e51b815260206004820152601e60248201527f5f6c324761746577617920697320746865207a65726f20616464726573730000604482015290519081900360640190fd5b8b51610d2190603d9060208f0190612e24565b508a51610d3590603e9060208e0190612e24565b5089603f60006101000a81548160ff021916908360ff16021790555088603c60006101000a8154816001600160a01b0302191690836001600160a01b0316021790555087603b60006101000a8154816001600160a01b0302191690836001600160a01b0316021790555086603560006101000a8154816001600160a01b0302191690836001600160a01b0316021790555085603360006101000a8154816001600160a01b0302191690836001600160a01b0316021790555084603a60006101000a8154816001600160a01b0302191690836001600160a01b0316021790555083603460006101000a8154816001600160a01b0302191690836001600160a01b0316021790555082603f60016101000a8154816001600160a01b0302191690836001600160a01b0316021790555081604060006101000a8154816001600160a01b0302191690836001600160a01b03160217905550600046905080604281905550610e9e816126ea565b604155508015610eb4576000805461ff00191690555b505050505050505050505050565b603354600160a01b900460ff1615610f0f576040805162461bcd60e51b81526020600482015260196024820152600080516020612f62833981519152604482015290519081900360640190fd5b6034546001600160a01b03163314610f6e576040805162461bcd60e51b815260206004820152601d60248201527f7468652073656e646572206973206e6f74207468652072657363756572000000604482015290519081900360640190fd5b610f886001600160a01b038416838363ffffffff6127e816565b816001600160a01b0316836001600160a01b03167fe01920728668d89f092ef9cb92036bad90964bb622eec508d2c3ffe1d582efb2836040518082815260200191505060405180910390a3505050565b603354600090600160a01b900460ff1615611028576040805162461bcd60e51b81526020600482015260196024820152600080516020612f62833981519152604482015290519081900360640190fd5b6001600160a01b038416600090815260366020526040902054849060ff1615611086576040805162461bcd60e51b815260206004820152601a6024820152600080516020612f42833981519152604482015290519081900360640190fd5b6001600160a01b038416600090815260366020526040902054849060ff16156110e4576040805162461bcd60e51b815260206004820152601a6024820152600080516020612f42833981519152604482015290519081900360640190fd5b83806000106111245760405162461bcd60e51b81526004018080602001828103825260238152602001806130546023913960400191505060405180910390fd5b61112f87878761283f565b979650505050505050565b60366020526000908152604090205460ff1681565b603b546001600160a01b0316331461119c576040805162461bcd60e51b815260206004820152601b6024820152600080516020612ee0833981519152604482015290519081900360640190fd5b806001600160a01b0381166111e6576040805162461bcd60e51b81526020600482018190526024820152600080516020612f22833981519152604482015290519081900360640190fd5b603380546001600160a01b038481166001600160a01b03198316179283905560405191811692339291169083907f8b1ee37fa817a066fe12c7c9bf109c0c9f8f03ef0a5cfe0c03d5196e8c2e465790600090a4505050565b603b546001600160a01b0316331461128b576040805162461bcd60e51b815260206004820152601b6024820152600080516020612ee0833981519152604482015290519081900360640190fd5b603354600160a01b900460ff16156112d8576040805162461bcd60e51b81526020600482015260196024820152600080516020612f62833981519152604482015290519081900360640190fd5b806001600160a01b038116611322576040805162461bcd60e51b81526020600482018190526024820152600080516020612f22833981519152604482015290519081900360640190fd5b603a80546001600160a01b038481166001600160a01b03198316179283905560405191811692339291169083907fd8d09cf07cabd1c0519931ab387ce1b6e580584a26fb2787b8ed7f446c34603f90600090a4505050565b604051806052612f8282396052019050604051809103902081565b603f5460ff1681565b604254600090469081146113ba576113b5816126ea565b6113be565b6041545b91505090565b6034546001600160a01b031681565b3360008181526038602090815260408083206001600160a01b0387168452909152812054909161099991859061140f908663ffffffff61289116565b6125f8565b6033546001600160a01b03163314611473576040805162461bcd60e51b815260206004820152601c60248201527f7468652073656e646572206973206e6f74207468652070617573657200000000604482015290519081900360640190fd5b603354600160a01b900460ff166114d1576040805162461bcd60e51b815260206004820152601d60248201527f74686973206973206e6f7420612070617573656420636f6e7472616374000000604482015290519081900360640190fd5b6033805460ff60a01b19169081905560408051600160a01b90920460ff16151582525133917f5a9dfee0981174e5203ccf9368a8cabb254f9dea6ca43f96b4bbd10c69415d8a919081900360200190a2565b604051806040016040528060018152602001603160f81b81525081565b603b546001600160a01b0316331461158d576040805162461bcd60e51b815260206004820152601b6024820152600080516020612ee0833981519152604482015290519081900360640190fd5b603354600160a01b900460ff16156115da576040805162461bcd60e51b81526020600482015260196024820152600080516020612f62833981519152604482015290519081900360640190fd5b806001600160a01b038116611624576040805162461bcd60e51b81526020600482018190526024820152600080516020612f22833981519152604482015290519081900360640190fd5b603480546001600160a01b038481166001600160a01b03198316179283905560405191811692339291169083907f4e26e78832abd61f25bef51e06a1c7575a525edb4d215e56d6c4fbbe363cc03390600090a4505050565b603354600160a01b900460ff1681565b6035546001600160a01b031633146116eb576040805162461bcd60e51b815260206004820181905260248201527f7468652073656e646572206973206e6f74207468652070726f68696269746572604482015290519081900360640190fd5b603354600160a01b900460ff1615611738576040805162461bcd60e51b81526020600482015260196024820152600080516020612f62833981519152604482015290519081900360640190fd5b806001600160a01b038116611782576040805162461bcd60e51b81526020600482018190526024820152600080516020612f22833981519152604482015290519081900360640190fd5b6001600160a01b038216600090815260366020526040902054829060ff166117f1576040805162461bcd60e51b815260206004820152601e60248201527f74686973206163636f756e74206973206e6f742070726f686962697465640000604482015290519081900360640190fd5b6001600160a01b0383166000818152603660209081526040808320805460ff191690558051928352513393927fab0ab2fa6ff81b10c5afab4726a665d4379f2d0acaaafbe4c4d737ade05a8e4692908290030190a3505050565b6001600160a01b031660009081526037602052604090205490565b6040546001600160a01b031633146118b4576040805162461bcd60e51b815260206004820152600c60248201526b4f4e4c595f4741544557415960a01b604482015290519081900360640190fd5b6118be82826128f2565b60408051828152905133916001600160a01b038516917fdbdf9b8e4b75e75b162d151ec8fc7f0561cabab5fcccfa2600be62223e4300c49181900360200190a35050565b60436020526000908152604090205481565b6033546001600160a01b03163314611973576040805162461bcd60e51b815260206004820152601c60248201527f7468652073656e646572206973206e6f74207468652070617573657200000000604482015290519081900360640190fd5b603354600160a01b900460ff16156119c0576040805162461bcd60e51b81526020600482015260196024820152600080516020612f62833981519152604482015290519081900360640190fd5b6033805460ff60a01b1916600160a01b90811791829055604080519190920460ff1615158152905133917f5a9dfee0981174e5203ccf9368a8cabb254f9dea6ca43f96b4bbd10c69415d8a919081900360200190a2565b6040546001600160a01b03163314611a65576040805162461bcd60e51b815260206004820152600c60248201526b4f4e4c595f4741544557415960a01b604482015290519081900360640190fd5b611a6f82826129cd565b60408051828152905133916001600160a01b038516917fbcad3d7d3dfccb90d49c6063bf70f828901fefc88937d90af74e58e6e55bc39d9181900360200190a35050565b603c546001600160a01b031681565b603c546001600160a01b03163314611b21576040805162461bcd60e51b815260206004820152601b60248201527f7468652073656e646572206973206e6f7420746865206f776e65720000000000604482015290519081900360640190fd5b806001600160a01b038116611b6b576040805162461bcd60e51b81526020600482018190526024820152600080516020612f22833981519152604482015290519081900360640190fd5b603b80546001600160a01b038481166001600160a01b03198316179283905560405191811692339291169083907f4eb572e99196bed0270fbd5b17a948e19c3f50a97838cb0d2a75a823ff8e6c5090600090a4505050565b6040546001600160a01b031681565b603e805460408051602060026001851615610100026000190190941693909304601f810184900484028201840190925281815292918301828280156109845780601f1061095957610100808354040283529160200191610984565b603354600160a01b900460ff1615611c7a576040805162461bcd60e51b81526020600482015260196024820152600080516020612f62833981519152604482015290519081900360640190fd5b603a546001600160a01b03163314611cd9576040805162461bcd60e51b815260206004820152601b60248201527f7468652073656e646572206973206e6f74207468652077697065720000000000604482015290519081900360640190fd5b6001600160a01b038116600090815260366020526040902054819060ff16611d48576040805162461bcd60e51b815260206004820152601e60248201527f74686973206163636f756e74206973206e6f742070726f686962697465640000604482015290519081900360640190fd5b6000611d538361184b565b9050611d5f83826128f2565b6040805182815290516001600160a01b038516917f2d2c7da251295f4d722a8ddaf337627952c957ce21b2757c852e47fe81b3a2af919081900360200190a2505050565b6033546001600160a01b031681565b3360008181526038602090815260408083206001600160a01b0387168452909152812054909161099991859061140f908663ffffffff612abf16565b603c546001600160a01b03163314611e4d576040805162461bcd60e51b815260206004820152601b60248201527f7468652073656e646572206973206e6f7420746865206f776e65720000000000604482015290519081900360640190fd5b603354600160a01b900460ff1615611e9a576040805162461bcd60e51b81526020600482015260196024820152600080516020612f62833981519152604482015290519081900360640190fd5b806001600160a01b038116611ee4576040805162461bcd60e51b81526020600482018190526024820152600080516020612f22833981519152604482015290519081900360640190fd5b603c80546001600160a01b038481166001600160a01b03198316179283905560405191811692339291169083907f381c0d11398486654573703c51ee8210ce9461764d133f9f0e53b6a53970533190600090a4505050565b603354600090600160a01b900460ff1615611f8c576040805162461bcd60e51b81526020600482015260196024820152600080516020612f62833981519152604482015290519081900360640190fd5b3360008181526036602052604090205460ff1615611fdf576040805162461bcd60e51b815260206004820152601a6024820152600080516020612f42833981519152604482015290519081900360640190fd5b6001600160a01b038416600090815260366020526040902054849060ff161561203d576040805162461bcd60e51b815260206004820152601a6024820152600080516020612f42833981519152604482015290519081900360640190fd5b838060001061207d5760405162461bcd60e51b81526004018080602001828103825260238152602001806130546023913960400191505060405180910390fd5b612088338787612b1c565b50600195945050505050565b603f5461010090046001600160a01b031681565b6035546001600160a01b03163314612107576040805162461bcd60e51b815260206004820181905260248201527f7468652073656e646572206973206e6f74207468652070726f68696269746572604482015290519081900360640190fd5b603354600160a01b900460ff1615612154576040805162461bcd60e51b81526020600482015260196024820152600080516020612f62833981519152604482015290519081900360640190fd5b806001600160a01b03811661219e576040805162461bcd60e51b81526020600482018190526024820152600080516020612f22833981519152604482015290519081900360640190fd5b6001600160a01b038216600090815260366020526040902054829060ff16156121fc576040805162461bcd60e51b815260206004820152601a6024820152600080516020612f42833981519152604482015290519081900360640190fd5b6001600160a01b038316600081815260366020908152604091829020805460ff191660011790819055825160ff919091161515815291513393927fab0ab2fa6ff81b10c5afab4726a665d4379f2d0acaaafbe4c4d737ade05a8e4692908290030190a3505050565b60425481565b603b546001600160a01b031633146122b7576040805162461bcd60e51b815260206004820152601b6024820152600080516020612ee0833981519152604482015290519081900360640190fd5b603354600160a01b900460ff1615612304576040805162461bcd60e51b81526020600482015260196024820152600080516020612f62833981519152604482015290519081900360640190fd5b806001600160a01b03811661234e576040805162461bcd60e51b81526020600482018190526024820152600080516020612f22833981519152604482015290519081900360640190fd5b603580546001600160a01b038481166001600160a01b03198316179283905560405191811692339291169083907f85ae865187b1d7c0069f5fab638cbfcb8f3f9d23bc090e1084abc0dc42def0d290600090a4505050565b834211156123ec576040805162461bcd60e51b815260206004820152600e60248201526d1c195c9b5a5d08195e1c1a5c995960921b604482015290519081900360640190fd5b6042544690600090821461240857612403826126ea565b61240c565b6041545b604051806052612f828239604080519182900360520182206001600160a01b03808f166000818152604360209081529085902080546001810190915581870194909452858501829052918f166060860152608085018e905260a085019290925260c08085018d90528351808603909101815260e08501845280519082012061190160f01b6101008601526101028501969096526101228085019690965282518085039096018652610142909301909152835193909101929092209250501580159061254857506040805160008152602080820180845284905260ff8816828401526060820187905260808201869052915160019260a0808401939192601f1981019281900390910190855afa158015612529573d6000803e3d6000fd5b505050602060405103516001600160a01b0316896001600160a01b0316145b61258a576040805162461bcd60e51b815260206004820152600e60248201526d1a5b9d985b1a59081c195c9b5a5d60921b604482015290519081900360640190fd5b6125958989896125f8565b505050505050505050565b603a546001600160a01b031681565b6001600160a01b03918216600090815260386020908152604080832093909416825291909152205490565b6035546001600160a01b031681565b603b546001600160a01b031681565b6001600160a01b03831661263d5760405162461bcd60e51b81526004018080602001828103825260248152602001806130bd6024913960400191505060405180910390fd5b6001600160a01b0382166126825760405162461bcd60e51b8152600401808060200182810382526022815260200180612f006022913960400191505060405180910390fd5b6001600160a01b03808416600081815260386020908152604080832094871680845294825291829020859055815185815291517f8c5be1e5ebec7d5bd14f71427d1e84f3dd0314c0f7b2291e5b200ac8c7c3b9259281900390910190a3505050565b303b1590565b60006040518080612fd46052913960520190506040518091039020603d60405180828054600181600116156101000203166002900480156127625780601f10612740576101008083540402835291820191612762565b820191906000526020600020905b81548152906001019060200180831161274e575b505060408051918290038220828201825260018352603160f81b602093840152815180840196909652858201527fc89efdaa54c0f20c7adf612882df0950f5a951637e0307cdcb4c672f298b8bc66060860152608085018790523060a0808701919091528151808703909101815260c09095019052835193019290922092505050919050565b604080516001600160a01b038416602482015260448082018490528251808303909101815260649091019091526020810180516001600160e01b031663a9059cbb60e01b17905261283a908490612c60565b505050565b600061284c848484612b1c565b6001600160a01b03841660009081526038602090815260408083203380855292529091205461288791869161140f908663ffffffff612abf16565b5060019392505050565b6000828201838110156128eb576040805162461bcd60e51b815260206004820152601b60248201527f536166654d6174683a206164646974696f6e206f766572666c6f770000000000604482015290519081900360640190fd5b9392505050565b6001600160a01b0382166129375760405162461bcd60e51b81526004018080602001828103825260218152602001806130776021913960400191505060405180910390fd5b60395461294a908263ffffffff612abf16565b6039556001600160a01b038216600090815260376020526040902054612976908263ffffffff612abf16565b6001600160a01b0383166000818152603760209081526040808320949094558351858152935191937fddf252ad1be2c89b69c2b068fc378daa952ba7f163c4a11628f55a4df523b3ef929081900390910190a35050565b6001600160a01b038216612a28576040805162461bcd60e51b815260206004820152601f60248201527f45524332303a206d696e7420746f20746865207a65726f206164647265737300604482015290519081900360640190fd5b603954612a3b908263ffffffff61289116565b6039556001600160a01b038216600090815260376020526040902054612a67908263ffffffff61289116565b6001600160a01b03831660008181526037602090815260408083209490945583518581529351929391927fddf252ad1be2c89b69c2b068fc378daa952ba7f163c4a11628f55a4df523b3ef9281900390910190a35050565b600082821115612b16576040805162461bcd60e51b815260206004820152601e60248201527f536166654d6174683a207375627472616374696f6e206f766572666c6f770000604482015290519081900360640190fd5b50900390565b6001600160a01b038316612b615760405162461bcd60e51b81526004018080602001828103825260258152602001806130986025913960400191505060405180910390fd5b6001600160a01b038216612ba65760405162461bcd60e51b8152600401808060200182810382526023815260200180612ebd6023913960400191505060405180910390fd5b6001600160a01b038316600090815260376020526040902054612bcf908263ffffffff612abf16565b6001600160a01b038085166000908152603760205260408082209390935590841681522054612c04908263ffffffff61289116565b6001600160a01b0380841660008181526037602090815260409182902094909455805185815290519193928716927fddf252ad1be2c89b69c2b068fc378daa952ba7f163c4a11628f55a4df523b3ef92918290030190a3505050565b612c72826001600160a01b0316612e1e565b612cc3576040805162461bcd60e51b815260206004820152601f60248201527f5361666545524332303a2063616c6c20746f206e6f6e2d636f6e747261637400604482015290519081900360640190fd5b60006060836001600160a01b0316836040518082805190602001908083835b60208310612d015780518252601f199092019160209182019101612ce2565b6001836020036101000a0380198251168184511680821785525050505050509050019150506000604051808303816000865af19150503d8060008114612d63576040519150601f19603f3d011682016040523d82523d6000602084013e612d68565b606091505b509150915081612dbf576040805162461bcd60e51b815260206004820181905260248201527f5361666545524332303a206c6f772d6c6576656c2063616c6c206661696c6564604482015290519081900360640190fd5b805115612e1857808060200190516020811015612ddb57600080fd5b5051612e185760405162461bcd60e51b815260040180806020018281038252602a8152602001806130e1602a913960400191505060405180910390fd5b50505050565b3b151590565b828054600181600116156101000203166002900490600052602060002090601f016020900481019282601f10612e6557805160ff1916838001178555612e92565b82800160010185558215612e92579182015b82811115612e92578251825591602001919060010190612e77565b50612e9e929150612ea2565b5090565b6109a691905b80821115612e9e5760008155600101612ea856fe45524332303a207472616e7366657220746f20746865207a65726f20616464726573737468652073656e646572206973206e6f74207468652061646d696e000000000045524332303a20617070726f766520746f20746865207a65726f206164647265737374686973206163636f756e7420697320746865207a65726f206164647265737374686973206163636f756e742069732070726f686962697465640000000000007468697320697320612070617573656420636f6e7472616374000000000000005065726d69742861646472657373206f776e65722c61646472657373207370656e6465722c75696e743235362076616c75652c75696e74323536206e6f6e63652c75696e7432353620646561646c696e6529454950373132446f6d61696e28737472696e67206e616d652c737472696e672076657273696f6e2c75696e7432353620636861696e49642c6164647265737320766572696679696e67436f6e747261637429436f6e747261637420696e7374616e63652068617320616c7265616479206265656e20696e697469616c697a65647468697320616d6f756e74206973206e6f742061206e61747572616c206e756d62657245524332303a206275726e2066726f6d20746865207a65726f206164647265737345524332303a207472616e736665722066726f6d20746865207a65726f206164647265737345524332303a20617070726f76652066726f6d20746865207a65726f20616464726573735361666545524332303a204552433230206f7065726174696f6e20646964206e6f742073756363656564a265627a7a72315820fd1cfaebff778e3ee345eb05da575fd9788a7df4cf602444b1ee3038367832b264736f6c634300050d0032",
  "source": "pragma solidity 0.5.13;\n\nimport \"@openzeppelin/upgrades/contracts/Initializable.sol\";\nimport \"./Roles/Owner.sol\";\n\ncontract ArbToken_v1 is Initializable, Owner {\n\n    string public name;\n    string public symbol;\n    uint8 public decimals;\n    address public l1Address;\n    address public l2Gateway;\n    bytes32 private _DOMAIN_SEPARATOR;\n    uint256 public deploymentChainId;\n    mapping (address => uint256) public nonces;\n\n    string public constant version  = \"1\";\n    bytes32 public constant PERMIT_TYPEHASH = keccak256(\"Permit(address owner,address spender,uint256 value,uint256 nonce,uint256 deadline)\");\n\n    event Mint(address indexed mintee, uint256 amount, address indexed sender);\n    event Burn(address indexed burnee, uint256 amount, address indexed sender);\n\n    modifier onlyGateway {\n        require(msg.sender == l2Gateway, \"ONLY_GATEWAY\");\n        _;\n    }\n\n    function initialize(\n        string memory _name,\n        string memory _symbol,\n        uint8 _decimals,\n        address _owner,\n        address _admin,\n        address _prohibiter,\n        address _pauser,\n        address _wiper,\n        address _rescuer,\n        address _l1Address,\n        address _l2Gateway\n        ) public initializer {\n            require(_owner != address(0), \"_owner is the zero address\");\n            require(_admin != address(0), \"_admin is the zero address\");\n            require(_prohibiter != address(0), \"_prohibiter is the zero address\");\n            require(_pauser != address(0), \"_pauser is the zero address\");\n            require(_wiper != address(0), \"_wiper is the zero address\");\n            require(_rescuer != address(0), \"_rescuer is the zero address\");\n            require(_l1Address != address(0), \"_l1Address is the zero address\");\n            require(_l2Gateway != address(0), \"_l2Gateway is the zero address\");\n            name = _name;\n            symbol = _symbol;\n            decimals = _decimals;\n            owner = _owner;\n            admin = _admin;\n            prohibiter = _prohibiter;\n            pauser = _pauser;\n            wiper = _wiper;\n            rescuer = _rescuer;\n            l1Address = _l1Address;\n            l2Gateway = _l2Gateway;\n\n            uint256 id;\n            assembly {id := chainid()}\n            deploymentChainId = id;\n            _DOMAIN_SEPARATOR = _calculateDomainSeparator(id);\n    }\n\n    function transfer(address _recipient, uint256 _amount) public whenNotPaused onlyNotProhibited(msg.sender) onlyNotProhibited(_recipient) isNaturalNumber(_amount) returns (bool) {\n        _transfer(msg.sender, _recipient, _amount);\n        return true;\n    }\n\n    function transferFrom(address _sender, address _recipient, uint256 _amount) public whenNotPaused onlyNotProhibited(_sender) onlyNotProhibited(_recipient) isNaturalNumber(_amount) returns (bool) {\n        return super.transferFrom(_sender, _recipient, _amount);\n    }\n\n    /**\n    * @notice Mint tokens on L2. Callable path is L1Gateway depositToken (which handles L1 escrow), which triggers L2Gateway, which calls this\n    * @param account recipient of tokens\n    * @param amount amount of tokens minted\n    */\n    function bridgeMint(address account, uint256 amount) external onlyGateway {\n        _mint(account, amount);\n        emit Mint(account, amount, msg.sender);\n    }\n\n    /**\n    * @notice Burn tokens on L2.\n    * @dev only the token bridge can call this\n    * @param account owner of tokens\n    * @param amount amount of tokens burnt\n    */\n    function bridgeBurn(address account, uint256 amount) external onlyGateway {\n        _burn(account, amount);\n        emit Burn(account, amount, msg.sender);\n    }\n\n    function _calculateDomainSeparator(uint256 chainId) private view returns (bytes32) {\n        return keccak256(\n            abi.encode(\n            keccak256(\"EIP712Domain(string name,string version,uint256 chainId,address verifyingContract)\"),\n            keccak256(bytes(name)),\n            keccak256(bytes(version)),\n            chainId,\n            address(this)\n            )\n        );\n    }\n\n    function DOMAIN_SEPARATOR() external view returns (bytes32) {\n        uint256 id;\n        assembly {id := chainid()}\n        return id == deploymentChainId ? _DOMAIN_SEPARATOR : _calculateDomainSeparator(id);\n    }\n\n    function permit(address owner, address spender, uint256 value, uint256 deadline, uint8 v, bytes32 r, bytes32 s) external {\n        require(block.timestamp <= deadline, \"permit expired\");\n\n        uint256 id;\n        assembly {id := chainid()}\n\n        bytes32 digest =\n            keccak256(abi.encodePacked(\n                \"\\x19\\x01\",\n                id == deploymentChainId ? _DOMAIN_SEPARATOR : _calculateDomainSeparator(id),\n                keccak256(abi.encode(\n                PERMIT_TYPEHASH,\n                owner,\n                spender,\n                value,\n                nonces[owner]++,\n                deadline\n                ))\n            ));\n\n        require(owner != address(0) && owner == ecrecover(digest, v, r, s), \"invalid permit\");\n\n        _approve(owner, spender, value);\n    }\n}",
  "sourcePath": "/Users/usr0103665/wallet/contracts-Arbitrum-L2/contracts/ArbToken_v1.sol",
  "compiler": {
    "name": "solc",
    "version": "0.5.13+commit.5b0b510c.Emscripten.clang"
  },
  "schemaVersion": "3.0.16",
  "updatedAt": "2022-09-20T05:46:28.002Z",
  "devdoc": {
    "methods": {
      "allowance(address,address)": {
        "details": "See `IERC20.allowance`."
      },
      "approve(address,uint256)": {
        "details": "See `IERC20.approve`.     * Requirements:     * - `spender` cannot be the zero address."
      },
      "balanceOf(address)": {
        "details": "See `IERC20.balanceOf`."
      },
      "bridgeBurn(address,uint256)": {
        "details": "only the token bridge can call this",
        "params": {
          "account": "owner of tokens",
          "amount": "amount of tokens burnt"
        }
      },
      "bridgeMint(address,uint256)": {
        "params": {
          "account": "recipient of tokens",
          "amount": "amount of tokens minted"
        }
      },
      "changeAdmin(address)": {
        "details": "\"whenNotPaused\" modifier should not be used here"
      },
      "changePauser(address)": {
        "details": "\"whenNotPaused\" modifier should not be used here"
      },
      "decreaseAllowance(address,uint256)": {
        "details": "Atomically decreases the allowance granted to `spender` by the caller.     * This is an alternative to `approve` that can be used as a mitigation for problems described in `IERC20.approve`.     * Emits an `Approval` event indicating the updated allowance.     * Requirements:     * - `spender` cannot be the zero address. - `spender` must have allowance for the caller of at least `subtractedValue`."
      },
      "increaseAllowance(address,uint256)": {
        "details": "Atomically increases the allowance granted to `spender` by the caller.     * This is an alternative to `approve` that can be used as a mitigation for problems described in `IERC20.approve`.     * Emits an `Approval` event indicating the updated allowance.     * Requirements:     * - `spender` cannot be the zero address."
      },
      "totalSupply()": {
        "details": "See `IERC20.totalSupply`."
      }
    }
  },
  "userdoc": {
    "methods": {
      "bridgeBurn(address,uint256)": {
        "notice": "Burn tokens on L2."
      },
      "bridgeMint(address,uint256)": {
        "notice": "Mint tokens on L2. Callable path is L1Gateway depositToken (which handles L1 escrow), which triggers L2Gateway, which calls this"
      },
      "changeAdmin(address)": {
        "notice": "Change Admin"
      },
      "changePauser(address)": {
        "notice": "Change Pauser"
      }
    }
  }
}