{
  "contractName": "Burning",
  "abi": [
    {
      "constant": true,
      "inputs": [],
      "name": "factory",
      "outputs": [
        {
          "name": "",
          "type": "address"
        }
      ],
      "payable": false,
      "stateMutability": "view",
      "type": "function"
    },
    {
      "inputs": [],
      "payable": false,
      "stateMutability": "nonpayable",
      "type": "constructor"
    },
    {
      "constant": false,
      "inputs": [
        {
          "name": "tokenAddress",
          "type": "address"
        },
        {
          "name": "_amount",
          "type": "uint256"
        }
      ],
      "name": "burn",
      "outputs": [],
      "payable": false,
      "stateMutability": "nonpayable",
      "type": "function"
    }
  ],
  "bytecode": "0x608060405234801561001057600080fd5b50600080546001600160a01b03191633179055610202806100326000396000f3fe608060405234801561001057600080fd5b50600436106100365760003560e01c80639dc29fac1461003b578063c45a015514610069575b600080fd5b6100676004803603604081101561005157600080fd5b506001600160a01b03813516906020013561008d565b005b6100716101c7565b604080516001600160a01b039092168252519081900360200190f35b6000809054906101000a90046001600160a01b03166001600160a01b03166327810b6e6040518163ffffffff1660e01b815260040160206040518083038186803b1580156100da57600080fd5b505afa1580156100ee573d6000803e3d6000fd5b505050506040513d602081101561010457600080fd5b50516001600160a01b031633146101655760408051600160e51b62461bcd02815260206004820152601c60248201527f7468652073656e646572206973206e6f7420746865206275726e657200000000604482015290519081900360640190fd5b816001600160a01b03166342966c68826040518263ffffffff1660e01b815260040180828152602001915050600060405180830381600087803b1580156101ab57600080fd5b505af11580156101bf573d6000803e3d6000fd5b505050505050565b6000546001600160a01b03168156fea165627a7a72305820c5996511bce3c02df7f735c072c2b6afb8341d0131507d1020bb869a89df69540029",
  "source": "pragma solidity ^0.5.8;\n\nimport \"./BurningFactory.sol\";\nimport \"./Token_v1.sol\";\n\ncontract Burning {\n    address public factory;\n\n    constructor() public {\n        factory = msg.sender;\n    }\n\n    modifier onlyBurner {\n        require(msg.sender == BurningFactory(factory).burner(), \"the sender is not the burner\");\n        _;\n    }\n\n    function burn(address tokenAddress, uint256 _amount) public onlyBurner {\n        Token_v1(tokenAddress).burn(_amount);\n    }\n}",
  "sourcePath": "/Users/usr0101757/Projects/GYEN/gyen-solidity/contracts/Burning.sol",
  "compiler": {
    "name": "solc",
    "version": "0.5.8+commit.23d335f2.Emscripten.clang"
  },
  "schemaVersion": "3.0.11",
  "updatedAt": "2019-08-06T03:23:25.552Z",
  "devdoc": {
    "methods": {}
  },
  "userdoc": {
    "methods": {}
  }
}