{
  "contractName": "Burning",
  "abi": [
    {
      "constant": true,
      "inputs": [],
      "name": "factory",
      "outputs": [
        {
          "name": "",
          "type": "address"
        }
      ],
      "payable": false,
      "stateMutability": "view",
      "type": "function"
    },
    {
      "inputs": [],
      "payable": false,
      "stateMutability": "nonpayable",
      "type": "constructor"
    },
    {
      "constant": false,
      "inputs": [
        {
          "name": "_tokenAddress",
          "type": "address"
        },
        {
          "name": "_amount",
          "type": "uint256"
        }
      ],
      "name": "burn",
      "outputs": [],
      "payable": false,
      "stateMutability": "nonpayable",
      "type": "function"
    },
    {
      "constant": false,
      "inputs": [
        {
          "name": "_tokenAddress",
          "type": "address"
        },
        {
          "name": "_recipient",
          "type": "address"
        },
        {
          "name": "_amount",
          "type": "uint256"
        }
      ],
      "name": "transfer",
      "outputs": [],
      "payable": false,
      "stateMutability": "nonpayable",
      "type": "function"
    }
  ],
  "bytecode": "0x608060405234801561001057600080fd5b50600080546001600160a01b03191633179055610400806100326000396000f3fe608060405234801561001057600080fd5b50600436106100415760003560e01c80639dc29fac14610046578063beabacc814610074578063c45a0155146100aa575b600080fd5b6100726004803603604081101561005c57600080fd5b506001600160a01b0381351690602001356100ce565b005b6100726004803603606081101561008a57600080fd5b506001600160a01b03813581169160208101359091169060400135610208565b6100b26103c5565b604080516001600160a01b039092168252519081900360200190f35b6000809054906101000a90046001600160a01b03166001600160a01b03166327810b6e6040518163ffffffff1660e01b815260040160206040518083038186803b15801561011b57600080fd5b505afa15801561012f573d6000803e3d6000fd5b505050506040513d602081101561014557600080fd5b50516001600160a01b031633146101a65760408051600160e51b62461bcd02815260206004820152601c60248201527f7468652073656e646572206973206e6f7420746865206275726e657200000000604482015290519081900360640190fd5b816001600160a01b03166342966c68826040518263ffffffff1660e01b815260040180828152602001915050600060405180830381600087803b1580156101ec57600080fd5b505af1158015610200573d6000803e3d6000fd5b505050505050565b6000809054906101000a90046001600160a01b03166001600160a01b03166327810b6e6040518163ffffffff1660e01b815260040160206040518083038186803b15801561025557600080fd5b505afa158015610269573d6000803e3d6000fd5b505050506040513d602081101561027f57600080fd5b50516001600160a01b031633146102e05760408051600160e51b62461bcd02815260206004820152601c60248201527f7468652073656e646572206973206e6f7420746865206275726e657200000000604482015290519081900360640190fd5b826001600160a01b031663a9059cbb83836040518363ffffffff1660e01b815260040180836001600160a01b03166001600160a01b0316815260200182815260200192505050602060405180830381600087803b15801561034057600080fd5b505af1158015610354573d6000803e3d6000fd5b505050506040513d602081101561036a57600080fd5b50516103c05760408051600160e51b62461bcd02815260206004820152601260248201527f5472616e73666572206973206661696c65640000000000000000000000000000604482015290519081900360640190fd5b505050565b6000546001600160a01b03168156fea165627a7a7230582090bf4169ff246abb1c084bb88b210a1e9775f38935883c8ba079ecf2dec84bda0029",
  "source": "pragma solidity 0.5.8;\n\nimport \"./BurningFactory.sol\";\nimport \"./Token_v1.sol\";\n\ncontract Burning {\n    address public factory;\n\n    constructor() public {\n        factory = msg.sender;\n    }\n\n    modifier onlyBurner {\n        require(msg.sender == BurningFactory(factory).burner(), \"the sender is not the burner\");\n        _;\n    }\n\n    function burn(address _tokenAddress, uint256 _amount) public onlyBurner {\n        Token_v1(_tokenAddress).burn(_amount);\n    }\n\n    function transfer(address _tokenAddress, address _recipient, uint256 _amount) public onlyBurner {\n        require(Token_v1(_tokenAddress).transfer(_recipient, _amount), \"Transfer is failed\");\n    }\n}",
  "sourcePath": "/Users/usr0101757/Projects/GYEN/gyen-solidity/contracts/Burning.sol",
  "compiler": {
    "name": "solc",
    "version": "0.5.8+commit.23d335f2.Emscripten.clang"
  },
  "schemaVersion": "3.0.16",
  "updatedAt": "2019-10-18T07:46:31.444Z",
  "devdoc": {
    "methods": {}
  },
  "userdoc": {
    "methods": {}
  }
}