{
  "contractName": "BurningFactory",
  "abi": [
    {
      "constant": true,
      "inputs": [],
      "name": "burner",
      "outputs": [
        {
          "name": "",
          "type": "address"
        }
      ],
      "payable": false,
      "stateMutability": "view",
      "type": "function"
    },
    {
      "inputs": [
        {
          "name": "_manager",
          "type": "address"
        },
        {
          "name": "_burner",
          "type": "address"
        }
      ],
      "payable": false,
      "stateMutability": "nonpayable",
      "type": "constructor"
    },
    {
      "anonymous": false,
      "inputs": [
        {
          "indexed": true,
          "name": "oldBurner",
          "type": "address"
        },
        {
          "indexed": true,
          "name": "newBurner",
          "type": "address"
        },
        {
          "indexed": true,
          "name": "sender",
          "type": "address"
        }
      ],
      "name": "BurnerChanged",
      "type": "event"
    },
    {
      "anonymous": false,
      "inputs": [
        {
          "indexed": true,
          "name": "burning",
          "type": "address"
        },
        {
          "indexed": true,
          "name": "sender",
          "type": "address"
        }
      ],
      "name": "Deployed",
      "type": "event"
    },
    {
      "constant": false,
      "inputs": [],
      "name": "deploy",
      "outputs": [],
      "payable": false,
      "stateMutability": "nonpayable",
      "type": "function"
    },
    {
      "constant": false,
      "inputs": [
        {
          "name": "_account",
          "type": "address"
        }
      ],
      "name": "changeBurner",
      "outputs": [],
      "payable": false,
      "stateMutability": "nonpayable",
      "type": "function"
    }
  ],
  "bytecode": "0x608060405234801561001057600080fd5b506040516040806106e78339810180604052604081101561003057600080fd5b508051602090910151600080546001600160a01b038085166001600160a01b0319928316178355600180548286169316929092179182905560405133939290911691907f606b85978110cc2007cee39d927cafd823ead44429b4bd0ce1aa325886ea77bd908290a4505061063e806100a96000396000f3fe608060405234801561001057600080fd5b50600436106100415760003560e01c806327810b6e14610046578063775c300c1461006a57806380b022e814610074575b600080fd5b61004e61009a565b604080516001600160a01b039092168252519081900360200190f35b6100726100a9565b005b6100726004803603602081101561008a57600080fd5b50356001600160a01b0316610110565b6001546001600160a01b031681565b60006040516100b790610227565b604051809103906000f0801580156100d3573d6000803e3d6000fd5b5060405190915033906001600160a01b038316907f09e48df7857bd0c1e0d31bb8a85d42cf1874817895f171c917f6ee2cea73ec2090600090a350565b6000546001600160a01b031633146101725760408051600160e51b62461bcd02815260206004820152601d60248201527f7468652073656e646572206973206e6f7420746865206d616e61676572000000604482015290519081900360640190fd5b6001600160a01b0381166101d05760408051600160e51b62461bcd02815260206004820181905260248201527f74686973206163636f756e7420697320746865207a65726f2061646472657373604482015290519081900360640190fd5b600180546001600160a01b038381166001600160a01b03198316179283905560405191811692339291169083907f606b85978110cc2007cee39d927cafd823ead44429b4bd0ce1aa325886ea77bd90600090a45050565b6103de806102358339019056fe608060405234801561001057600080fd5b50600080546001600160a01b031916331790556103ac806100326000396000f3fe608060405234801561001057600080fd5b50600436106100415760003560e01c80639dc29fac14610046578063beabacc814610074578063c45a0155146100aa575b600080fd5b6100726004803603604081101561005c57600080fd5b506001600160a01b0381351690602001356100ce565b005b6100726004803603606081101561008a57600080fd5b506001600160a01b03813581169160208101359091169060400135610208565b6100b2610371565b604080516001600160a01b039092168252519081900360200190f35b6000809054906101000a90046001600160a01b03166001600160a01b03166327810b6e6040518163ffffffff1660e01b815260040160206040518083038186803b15801561011b57600080fd5b505afa15801561012f573d6000803e3d6000fd5b505050506040513d602081101561014557600080fd5b50516001600160a01b031633146101a65760408051600160e51b62461bcd02815260206004820152601c60248201527f7468652073656e646572206973206e6f7420746865206275726e657200000000604482015290519081900360640190fd5b816001600160a01b03166342966c68826040518263ffffffff1660e01b815260040180828152602001915050600060405180830381600087803b1580156101ec57600080fd5b505af1158015610200573d6000803e3d6000fd5b505050505050565b6000809054906101000a90046001600160a01b03166001600160a01b03166327810b6e6040518163ffffffff1660e01b815260040160206040518083038186803b15801561025557600080fd5b505afa158015610269573d6000803e3d6000fd5b505050506040513d602081101561027f57600080fd5b50516001600160a01b031633146102e05760408051600160e51b62461bcd02815260206004820152601c60248201527f7468652073656e646572206973206e6f7420746865206275726e657200000000604482015290519081900360640190fd5b826001600160a01b031663a9059cbb83836040518363ffffffff1660e01b815260040180836001600160a01b03166001600160a01b0316815260200182815260200192505050602060405180830381600087803b15801561034057600080fd5b505af1158015610354573d6000803e3d6000fd5b505050506040513d602081101561036a57600080fd5b5050505050565b6000546001600160a01b03168156fea165627a7a723058204d379446507bc3af2dad6141e979af2300fee2a0db428fd97ecc7d1cba616ee00029a165627a7a723058205b988ec2f240f2c1f614f649ee69267d2ac1f51f9e809e7483fa357ae309938c0029",
  "source": "pragma solidity ^0.5.8;\n\nimport \"./Burning.sol\";\n\ncontract BurningFactory {\n    address internal manager;\n    address public burner;\n\n    event BurnerChanged(address indexed oldBurner, address indexed newBurner, address indexed sender);\n    event Deployed(address indexed burning, address indexed sender);\n\n    constructor(address _manager, address _burner) public {\n        manager = _manager;\n        burner = _burner;\n\n        emit BurnerChanged(address(0), burner, msg.sender);\n    }\n\n    modifier onlyManager() {\n        require(msg.sender == manager, \"the sender is not the manager\");\n        _;\n    }\n\n    function deploy() public {\n        Burning burning = new Burning();\n        emit Deployed(address(burning), msg.sender);\n    }\n\n    function changeBurner(address _account) public onlyManager {\n        require(_account != address(0), \"this account is the zero address\");\n\n        address old = burner;\n        burner = _account;\n        emit BurnerChanged(old, burner, msg.sender);\n    }\n}",
  "sourcePath": "/Users/usr0101757/Projects/GYEN/gyen-solidity/contracts/BurningFactory.sol",
  "compiler": {
    "name": "solc",
    "version": "0.5.8+commit.23d335f2.Emscripten.clang"
  },
  "schemaVersion": "3.0.11",
  "updatedAt": "2019-10-04T06:18:09.414Z",
  "devdoc": {
    "methods": {}
  },
  "userdoc": {
    "methods": {}
  }
}