{
  "contractName": "BurningFactory",
  "abi": [
    {
      "constant": true,
      "inputs": [],
      "name": "burner",
      "outputs": [
        {
          "name": "",
          "type": "address"
        }
      ],
      "payable": false,
      "stateMutability": "view",
      "type": "function"
    },
    {
      "inputs": [
        {
          "name": "_manager",
          "type": "address"
        },
        {
          "name": "_burner",
          "type": "address"
        }
      ],
      "payable": false,
      "stateMutability": "nonpayable",
      "type": "constructor"
    },
    {
      "anonymous": false,
      "inputs": [
        {
          "indexed": true,
          "name": "oldBurner",
          "type": "address"
        },
        {
          "indexed": true,
          "name": "newBurner",
          "type": "address"
        },
        {
          "indexed": true,
          "name": "sender",
          "type": "address"
        }
      ],
      "name": "BurnerChanged",
      "type": "event"
    },
    {
      "anonymous": false,
      "inputs": [
        {
          "indexed": true,
          "name": "burning",
          "type": "address"
        },
        {
          "indexed": true,
          "name": "sender",
          "type": "address"
        }
      ],
      "name": "Deployed",
      "type": "event"
    },
    {
      "constant": false,
      "inputs": [],
      "name": "deploy",
      "outputs": [],
      "payable": false,
      "stateMutability": "nonpayable",
      "type": "function"
    },
    {
      "constant": false,
      "inputs": [
        {
          "name": "_account",
          "type": "address"
        }
      ],
      "name": "changeBurner",
      "outputs": [],
      "payable": false,
      "stateMutability": "nonpayable",
      "type": "function"
    }
  ],
  "bytecode": "0x608060405234801561001057600080fd5b5060405160408061053d8339810180604052604081101561003057600080fd5b508051602090910151600080546001600160a01b038085166001600160a01b0319928316178355600180548286169316929092179182905560405133939290911691907f606b85978110cc2007cee39d927cafd823ead44429b4bd0ce1aa325886ea77bd908290a45050610494806100a96000396000f3fe608060405234801561001057600080fd5b50600436106100415760003560e01c806327810b6e14610046578063775c300c1461006a57806380b022e814610074575b600080fd5b61004e61009a565b604080516001600160a01b039092168252519081900360200190f35b6100726100a9565b005b6100726004803603602081101561008a57600080fd5b50356001600160a01b0316610110565b6001546001600160a01b031681565b60006040516100b790610227565b604051809103906000f0801580156100d3573d6000803e3d6000fd5b5060405190915033906001600160a01b038316907f09e48df7857bd0c1e0d31bb8a85d42cf1874817895f171c917f6ee2cea73ec2090600090a350565b6000546001600160a01b031633146101725760408051600160e51b62461bcd02815260206004820152601d60248201527f7468652073656e646572206973206e6f7420746865206d616e61676572000000604482015290519081900360640190fd5b6001600160a01b0381166101d05760408051600160e51b62461bcd02815260206004820181905260248201527f74686973206163636f756e7420697320746865207a65726f2061646472657373604482015290519081900360640190fd5b600180546001600160a01b038381166001600160a01b03198316179283905560405191811692339291169083907f606b85978110cc2007cee39d927cafd823ead44429b4bd0ce1aa325886ea77bd90600090a45050565b610234806102358339019056fe608060405234801561001057600080fd5b50600080546001600160a01b03191633179055610202806100326000396000f3fe608060405234801561001057600080fd5b50600436106100365760003560e01c80639dc29fac1461003b578063c45a015514610069575b600080fd5b6100676004803603604081101561005157600080fd5b506001600160a01b03813516906020013561008d565b005b6100716101c7565b604080516001600160a01b039092168252519081900360200190f35b6000809054906101000a90046001600160a01b03166001600160a01b03166327810b6e6040518163ffffffff1660e01b815260040160206040518083038186803b1580156100da57600080fd5b505afa1580156100ee573d6000803e3d6000fd5b505050506040513d602081101561010457600080fd5b50516001600160a01b031633146101655760408051600160e51b62461bcd02815260206004820152601c60248201527f7468652073656e646572206973206e6f7420746865206275726e657200000000604482015290519081900360640190fd5b816001600160a01b03166342966c68826040518263ffffffff1660e01b815260040180828152602001915050600060405180830381600087803b1580156101ab57600080fd5b505af11580156101bf573d6000803e3d6000fd5b505050505050565b6000546001600160a01b03168156fea165627a7a72305820c5996511bce3c02df7f735c072c2b6afb8341d0131507d1020bb869a89df69540029a165627a7a7230582024610b78419ec79bbae5e1f72e402441749584dbb4970750e5ccad2d33a10e170029",
  "source": "pragma solidity ^0.5.8;\n\nimport \"./Burning.sol\";\n\ncontract BurningFactory {\n    address internal manager;\n    address public burner;\n\n    event BurnerChanged(address indexed oldBurner, address indexed newBurner, address indexed sender);\n    event Deployed(address indexed burning, address indexed sender);\n\n    constructor(address _manager, address _burner) public {\n        manager = _manager;\n        burner = _burner;\n\n        emit BurnerChanged(address(0), burner, msg.sender);\n    }\n\n    modifier onlyManager() {\n        require(msg.sender == manager, \"the sender is not the manager\");\n        _;\n    }\n\n    function deploy() public {\n        Burning burning = new Burning();\n        emit Deployed(address(burning), msg.sender);\n    }\n\n    function changeBurner(address _account) public onlyManager {\n        require(_account != address(0), \"this account is the zero address\");\n\n        address old = burner;\n        burner = _account;\n        emit BurnerChanged(old, burner, msg.sender);\n    }\n}",
  "sourcePath": "/Users/usr0101757/Projects/GYEN/gyen-solidity/contracts/BurningFactory.sol",
  "compiler": {
    "name": "solc",
    "version": "0.5.8+commit.23d335f2.Emscripten.clang"
  },
  "schemaVersion": "3.0.11",
  "updatedAt": "2019-08-06T06:33:35.060Z",
  "devdoc": {
    "methods": {}
  },
  "userdoc": {
    "methods": {}
  }
}