{
  "contractName": "Capper",
  "abi": [
    {
      "constant": false,
      "inputs": [],
      "name": "unpause",
      "outputs": [],
      "payable": false,
      "stateMutability": "nonpayable",
      "type": "function"
    },
    {
      "constant": true,
      "inputs": [],
      "name": "capper",
      "outputs": [
        {
          "name": "",
          "type": "address"
        }
      ],
      "payable": false,
      "stateMutability": "view",
      "type": "function"
    },
    {
      "constant": true,
      "inputs": [],
      "name": "paused",
      "outputs": [
        {
          "name": "",
          "type": "bool"
        }
      ],
      "payable": false,
      "stateMutability": "view",
      "type": "function"
    },
    {
      "constant": true,
      "inputs": [],
      "name": "capacity",
      "outputs": [
        {
          "name": "",
          "type": "uint256"
        }
      ],
      "payable": false,
      "stateMutability": "view",
      "type": "function"
    },
    {
      "constant": false,
      "inputs": [],
      "name": "pause",
      "outputs": [],
      "payable": false,
      "stateMutability": "nonpayable",
      "type": "function"
    },
    {
      "constant": true,
      "inputs": [],
      "name": "pauser",
      "outputs": [
        {
          "name": "",
          "type": "address"
        }
      ],
      "payable": false,
      "stateMutability": "view",
      "type": "function"
    },
    {
      "anonymous": false,
      "inputs": [
        {
          "indexed": true,
          "name": "newCapacity",
          "type": "uint256"
        },
        {
          "indexed": true,
          "name": "sender",
          "type": "address"
        }
      ],
      "name": "Cap",
      "type": "event"
    },
    {
      "anonymous": false,
      "inputs": [
        {
          "indexed": false,
          "name": "status",
          "type": "bool"
        },
        {
          "indexed": true,
          "name": "sender",
          "type": "address"
        }
      ],
      "name": "Pause",
      "type": "event"
    }
  ],
  "bytecode": "0x6080604052600080546001600160a81b0319168155600155600280546001600160a01b031916905534801561003357600080fd5b50610371806100436000396000f3fe608060405234801561001057600080fd5b50600436106100625760003560e01c80633f4ba83a1461006757806350a6aaf4146100715780635c975abb146100955780635cfc1a51146100b15780638456cb59146100cb5780639fd0506d146100d3575b600080fd5b61006f6100db565b005b6100796101f3565b604080516001600160a01b039092168252519081900360200190f35b61009d610202565b604080519115158252519081900360200190f35b6100b9610212565b60408051918252519081900360200190f35b61006f610218565b610079610336565b6000546001600160a01b0316331461013d5760408051600160e51b62461bcd02815260206004820152601c60248201527f7468652073656e646572206973206e6f74207468652070617573657200000000604482015290519081900360640190fd5b600054600160a01b900460ff1661019e5760408051600160e51b62461bcd02815260206004820152601d60248201527f74686973206973206e6f7420612070617573656420636f6e7472616374000000604482015290519081900360640190fd5b60008054600160a01b60ff0219169081905560408051600160a01b90920460ff16151582525133917f5a9dfee0981174e5203ccf9368a8cabb254f9dea6ca43f96b4bbd10c69415d8a919081900360200190a2565b6002546001600160a01b031681565b600054600160a01b900460ff1681565b60015481565b6000546001600160a01b0316331461027a5760408051600160e51b62461bcd02815260206004820152601c60248201527f7468652073656e646572206973206e6f74207468652070617573657200000000604482015290519081900360640190fd5b600054600160a01b900460ff16156102dc5760408051600160e51b62461bcd02815260206004820152601960248201527f7468697320697320612070617573656420636f6e747261637400000000000000604482015290519081900360640190fd5b60008054600160a01b60ff021916600160a01b90811791829055604080519190920460ff1615158152905133917f5a9dfee0981174e5203ccf9368a8cabb254f9dea6ca43f96b4bbd10c69415d8a919081900360200190a2565b6000546001600160a01b03168156fea165627a7a72305820c971ff08252f8d7a2dd8f703ca0f55176e50386095fc3c8a62265934152c5c8a0029",
  "source": "pragma solidity 0.5.8;\n\nimport \"./Pauser.sol\";\n\ncontract Capper is Pauser {\n    uint256 public capacity = 0;\n    address public capper = address(0);\n\n    event Cap(uint256 indexed newCapacity, address indexed sender);\n\n    modifier onlyCapper() {\n        require(msg.sender == capper, \"the sender is not the capper\");\n        _;\n    }\n\n    modifier notMoreThanCapacity(uint256 _amount) {\n        require(_amount <= capacity, \"this amount is more than capacity\");\n        _;\n    }\n\n    function _cap(uint256 _amount) internal {\n        capacity = _amount;\n        emit Cap(capacity, msg.sender);\n    }\n}",
  "sourcePath": "/Users/usr0101757/Projects/GYEN/gyen-solidity/contracts/Roles/Capper.sol",
  "compiler": {
    "name": "solc",
    "version": "0.5.8+commit.23d335f2.Emscripten.clang"
  },
  "schemaVersion": "3.0.16",
  "updatedAt": "2019-10-18T07:46:31.451Z",
  "devdoc": {
    "methods": {}
  },
  "userdoc": {
    "methods": {}
  }
}