{
  "contractName": "MinterAdmin",
  "abi": [
    {
      "constant": false,
      "inputs": [],
      "name": "unpause",
      "outputs": [],
      "payable": false,
      "stateMutability": "nonpayable",
      "type": "function"
    },
    {
      "constant": false,
      "inputs": [],
      "name": "pause",
      "outputs": [],
      "payable": false,
      "stateMutability": "nonpayable",
      "type": "function"
    },
    {
      "anonymous": false,
      "inputs": [
        {
          "indexed": true,
          "name": "oldMinter",
          "type": "address"
        },
        {
          "indexed": true,
          "name": "newMinter",
          "type": "address"
        },
        {
          "indexed": true,
          "name": "sender",
          "type": "address"
        }
      ],
      "name": "MinterChanged",
      "type": "event"
    },
    {
      "anonymous": false,
      "inputs": [
        {
          "indexed": false,
          "name": "status",
          "type": "bool"
        },
        {
          "indexed": false,
          "name": "sender",
          "type": "address"
        }
      ],
      "name": "Pause",
      "type": "event"
    },
    {
      "constant": false,
      "inputs": [
        {
          "name": "_account",
          "type": "address"
        }
      ],
      "name": "changeMinter",
      "outputs": [],
      "payable": false,
      "stateMutability": "nonpayable",
      "type": "function"
    }
  ],
  "bytecode": "0x6080604052600080546001600160a81b0319169055600180546001600160a01b031990811690915560028054909116905534801561003c57600080fd5b5061046e8061004c6000396000f3fe608060405234801561001057600080fd5b50600436106100415760003560e01c80632c4d4d18146100465780633f4ba83a1461006e5780638456cb5914610076575b600080fd5b61006c6004803603602081101561005c57600080fd5b50356001600160a01b031661007e565b005b61006c6101e3565b61006c6102ff565b6002546001600160a01b031633146100ca57604051600160e51b62461bcd0281526004018080602001828103825260218152602001806104226021913960400191505060405180910390fd5b600054600160a01b900460ff161561012c5760408051600160e51b62461bcd02815260206004820152601960248201527f7468697320697320612070617573656420636f6e747261637400000000000000604482015290519081900360640190fd5b806001600160a01b03811661018b5760408051600160e51b62461bcd02815260206004820181905260248201527f74686973206163636f756e7420697320746865207a65726f2061646472657373604482015290519081900360640190fd5b600180546001600160a01b038481166001600160a01b03198316179283905560405191811692339291169083907f6970e71b2bda096f4eb3290c554af7a888cca0ef8b95da09c55b23c6bb30e38190600090a4505050565b6000546001600160a01b031633146102455760408051600160e51b62461bcd02815260206004820152601c60248201527f7468652073656e646572206973206e6f74207468652070617573657200000000604482015290519081900360640190fd5b600054600160a01b900460ff166102a65760408051600160e51b62461bcd02815260206004820152601d60248201527f74686973206973206e6f7420612070617573656420636f6e7472616374000000604482015290519081900360640190fd5b60008054600160a01b60ff0219169081905560408051600160a01b90920460ff161515825233602083015280517f5a9dfee0981174e5203ccf9368a8cabb254f9dea6ca43f96b4bbd10c69415d8a9281900390910190a1565b6000546001600160a01b031633146103615760408051600160e51b62461bcd02815260206004820152601c60248201527f7468652073656e646572206973206e6f74207468652070617573657200000000604482015290519081900360640190fd5b600054600160a01b900460ff16156103c35760408051600160e51b62461bcd02815260206004820152601960248201527f7468697320697320612070617573656420636f6e747261637400000000000000604482015290519081900360640190fd5b60008054600160a01b60ff021916600160a01b90811791829055604080519190920460ff161515815233602082015281517f5a9dfee0981174e5203ccf9368a8cabb254f9dea6ca43f96b4bbd10c69415d8a929181900390910190a156fe7468652073656e646572206973206e6f7420746865206d696e74657241646d696ea165627a7a7230582036344c162f5efe5642deca242dda54ce602f469cd30c2ad8a5122f357e4995090029",
  "source": "pragma solidity ^0.5.8;\n\nimport \"./Minter.sol\";\n\ncontract MinterAdmin is Minter {\n    address internal minterAdmin = address(0);\n\n    event MinterChanged(address indexed oldMinter, address indexed newMinter, address indexed sender);\n\n    modifier onlyMinterAdmin() {\n        require(msg.sender == minterAdmin, \"the sender is not the minterAdmin\");\n        _;\n    }\n\n    function changeMinter(address _account) public onlyMinterAdmin whenNotPaused isNotZeroAddress(_account) {\n        address old = minter;\n        minter = _account;\n        emit MinterChanged(old, minter, msg.sender);\n    }\n}",
  "sourcePath": "/Users/usr0101757/Projects/GYEN/gyen-solidity/contracts/Roles/MinterAdmin.sol",
  "compiler": {
    "name": "solc",
    "version": "0.5.8+commit.23d335f2.Emscripten.clang"
  },
  "schemaVersion": "3.0.11",
  "updatedAt": "2019-10-04T06:18:07.407Z",
  "devdoc": {
    "methods": {}
  },
  "userdoc": {
    "methods": {}
  }
}