{
  "contractName": "Minter",
  "abi": [
    {
      "constant": false,
      "inputs": [],
      "name": "unpause",
      "outputs": [],
      "payable": false,
      "stateMutability": "nonpayable",
      "type": "function"
    },
    {
      "constant": false,
      "inputs": [],
      "name": "pause",
      "outputs": [],
      "payable": false,
      "stateMutability": "nonpayable",
      "type": "function"
    },
    {
      "anonymous": false,
      "inputs": [
        {
          "indexed": false,
          "name": "status",
          "type": "bool"
        },
        {
          "indexed": false,
          "name": "sender",
          "type": "address"
        }
      ],
      "name": "Pause",
      "type": "event"
    }
  ],
  "bytecode": "0x6080604052600080546001600160a81b0319169055600180546001600160a01b031916905534801561003057600080fd5b506102b7806100406000396000f3fe608060405234801561001057600080fd5b50600436106100365760003560e01c80633f4ba83a1461003b5780638456cb5914610045575b600080fd5b61004361004d565b005b610043610169565b6000546001600160a01b031633146100af5760408051600160e51b62461bcd02815260206004820152601c60248201527f7468652073656e646572206973206e6f74207468652070617573657200000000604482015290519081900360640190fd5b600054600160a01b900460ff166101105760408051600160e51b62461bcd02815260206004820152601d60248201527f74686973206973206e6f7420612070617573656420636f6e7472616374000000604482015290519081900360640190fd5b60008054600160a01b60ff0219169081905560408051600160a01b90920460ff161515825233602083015280517f5a9dfee0981174e5203ccf9368a8cabb254f9dea6ca43f96b4bbd10c69415d8a9281900390910190a1565b6000546001600160a01b031633146101cb5760408051600160e51b62461bcd02815260206004820152601c60248201527f7468652073656e646572206973206e6f74207468652070617573657200000000604482015290519081900360640190fd5b600054600160a01b900460ff161561022d5760408051600160e51b62461bcd02815260206004820152601960248201527f7468697320697320612070617573656420636f6e747261637400000000000000604482015290519081900360640190fd5b60008054600160a01b60ff021916600160a01b90811791829055604080519190920460ff161515815233602082015281517f5a9dfee0981174e5203ccf9368a8cabb254f9dea6ca43f96b4bbd10c69415d8a929181900390910190a156fea165627a7a72305820d8a5f8e5c56117161636eb8e5620becbf4e5ea11faf606d8cc0cb89c6d4e5a6c0029",
  "source": "pragma solidity ^0.5.8;\n\nimport \"./Pauser.sol\";\n\ncontract Minter is Pauser {\n    address internal minter = address(0);\n\n    modifier onlyMinter() {\n        require(msg.sender == minter, \"the sender is not the minter\");\n        _;\n    }\n}",
  "sourcePath": "/Users/usr0101757/Projects/GYEN/gyen-solidity/contracts/Roles/Minter.sol",
  "compiler": {
    "name": "solc",
    "version": "0.5.8+commit.23d335f2.Emscripten.clang"
  },
  "schemaVersion": "3.0.11",
  "updatedAt": "2019-08-06T03:23:25.561Z",
  "devdoc": {
    "methods": {}
  },
  "userdoc": {
    "methods": {}
  }
}