{
  "contractName": "OpToken_v1",
  "abi": [
    {
      "anonymous": false,
      "inputs": [
        {
          "indexed": true,
          "internalType": "address",
          "name": "oldAdmin",
          "type": "address"
        },
        {
          "indexed": true,
          "internalType": "address",
          "name": "newAdmin",
          "type": "address"
        },
        {
          "indexed": true,
          "internalType": "address",
          "name": "sender",
          "type": "address"
        }
      ],
      "name": "AdminChanged",
      "type": "event"
    },
    {
      "anonymous": false,
      "inputs": [
        {
          "indexed": true,
          "internalType": "address",
          "name": "owner",
          "type": "address"
        },
        {
          "indexed": true,
          "internalType": "address",
          "name": "spender",
          "type": "address"
        },
        {
          "indexed": false,
          "internalType": "uint256",
          "name": "value",
          "type": "uint256"
        }
      ],
      "name": "Approval",
      "type": "event"
    },
    {
      "anonymous": false,
      "inputs": [
        {
          "indexed": true,
          "internalType": "address",
          "name": "burnee",
          "type": "address"
        },
        {
          "indexed": false,
          "internalType": "uint256",
          "name": "amount",
          "type": "uint256"
        },
        {
          "indexed": true,
          "internalType": "address",
          "name": "sender",
          "type": "address"
        }
      ],
      "name": "Burn",
      "type": "event"
    },
    {
      "anonymous": false,
      "inputs": [
        {
          "indexed": true,
          "internalType": "address",
          "name": "mintee",
          "type": "address"
        },
        {
          "indexed": false,
          "internalType": "uint256",
          "name": "amount",
          "type": "uint256"
        },
        {
          "indexed": true,
          "internalType": "address",
          "name": "sender",
          "type": "address"
        }
      ],
      "name": "Mint",
      "type": "event"
    },
    {
      "anonymous": false,
      "inputs": [
        {
          "indexed": true,
          "internalType": "address",
          "name": "oldOwner",
          "type": "address"
        },
        {
          "indexed": true,
          "internalType": "address",
          "name": "newOwner",
          "type": "address"
        },
        {
          "indexed": true,
          "internalType": "address",
          "name": "sender",
          "type": "address"
        }
      ],
      "name": "OwnerChanged",
      "type": "event"
    },
    {
      "anonymous": false,
      "inputs": [
        {
          "indexed": false,
          "internalType": "bool",
          "name": "status",
          "type": "bool"
        },
        {
          "indexed": true,
          "internalType": "address",
          "name": "sender",
          "type": "address"
        }
      ],
      "name": "Pause",
      "type": "event"
    },
    {
      "anonymous": false,
      "inputs": [
        {
          "indexed": true,
          "internalType": "address",
          "name": "oldPauser",
          "type": "address"
        },
        {
          "indexed": true,
          "internalType": "address",
          "name": "newPauser",
          "type": "address"
        },
        {
          "indexed": true,
          "internalType": "address",
          "name": "sender",
          "type": "address"
        }
      ],
      "name": "PauserChanged",
      "type": "event"
    },
    {
      "anonymous": false,
      "inputs": [
        {
          "indexed": true,
          "internalType": "address",
          "name": "oldProhibiter",
          "type": "address"
        },
        {
          "indexed": true,
          "internalType": "address",
          "name": "newProhibiter",
          "type": "address"
        },
        {
          "indexed": true,
          "internalType": "address",
          "name": "sender",
          "type": "address"
        }
      ],
      "name": "ProhibiterChanged",
      "type": "event"
    },
    {
      "anonymous": false,
      "inputs": [
        {
          "indexed": true,
          "internalType": "address",
          "name": "prohibited",
          "type": "address"
        },
        {
          "indexed": false,
          "internalType": "bool",
          "name": "status",
          "type": "bool"
        },
        {
          "indexed": true,
          "internalType": "address",
          "name": "sender",
          "type": "address"
        }
      ],
      "name": "Prohibition",
      "type": "event"
    },
    {
      "anonymous": false,
      "inputs": [
        {
          "indexed": true,
          "internalType": "contract IERC20",
          "name": "tokenAddr",
          "type": "address"
        },
        {
          "indexed": true,
          "internalType": "address",
          "name": "toAddr",
          "type": "address"
        },
        {
          "indexed": false,
          "internalType": "uint256",
          "name": "amount",
          "type": "uint256"
        }
      ],
      "name": "Rescue",
      "type": "event"
    },
    {
      "anonymous": false,
      "inputs": [
        {
          "indexed": true,
          "internalType": "address",
          "name": "oldRescuer",
          "type": "address"
        },
        {
          "indexed": true,
          "internalType": "address",
          "name": "newRescuer",
          "type": "address"
        },
        {
          "indexed": true,
          "internalType": "address",
          "name": "sender",
          "type": "address"
        }
      ],
      "name": "RescuerChanged",
      "type": "event"
    },
    {
      "anonymous": false,
      "inputs": [
        {
          "indexed": true,
          "internalType": "address",
          "name": "from",
          "type": "address"
        },
        {
          "indexed": true,
          "internalType": "address",
          "name": "to",
          "type": "address"
        },
        {
          "indexed": false,
          "internalType": "uint256",
          "name": "value",
          "type": "uint256"
        }
      ],
      "name": "Transfer",
      "type": "event"
    },
    {
      "anonymous": false,
      "inputs": [
        {
          "indexed": false,
          "internalType": "string",
          "name": "_newName",
          "type": "string"
        },
        {
          "indexed": false,
          "internalType": "string",
          "name": "_newSymbol",
          "type": "string"
        }
      ],
      "name": "UpdateMetadata",
      "type": "event"
    },
    {
      "anonymous": false,
      "inputs": [
        {
          "indexed": true,
          "internalType": "address",
          "name": "addr",
          "type": "address"
        },
        {
          "indexed": false,
          "internalType": "uint256",
          "name": "amount",
          "type": "uint256"
        }
      ],
      "name": "Wipe",
      "type": "event"
    },
    {
      "anonymous": false,
      "inputs": [
        {
          "indexed": true,
          "internalType": "address",
          "name": "oldWiper",
          "type": "address"
        },
        {
          "indexed": true,
          "internalType": "address",
          "name": "newWiper",
          "type": "address"
        },
        {
          "indexed": true,
          "internalType": "address",
          "name": "sender",
          "type": "address"
        }
      ],
      "name": "WiperChanged",
      "type": "event"
    },
    {
      "constant": true,
      "inputs": [],
      "name": "PERMIT_TYPEHASH",
      "outputs": [
        {
          "internalType": "bytes32",
          "name": "",
          "type": "bytes32"
        }
      ],
      "payable": false,
      "stateMutability": "view",
      "type": "function"
    },
    {
      "constant": true,
      "inputs": [],
      "name": "admin",
      "outputs": [
        {
          "internalType": "address",
          "name": "",
          "type": "address"
        }
      ],
      "payable": false,
      "stateMutability": "view",
      "type": "function"
    },
    {
      "constant": true,
      "inputs": [
        {
          "internalType": "address",
          "name": "owner",
          "type": "address"
        },
        {
          "internalType": "address",
          "name": "spender",
          "type": "address"
        }
      ],
      "name": "allowance",
      "outputs": [
        {
          "internalType": "uint256",
          "name": "",
          "type": "uint256"
        }
      ],
      "payable": false,
      "stateMutability": "view",
      "type": "function"
    },
    {
      "constant": false,
      "inputs": [
        {
          "internalType": "address",
          "name": "spender",
          "type": "address"
        },
        {
          "internalType": "uint256",
          "name": "value",
          "type": "uint256"
        }
      ],
      "name": "approve",
      "outputs": [
        {
          "internalType": "bool",
          "name": "",
          "type": "bool"
        }
      ],
      "payable": false,
      "stateMutability": "nonpayable",
      "type": "function"
    },
    {
      "constant": true,
      "inputs": [
        {
          "internalType": "address",
          "name": "account",
          "type": "address"
        }
      ],
      "name": "balanceOf",
      "outputs": [
        {
          "internalType": "uint256",
          "name": "",
          "type": "uint256"
        }
      ],
      "payable": false,
      "stateMutability": "view",
      "type": "function"
    },
    {
      "constant": false,
      "inputs": [
        {
          "internalType": "address",
          "name": "_account",
          "type": "address"
        }
      ],
      "name": "changeAdmin",
      "outputs": [],
      "payable": false,
      "stateMutability": "nonpayable",
      "type": "function"
    },
    {
      "constant": false,
      "inputs": [
        {
          "internalType": "address",
          "name": "_account",
          "type": "address"
        }
      ],
      "name": "changeOwner",
      "outputs": [],
      "payable": false,
      "stateMutability": "nonpayable",
      "type": "function"
    },
    {
      "constant": false,
      "inputs": [
        {
          "internalType": "address",
          "name": "_account",
          "type": "address"
        }
      ],
      "name": "changePauser",
      "outputs": [],
      "payable": false,
      "stateMutability": "nonpayable",
      "type": "function"
    },
    {
      "constant": false,
      "inputs": [
        {
          "internalType": "address",
          "name": "_account",
          "type": "address"
        }
      ],
      "name": "changeProhibiter",
      "outputs": [],
      "payable": false,
      "stateMutability": "nonpayable",
      "type": "function"
    },
    {
      "constant": false,
      "inputs": [
        {
          "internalType": "address",
          "name": "_account",
          "type": "address"
        }
      ],
      "name": "changeRescuer",
      "outputs": [],
      "payable": false,
      "stateMutability": "nonpayable",
      "type": "function"
    },
    {
      "constant": false,
      "inputs": [
        {
          "internalType": "address",
          "name": "_account",
          "type": "address"
        }
      ],
      "name": "changeWiper",
      "outputs": [],
      "payable": false,
      "stateMutability": "nonpayable",
      "type": "function"
    },
    {
      "constant": true,
      "inputs": [],
      "name": "decimals",
      "outputs": [
        {
          "internalType": "uint8",
          "name": "",
          "type": "uint8"
        }
      ],
      "payable": false,
      "stateMutability": "view",
      "type": "function"
    },
    {
      "constant": false,
      "inputs": [
        {
          "internalType": "address",
          "name": "spender",
          "type": "address"
        },
        {
          "internalType": "uint256",
          "name": "subtractedValue",
          "type": "uint256"
        }
      ],
      "name": "decreaseAllowance",
      "outputs": [
        {
          "internalType": "bool",
          "name": "",
          "type": "bool"
        }
      ],
      "payable": false,
      "stateMutability": "nonpayable",
      "type": "function"
    },
    {
      "constant": true,
      "inputs": [],
      "name": "deploymentChainId",
      "outputs": [
        {
          "internalType": "uint256",
          "name": "",
          "type": "uint256"
        }
      ],
      "payable": false,
      "stateMutability": "view",
      "type": "function"
    },
    {
      "constant": false,
      "inputs": [
        {
          "internalType": "address",
          "name": "spender",
          "type": "address"
        },
        {
          "internalType": "uint256",
          "name": "addedValue",
          "type": "uint256"
        }
      ],
      "name": "increaseAllowance",
      "outputs": [
        {
          "internalType": "bool",
          "name": "",
          "type": "bool"
        }
      ],
      "payable": false,
      "stateMutability": "nonpayable",
      "type": "function"
    },
    {
      "constant": true,
      "inputs": [],
      "name": "l1Token",
      "outputs": [
        {
          "internalType": "address",
          "name": "",
          "type": "address"
        }
      ],
      "payable": false,
      "stateMutability": "view",
      "type": "function"
    },
    {
      "constant": true,
      "inputs": [],
      "name": "l2Bridge",
      "outputs": [
        {
          "internalType": "address",
          "name": "",
          "type": "address"
        }
      ],
      "payable": false,
      "stateMutability": "view",
      "type": "function"
    },
    {
      "constant": true,
      "inputs": [],
      "name": "name",
      "outputs": [
        {
          "internalType": "string",
          "name": "",
          "type": "string"
        }
      ],
      "payable": false,
      "stateMutability": "view",
      "type": "function"
    },
    {
      "constant": true,
      "inputs": [
        {
          "internalType": "address",
          "name": "",
          "type": "address"
        }
      ],
      "name": "nonces",
      "outputs": [
        {
          "internalType": "uint256",
          "name": "",
          "type": "uint256"
        }
      ],
      "payable": false,
      "stateMutability": "view",
      "type": "function"
    },
    {
      "constant": true,
      "inputs": [],
      "name": "owner",
      "outputs": [
        {
          "internalType": "address",
          "name": "",
          "type": "address"
        }
      ],
      "payable": false,
      "stateMutability": "view",
      "type": "function"
    },
    {
      "constant": false,
      "inputs": [],
      "name": "pause",
      "outputs": [],
      "payable": false,
      "stateMutability": "nonpayable",
      "type": "function"
    },
    {
      "constant": true,
      "inputs": [],
      "name": "paused",
      "outputs": [
        {
          "internalType": "bool",
          "name": "",
          "type": "bool"
        }
      ],
      "payable": false,
      "stateMutability": "view",
      "type": "function"
    },
    {
      "constant": true,
      "inputs": [],
      "name": "pauser",
      "outputs": [
        {
          "internalType": "address",
          "name": "",
          "type": "address"
        }
      ],
      "payable": false,
      "stateMutability": "view",
      "type": "function"
    },
    {
      "constant": false,
      "inputs": [
        {
          "internalType": "address",
          "name": "_account",
          "type": "address"
        }
      ],
      "name": "prohibit",
      "outputs": [],
      "payable": false,
      "stateMutability": "nonpayable",
      "type": "function"
    },
    {
      "constant": true,
      "inputs": [
        {
          "internalType": "address",
          "name": "",
          "type": "address"
        }
      ],
      "name": "prohibiteds",
      "outputs": [
        {
          "internalType": "bool",
          "name": "",
          "type": "bool"
        }
      ],
      "payable": false,
      "stateMutability": "view",
      "type": "function"
    },
    {
      "constant": true,
      "inputs": [],
      "name": "prohibiter",
      "outputs": [
        {
          "internalType": "address",
          "name": "",
          "type": "address"
        }
      ],
      "payable": false,
      "stateMutability": "view",
      "type": "function"
    },
    {
      "constant": false,
      "inputs": [
        {
          "internalType": "contract IERC20",
          "name": "_tokenContract",
          "type": "address"
        },
        {
          "internalType": "address",
          "name": "_to",
          "type": "address"
        },
        {
          "internalType": "uint256",
          "name": "_amount",
          "type": "uint256"
        }
      ],
      "name": "rescue",
      "outputs": [],
      "payable": false,
      "stateMutability": "nonpayable",
      "type": "function"
    },
    {
      "constant": true,
      "inputs": [],
      "name": "rescuer",
      "outputs": [
        {
          "internalType": "address",
          "name": "",
          "type": "address"
        }
      ],
      "payable": false,
      "stateMutability": "view",
      "type": "function"
    },
    {
      "constant": true,
      "inputs": [],
      "name": "symbol",
      "outputs": [
        {
          "internalType": "string",
          "name": "",
          "type": "string"
        }
      ],
      "payable": false,
      "stateMutability": "view",
      "type": "function"
    },
    {
      "constant": true,
      "inputs": [],
      "name": "totalSupply",
      "outputs": [
        {
          "internalType": "uint256",
          "name": "",
          "type": "uint256"
        }
      ],
      "payable": false,
      "stateMutability": "view",
      "type": "function"
    },
    {
      "constant": false,
      "inputs": [],
      "name": "unpause",
      "outputs": [],
      "payable": false,
      "stateMutability": "nonpayable",
      "type": "function"
    },
    {
      "constant": false,
      "inputs": [
        {
          "internalType": "address",
          "name": "_account",
          "type": "address"
        }
      ],
      "name": "unprohibit",
      "outputs": [],
      "payable": false,
      "stateMutability": "nonpayable",
      "type": "function"
    },
    {
      "constant": true,
      "inputs": [],
      "name": "version",
      "outputs": [
        {
          "internalType": "string",
          "name": "",
          "type": "string"
        }
      ],
      "payable": false,
      "stateMutability": "view",
      "type": "function"
    },
    {
      "constant": false,
      "inputs": [
        {
          "internalType": "address",
          "name": "_account",
          "type": "address"
        }
      ],
      "name": "wipe",
      "outputs": [],
      "payable": false,
      "stateMutability": "nonpayable",
      "type": "function"
    },
    {
      "constant": true,
      "inputs": [],
      "name": "wiper",
      "outputs": [
        {
          "internalType": "address",
          "name": "",
          "type": "address"
        }
      ],
      "payable": false,
      "stateMutability": "view",
      "type": "function"
    },
    {
      "constant": false,
      "inputs": [
        {
          "internalType": "string",
          "name": "_name",
          "type": "string"
        },
        {
          "internalType": "string",
          "name": "_symbol",
          "type": "string"
        },
        {
          "internalType": "uint8",
          "name": "_decimals",
          "type": "uint8"
        },
        {
          "internalType": "address",
          "name": "_owner",
          "type": "address"
        },
        {
          "internalType": "address",
          "name": "_admin",
          "type": "address"
        },
        {
          "internalType": "address",
          "name": "_prohibiter",
          "type": "address"
        },
        {
          "internalType": "address",
          "name": "_pauser",
          "type": "address"
        },
        {
          "internalType": "address",
          "name": "_wiper",
          "type": "address"
        },
        {
          "internalType": "address",
          "name": "_rescuer",
          "type": "address"
        },
        {
          "internalType": "address",
          "name": "_l1Token",
          "type": "address"
        },
        {
          "internalType": "address",
          "name": "_l2Bridge",
          "type": "address"
        }
      ],
      "name": "initialize",
      "outputs": [],
      "payable": false,
      "stateMutability": "nonpayable",
      "type": "function"
    },
    {
      "constant": false,
      "inputs": [
        {
          "internalType": "address",
          "name": "_recipient",
          "type": "address"
        },
        {
          "internalType": "uint256",
          "name": "_amount",
          "type": "uint256"
        }
      ],
      "name": "transfer",
      "outputs": [
        {
          "internalType": "bool",
          "name": "",
          "type": "bool"
        }
      ],
      "payable": false,
      "stateMutability": "nonpayable",
      "type": "function"
    },
    {
      "constant": false,
      "inputs": [
        {
          "internalType": "address",
          "name": "_sender",
          "type": "address"
        },
        {
          "internalType": "address",
          "name": "_recipient",
          "type": "address"
        },
        {
          "internalType": "uint256",
          "name": "_amount",
          "type": "uint256"
        }
      ],
      "name": "transferFrom",
      "outputs": [
        {
          "internalType": "bool",
          "name": "",
          "type": "bool"
        }
      ],
      "payable": false,
      "stateMutability": "nonpayable",
      "type": "function"
    },
    {
      "constant": false,
      "inputs": [
        {
          "internalType": "address",
          "name": "_to",
          "type": "address"
        },
        {
          "internalType": "uint256",
          "name": "_amount",
          "type": "uint256"
        }
      ],
      "name": "mint",
      "outputs": [],
      "payable": false,
      "stateMutability": "nonpayable",
      "type": "function"
    },
    {
      "constant": false,
      "inputs": [
        {
          "internalType": "address",
          "name": "_from",
          "type": "address"
        },
        {
          "internalType": "uint256",
          "name": "_amount",
          "type": "uint256"
        }
      ],
      "name": "burn",
      "outputs": [],
      "payable": false,
      "stateMutability": "nonpayable",
      "type": "function"
    },
    {
      "constant": true,
      "inputs": [],
      "name": "DOMAIN_SEPARATOR",
      "outputs": [
        {
          "internalType": "bytes32",
          "name": "",
          "type": "bytes32"
        }
      ],
      "payable": false,
      "stateMutability": "view",
      "type": "function"
    },
    {
      "constant": false,
      "inputs": [
        {
          "internalType": "address",
          "name": "owner",
          "type": "address"
        },
        {
          "internalType": "address",
          "name": "spender",
          "type": "address"
        },
        {
          "internalType": "uint256",
          "name": "value",
          "type": "uint256"
        },
        {
          "internalType": "uint256",
          "name": "deadline",
          "type": "uint256"
        },
        {
          "internalType": "uint8",
          "name": "v",
          "type": "uint8"
        },
        {
          "internalType": "bytes32",
          "name": "r",
          "type": "bytes32"
        },
        {
          "internalType": "bytes32",
          "name": "s",
          "type": "bytes32"
        }
      ],
      "name": "permit",
      "outputs": [],
      "payable": false,
      "stateMutability": "nonpayable",
      "type": "function"
    },
    {
      "constant": true,
      "inputs": [
        {
          "internalType": "bytes4",
          "name": "_interfaceId",
          "type": "bytes4"
        }
      ],
      "name": "supportsInterface",
      "outputs": [
        {
          "internalType": "bool",
          "name": "",
          "type": "bool"
        }
      ],
      "payable": false,
      "stateMutability": "pure",
      "type": "function"
    },
    {
      "constant": false,
      "inputs": [
        {
          "internalType": "string",
          "name": "_newName",
          "type": "string"
        },
        {
          "internalType": "string",
          "name": "_newSymbol",
          "type": "string"
        }
      ],
      "name": "updateMetadata",
      "outputs": [],
      "payable": false,
      "stateMutability": "nonpayable",
      "type": "function"
    }
  ],
  "bytecode": "0x6080604052603380546001600160a81b0319169055603480546001600160a01b03199081169091556035805482169055603a805482169055603b805482169055603c8054909116905534801561005457600080fd5b506134df806100646000396000f3fe608060405234801561001057600080fd5b50600436106102745760003560e01c806370a0823111610151578063a9059cbb116100c3578063cffdd46c11610087578063cffdd46c146109a3578063d505accf146109c9578063dcb413c814610a1a578063dd62ed3e14610a22578063dd75049b14610a50578063f851a44014610a5857610274565b8063a9059cbb14610939578063ae1f6aaf14610965578063c01e1bd61461096d578063c4e1ccf214610975578063cd0d00961461099b57610274565b806395d89b411161011557806395d89b4114610885578063988749d11461088d5780639dc29fac146108b35780639fd0506d146108df578063a457c2d7146108e7578063a6f9dae11461091357610274565b806370a08231146108035780637ecebe00146108295780638456cb591461084f5780638da5cb5b146108575780638f2839701461085f57610274565b8063313ce567116101ea57806340c10f19116101ae57806340c10f191461065257806354fd4d501461067e57806356ce0e6c1461068657806359763628146107af5780635c975abb146107d5578063664dc724146107dd57610274565b8063313ce567146105d45780633644e515146105f257806338a63183146105fa578063395093511461061e5780633f4ba83a1461064a57610274565b806320ff430b1161023c57806320ff430b146104ee57806323b872dd146105245780632ad3ed6d1461055a5780632cd271e7146105805780632fee80d0146105a657806330adf81f146105cc57610274565b806301ffc9a71461027957806306fdde03146102b4578063095ea7b31461033157806318160ddd1461035d5780631891795614610377575b600080fd5b6102a06004803603602081101561028f57600080fd5b50356001600160e01b031916610a60565b604080519115158252519081900360200190f35b6102bc610acc565b6040805160208082528351818301528351919283929083019185019080838360005b838110156102f65781810151838201526020016102de565b50505050905090810190601f1680156103235780820380516001836020036101000a031916815260200191505b509250505060405180910390f35b6102a06004803603604081101561034757600080fd5b506001600160a01b038135169060200135610b5a565b610365610b70565b60408051918252519081900360200190f35b6104ec600480360361016081101561038e57600080fd5b810190602081018135600160201b8111156103a857600080fd5b8201836020820111156103ba57600080fd5b803590602001918460018302840111600160201b831117156103db57600080fd5b91908080601f0160208091040260200160405190810160405280939291908181526020018383808284376000920191909152509295949360208101935035915050600160201b81111561042d57600080fd5b82018360208201111561043f57600080fd5b803590602001918460018302840111600160201b8311171561046057600080fd5b91908080601f0160208091040260200160405190810160405280939291908181526020018383808284376000920191909152509295505050813560ff1692505060208101356001600160a01b039081169160408101358216916060820135811691608081013582169160a082013581169160c081013582169160e0820135811691610100013516610b77565b005b6104ec6004803603606081101561050457600080fd5b506001600160a01b03813581169160208101359091169060400135611090565b6102a06004803603606081101561053a57600080fd5b506001600160a01b038135811691602081013590911690604001356111a6565b6102a06004803603602081101561057057600080fd5b50356001600160a01b0316611308565b6104ec6004803603602081101561059657600080fd5b50356001600160a01b031661131d565b6104ec600480360360208110156105bc57600080fd5b50356001600160a01b031661140c565b610365611548565b6105dc611563565b6040805160ff9092168252519081900360200190f35b61036561156c565b610602611592565b604080516001600160a01b039092168252519081900360200190f35b6102a06004803603604081101561063457600080fd5b506001600160a01b0381351690602001356115a1565b6104ec6115e2565b6104ec6004803603604081101561066857600080fd5b506001600160a01b0381351690602001356116f1565b6102bc61179e565b6104ec6004803603604081101561069c57600080fd5b810190602081018135600160201b8111156106b657600080fd5b8201836020820111156106c857600080fd5b803590602001918460018302840111600160201b831117156106e957600080fd5b91908080601f0160208091040260200160405190810160405280939291908181526020018383808284376000920191909152509295949360208101935035915050600160201b81111561073b57600080fd5b82018360208201111561074d57600080fd5b803590602001918460018302840111600160201b8311171561076e57600080fd5b91908080601f0160208091040260200160405190810160405280939291908181526020018383808284376000920191909152509295506117bb945050505050565b6104ec600480360360208110156107c557600080fd5b50356001600160a01b0316611941565b6102a0611a7d565b6104ec600480360360208110156107f357600080fd5b50356001600160a01b0316611a8d565b6103656004803603602081101561081957600080fd5b50356001600160a01b0316611c4c565b6103656004803603602081101561083f57600080fd5b50356001600160a01b0316611c67565b6104ec611c79565b610602611d7c565b6104ec6004803603602081101561087557600080fd5b50356001600160a01b0316611d8b565b6102bc611e8c565b6104ec600480360360208110156108a357600080fd5b50356001600160a01b0316611ee7565b6104ec600480360360408110156108c957600080fd5b506001600160a01b03813516906020013561205d565b61060261210a565b6102a0600480360360408110156108fd57600080fd5b506001600160a01b038135169060200135612119565b6104ec6004803603602081101561092957600080fd5b50356001600160a01b0316612155565b6102a06004803603604081101561094f57600080fd5b506001600160a01b0381351690602001356122a3565b6106026123fb565b61060261240a565b6104ec6004803603602081101561098b57600080fd5b50356001600160a01b031661241e565b6103656125da565b6104ec600480360360208110156109b957600080fd5b50356001600160a01b03166125e0565b6104ec600480360360e08110156109df57600080fd5b506001600160a01b03813581169160208101359091169060408101359060608101359060ff6080820135169060a08101359060c0013561271c565b610602612916565b61036560048036036040811015610a3857600080fd5b506001600160a01b0381358116916020013516612925565b610602612950565b61060261295f565b604080517f737570706f727473496e7465726661636528627974657334290000000000000081529051908190036019019020600090631d1d8b6360e01b6001600160e01b03198481169083161480610ac457506001600160e01b0319848116908216145b949350505050565b603d805460408051602060026001851615610100026000190190941693909304601f81018490048402820184019092528181529291830182828015610b525780601f10610b2757610100808354040283529160200191610b52565b820191906000526020600020905b815481529060010190602001808311610b3557829003601f168201915b505050505081565b6000610b6733848461296e565b50600192915050565b6039545b90565b600054610100900460ff1680610b905750610b90612a5a565b80610b9e575060005460ff16155b610bd95760405162461bcd60e51b815260040180806020018281038252602e8152602001806133c6602e913960400191505060405180910390fd5b600054610100900460ff16158015610c04576000805460ff1961ff0019909116610100171660011790555b6001600160a01b038916610c5f576040805162461bcd60e51b815260206004820152601a60248201527f5f6f776e657220697320746865207a65726f2061646472657373000000000000604482015290519081900360640190fd5b6001600160a01b038816610cba576040805162461bcd60e51b815260206004820152601a60248201527f5f61646d696e20697320746865207a65726f2061646472657373000000000000604482015290519081900360640190fd5b6001600160a01b038716610d15576040805162461bcd60e51b815260206004820152601f60248201527f5f70726f6869626974657220697320746865207a65726f206164647265737300604482015290519081900360640190fd5b6001600160a01b038616610d70576040805162461bcd60e51b815260206004820152601b60248201527f5f70617573657220697320746865207a65726f20616464726573730000000000604482015290519081900360640190fd5b6001600160a01b038516610dcb576040805162461bcd60e51b815260206004820152601a60248201527f5f776970657220697320746865207a65726f2061646472657373000000000000604482015290519081900360640190fd5b6001600160a01b038416610e26576040805162461bcd60e51b815260206004820152601c60248201527f5f7265736375657220697320746865207a65726f206164647265737300000000604482015290519081900360640190fd5b6001600160a01b038316610e81576040805162461bcd60e51b815260206004820152601c60248201527f5f6c31546f6b656e20697320746865207a65726f206164647265737300000000604482015290519081900360640190fd5b6001600160a01b038216610edc576040805162461bcd60e51b815260206004820152601d60248201527f5f6c3242726964676520697320746865207a65726f2061646472657373000000604482015290519081900360640190fd5b8b51610eef90603d9060208f01906131c4565b508a51610f0390603e9060208e01906131c4565b5089603f60006101000a81548160ff021916908360ff16021790555088603c60006101000a8154816001600160a01b0302191690836001600160a01b0316021790555087603b60006101000a8154816001600160a01b0302191690836001600160a01b0316021790555086603560006101000a8154816001600160a01b0302191690836001600160a01b0316021790555085603360006101000a8154816001600160a01b0302191690836001600160a01b0316021790555084603a60006101000a8154816001600160a01b0302191690836001600160a01b0316021790555083603460006101000a8154816001600160a01b0302191690836001600160a01b0316021790555082603f60016101000a8154816001600160a01b0302191690836001600160a01b0316021790555081604060006101000a8154816001600160a01b0302191690836001600160a01b0316021790555060004690508060418190555061106c81612a60565b604355508015611082576000805461ff00191690555b505050505050505050505050565b603354600160a01b900460ff16156110dd576040805162461bcd60e51b81526020600482015260196024820152600080516020613302833981519152604482015290519081900360640190fd5b6034546001600160a01b0316331461113c576040805162461bcd60e51b815260206004820152601d60248201527f7468652073656e646572206973206e6f74207468652072657363756572000000604482015290519081900360640190fd5b6111566001600160a01b038416838363ffffffff612b5e16565b816001600160a01b0316836001600160a01b03167fe01920728668d89f092ef9cb92036bad90964bb622eec508d2c3ffe1d582efb2836040518082815260200191505060405180910390a3505050565b603354600090600160a01b900460ff16156111f6576040805162461bcd60e51b81526020600482015260196024820152600080516020613302833981519152604482015290519081900360640190fd5b6001600160a01b038416600090815260366020526040902054849060ff1615611254576040805162461bcd60e51b815260206004820152601a60248201526000805160206132e2833981519152604482015290519081900360640190fd5b6001600160a01b038416600090815260366020526040902054849060ff16156112b2576040805162461bcd60e51b815260206004820152601a60248201526000805160206132e2833981519152604482015290519081900360640190fd5b83806000106112f25760405162461bcd60e51b81526004018080602001828103825260238152602001806133f46023913960400191505060405180910390fd5b6112fd878787612bb5565b979650505050505050565b60366020526000908152604090205460ff1681565b603b546001600160a01b0316331461136a576040805162461bcd60e51b815260206004820152601b6024820152600080516020613280833981519152604482015290519081900360640190fd5b806001600160a01b0381166113b4576040805162461bcd60e51b815260206004820181905260248201526000805160206132c2833981519152604482015290519081900360640190fd5b603380546001600160a01b038481166001600160a01b03198316179283905560405191811692339291169083907f8b1ee37fa817a066fe12c7c9bf109c0c9f8f03ef0a5cfe0c03d5196e8c2e465790600090a4505050565b603b546001600160a01b03163314611459576040805162461bcd60e51b815260206004820152601b6024820152600080516020613280833981519152604482015290519081900360640190fd5b603354600160a01b900460ff16156114a6576040805162461bcd60e51b81526020600482015260196024820152600080516020613302833981519152604482015290519081900360640190fd5b806001600160a01b0381166114f0576040805162461bcd60e51b815260206004820181905260248201526000805160206132c2833981519152604482015290519081900360640190fd5b603a80546001600160a01b038481166001600160a01b03198316179283905560405191811692339291169083907fd8d09cf07cabd1c0519931ab387ce1b6e580584a26fb2787b8ed7f446c34603f90600090a4505050565b60405180605261332282396052019050604051809103902081565b603f5460ff1681565b604154600090469081146115885761158381612a60565b61158c565b6043545b91505090565b6034546001600160a01b031681565b3360008181526038602090815260408083206001600160a01b03871684529091528120549091610b679185906115dd908663ffffffff612c0716565b61296e565b6033546001600160a01b03163314611641576040805162461bcd60e51b815260206004820152601c60248201527f7468652073656e646572206973206e6f74207468652070617573657200000000604482015290519081900360640190fd5b603354600160a01b900460ff1661169f576040805162461bcd60e51b815260206004820152601d60248201527f74686973206973206e6f7420612070617573656420636f6e7472616374000000604482015290519081900360640190fd5b6033805460ff60a01b19169081905560408051600160a01b90920460ff16151582525133917f5a9dfee0981174e5203ccf9368a8cabb254f9dea6ca43f96b4bbd10c69415d8a919081900360200190a2565b6040546001600160a01b03163314611750576040805162461bcd60e51b815260206004820181905260248201527f4f6e6c79204c32204272696467652063616e206d696e7420616e64206275726e604482015290519081900360640190fd5b61175a8282612c68565b60408051828152905133916001600160a01b038516917fbcad3d7d3dfccb90d49c6063bf70f828901fefc88937d90af74e58e6e55bc39d9181900360200190a35050565b604051806040016040528060018152602001603160f81b81525081565b6034546001600160a01b0316331461181a576040805162461bcd60e51b815260206004820152601d60248201527f7468652073656e646572206973206e6f74207468652072657363756572000000604482015290519081900360640190fd5b61182382612d5a565b61182c81612d71565b4661183681612a60565b6043819055507fe145478978adad345687c302af874a7f977c8ac085c53a814e7ae9b7ec8905f78383604051808060200180602001838103835285818151815260200191508051906020019080838360005b838110156118a0578181015183820152602001611888565b50505050905090810190601f1680156118cd5780820380516001836020036101000a031916815260200191505b50838103825284518152845160209182019186019080838360005b838110156119005781810151838201526020016118e8565b50505050905090810190601f16801561192d5780820380516001836020036101000a031916815260200191505b5094505050505060405180910390a1505050565b603b546001600160a01b0316331461198e576040805162461bcd60e51b815260206004820152601b6024820152600080516020613280833981519152604482015290519081900360640190fd5b603354600160a01b900460ff16156119db576040805162461bcd60e51b81526020600482015260196024820152600080516020613302833981519152604482015290519081900360640190fd5b806001600160a01b038116611a25576040805162461bcd60e51b815260206004820181905260248201526000805160206132c2833981519152604482015290519081900360640190fd5b603480546001600160a01b038481166001600160a01b03198316179283905560405191811692339291169083907f4e26e78832abd61f25bef51e06a1c7575a525edb4d215e56d6c4fbbe363cc03390600090a4505050565b603354600160a01b900460ff1681565b6035546001600160a01b03163314611aec576040805162461bcd60e51b815260206004820181905260248201527f7468652073656e646572206973206e6f74207468652070726f68696269746572604482015290519081900360640190fd5b603354600160a01b900460ff1615611b39576040805162461bcd60e51b81526020600482015260196024820152600080516020613302833981519152604482015290519081900360640190fd5b806001600160a01b038116611b83576040805162461bcd60e51b815260206004820181905260248201526000805160206132c2833981519152604482015290519081900360640190fd5b6001600160a01b038216600090815260366020526040902054829060ff16611bf2576040805162461bcd60e51b815260206004820152601e60248201527f74686973206163636f756e74206973206e6f742070726f686962697465640000604482015290519081900360640190fd5b6001600160a01b0383166000818152603660209081526040808320805460ff191690558051928352513393927fab0ab2fa6ff81b10c5afab4726a665d4379f2d0acaaafbe4c4d737ade05a8e4692908290030190a3505050565b6001600160a01b031660009081526037602052604090205490565b60426020526000908152604090205481565b6033546001600160a01b03163314611cd8576040805162461bcd60e51b815260206004820152601c60248201527f7468652073656e646572206973206e6f74207468652070617573657200000000604482015290519081900360640190fd5b603354600160a01b900460ff1615611d25576040805162461bcd60e51b81526020600482015260196024820152600080516020613302833981519152604482015290519081900360640190fd5b6033805460ff60a01b1916600160a01b90811791829055604080519190920460ff1615158152905133917f5a9dfee0981174e5203ccf9368a8cabb254f9dea6ca43f96b4bbd10c69415d8a919081900360200190a2565b603c546001600160a01b031681565b603c546001600160a01b03163314611dea576040805162461bcd60e51b815260206004820152601b60248201527f7468652073656e646572206973206e6f7420746865206f776e65720000000000604482015290519081900360640190fd5b806001600160a01b038116611e34576040805162461bcd60e51b815260206004820181905260248201526000805160206132c2833981519152604482015290519081900360640190fd5b603b80546001600160a01b038481166001600160a01b03198316179283905560405191811692339291169083907f4eb572e99196bed0270fbd5b17a948e19c3f50a97838cb0d2a75a823ff8e6c5090600090a4505050565b603e805460408051602060026001851615610100026000190190941693909304601f81018490048402820184019092528181529291830182828015610b525780601f10610b2757610100808354040283529160200191610b52565b603354600160a01b900460ff1615611f34576040805162461bcd60e51b81526020600482015260196024820152600080516020613302833981519152604482015290519081900360640190fd5b603a546001600160a01b03163314611f93576040805162461bcd60e51b815260206004820152601b60248201527f7468652073656e646572206973206e6f74207468652077697065720000000000604482015290519081900360640190fd5b6001600160a01b038116600090815260366020526040902054819060ff16612002576040805162461bcd60e51b815260206004820152601e60248201527f74686973206163636f756e74206973206e6f742070726f686962697465640000604482015290519081900360640190fd5b600061200d83611c4c565b90506120198382612d84565b6040805182815290516001600160a01b038516917f2d2c7da251295f4d722a8ddaf337627952c957ce21b2757c852e47fe81b3a2af919081900360200190a2505050565b6040546001600160a01b031633146120bc576040805162461bcd60e51b815260206004820181905260248201527f4f6e6c79204c32204272696467652063616e206d696e7420616e64206275726e604482015290519081900360640190fd5b6120c68282612d84565b60408051828152905133916001600160a01b038516917fdbdf9b8e4b75e75b162d151ec8fc7f0561cabab5fcccfa2600be62223e4300c49181900360200190a35050565b6033546001600160a01b031681565b3360008181526038602090815260408083206001600160a01b03871684529091528120549091610b679185906115dd908663ffffffff612e5f16565b603c546001600160a01b031633146121b4576040805162461bcd60e51b815260206004820152601b60248201527f7468652073656e646572206973206e6f7420746865206f776e65720000000000604482015290519081900360640190fd5b603354600160a01b900460ff1615612201576040805162461bcd60e51b81526020600482015260196024820152600080516020613302833981519152604482015290519081900360640190fd5b806001600160a01b03811661224b576040805162461bcd60e51b815260206004820181905260248201526000805160206132c2833981519152604482015290519081900360640190fd5b603c80546001600160a01b038481166001600160a01b03198316179283905560405191811692339291169083907f381c0d11398486654573703c51ee8210ce9461764d133f9f0e53b6a53970533190600090a4505050565b603354600090600160a01b900460ff16156122f3576040805162461bcd60e51b81526020600482015260196024820152600080516020613302833981519152604482015290519081900360640190fd5b3360008181526036602052604090205460ff1615612346576040805162461bcd60e51b815260206004820152601a60248201526000805160206132e2833981519152604482015290519081900360640190fd5b6001600160a01b038416600090815260366020526040902054849060ff16156123a4576040805162461bcd60e51b815260206004820152601a60248201526000805160206132e2833981519152604482015290519081900360640190fd5b83806000106123e45760405162461bcd60e51b81526004018080602001828103825260238152602001806133f46023913960400191505060405180910390fd5b6123ef338787612ebc565b50600195945050505050565b6040546001600160a01b031681565b603f5461010090046001600160a01b031681565b6035546001600160a01b0316331461247d576040805162461bcd60e51b815260206004820181905260248201527f7468652073656e646572206973206e6f74207468652070726f68696269746572604482015290519081900360640190fd5b603354600160a01b900460ff16156124ca576040805162461bcd60e51b81526020600482015260196024820152600080516020613302833981519152604482015290519081900360640190fd5b806001600160a01b038116612514576040805162461bcd60e51b815260206004820181905260248201526000805160206132c2833981519152604482015290519081900360640190fd5b6001600160a01b038216600090815260366020526040902054829060ff1615612572576040805162461bcd60e51b815260206004820152601a60248201526000805160206132e2833981519152604482015290519081900360640190fd5b6001600160a01b038316600081815260366020908152604091829020805460ff191660011790819055825160ff919091161515815291513393927fab0ab2fa6ff81b10c5afab4726a665d4379f2d0acaaafbe4c4d737ade05a8e4692908290030190a3505050565b60415481565b603b546001600160a01b0316331461262d576040805162461bcd60e51b815260206004820152601b6024820152600080516020613280833981519152604482015290519081900360640190fd5b603354600160a01b900460ff161561267a576040805162461bcd60e51b81526020600482015260196024820152600080516020613302833981519152604482015290519081900360640190fd5b806001600160a01b0381166126c4576040805162461bcd60e51b815260206004820181905260248201526000805160206132c2833981519152604482015290519081900360640190fd5b603580546001600160a01b038481166001600160a01b03198316179283905560405191811692339291169083907f85ae865187b1d7c0069f5fab638cbfcb8f3f9d23bc090e1084abc0dc42def0d290600090a4505050565b83421115612762576040805162461bcd60e51b815260206004820152600e60248201526d1c195c9b5a5d08195e1c1a5c995960921b604482015290519081900360640190fd5b6041544690600090821461277e5761277982612a60565b612782565b6043545b6040518060526133228239604080519182900360520182206001600160a01b03808f166000818152604260209081529085902080546001810190915581870194909452858501829052918f166060860152608085018e905260a085019290925260c08085018d90528351808603909101815260e08501845280519082012061190160f01b610100860152610102850196909652610122808501969096528251808503909601865261014290930190915283519390910192909220925050158015906128be57506040805160008152602080820180845284905260ff8816828401526060820187905260808201869052915160019260a0808401939192601f1981019281900390910190855afa15801561289f573d6000803e3d6000fd5b505050602060405103516001600160a01b0316896001600160a01b0316145b612900576040805162461bcd60e51b815260206004820152600e60248201526d1a5b9d985b1a59081c195c9b5a5d60921b604482015290519081900360640190fd5b61290b89898961296e565b505050505050505050565b603a546001600160a01b031681565b6001600160a01b03918216600090815260386020908152604080832093909416825291909152205490565b6035546001600160a01b031681565b603b546001600160a01b031681565b6001600160a01b0383166129b35760405162461bcd60e51b815260040180806020018281038252602481526020018061345d6024913960400191505060405180910390fd5b6001600160a01b0382166129f85760405162461bcd60e51b81526004018080602001828103825260228152602001806132a06022913960400191505060405180910390fd5b6001600160a01b03808416600081815260386020908152604080832094871680845294825291829020859055815185815291517f8c5be1e5ebec7d5bd14f71427d1e84f3dd0314c0f7b2291e5b200ac8c7c3b9259281900390910190a3505050565b303b1590565b600060405180806133746052913960520190506040518091039020603d6040518082805460018160011615610100020316600290048015612ad85780601f10612ab6576101008083540402835291820191612ad8565b820191906000526020600020905b815481529060010190602001808311612ac4575b505060408051918290038220828201825260018352603160f81b602093840152815180840196909652858201527fc89efdaa54c0f20c7adf612882df0950f5a951637e0307cdcb4c672f298b8bc66060860152608085018790523060a0808701919091528151808703909101815260c09095019052835193019290922092505050919050565b604080516001600160a01b038416602482015260448082018490528251808303909101815260649091019091526020810180516001600160e01b031663a9059cbb60e01b179052612bb0908490613000565b505050565b6000612bc2848484612ebc565b6001600160a01b038416600090815260386020908152604080832033808552925290912054612bfd9186916115dd908663ffffffff612e5f16565b5060019392505050565b600082820183811015612c61576040805162461bcd60e51b815260206004820152601b60248201527f536166654d6174683a206164646974696f6e206f766572666c6f770000000000604482015290519081900360640190fd5b9392505050565b6001600160a01b038216612cc3576040805162461bcd60e51b815260206004820152601f60248201527f45524332303a206d696e7420746f20746865207a65726f206164647265737300604482015290519081900360640190fd5b603954612cd6908263ffffffff612c0716565b6039556001600160a01b038216600090815260376020526040902054612d02908263ffffffff612c0716565b6001600160a01b03831660008181526037602090815260408083209490945583518581529351929391927fddf252ad1be2c89b69c2b068fc378daa952ba7f163c4a11628f55a4df523b3ef9281900390910190a35050565b8051612d6d90603d9060208401906131c4565b5050565b8051612d6d90603e9060208401906131c4565b6001600160a01b038216612dc95760405162461bcd60e51b81526004018080602001828103825260218152602001806134176021913960400191505060405180910390fd5b603954612ddc908263ffffffff612e5f16565b6039556001600160a01b038216600090815260376020526040902054612e08908263ffffffff612e5f16565b6001600160a01b0383166000818152603760209081526040808320949094558351858152935191937fddf252ad1be2c89b69c2b068fc378daa952ba7f163c4a11628f55a4df523b3ef929081900390910190a35050565b600082821115612eb6576040805162461bcd60e51b815260206004820152601e60248201527f536166654d6174683a207375627472616374696f6e206f766572666c6f770000604482015290519081900360640190fd5b50900390565b6001600160a01b038316612f015760405162461bcd60e51b81526004018080602001828103825260258152602001806134386025913960400191505060405180910390fd5b6001600160a01b038216612f465760405162461bcd60e51b815260040180806020018281038252602381526020018061325d6023913960400191505060405180910390fd5b6001600160a01b038316600090815260376020526040902054612f6f908263ffffffff612e5f16565b6001600160a01b038085166000908152603760205260408082209390935590841681522054612fa4908263ffffffff612c0716565b6001600160a01b0380841660008181526037602090815260409182902094909455805185815290519193928716927fddf252ad1be2c89b69c2b068fc378daa952ba7f163c4a11628f55a4df523b3ef92918290030190a3505050565b613012826001600160a01b03166131be565b613063576040805162461bcd60e51b815260206004820152601f60248201527f5361666545524332303a2063616c6c20746f206e6f6e2d636f6e747261637400604482015290519081900360640190fd5b60006060836001600160a01b0316836040518082805190602001908083835b602083106130a15780518252601f199092019160209182019101613082565b6001836020036101000a0380198251168184511680821785525050505050509050019150506000604051808303816000865af19150503d8060008114613103576040519150601f19603f3d011682016040523d82523d6000602084013e613108565b606091505b50915091508161315f576040805162461bcd60e51b815260206004820181905260248201527f5361666545524332303a206c6f772d6c6576656c2063616c6c206661696c6564604482015290519081900360640190fd5b8051156131b85780806020019051602081101561317b57600080fd5b50516131b85760405162461bcd60e51b815260040180806020018281038252602a815260200180613481602a913960400191505060405180910390fd5b50505050565b3b151590565b828054600181600116156101000203166002900490600052602060002090601f016020900481019282601f1061320557805160ff1916838001178555613232565b82800160010185558215613232579182015b82811115613232578251825591602001919060010190613217565b5061323e929150613242565b5090565b610b7491905b8082111561323e576000815560010161324856fe45524332303a207472616e7366657220746f20746865207a65726f20616464726573737468652073656e646572206973206e6f74207468652061646d696e000000000045524332303a20617070726f766520746f20746865207a65726f206164647265737374686973206163636f756e7420697320746865207a65726f206164647265737374686973206163636f756e742069732070726f686962697465640000000000007468697320697320612070617573656420636f6e7472616374000000000000005065726d69742861646472657373206f776e65722c61646472657373207370656e6465722c75696e743235362076616c75652c75696e74323536206e6f6e63652c75696e7432353620646561646c696e6529454950373132446f6d61696e28737472696e67206e616d652c737472696e672076657273696f6e2c75696e7432353620636861696e49642c6164647265737320766572696679696e67436f6e747261637429436f6e747261637420696e7374616e63652068617320616c7265616479206265656e20696e697469616c697a65647468697320616d6f756e74206973206e6f742061206e61747572616c206e756d62657245524332303a206275726e2066726f6d20746865207a65726f206164647265737345524332303a207472616e736665722066726f6d20746865207a65726f206164647265737345524332303a20617070726f76652066726f6d20746865207a65726f20616464726573735361666545524332303a204552433230206f7065726174696f6e20646964206e6f742073756363656564a265627a7a72315820e4eaa35f18d4309ec0ea477b41507f0941bb7915ca40decb8c03a96930fdb96764736f6c63430005100032",
  "source": "pragma solidity 0.5.16;\n\nimport \"@openzeppelin/upgrades/contracts/Initializable.sol\";\nimport \"./Roles/Owner.sol\";\n\ncontract OpToken_v1 is Initializable, Owner {\n\n    string public name;\n    string public symbol;\n    uint8 public decimals;\n    address public l1Token;\n    address public l2Bridge;\n    uint256 public deploymentChainId;\n    mapping (address => uint256) public nonces;\n\n    string public constant version  = \"1\";\n    bytes32 public constant PERMIT_TYPEHASH = keccak256(\"Permit(address owner,address spender,uint256 value,uint256 nonce,uint256 deadline)\");\n    bytes32 private _DOMAIN_SEPARATOR;\n\n    event Mint(address indexed mintee, uint256 amount, address indexed sender);\n    event Burn(address indexed burnee, uint256 amount, address indexed sender);\n    event UpdateMetadata(string _newName, string _newSymbol);\n\n    modifier onlyL2Bridge() {\n        require(msg.sender == l2Bridge, \"Only L2 Bridge can mint and burn\");\n        _;\n    }\n\n    function initialize(\n        string memory _name,\n        string memory _symbol,\n        uint8 _decimals,\n        address _owner,\n        address _admin,\n        address _prohibiter,\n        address _pauser,\n        address _wiper,\n        address _rescuer,\n        address _l1Token,\n        address _l2Bridge\n        ) public initializer {\n            require(_owner != address(0), \"_owner is the zero address\");\n            require(_admin != address(0), \"_admin is the zero address\");\n            require(_prohibiter != address(0), \"_prohibiter is the zero address\");\n            require(_pauser != address(0), \"_pauser is the zero address\");\n            require(_wiper != address(0), \"_wiper is the zero address\");\n            require(_rescuer != address(0), \"_rescuer is the zero address\");\n            require(_l1Token != address(0), \"_l1Token is the zero address\");\n            require(_l2Bridge != address(0), \"_l2Bridge is the zero address\");\n            name = _name;\n            symbol = _symbol;\n            decimals = _decimals;\n            owner = _owner;\n            admin = _admin;\n            prohibiter = _prohibiter;\n            pauser = _pauser;\n            wiper = _wiper;\n            rescuer = _rescuer;\n            l1Token = _l1Token;\n            l2Bridge = _l2Bridge;\n\n            uint256 id;\n            assembly {id := chainid()}\n            deploymentChainId = id;\n            _DOMAIN_SEPARATOR = _calculateDomainSeparator(id);\n    }\n\n    function transfer(address _recipient, uint256 _amount) public whenNotPaused onlyNotProhibited(msg.sender) onlyNotProhibited(_recipient) isNaturalNumber(_amount) returns (bool) {\n        _transfer(msg.sender, _recipient, _amount);\n        return true;\n    }\n\n    function transferFrom(address _sender, address _recipient, uint256 _amount) public whenNotPaused onlyNotProhibited(_sender) onlyNotProhibited(_recipient) isNaturalNumber(_amount) returns (bool) {\n        return super.transferFrom(_sender, _recipient, _amount);\n    }\n\n    function mint(address _to, uint256 _amount) public onlyL2Bridge {\n        _mint(_to, _amount);\n\n        emit Mint(_to, _amount, msg.sender);\n    }\n\n    function burn(address _from, uint256 _amount) public onlyL2Bridge {\n        _burn(_from, _amount);\n\n        emit Burn(_from, _amount, msg.sender);\n    }\n\n    function _calculateDomainSeparator(uint256 chainId) private view returns (bytes32) {\n        return keccak256(\n            abi.encode(\n            keccak256(\"EIP712Domain(string name,string version,uint256 chainId,address verifyingContract)\"),\n            keccak256(bytes(name)),\n            keccak256(bytes(version)),\n            chainId,\n            address(this)\n            )\n        );\n    }\n\n    function DOMAIN_SEPARATOR() external view returns (bytes32) {\n        uint256 id;\n        assembly {id := chainid()}\n        return id == deploymentChainId ? _DOMAIN_SEPARATOR : _calculateDomainSeparator(id);\n    }\n\n    function permit(address owner, address spender, uint256 value, uint256 deadline, uint8 v, bytes32 r, bytes32 s) external {\n        require(block.timestamp <= deadline, \"permit expired\");\n\n        uint256 id;\n        assembly {id := chainid()}\n\n        bytes32 digest =\n            keccak256(abi.encodePacked(\n                \"\\x19\\x01\",\n                id == deploymentChainId ? _DOMAIN_SEPARATOR : _calculateDomainSeparator(id),\n                keccak256(abi.encode(\n                PERMIT_TYPEHASH,\n                owner,\n                spender,\n                value,\n                nonces[owner]++,\n                deadline\n                ))\n            ));\n\n        require(owner != address(0) && owner == ecrecover(digest, v, r, s), \"invalid permit\");\n\n        _approve(owner, spender, value);\n    }\n\n    function supportsInterface(bytes4 _interfaceId) public pure returns (bool) {\n        bytes4 firstSupportedInterface = bytes4(keccak256(\"supportsInterface(bytes4)\")); // ERC165\n        bytes4 secondSupportedInterface = this.l1Token.selector\n            ^ this.mint.selector\n            ^ this.burn.selector;\n        return _interfaceId == firstSupportedInterface || _interfaceId == secondSupportedInterface;\n    }\n\n    function updateMetadata(string memory _newName, string memory _newSymbol)\n        public\n        onlyRescuer\n    {\n        setName(_newName);\n        setSymbol(_newSymbol);\n\n        uint256 id;\n        assembly {id := chainid()}\n        _DOMAIN_SEPARATOR = _calculateDomainSeparator(id);\n\n        emit UpdateMetadata(_newName, _newSymbol);\n    }\n\n    function setName(string memory _newName) internal {\n      name = _newName;\n    }\n\n    function setSymbol(string memory _newSymbol) internal {\n      symbol = _newSymbol;\n    }\n}",
  "sourcePath": "/Users/usr0102794/gyen2022/contracts-2024/contracts/contracts/OpToken_v1.sol",
  "compiler": {
    "name": "solc",
    "version": "0.5.16+commit.9c3226ce.Emscripten.clang"
  },
  "schemaVersion": "3.0.16",
  "updatedAt": "2024-03-29T08:52:29.013Z",
  "devdoc": {
    "methods": {
      "allowance(address,address)": {
        "details": "See `IERC20.allowance`."
      },
      "approve(address,uint256)": {
        "details": "See `IERC20.approve`.     * Requirements:     * - `spender` cannot be the zero address."
      },
      "balanceOf(address)": {
        "details": "See `IERC20.balanceOf`."
      },
      "changeAdmin(address)": {
        "details": "\"whenNotPaused\" modifier should not be used here"
      },
      "changePauser(address)": {
        "details": "\"whenNotPaused\" modifier should not be used here"
      },
      "decreaseAllowance(address,uint256)": {
        "details": "Atomically decreases the allowance granted to `spender` by the caller.     * This is an alternative to `approve` that can be used as a mitigation for problems described in `IERC20.approve`.     * Emits an `Approval` event indicating the updated allowance.     * Requirements:     * - `spender` cannot be the zero address. - `spender` must have allowance for the caller of at least `subtractedValue`."
      },
      "increaseAllowance(address,uint256)": {
        "details": "Atomically increases the allowance granted to `spender` by the caller.     * This is an alternative to `approve` that can be used as a mitigation for problems described in `IERC20.approve`.     * Emits an `Approval` event indicating the updated allowance.     * Requirements:     * - `spender` cannot be the zero address."
      },
      "totalSupply()": {
        "details": "See `IERC20.totalSupply`."
      }
    }
  },
  "userdoc": {
    "methods": {
      "changeAdmin(address)": {
        "notice": "Change Admin"
      },
      "changePauser(address)": {
        "notice": "Change Pauser"
      }
    }
  }
}