{
  "contractName": "Owner",
  "abi": [
    {
      "constant": true,
      "inputs": [],
      "name": "minter",
      "outputs": [
        {
          "name": "",
          "type": "address"
        }
      ],
      "payable": false,
      "stateMutability": "view",
      "type": "function"
    },
    {
      "constant": true,
      "inputs": [
        {
          "name": "",
          "type": "address"
        }
      ],
      "name": "prohibiteds",
      "outputs": [
        {
          "name": "",
          "type": "bool"
        }
      ],
      "payable": false,
      "stateMutability": "view",
      "type": "function"
    },
    {
      "constant": false,
      "inputs": [
        {
          "name": "_account",
          "type": "address"
        }
      ],
      "name": "changeMinter",
      "outputs": [],
      "payable": false,
      "stateMutability": "nonpayable",
      "type": "function"
    },
    {
      "constant": false,
      "inputs": [
        {
          "name": "_account",
          "type": "address"
        }
      ],
      "name": "changePauser",
      "outputs": [],
      "payable": false,
      "stateMutability": "nonpayable",
      "type": "function"
    },
    {
      "constant": false,
      "inputs": [],
      "name": "unpause",
      "outputs": [],
      "payable": false,
      "stateMutability": "nonpayable",
      "type": "function"
    },
    {
      "constant": true,
      "inputs": [],
      "name": "capper",
      "outputs": [
        {
          "name": "",
          "type": "address"
        }
      ],
      "payable": false,
      "stateMutability": "view",
      "type": "function"
    },
    {
      "constant": true,
      "inputs": [],
      "name": "paused",
      "outputs": [
        {
          "name": "",
          "type": "bool"
        }
      ],
      "payable": false,
      "stateMutability": "view",
      "type": "function"
    },
    {
      "constant": true,
      "inputs": [],
      "name": "capacity",
      "outputs": [
        {
          "name": "",
          "type": "uint256"
        }
      ],
      "payable": false,
      "stateMutability": "view",
      "type": "function"
    },
    {
      "constant": false,
      "inputs": [
        {
          "name": "_account",
          "type": "address"
        }
      ],
      "name": "unprohibit",
      "outputs": [],
      "payable": false,
      "stateMutability": "nonpayable",
      "type": "function"
    },
    {
      "constant": false,
      "inputs": [],
      "name": "pause",
      "outputs": [],
      "payable": false,
      "stateMutability": "nonpayable",
      "type": "function"
    },
    {
      "constant": true,
      "inputs": [],
      "name": "owner",
      "outputs": [
        {
          "name": "",
          "type": "address"
        }
      ],
      "payable": false,
      "stateMutability": "view",
      "type": "function"
    },
    {
      "constant": true,
      "inputs": [],
      "name": "pauser",
      "outputs": [
        {
          "name": "",
          "type": "address"
        }
      ],
      "payable": false,
      "stateMutability": "view",
      "type": "function"
    },
    {
      "constant": true,
      "inputs": [],
      "name": "minterAdmin",
      "outputs": [
        {
          "name": "",
          "type": "address"
        }
      ],
      "payable": false,
      "stateMutability": "view",
      "type": "function"
    },
    {
      "constant": false,
      "inputs": [
        {
          "name": "_account",
          "type": "address"
        }
      ],
      "name": "changeCapper",
      "outputs": [],
      "payable": false,
      "stateMutability": "nonpayable",
      "type": "function"
    },
    {
      "constant": false,
      "inputs": [
        {
          "name": "_account",
          "type": "address"
        }
      ],
      "name": "prohibit",
      "outputs": [],
      "payable": false,
      "stateMutability": "nonpayable",
      "type": "function"
    },
    {
      "constant": false,
      "inputs": [
        {
          "name": "_account",
          "type": "address"
        }
      ],
      "name": "changeProhibiter",
      "outputs": [],
      "payable": false,
      "stateMutability": "nonpayable",
      "type": "function"
    },
    {
      "constant": true,
      "inputs": [],
      "name": "prohibiter",
      "outputs": [
        {
          "name": "",
          "type": "address"
        }
      ],
      "payable": false,
      "stateMutability": "view",
      "type": "function"
    },
    {
      "constant": true,
      "inputs": [],
      "name": "admin",
      "outputs": [
        {
          "name": "",
          "type": "address"
        }
      ],
      "payable": false,
      "stateMutability": "view",
      "type": "function"
    },
    {
      "anonymous": false,
      "inputs": [
        {
          "indexed": true,
          "name": "oldOwner",
          "type": "address"
        },
        {
          "indexed": true,
          "name": "newOwner",
          "type": "address"
        },
        {
          "indexed": true,
          "name": "sender",
          "type": "address"
        }
      ],
      "name": "OwnerChanged",
      "type": "event"
    },
    {
      "anonymous": false,
      "inputs": [
        {
          "indexed": true,
          "name": "oldAdmin",
          "type": "address"
        },
        {
          "indexed": true,
          "name": "newAdmin",
          "type": "address"
        },
        {
          "indexed": true,
          "name": "sender",
          "type": "address"
        }
      ],
      "name": "AdminChanged",
      "type": "event"
    },
    {
      "anonymous": false,
      "inputs": [
        {
          "indexed": true,
          "name": "oldMinterAdmin",
          "type": "address"
        },
        {
          "indexed": true,
          "name": "newMinterAdmin",
          "type": "address"
        },
        {
          "indexed": true,
          "name": "sender",
          "type": "address"
        }
      ],
      "name": "MinterAdminChanged",
      "type": "event"
    },
    {
      "anonymous": false,
      "inputs": [
        {
          "indexed": true,
          "name": "oldMinter",
          "type": "address"
        },
        {
          "indexed": true,
          "name": "newMinter",
          "type": "address"
        },
        {
          "indexed": true,
          "name": "sender",
          "type": "address"
        }
      ],
      "name": "MinterChanged",
      "type": "event"
    },
    {
      "anonymous": false,
      "inputs": [
        {
          "indexed": true,
          "name": "oldCapper",
          "type": "address"
        },
        {
          "indexed": true,
          "name": "newCapper",
          "type": "address"
        },
        {
          "indexed": true,
          "name": "sender",
          "type": "address"
        }
      ],
      "name": "CapperChanged",
      "type": "event"
    },
    {
      "anonymous": false,
      "inputs": [
        {
          "indexed": true,
          "name": "oldPauser",
          "type": "address"
        },
        {
          "indexed": true,
          "name": "newPauser",
          "type": "address"
        },
        {
          "indexed": true,
          "name": "sender",
          "type": "address"
        }
      ],
      "name": "PauserChanged",
      "type": "event"
    },
    {
      "anonymous": false,
      "inputs": [
        {
          "indexed": true,
          "name": "oldProhibiter",
          "type": "address"
        },
        {
          "indexed": true,
          "name": "newProhibiter",
          "type": "address"
        },
        {
          "indexed": true,
          "name": "sender",
          "type": "address"
        }
      ],
      "name": "ProhibiterChanged",
      "type": "event"
    },
    {
      "anonymous": false,
      "inputs": [
        {
          "indexed": false,
          "name": "prohibited",
          "type": "address"
        },
        {
          "indexed": false,
          "name": "status",
          "type": "bool"
        },
        {
          "indexed": false,
          "name": "sender",
          "type": "address"
        }
      ],
      "name": "Prohibition",
      "type": "event"
    },
    {
      "anonymous": false,
      "inputs": [
        {
          "indexed": true,
          "name": "newCapacity",
          "type": "uint256"
        },
        {
          "indexed": true,
          "name": "sender",
          "type": "address"
        }
      ],
      "name": "Cap",
      "type": "event"
    },
    {
      "anonymous": false,
      "inputs": [
        {
          "indexed": false,
          "name": "status",
          "type": "bool"
        },
        {
          "indexed": false,
          "name": "sender",
          "type": "address"
        }
      ],
      "name": "Pause",
      "type": "event"
    },
    {
      "constant": false,
      "inputs": [
        {
          "name": "_account",
          "type": "address"
        }
      ],
      "name": "changeOwner",
      "outputs": [],
      "payable": false,
      "stateMutability": "nonpayable",
      "type": "function"
    },
    {
      "constant": false,
      "inputs": [
        {
          "name": "_account",
          "type": "address"
        }
      ],
      "name": "changeAdmin",
      "outputs": [],
      "payable": false,
      "stateMutability": "nonpayable",
      "type": "function"
    },
    {
      "constant": false,
      "inputs": [
        {
          "name": "_account",
          "type": "address"
        }
      ],
      "name": "changeMinterAdmin",
      "outputs": [],
      "payable": false,
      "stateMutability": "nonpayable",
      "type": "function"
    }
  ],
  "bytecode": "0x6080604052600080546001600160a81b0319168155600155600280546001600160a01b0319908116909155600380548216905560058054821690556006805482169055600780548216905560088054909116905534801561005f57600080fd5b506112fe8061006f6000396000f3fe608060405234801561001057600080fd5b50600436106101375760003560e01c80638456cb59116100b8578063a754d48f1161007c578063a754d48f146102ca578063b0e71766146102d2578063c4e1ccf2146102f8578063cffdd46c1461031e578063dd75049b14610344578063f851a4401461034c57610137565b80638456cb59146102665780638da5cb5b1461026e5780638f283970146102765780639fd0506d1461029c578063a6f9dae1146102a457610137565b80633f4ba83a116100ff5780633f4ba83a1461020e57806350a6aaf4146102165780635c975abb1461021e5780635cfc1a5114610226578063664dc7241461024057610137565b80630628922d1461013c57806307546172146101645780632ad3ed6d146101885780632c4d4d18146101c25780632cd271e7146101e8575b600080fd5b6101626004803603602081101561015257600080fd5b50356001600160a01b0316610354565b005b61016c6104ab565b604080516001600160a01b039092168252519081900360200190f35b6101ae6004803603602081101561019e57600080fd5b50356001600160a01b03166104ba565b604080519115158252519081900360200190f35b610162600480360360208110156101d857600080fd5b50356001600160a01b03166104cf565b610162600480360360208110156101fe57600080fd5b50356001600160a01b0316610610565b610162610716565b61016c610832565b6101ae610841565b61022e610851565b60408051918252519081900360200190f35b6101626004803603602081101561025657600080fd5b50356001600160a01b0316610857565b610162610a2c565b61016c610b3c565b6101626004803603602081101561028c57600080fd5b50356001600160a01b0316610b4b565b61016c610c52565b610162600480360360208110156102ba57600080fd5b50356001600160a01b0316610c61565b61016c610db8565b610162600480360360208110156102e857600080fd5b50356001600160a01b0316610dc7565b6101626004803603602081101561030e57600080fd5b50356001600160a01b0316610f1e565b6101626004803603602081101561033457600080fd5b50356001600160a01b03166110fc565b61016c611253565b61016c611262565b6008546001600160a01b031633146103b65760408051600160e51b62461bcd02815260206004820152601b60248201527f7468652073656e646572206973206e6f7420746865206f776e65720000000000604482015290519081900360640190fd5b600054600160a01b900460ff16156104065760408051600160e51b62461bcd0281526020600482015260196024820152600080516020611292833981519152604482015290519081900360640190fd5b806001600160a01b0381166104535760408051600160e51b62461bcd0281526020600482018190526024820152600080516020611272833981519152604482015290519081900360640190fd5b600780546001600160a01b038481166001600160a01b03198316179283905560405191811692339291169083907f4a85a5117c27071f301f0a758ea45cef77712d3d8358f0883b21c46ee1693d6790600090a4505050565b6006546001600160a01b031681565b60046020526000908152604090205460ff1681565b6007546001600160a01b0316331461051b57604051600160e51b62461bcd0281526004018080602001828103825260218152602001806112b26021913960400191505060405180910390fd5b600054600160a01b900460ff161561056b5760408051600160e51b62461bcd0281526020600482015260196024820152600080516020611292833981519152604482015290519081900360640190fd5b806001600160a01b0381166105b85760408051600160e51b62461bcd0281526020600482018190526024820152600080516020611272833981519152604482015290519081900360640190fd5b600680546001600160a01b038481166001600160a01b03198316179283905560405191811692339291169083907f6970e71b2bda096f4eb3290c554af7a888cca0ef8b95da09c55b23c6bb30e38190600090a4505050565b6005546001600160a01b031633146106725760408051600160e51b62461bcd02815260206004820152601b60248201527f7468652073656e646572206973206e6f74207468652061646d696e0000000000604482015290519081900360640190fd5b806001600160a01b0381166106bf5760408051600160e51b62461bcd0281526020600482018190526024820152600080516020611272833981519152604482015290519081900360640190fd5b600080546001600160a01b038481166001600160a01b0319831617808455604051928216933393919092169184917f8b1ee37fa817a066fe12c7c9bf109c0c9f8f03ef0a5cfe0c03d5196e8c2e46579190a4505050565b6000546001600160a01b031633146107785760408051600160e51b62461bcd02815260206004820152601c60248201527f7468652073656e646572206973206e6f74207468652070617573657200000000604482015290519081900360640190fd5b600054600160a01b900460ff166107d95760408051600160e51b62461bcd02815260206004820152601d60248201527f74686973206973206e6f7420612070617573656420636f6e7472616374000000604482015290519081900360640190fd5b60008054600160a01b60ff0219169081905560408051600160a01b90920460ff161515825233602083015280517f5a9dfee0981174e5203ccf9368a8cabb254f9dea6ca43f96b4bbd10c69415d8a9281900390910190a1565b6002546001600160a01b031681565b600054600160a01b900460ff1681565b60015481565b6003546001600160a01b031633146108b95760408051600160e51b62461bcd02815260206004820181905260248201527f7468652073656e646572206973206e6f74207468652070726f68696269746572604482015290519081900360640190fd5b600054600160a01b900460ff16156109095760408051600160e51b62461bcd0281526020600482015260196024820152600080516020611292833981519152604482015290519081900360640190fd5b806001600160a01b0381166109565760408051600160e51b62461bcd0281526020600482018190526024820152600080516020611272833981519152604482015290519081900360640190fd5b6001600160a01b038216600090815260046020526040902054829060ff166109c85760408051600160e51b62461bcd02815260206004820181905260248201527f74686973206163636f756e74206973206e6f7420612070726f68696269746564604482015290519081900360640190fd5b6001600160a01b0383166000818152600460209081526040808320805460ff191690558051938452908301919091523382820152517fab0ab2fa6ff81b10c5afab4726a665d4379f2d0acaaafbe4c4d737ade05a8e469181900360600190a1505050565b6000546001600160a01b03163314610a8e5760408051600160e51b62461bcd02815260206004820152601c60248201527f7468652073656e646572206973206e6f74207468652070617573657200000000604482015290519081900360640190fd5b600054600160a01b900460ff1615610ade5760408051600160e51b62461bcd0281526020600482015260196024820152600080516020611292833981519152604482015290519081900360640190fd5b60008054600160a01b60ff021916600160a01b90811791829055604080519190920460ff161515815233602082015281517f5a9dfee0981174e5203ccf9368a8cabb254f9dea6ca43f96b4bbd10c69415d8a929181900390910190a1565b6008546001600160a01b031681565b6008546001600160a01b03163314610bad5760408051600160e51b62461bcd02815260206004820152601b60248201527f7468652073656e646572206973206e6f7420746865206f776e65720000000000604482015290519081900360640190fd5b806001600160a01b038116610bfa5760408051600160e51b62461bcd0281526020600482018190526024820152600080516020611272833981519152604482015290519081900360640190fd5b600580546001600160a01b038481166001600160a01b03198316179283905560405191811692339291169083907f4eb572e99196bed0270fbd5b17a948e19c3f50a97838cb0d2a75a823ff8e6c5090600090a4505050565b6000546001600160a01b031681565b6008546001600160a01b03163314610cc35760408051600160e51b62461bcd02815260206004820152601b60248201527f7468652073656e646572206973206e6f7420746865206f776e65720000000000604482015290519081900360640190fd5b600054600160a01b900460ff1615610d135760408051600160e51b62461bcd0281526020600482015260196024820152600080516020611292833981519152604482015290519081900360640190fd5b806001600160a01b038116610d605760408051600160e51b62461bcd0281526020600482018190526024820152600080516020611272833981519152604482015290519081900360640190fd5b600880546001600160a01b038481166001600160a01b03198316179283905560405191811692339291169083907f381c0d11398486654573703c51ee8210ce9461764d133f9f0e53b6a53970533190600090a4505050565b6007546001600160a01b031681565b6005546001600160a01b03163314610e295760408051600160e51b62461bcd02815260206004820152601b60248201527f7468652073656e646572206973206e6f74207468652061646d696e0000000000604482015290519081900360640190fd5b600054600160a01b900460ff1615610e795760408051600160e51b62461bcd0281526020600482015260196024820152600080516020611292833981519152604482015290519081900360640190fd5b806001600160a01b038116610ec65760408051600160e51b62461bcd0281526020600482018190526024820152600080516020611272833981519152604482015290519081900360640190fd5b600280546001600160a01b038481166001600160a01b03198316179283905560405191811692339291169083907fc4d5c17597bd0c5594a7545f36de213c6a58e2f235b165887331fe368618197090600090a4505050565b6003546001600160a01b03163314610f805760408051600160e51b62461bcd02815260206004820181905260248201527f7468652073656e646572206973206e6f74207468652070726f68696269746572604482015290519081900360640190fd5b600054600160a01b900460ff1615610fd05760408051600160e51b62461bcd0281526020600482015260196024820152600080516020611292833981519152604482015290519081900360640190fd5b806001600160a01b03811661101d5760408051600160e51b62461bcd0281526020600482018190526024820152600080516020611272833981519152604482015290519081900360640190fd5b6001600160a01b038216600090815260046020526040902054829060ff16156110905760408051600160e51b62461bcd02815260206004820152601c60248201527f74686973206163636f756e7420697320612070726f6869626974656400000000604482015290519081900360640190fd5b6001600160a01b038316600081815260046020908152604091829020805460ff191660011790819055825193845260ff161515908301523382820152517fab0ab2fa6ff81b10c5afab4726a665d4379f2d0acaaafbe4c4d737ade05a8e469181900360600190a1505050565b6005546001600160a01b0316331461115e5760408051600160e51b62461bcd02815260206004820152601b60248201527f7468652073656e646572206973206e6f74207468652061646d696e0000000000604482015290519081900360640190fd5b600054600160a01b900460ff16156111ae5760408051600160e51b62461bcd0281526020600482015260196024820152600080516020611292833981519152604482015290519081900360640190fd5b806001600160a01b0381166111fb5760408051600160e51b62461bcd0281526020600482018190526024820152600080516020611272833981519152604482015290519081900360640190fd5b600380546001600160a01b038481166001600160a01b03198316179283905560405191811692339291169083907f85ae865187b1d7c0069f5fab638cbfcb8f3f9d23bc090e1084abc0dc42def0d290600090a4505050565b6003546001600160a01b031681565b6005546001600160a01b03168156fe74686973206163636f756e7420697320746865207a65726f20616464726573737468697320697320612070617573656420636f6e7472616374000000000000007468652073656e646572206973206e6f7420746865206d696e74657241646d696ea165627a7a72305820ca953c5933af3757b6f25ca5ddba04f4c574d2a0d316202616cc732ce20bfd040029",
  "source": "pragma solidity ^0.5.8;\n\nimport \"./Admin.sol\";\nimport \"./MinterAdmin.sol\";\n\ncontract Owner is Admin, MinterAdmin {\n    address public owner = address(0);\n\n    event OwnerChanged(address indexed oldOwner, address indexed newOwner, address indexed sender);\n    event AdminChanged(address indexed oldAdmin, address indexed newAdmin, address indexed sender);\n    event MinterAdminChanged(address indexed oldMinterAdmin, address indexed newMinterAdmin, address indexed sender);\n\n    modifier onlyOwner() {\n        require(msg.sender == owner, \"the sender is not the owner\");\n        _;\n    }\n\n    function changeOwner(address _account) public onlyOwner whenNotPaused isNotZeroAddress(_account) {\n        address old = owner;\n        owner = _account;\n        emit OwnerChanged(old, owner, msg.sender);\n    }\n\n    function changeAdmin(address _account) public onlyOwner /* whenNotPaused */ isNotZeroAddress(_account) {\n        address old = admin;\n        admin = _account;\n        emit AdminChanged(old, admin, msg.sender);\n    }\n\n    function changeMinterAdmin(address _account) public onlyOwner whenNotPaused isNotZeroAddress(_account) {\n        address old = minterAdmin;\n        minterAdmin = _account;\n        emit MinterAdminChanged(old, minterAdmin, msg.sender);\n    }\n}",
  "sourcePath": "/Users/usr0101757/Projects/GYEN/gyen-solidity/contracts/Roles/Owner.sol",
  "compiler": {
    "name": "solc",
    "version": "0.5.8+commit.23d335f2.Emscripten.clang"
  },
  "schemaVersion": "3.0.11",
  "updatedAt": "2019-10-04T06:53:01.517Z",
  "devdoc": {
    "methods": {}
  },
  "userdoc": {
    "methods": {}
  }
}