{
  "contractName": "Owner",
  "abi": [
    {
      "anonymous": false,
      "inputs": [
        {
          "indexed": true,
          "internalType": "address",
          "name": "oldAdmin",
          "type": "address"
        },
        {
          "indexed": true,
          "internalType": "address",
          "name": "newAdmin",
          "type": "address"
        },
        {
          "indexed": true,
          "internalType": "address",
          "name": "sender",
          "type": "address"
        }
      ],
      "name": "AdminChanged",
      "type": "event"
    },
    {
      "anonymous": false,
      "inputs": [
        {
          "indexed": true,
          "internalType": "address",
          "name": "owner",
          "type": "address"
        },
        {
          "indexed": true,
          "internalType": "address",
          "name": "spender",
          "type": "address"
        },
        {
          "indexed": false,
          "internalType": "uint256",
          "name": "value",
          "type": "uint256"
        }
      ],
      "name": "Approval",
      "type": "event"
    },
    {
      "anonymous": false,
      "inputs": [
        {
          "indexed": true,
          "internalType": "address",
          "name": "oldOwner",
          "type": "address"
        },
        {
          "indexed": true,
          "internalType": "address",
          "name": "newOwner",
          "type": "address"
        },
        {
          "indexed": true,
          "internalType": "address",
          "name": "sender",
          "type": "address"
        }
      ],
      "name": "OwnerChanged",
      "type": "event"
    },
    {
      "anonymous": false,
      "inputs": [
        {
          "indexed": false,
          "internalType": "bool",
          "name": "status",
          "type": "bool"
        },
        {
          "indexed": true,
          "internalType": "address",
          "name": "sender",
          "type": "address"
        }
      ],
      "name": "Pause",
      "type": "event"
    },
    {
      "anonymous": false,
      "inputs": [
        {
          "indexed": true,
          "internalType": "address",
          "name": "oldPauser",
          "type": "address"
        },
        {
          "indexed": true,
          "internalType": "address",
          "name": "newPauser",
          "type": "address"
        },
        {
          "indexed": true,
          "internalType": "address",
          "name": "sender",
          "type": "address"
        }
      ],
      "name": "PauserChanged",
      "type": "event"
    },
    {
      "anonymous": false,
      "inputs": [
        {
          "indexed": true,
          "internalType": "address",
          "name": "oldProhibiter",
          "type": "address"
        },
        {
          "indexed": true,
          "internalType": "address",
          "name": "newProhibiter",
          "type": "address"
        },
        {
          "indexed": true,
          "internalType": "address",
          "name": "sender",
          "type": "address"
        }
      ],
      "name": "ProhibiterChanged",
      "type": "event"
    },
    {
      "anonymous": false,
      "inputs": [
        {
          "indexed": true,
          "internalType": "address",
          "name": "prohibited",
          "type": "address"
        },
        {
          "indexed": false,
          "internalType": "bool",
          "name": "status",
          "type": "bool"
        },
        {
          "indexed": true,
          "internalType": "address",
          "name": "sender",
          "type": "address"
        }
      ],
      "name": "Prohibition",
      "type": "event"
    },
    {
      "anonymous": false,
      "inputs": [
        {
          "indexed": true,
          "internalType": "contract IERC20",
          "name": "tokenAddr",
          "type": "address"
        },
        {
          "indexed": true,
          "internalType": "address",
          "name": "toAddr",
          "type": "address"
        },
        {
          "indexed": false,
          "internalType": "uint256",
          "name": "amount",
          "type": "uint256"
        }
      ],
      "name": "Rescue",
      "type": "event"
    },
    {
      "anonymous": false,
      "inputs": [
        {
          "indexed": true,
          "internalType": "address",
          "name": "oldRescuer",
          "type": "address"
        },
        {
          "indexed": true,
          "internalType": "address",
          "name": "newRescuer",
          "type": "address"
        },
        {
          "indexed": true,
          "internalType": "address",
          "name": "sender",
          "type": "address"
        }
      ],
      "name": "RescuerChanged",
      "type": "event"
    },
    {
      "anonymous": false,
      "inputs": [
        {
          "indexed": true,
          "internalType": "address",
          "name": "from",
          "type": "address"
        },
        {
          "indexed": true,
          "internalType": "address",
          "name": "to",
          "type": "address"
        },
        {
          "indexed": false,
          "internalType": "uint256",
          "name": "value",
          "type": "uint256"
        }
      ],
      "name": "Transfer",
      "type": "event"
    },
    {
      "anonymous": false,
      "inputs": [
        {
          "indexed": true,
          "internalType": "address",
          "name": "addr",
          "type": "address"
        },
        {
          "indexed": false,
          "internalType": "uint256",
          "name": "amount",
          "type": "uint256"
        }
      ],
      "name": "Wipe",
      "type": "event"
    },
    {
      "anonymous": false,
      "inputs": [
        {
          "indexed": true,
          "internalType": "address",
          "name": "oldWiper",
          "type": "address"
        },
        {
          "indexed": true,
          "internalType": "address",
          "name": "newWiper",
          "type": "address"
        },
        {
          "indexed": true,
          "internalType": "address",
          "name": "sender",
          "type": "address"
        }
      ],
      "name": "WiperChanged",
      "type": "event"
    },
    {
      "constant": true,
      "inputs": [],
      "name": "admin",
      "outputs": [
        {
          "internalType": "address",
          "name": "",
          "type": "address"
        }
      ],
      "payable": false,
      "stateMutability": "view",
      "type": "function"
    },
    {
      "constant": true,
      "inputs": [
        {
          "internalType": "address",
          "name": "owner",
          "type": "address"
        },
        {
          "internalType": "address",
          "name": "spender",
          "type": "address"
        }
      ],
      "name": "allowance",
      "outputs": [
        {
          "internalType": "uint256",
          "name": "",
          "type": "uint256"
        }
      ],
      "payable": false,
      "stateMutability": "view",
      "type": "function"
    },
    {
      "constant": false,
      "inputs": [
        {
          "internalType": "address",
          "name": "spender",
          "type": "address"
        },
        {
          "internalType": "uint256",
          "name": "value",
          "type": "uint256"
        }
      ],
      "name": "approve",
      "outputs": [
        {
          "internalType": "bool",
          "name": "",
          "type": "bool"
        }
      ],
      "payable": false,
      "stateMutability": "nonpayable",
      "type": "function"
    },
    {
      "constant": true,
      "inputs": [
        {
          "internalType": "address",
          "name": "account",
          "type": "address"
        }
      ],
      "name": "balanceOf",
      "outputs": [
        {
          "internalType": "uint256",
          "name": "",
          "type": "uint256"
        }
      ],
      "payable": false,
      "stateMutability": "view",
      "type": "function"
    },
    {
      "constant": false,
      "inputs": [
        {
          "internalType": "address",
          "name": "_account",
          "type": "address"
        }
      ],
      "name": "changePauser",
      "outputs": [],
      "payable": false,
      "stateMutability": "nonpayable",
      "type": "function"
    },
    {
      "constant": false,
      "inputs": [
        {
          "internalType": "address",
          "name": "_account",
          "type": "address"
        }
      ],
      "name": "changeProhibiter",
      "outputs": [],
      "payable": false,
      "stateMutability": "nonpayable",
      "type": "function"
    },
    {
      "constant": false,
      "inputs": [
        {
          "internalType": "address",
          "name": "_account",
          "type": "address"
        }
      ],
      "name": "changeRescuer",
      "outputs": [],
      "payable": false,
      "stateMutability": "nonpayable",
      "type": "function"
    },
    {
      "constant": false,
      "inputs": [
        {
          "internalType": "address",
          "name": "_account",
          "type": "address"
        }
      ],
      "name": "changeWiper",
      "outputs": [],
      "payable": false,
      "stateMutability": "nonpayable",
      "type": "function"
    },
    {
      "constant": false,
      "inputs": [
        {
          "internalType": "address",
          "name": "spender",
          "type": "address"
        },
        {
          "internalType": "uint256",
          "name": "subtractedValue",
          "type": "uint256"
        }
      ],
      "name": "decreaseAllowance",
      "outputs": [
        {
          "internalType": "bool",
          "name": "",
          "type": "bool"
        }
      ],
      "payable": false,
      "stateMutability": "nonpayable",
      "type": "function"
    },
    {
      "constant": false,
      "inputs": [
        {
          "internalType": "address",
          "name": "spender",
          "type": "address"
        },
        {
          "internalType": "uint256",
          "name": "addedValue",
          "type": "uint256"
        }
      ],
      "name": "increaseAllowance",
      "outputs": [
        {
          "internalType": "bool",
          "name": "",
          "type": "bool"
        }
      ],
      "payable": false,
      "stateMutability": "nonpayable",
      "type": "function"
    },
    {
      "constant": true,
      "inputs": [],
      "name": "owner",
      "outputs": [
        {
          "internalType": "address",
          "name": "",
          "type": "address"
        }
      ],
      "payable": false,
      "stateMutability": "view",
      "type": "function"
    },
    {
      "constant": false,
      "inputs": [],
      "name": "pause",
      "outputs": [],
      "payable": false,
      "stateMutability": "nonpayable",
      "type": "function"
    },
    {
      "constant": true,
      "inputs": [],
      "name": "paused",
      "outputs": [
        {
          "internalType": "bool",
          "name": "",
          "type": "bool"
        }
      ],
      "payable": false,
      "stateMutability": "view",
      "type": "function"
    },
    {
      "constant": true,
      "inputs": [],
      "name": "pauser",
      "outputs": [
        {
          "internalType": "address",
          "name": "",
          "type": "address"
        }
      ],
      "payable": false,
      "stateMutability": "view",
      "type": "function"
    },
    {
      "constant": false,
      "inputs": [
        {
          "internalType": "address",
          "name": "_account",
          "type": "address"
        }
      ],
      "name": "prohibit",
      "outputs": [],
      "payable": false,
      "stateMutability": "nonpayable",
      "type": "function"
    },
    {
      "constant": true,
      "inputs": [
        {
          "internalType": "address",
          "name": "",
          "type": "address"
        }
      ],
      "name": "prohibiteds",
      "outputs": [
        {
          "internalType": "bool",
          "name": "",
          "type": "bool"
        }
      ],
      "payable": false,
      "stateMutability": "view",
      "type": "function"
    },
    {
      "constant": true,
      "inputs": [],
      "name": "prohibiter",
      "outputs": [
        {
          "internalType": "address",
          "name": "",
          "type": "address"
        }
      ],
      "payable": false,
      "stateMutability": "view",
      "type": "function"
    },
    {
      "constant": false,
      "inputs": [
        {
          "internalType": "contract IERC20",
          "name": "_tokenContract",
          "type": "address"
        },
        {
          "internalType": "address",
          "name": "_to",
          "type": "address"
        },
        {
          "internalType": "uint256",
          "name": "_amount",
          "type": "uint256"
        }
      ],
      "name": "rescue",
      "outputs": [],
      "payable": false,
      "stateMutability": "nonpayable",
      "type": "function"
    },
    {
      "constant": true,
      "inputs": [],
      "name": "rescuer",
      "outputs": [
        {
          "internalType": "address",
          "name": "",
          "type": "address"
        }
      ],
      "payable": false,
      "stateMutability": "view",
      "type": "function"
    },
    {
      "constant": true,
      "inputs": [],
      "name": "totalSupply",
      "outputs": [
        {
          "internalType": "uint256",
          "name": "",
          "type": "uint256"
        }
      ],
      "payable": false,
      "stateMutability": "view",
      "type": "function"
    },
    {
      "constant": false,
      "inputs": [
        {
          "internalType": "address",
          "name": "recipient",
          "type": "address"
        },
        {
          "internalType": "uint256",
          "name": "amount",
          "type": "uint256"
        }
      ],
      "name": "transfer",
      "outputs": [
        {
          "internalType": "bool",
          "name": "",
          "type": "bool"
        }
      ],
      "payable": false,
      "stateMutability": "nonpayable",
      "type": "function"
    },
    {
      "constant": false,
      "inputs": [
        {
          "internalType": "address",
          "name": "sender",
          "type": "address"
        },
        {
          "internalType": "address",
          "name": "recipient",
          "type": "address"
        },
        {
          "internalType": "uint256",
          "name": "amount",
          "type": "uint256"
        }
      ],
      "name": "transferFrom",
      "outputs": [
        {
          "internalType": "bool",
          "name": "",
          "type": "bool"
        }
      ],
      "payable": false,
      "stateMutability": "nonpayable",
      "type": "function"
    },
    {
      "constant": false,
      "inputs": [],
      "name": "unpause",
      "outputs": [],
      "payable": false,
      "stateMutability": "nonpayable",
      "type": "function"
    },
    {
      "constant": false,
      "inputs": [
        {
          "internalType": "address",
          "name": "_account",
          "type": "address"
        }
      ],
      "name": "unprohibit",
      "outputs": [],
      "payable": false,
      "stateMutability": "nonpayable",
      "type": "function"
    },
    {
      "constant": false,
      "inputs": [
        {
          "internalType": "address",
          "name": "_account",
          "type": "address"
        }
      ],
      "name": "wipe",
      "outputs": [],
      "payable": false,
      "stateMutability": "nonpayable",
      "type": "function"
    },
    {
      "constant": true,
      "inputs": [],
      "name": "wiper",
      "outputs": [
        {
          "internalType": "address",
          "name": "",
          "type": "address"
        }
      ],
      "payable": false,
      "stateMutability": "view",
      "type": "function"
    },
    {
      "constant": false,
      "inputs": [
        {
          "internalType": "address",
          "name": "_account",
          "type": "address"
        }
      ],
      "name": "changeOwner",
      "outputs": [],
      "payable": false,
      "stateMutability": "nonpayable",
      "type": "function"
    },
    {
      "constant": false,
      "inputs": [
        {
          "internalType": "address",
          "name": "_account",
          "type": "address"
        }
      ],
      "name": "changeAdmin",
      "outputs": [],
      "payable": false,
      "stateMutability": "nonpayable",
      "type": "function"
    }
  ],
  "bytecode": "0x6080604052600080546001600160a81b0319169055600180546001600160a01b031990811690915560028054821690556007805482169055600880548216905560098054909116905534801561005457600080fd5b50611d74806100646000396000f3fe608060405234801561001057600080fd5b50600436106101c45760003560e01c80638456cb59116100f9578063a9059cbb11610097578063dcb413c811610071578063dcb413c814610503578063dd62ed3e1461050b578063dd75049b14610539578063f851a44014610541576101c4565b8063a9059cbb1461048b578063c4e1ccf2146104b7578063cffdd46c146104dd576101c4565b8063988749d1116100d3578063988749d11461040b5780639fd0506d14610431578063a457c2d714610439578063a6f9dae114610465576101c4565b80638456cb59146103d55780638da5cb5b146103dd5780638f283970146103e5576101c4565b806338a63183116101665780635976362811610140578063597636281461035b5780635c975abb14610381578063664dc7241461038957806370a08231146103af576101c4565b806338a631831461030357806339509351146103275780633f4ba83a14610353576101c4565b806323b872dd116101a257806323b872dd1461025b5780632ad3ed6d146102915780632cd271e7146102b75780632fee80d0146102dd576101c4565b8063095ea7b3146101c957806318160ddd1461020957806320ff430b14610223575b600080fd5b6101f5600480360360408110156101df57600080fd5b506001600160a01b038135169060200135610549565b604080519115158252519081900360200190f35b61021161055f565b60408051918252519081900360200190f35b6102596004803603606081101561023957600080fd5b506001600160a01b03813581169160208101359091169060400135610565565b005b6101f56004803603606081101561027157600080fd5b506001600160a01b0381358116916020810135909116906040013561067b565b6101f5600480360360208110156102a757600080fd5b50356001600160a01b03166106d2565b610259600480360360208110156102cd57600080fd5b50356001600160a01b03166106e7565b610259600480360360208110156102f357600080fd5b50356001600160a01b03166107d5565b61030b610911565b604080516001600160a01b039092168252519081900360200190f35b6101f56004803603604081101561033d57600080fd5b506001600160a01b038135169060200135610920565b61025961095c565b6102596004803603602081101561037157600080fd5b50356001600160a01b0316610a6b565b6101f5610ba7565b6102596004803603602081101561039f57600080fd5b50356001600160a01b0316610bb7565b610211600480360360208110156103c557600080fd5b50356001600160a01b0316610d76565b610259610d91565b61030b610e94565b610259600480360360208110156103fb57600080fd5b50356001600160a01b0316610ea3565b6102596004803603602081101561042157600080fd5b50356001600160a01b0316610fa4565b61030b61111a565b6101f56004803603604081101561044f57600080fd5b506001600160a01b038135169060200135611129565b6102596004803603602081101561047b57600080fd5b50356001600160a01b0316611165565b6101f5600480360360408110156104a157600080fd5b506001600160a01b0381351690602001356112b3565b610259600480360360208110156104cd57600080fd5b50356001600160a01b03166112c0565b610259600480360360208110156104f357600080fd5b50356001600160a01b031661148e565b61030b6115ca565b6102116004803603604081101561052157600080fd5b506001600160a01b03813581169160200135166115d9565b61030b611604565b61030b611613565b6000610556338484611622565b50600192915050565b60065490565b600054600160a01b900460ff16156105b2576040805162461bcd60e51b81526020600482015260196024820152600080516020611c8c833981519152604482015290519081900360640190fd5b6001546001600160a01b03163314610611576040805162461bcd60e51b815260206004820152601d60248201527f7468652073656e646572206973206e6f74207468652072657363756572000000604482015290519081900360640190fd5b61062b6001600160a01b038416838363ffffffff61170e16565b816001600160a01b0316836001600160a01b03167fe01920728668d89f092ef9cb92036bad90964bb622eec508d2c3ffe1d582efb2836040518082815260200191505060405180910390a3505050565b6000610688848484611765565b6001600160a01b0384166000908152600560209081526040808320338085529252909120546106c89186916106c3908663ffffffff6118a916565b611622565b5060019392505050565b60036020526000908152604090205460ff1681565b6008546001600160a01b03163314610734576040805162461bcd60e51b815260206004820152601b6024820152600080516020611c2a833981519152604482015290519081900360640190fd5b806001600160a01b03811661077e576040805162461bcd60e51b81526020600482018190526024820152600080516020611c6c833981519152604482015290519081900360640190fd5b600080546001600160a01b038481166001600160a01b0319831617808455604051928216933393919092169184917f8b1ee37fa817a066fe12c7c9bf109c0c9f8f03ef0a5cfe0c03d5196e8c2e46579190a4505050565b6008546001600160a01b03163314610822576040805162461bcd60e51b815260206004820152601b6024820152600080516020611c2a833981519152604482015290519081900360640190fd5b600054600160a01b900460ff161561086f576040805162461bcd60e51b81526020600482015260196024820152600080516020611c8c833981519152604482015290519081900360640190fd5b806001600160a01b0381166108b9576040805162461bcd60e51b81526020600482018190526024820152600080516020611c6c833981519152604482015290519081900360640190fd5b600780546001600160a01b038481166001600160a01b03198316179283905560405191811692339291169083907fd8d09cf07cabd1c0519931ab387ce1b6e580584a26fb2787b8ed7f446c34603f90600090a4505050565b6001546001600160a01b031681565b3360008181526005602090815260408083206001600160a01b038716845290915281205490916105569185906106c3908663ffffffff61190616565b6000546001600160a01b031633146109bb576040805162461bcd60e51b815260206004820152601c60248201527f7468652073656e646572206973206e6f74207468652070617573657200000000604482015290519081900360640190fd5b600054600160a01b900460ff16610a19576040805162461bcd60e51b815260206004820152601d60248201527f74686973206973206e6f7420612070617573656420636f6e7472616374000000604482015290519081900360640190fd5b6000805460ff60a01b19169081905560408051600160a01b90920460ff16151582525133917f5a9dfee0981174e5203ccf9368a8cabb254f9dea6ca43f96b4bbd10c69415d8a919081900360200190a2565b6008546001600160a01b03163314610ab8576040805162461bcd60e51b815260206004820152601b6024820152600080516020611c2a833981519152604482015290519081900360640190fd5b600054600160a01b900460ff1615610b05576040805162461bcd60e51b81526020600482015260196024820152600080516020611c8c833981519152604482015290519081900360640190fd5b806001600160a01b038116610b4f576040805162461bcd60e51b81526020600482018190526024820152600080516020611c6c833981519152604482015290519081900360640190fd5b600180546001600160a01b038481166001600160a01b03198316179283905560405191811692339291169083907f4e26e78832abd61f25bef51e06a1c7575a525edb4d215e56d6c4fbbe363cc03390600090a4505050565b600054600160a01b900460ff1681565b6002546001600160a01b03163314610c16576040805162461bcd60e51b815260206004820181905260248201527f7468652073656e646572206973206e6f74207468652070726f68696269746572604482015290519081900360640190fd5b600054600160a01b900460ff1615610c63576040805162461bcd60e51b81526020600482015260196024820152600080516020611c8c833981519152604482015290519081900360640190fd5b806001600160a01b038116610cad576040805162461bcd60e51b81526020600482018190526024820152600080516020611c6c833981519152604482015290519081900360640190fd5b6001600160a01b038216600090815260036020526040902054829060ff16610d1c576040805162461bcd60e51b815260206004820152601e60248201527f74686973206163636f756e74206973206e6f742070726f686962697465640000604482015290519081900360640190fd5b6001600160a01b0383166000818152600360209081526040808320805460ff191690558051928352513393927fab0ab2fa6ff81b10c5afab4726a665d4379f2d0acaaafbe4c4d737ade05a8e4692908290030190a3505050565b6001600160a01b031660009081526004602052604090205490565b6000546001600160a01b03163314610df0576040805162461bcd60e51b815260206004820152601c60248201527f7468652073656e646572206973206e6f74207468652070617573657200000000604482015290519081900360640190fd5b600054600160a01b900460ff1615610e3d576040805162461bcd60e51b81526020600482015260196024820152600080516020611c8c833981519152604482015290519081900360640190fd5b6000805460ff60a01b1916600160a01b90811791829055604080519190920460ff1615158152905133917f5a9dfee0981174e5203ccf9368a8cabb254f9dea6ca43f96b4bbd10c69415d8a919081900360200190a2565b6009546001600160a01b031681565b6009546001600160a01b03163314610f02576040805162461bcd60e51b815260206004820152601b60248201527f7468652073656e646572206973206e6f7420746865206f776e65720000000000604482015290519081900360640190fd5b806001600160a01b038116610f4c576040805162461bcd60e51b81526020600482018190526024820152600080516020611c6c833981519152604482015290519081900360640190fd5b600880546001600160a01b038481166001600160a01b03198316179283905560405191811692339291169083907f4eb572e99196bed0270fbd5b17a948e19c3f50a97838cb0d2a75a823ff8e6c5090600090a4505050565b600054600160a01b900460ff1615610ff1576040805162461bcd60e51b81526020600482015260196024820152600080516020611c8c833981519152604482015290519081900360640190fd5b6007546001600160a01b03163314611050576040805162461bcd60e51b815260206004820152601b60248201527f7468652073656e646572206973206e6f74207468652077697065720000000000604482015290519081900360640190fd5b6001600160a01b038116600090815260036020526040902054819060ff166110bf576040805162461bcd60e51b815260206004820152601e60248201527f74686973206163636f756e74206973206e6f742070726f686962697465640000604482015290519081900360640190fd5b60006110ca83610d76565b90506110d68382611967565b6040805182815290516001600160a01b038516917f2d2c7da251295f4d722a8ddaf337627952c957ce21b2757c852e47fe81b3a2af919081900360200190a2505050565b6000546001600160a01b031681565b3360008181526005602090815260408083206001600160a01b038716845290915281205490916105569185906106c3908663ffffffff6118a916565b6009546001600160a01b031633146111c4576040805162461bcd60e51b815260206004820152601b60248201527f7468652073656e646572206973206e6f7420746865206f776e65720000000000604482015290519081900360640190fd5b600054600160a01b900460ff1615611211576040805162461bcd60e51b81526020600482015260196024820152600080516020611c8c833981519152604482015290519081900360640190fd5b806001600160a01b03811661125b576040805162461bcd60e51b81526020600482018190526024820152600080516020611c6c833981519152604482015290519081900360640190fd5b600980546001600160a01b038481166001600160a01b03198316179283905560405191811692339291169083907f381c0d11398486654573703c51ee8210ce9461764d133f9f0e53b6a53970533190600090a4505050565b6000610556338484611765565b6002546001600160a01b0316331461131f576040805162461bcd60e51b815260206004820181905260248201527f7468652073656e646572206973206e6f74207468652070726f68696269746572604482015290519081900360640190fd5b600054600160a01b900460ff161561136c576040805162461bcd60e51b81526020600482015260196024820152600080516020611c8c833981519152604482015290519081900360640190fd5b806001600160a01b0381166113b6576040805162461bcd60e51b81526020600482018190526024820152600080516020611c6c833981519152604482015290519081900360640190fd5b6001600160a01b038216600090815260036020526040902054829060ff1615611426576040805162461bcd60e51b815260206004820152601a60248201527f74686973206163636f756e742069732070726f68696269746564000000000000604482015290519081900360640190fd5b6001600160a01b038316600081815260036020908152604091829020805460ff191660011790819055825160ff919091161515815291513393927fab0ab2fa6ff81b10c5afab4726a665d4379f2d0acaaafbe4c4d737ade05a8e4692908290030190a3505050565b6008546001600160a01b031633146114db576040805162461bcd60e51b815260206004820152601b6024820152600080516020611c2a833981519152604482015290519081900360640190fd5b600054600160a01b900460ff1615611528576040805162461bcd60e51b81526020600482015260196024820152600080516020611c8c833981519152604482015290519081900360640190fd5b806001600160a01b038116611572576040805162461bcd60e51b81526020600482018190526024820152600080516020611c6c833981519152604482015290519081900360640190fd5b600280546001600160a01b038481166001600160a01b03198316179283905560405191811692339291169083907f85ae865187b1d7c0069f5fab638cbfcb8f3f9d23bc090e1084abc0dc42def0d290600090a4505050565b6007546001600160a01b031681565b6001600160a01b03918216600090815260056020908152604080832093909416825291909152205490565b6002546001600160a01b031681565b6008546001600160a01b031681565b6001600160a01b0383166116675760405162461bcd60e51b8152600401808060200182810382526024815260200180611cf26024913960400191505060405180910390fd5b6001600160a01b0382166116ac5760405162461bcd60e51b8152600401808060200182810382526022815260200180611c4a6022913960400191505060405180910390fd5b6001600160a01b03808416600081815260056020908152604080832094871680845294825291829020859055815185815291517f8c5be1e5ebec7d5bd14f71427d1e84f3dd0314c0f7b2291e5b200ac8c7c3b9259281900390910190a3505050565b604080516001600160a01b038416602482015260448082018490528251808303909101815260649091019091526020810180516001600160e01b031663a9059cbb60e01b179052611760908490611a42565b505050565b6001600160a01b0383166117aa5760405162461bcd60e51b8152600401808060200182810382526025815260200180611ccd6025913960400191505060405180910390fd5b6001600160a01b0382166117ef5760405162461bcd60e51b8152600401808060200182810382526023815260200180611c076023913960400191505060405180910390fd5b6001600160a01b038316600090815260046020526040902054611818908263ffffffff6118a916565b6001600160a01b03808516600090815260046020526040808220939093559084168152205461184d908263ffffffff61190616565b6001600160a01b0380841660008181526004602090815260409182902094909455805185815290519193928716927fddf252ad1be2c89b69c2b068fc378daa952ba7f163c4a11628f55a4df523b3ef92918290030190a3505050565b600082821115611900576040805162461bcd60e51b815260206004820152601e60248201527f536166654d6174683a207375627472616374696f6e206f766572666c6f770000604482015290519081900360640190fd5b50900390565b600082820183811015611960576040805162461bcd60e51b815260206004820152601b60248201527f536166654d6174683a206164646974696f6e206f766572666c6f770000000000604482015290519081900360640190fd5b9392505050565b6001600160a01b0382166119ac5760405162461bcd60e51b8152600401808060200182810382526021815260200180611cac6021913960400191505060405180910390fd5b6006546119bf908263ffffffff6118a916565b6006556001600160a01b0382166000908152600460205260409020546119eb908263ffffffff6118a916565b6001600160a01b0383166000818152600460209081526040808320949094558351858152935191937fddf252ad1be2c89b69c2b068fc378daa952ba7f163c4a11628f55a4df523b3ef929081900390910190a35050565b611a54826001600160a01b0316611c00565b611aa5576040805162461bcd60e51b815260206004820152601f60248201527f5361666545524332303a2063616c6c20746f206e6f6e2d636f6e747261637400604482015290519081900360640190fd5b60006060836001600160a01b0316836040518082805190602001908083835b60208310611ae35780518252601f199092019160209182019101611ac4565b6001836020036101000a0380198251168184511680821785525050505050509050019150506000604051808303816000865af19150503d8060008114611b45576040519150601f19603f3d011682016040523d82523d6000602084013e611b4a565b606091505b509150915081611ba1576040805162461bcd60e51b815260206004820181905260248201527f5361666545524332303a206c6f772d6c6576656c2063616c6c206661696c6564604482015290519081900360640190fd5b805115611bfa57808060200190516020811015611bbd57600080fd5b5051611bfa5760405162461bcd60e51b815260040180806020018281038252602a815260200180611d16602a913960400191505060405180910390fd5b50505050565b3b15159056fe45524332303a207472616e7366657220746f20746865207a65726f20616464726573737468652073656e646572206973206e6f74207468652061646d696e000000000045524332303a20617070726f766520746f20746865207a65726f206164647265737374686973206163636f756e7420697320746865207a65726f20616464726573737468697320697320612070617573656420636f6e74726163740000000000000045524332303a206275726e2066726f6d20746865207a65726f206164647265737345524332303a207472616e736665722066726f6d20746865207a65726f206164647265737345524332303a20617070726f76652066726f6d20746865207a65726f20616464726573735361666545524332303a204552433230206f7065726174696f6e20646964206e6f742073756363656564a265627a7a723158202d5341c2db0d0502b62112febf478ca3b0236a4a169094277e1e303a791052e764736f6c634300050d0032",
  "source": "pragma solidity 0.5.13;\n\nimport \"./Admin.sol\";\n\ncontract Owner is Admin {\n    address public owner = address(0);\n\n    event OwnerChanged(address indexed oldOwner, address indexed newOwner, address indexed sender);\n    event AdminChanged(address indexed oldAdmin, address indexed newAdmin, address indexed sender);\n\n    modifier onlyOwner() {\n        require(msg.sender == owner, \"the sender is not the owner\");\n        _;\n    }\n\n    function changeOwner(address _account) public onlyOwner whenNotPaused isNotZeroAddress(_account) {\n        address old = owner;\n        owner = _account;\n        emit OwnerChanged(old, owner, msg.sender);\n    }\n\n    /**\n     * Change Admin\n     * @dev \"whenNotPaused\" modifier should not be used here\n     */\n    function changeAdmin(address _account) public onlyOwner isNotZeroAddress(_account) {\n        address old = admin;\n        admin = _account;\n        emit AdminChanged(old, admin, msg.sender);\n    }\n}",
  "sourcePath": "/Users/usr0103665/wallet/contracts-Arbitrum-L2/contracts/Roles/Owner.sol",
  "compiler": {
    "name": "solc",
    "version": "0.5.13+commit.5b0b510c.Emscripten.clang"
  },
  "schemaVersion": "3.0.16",
  "updatedAt": "2022-09-20T05:45:50.457Z",
  "devdoc": {
    "methods": {
      "allowance(address,address)": {
        "details": "See `IERC20.allowance`."
      },
      "approve(address,uint256)": {
        "details": "See `IERC20.approve`.     * Requirements:     * - `spender` cannot be the zero address."
      },
      "balanceOf(address)": {
        "details": "See `IERC20.balanceOf`."
      },
      "changeAdmin(address)": {
        "details": "\"whenNotPaused\" modifier should not be used here"
      },
      "changePauser(address)": {
        "details": "\"whenNotPaused\" modifier should not be used here"
      },
      "decreaseAllowance(address,uint256)": {
        "details": "Atomically decreases the allowance granted to `spender` by the caller.     * This is an alternative to `approve` that can be used as a mitigation for problems described in `IERC20.approve`.     * Emits an `Approval` event indicating the updated allowance.     * Requirements:     * - `spender` cannot be the zero address. - `spender` must have allowance for the caller of at least `subtractedValue`."
      },
      "increaseAllowance(address,uint256)": {
        "details": "Atomically increases the allowance granted to `spender` by the caller.     * This is an alternative to `approve` that can be used as a mitigation for problems described in `IERC20.approve`.     * Emits an `Approval` event indicating the updated allowance.     * Requirements:     * - `spender` cannot be the zero address."
      },
      "totalSupply()": {
        "details": "See `IERC20.totalSupply`."
      },
      "transfer(address,uint256)": {
        "details": "See `IERC20.transfer`.     * Requirements:     * - `recipient` cannot be the zero address. - the caller must have a balance of at least `amount`."
      },
      "transferFrom(address,address,uint256)": {
        "details": "See `IERC20.transferFrom`.     * Emits an `Approval` event indicating the updated allowance. This is not required by the EIP. See the note at the beginning of `ERC20`;     * Requirements: - `sender` and `recipient` cannot be the zero address. - `sender` must have a balance of at least `value`. - the caller must have allowance for `sender`'s tokens of at least `amount`."
      }
    }
  },
  "userdoc": {
    "methods": {
      "changeAdmin(address)": {
        "notice": "Change Admin"
      },
      "changePauser(address)": {
        "notice": "Change Pauser"
      }
    }
  }
}