{
  "contractName": "Prohibiter",
  "abi": [
    {
      "constant": true,
      "inputs": [
        {
          "name": "",
          "type": "address"
        }
      ],
      "name": "isProhibited",
      "outputs": [
        {
          "name": "",
          "type": "bool"
        }
      ],
      "payable": false,
      "stateMutability": "view",
      "type": "function"
    },
    {
      "constant": false,
      "inputs": [],
      "name": "unpause",
      "outputs": [],
      "payable": false,
      "stateMutability": "nonpayable",
      "type": "function"
    },
    {
      "constant": false,
      "inputs": [],
      "name": "pause",
      "outputs": [],
      "payable": false,
      "stateMutability": "nonpayable",
      "type": "function"
    },
    {
      "anonymous": false,
      "inputs": [
        {
          "indexed": false,
          "name": "prohibited",
          "type": "address"
        },
        {
          "indexed": false,
          "name": "status",
          "type": "bool"
        },
        {
          "indexed": false,
          "name": "sender",
          "type": "address"
        }
      ],
      "name": "Prohibition",
      "type": "event"
    },
    {
      "anonymous": false,
      "inputs": [
        {
          "indexed": false,
          "name": "status",
          "type": "bool"
        },
        {
          "indexed": false,
          "name": "sender",
          "type": "address"
        }
      ],
      "name": "Pause",
      "type": "event"
    },
    {
      "constant": false,
      "inputs": [
        {
          "name": "_account",
          "type": "address"
        }
      ],
      "name": "prohibit",
      "outputs": [],
      "payable": false,
      "stateMutability": "nonpayable",
      "type": "function"
    },
    {
      "constant": false,
      "inputs": [
        {
          "name": "_account",
          "type": "address"
        }
      ],
      "name": "unprohibit",
      "outputs": [],
      "payable": false,
      "stateMutability": "nonpayable",
      "type": "function"
    }
  ],
  "bytecode": "0x6080604052600080546001600160a81b0319169055600180546001600160a01b031916905534801561003057600080fd5b5061076e806100406000396000f3fe608060405234801561001057600080fd5b50600436106100575760003560e01c806320dbd9381461005c5780633f4ba83a14610096578063664dc724146100a05780638456cb59146100c6578063c4e1ccf2146100ce575b600080fd5b6100826004803603602081101561007257600080fd5b50356001600160a01b03166100f4565b604080519115158252519081900360200190f35b61009e610109565b005b61009e600480360360208110156100b657600080fd5b50356001600160a01b0316610225565b61009e61041e565b61009e600480360360208110156100e457600080fd5b50356001600160a01b0316610540565b60026020526000908152604090205460ff1681565b6000546001600160a01b0316331461016b5760408051600160e51b62461bcd02815260206004820152601c60248201527f7468652073656e646572206973206e6f74207468652070617573657200000000604482015290519081900360640190fd5b600054600160a01b900460ff166101cc5760408051600160e51b62461bcd02815260206004820152601d60248201527f74686973206973206e6f7420612070617573656420636f6e7472616374000000604482015290519081900360640190fd5b60008054600160a01b60ff0219169081905560408051600160a01b90920460ff161515825233602083015280517f5a9dfee0981174e5203ccf9368a8cabb254f9dea6ca43f96b4bbd10c69415d8a9281900390910190a1565b6001546001600160a01b031633146102875760408051600160e51b62461bcd02815260206004820181905260248201527f7468652073656e646572206973206e6f74207468652070726f68696269746572604482015290519081900360640190fd5b600054600160a01b900460ff16156102e95760408051600160e51b62461bcd02815260206004820152601960248201527f7468697320697320612070617573656420636f6e747261637400000000000000604482015290519081900360640190fd5b806001600160a01b0381166103485760408051600160e51b62461bcd02815260206004820181905260248201527f74686973206163636f756e7420697320746865207a65726f2061646472657373604482015290519081900360640190fd5b6001600160a01b038216600090815260026020526040902054829060ff166103ba5760408051600160e51b62461bcd02815260206004820181905260248201527f74686973206163636f756e74206973206e6f7420612070726f68696269746564604482015290519081900360640190fd5b6001600160a01b0383166000818152600260209081526040808320805460ff191690558051938452908301919091523382820152517fab0ab2fa6ff81b10c5afab4726a665d4379f2d0acaaafbe4c4d737ade05a8e469181900360600190a1505050565b6000546001600160a01b031633146104805760408051600160e51b62461bcd02815260206004820152601c60248201527f7468652073656e646572206973206e6f74207468652070617573657200000000604482015290519081900360640190fd5b600054600160a01b900460ff16156104e25760408051600160e51b62461bcd02815260206004820152601960248201527f7468697320697320612070617573656420636f6e747261637400000000000000604482015290519081900360640190fd5b60008054600160a01b60ff021916600160a01b90811791829055604080519190920460ff161515815233602082015281517f5a9dfee0981174e5203ccf9368a8cabb254f9dea6ca43f96b4bbd10c69415d8a929181900390910190a1565b6001546001600160a01b031633146105a25760408051600160e51b62461bcd02815260206004820181905260248201527f7468652073656e646572206973206e6f74207468652070726f68696269746572604482015290519081900360640190fd5b600054600160a01b900460ff16156106045760408051600160e51b62461bcd02815260206004820152601960248201527f7468697320697320612070617573656420636f6e747261637400000000000000604482015290519081900360640190fd5b806001600160a01b0381166106635760408051600160e51b62461bcd02815260206004820181905260248201527f74686973206163636f756e7420697320746865207a65726f2061646472657373604482015290519081900360640190fd5b6001600160a01b038216600090815260026020526040902054829060ff16156106d65760408051600160e51b62461bcd02815260206004820152601c60248201527f74686973206163636f756e7420697320612070726f6869626974656400000000604482015290519081900360640190fd5b6001600160a01b038316600081815260026020908152604091829020805460ff191660011790819055825193845260ff161515908301523382820152517fab0ab2fa6ff81b10c5afab4726a665d4379f2d0acaaafbe4c4d737ade05a8e469181900360600190a150505056fea165627a7a723058203aa958d9a78bbbb767a64d318200a47baf1f8867ebdecc91ee6e655f8766bf340029",
  "source": "pragma solidity ^0.5.8;\n\nimport \"./Pauser.sol\";\n\ncontract Prohibiter is Pauser {\n    address internal prohibiter = address(0);\n    mapping(address => bool) public isProhibited;\n\n    event Prohibition(address prohibited, bool status, address sender);\n\n    modifier onlyProhibiter() {\n        require(msg.sender == prohibiter, \"the sender is not the prohibiter\");\n        _;\n    }\n\n    modifier onlyNotProhibited(address _account) {\n        require(!isProhibited[_account], \"this account is a prohibited\");\n        _;\n    }\n\n    modifier onlyProhibited(address _account) {\n        require(isProhibited[_account], \"this account is not a prohibited\");\n        _;\n    }\n\n    function prohibit(address _account) public onlyProhibiter whenNotPaused isNotZeroAddress(_account) onlyNotProhibited(_account) {\n        isProhibited[_account] = true;\n        emit Prohibition(_account, isProhibited[_account], msg.sender);\n    }\n\n    function unprohibit(address _account) public onlyProhibiter whenNotPaused isNotZeroAddress(_account) onlyProhibited(_account) {\n        isProhibited[_account] = false;\n        emit Prohibition(_account, isProhibited[_account], msg.sender);\n    }\n}",
  "sourcePath": "/Users/usr0101757/Projects/GYEN/gyen-solidity/contracts/Roles/Prohibiter.sol",
  "compiler": {
    "name": "solc",
    "version": "0.5.8+commit.23d335f2.Emscripten.clang"
  },
  "schemaVersion": "3.0.11",
  "updatedAt": "2019-08-06T03:23:25.566Z",
  "devdoc": {
    "methods": {}
  },
  "userdoc": {
    "methods": {}
  }
}