{
  "contractName": "Prohibiter",
  "abi": [
    {
      "anonymous": false,
      "inputs": [
        {
          "indexed": false,
          "internalType": "bool",
          "name": "status",
          "type": "bool"
        },
        {
          "indexed": true,
          "internalType": "address",
          "name": "sender",
          "type": "address"
        }
      ],
      "name": "Pause",
      "type": "event"
    },
    {
      "anonymous": false,
      "inputs": [
        {
          "indexed": true,
          "internalType": "address",
          "name": "prohibited",
          "type": "address"
        },
        {
          "indexed": false,
          "internalType": "bool",
          "name": "status",
          "type": "bool"
        },
        {
          "indexed": true,
          "internalType": "address",
          "name": "sender",
          "type": "address"
        }
      ],
      "name": "Prohibition",
      "type": "event"
    },
    {
      "constant": false,
      "inputs": [],
      "name": "pause",
      "outputs": [],
      "payable": false,
      "stateMutability": "nonpayable",
      "type": "function"
    },
    {
      "constant": true,
      "inputs": [],
      "name": "paused",
      "outputs": [
        {
          "internalType": "bool",
          "name": "",
          "type": "bool"
        }
      ],
      "payable": false,
      "stateMutability": "view",
      "type": "function"
    },
    {
      "constant": true,
      "inputs": [],
      "name": "pauser",
      "outputs": [
        {
          "internalType": "address",
          "name": "",
          "type": "address"
        }
      ],
      "payable": false,
      "stateMutability": "view",
      "type": "function"
    },
    {
      "constant": true,
      "inputs": [
        {
          "internalType": "address",
          "name": "",
          "type": "address"
        }
      ],
      "name": "prohibiteds",
      "outputs": [
        {
          "internalType": "bool",
          "name": "",
          "type": "bool"
        }
      ],
      "payable": false,
      "stateMutability": "view",
      "type": "function"
    },
    {
      "constant": true,
      "inputs": [],
      "name": "prohibiter",
      "outputs": [
        {
          "internalType": "address",
          "name": "",
          "type": "address"
        }
      ],
      "payable": false,
      "stateMutability": "view",
      "type": "function"
    },
    {
      "constant": false,
      "inputs": [],
      "name": "unpause",
      "outputs": [],
      "payable": false,
      "stateMutability": "nonpayable",
      "type": "function"
    },
    {
      "constant": false,
      "inputs": [
        {
          "internalType": "address",
          "name": "_account",
          "type": "address"
        }
      ],
      "name": "prohibit",
      "outputs": [],
      "payable": false,
      "stateMutability": "nonpayable",
      "type": "function"
    },
    {
      "constant": false,
      "inputs": [
        {
          "internalType": "address",
          "name": "_account",
          "type": "address"
        }
      ],
      "name": "unprohibit",
      "outputs": [],
      "payable": false,
      "stateMutability": "nonpayable",
      "type": "function"
    }
  ],
  "bytecode": "0x6080604052600080546001600160a81b0319169055600180546001600160a01b031916905534801561003057600080fd5b506107be806100406000396000f3fe608060405234801561001057600080fd5b50600436106100885760003560e01c80638456cb591161005b5780638456cb59146100ff5780639fd0506d14610107578063c4e1ccf21461012b578063dd75049b1461015157610088565b80632ad3ed6d1461008d5780633f4ba83a146100c75780635c975abb146100d1578063664dc724146100d9575b600080fd5b6100b3600480360360208110156100a357600080fd5b50356001600160a01b0316610159565b604080519115158252519081900360200190f35b6100cf61016e565b005b6100b361027d565b6100cf600480360360208110156100ef57600080fd5b50356001600160a01b031661028d565b6100cf61046c565b61010f61057d565b604080516001600160a01b039092168252519081900360200190f35b6100cf6004803603602081101561014157600080fd5b50356001600160a01b031661058c565b61010f61077a565b60026020526000908152604090205460ff1681565b6000546001600160a01b031633146101cd576040805162461bcd60e51b815260206004820152601c60248201527f7468652073656e646572206973206e6f74207468652070617573657200000000604482015290519081900360640190fd5b600054600160a01b900460ff1661022b576040805162461bcd60e51b815260206004820152601d60248201527f74686973206973206e6f7420612070617573656420636f6e7472616374000000604482015290519081900360640190fd5b6000805460ff60a01b19169081905560408051600160a01b90920460ff16151582525133917f5a9dfee0981174e5203ccf9368a8cabb254f9dea6ca43f96b4bbd10c69415d8a919081900360200190a2565b600054600160a01b900460ff1681565b6001546001600160a01b031633146102ec576040805162461bcd60e51b815260206004820181905260248201527f7468652073656e646572206973206e6f74207468652070726f68696269746572604482015290519081900360640190fd5b600054600160a01b900460ff1615610347576040805162461bcd60e51b81526020600482015260196024820152781d1a1a5cc81a5cc818481c185d5cd9590818dbdb9d1c9858dd603a1b604482015290519081900360640190fd5b806001600160a01b0381166103a3576040805162461bcd60e51b815260206004820181905260248201527f74686973206163636f756e7420697320746865207a65726f2061646472657373604482015290519081900360640190fd5b6001600160a01b038216600090815260026020526040902054829060ff16610412576040805162461bcd60e51b815260206004820152601e60248201527f74686973206163636f756e74206973206e6f742070726f686962697465640000604482015290519081900360640190fd5b6001600160a01b0383166000818152600260209081526040808320805460ff191690558051928352513393927fab0ab2fa6ff81b10c5afab4726a665d4379f2d0acaaafbe4c4d737ade05a8e4692908290030190a3505050565b6000546001600160a01b031633146104cb576040805162461bcd60e51b815260206004820152601c60248201527f7468652073656e646572206973206e6f74207468652070617573657200000000604482015290519081900360640190fd5b600054600160a01b900460ff1615610526576040805162461bcd60e51b81526020600482015260196024820152781d1a1a5cc81a5cc818481c185d5cd9590818dbdb9d1c9858dd603a1b604482015290519081900360640190fd5b6000805460ff60a01b1916600160a01b90811791829055604080519190920460ff1615158152905133917f5a9dfee0981174e5203ccf9368a8cabb254f9dea6ca43f96b4bbd10c69415d8a919081900360200190a2565b6000546001600160a01b031681565b6001546001600160a01b031633146105eb576040805162461bcd60e51b815260206004820181905260248201527f7468652073656e646572206973206e6f74207468652070726f68696269746572604482015290519081900360640190fd5b600054600160a01b900460ff1615610646576040805162461bcd60e51b81526020600482015260196024820152781d1a1a5cc81a5cc818481c185d5cd9590818dbdb9d1c9858dd603a1b604482015290519081900360640190fd5b806001600160a01b0381166106a2576040805162461bcd60e51b815260206004820181905260248201527f74686973206163636f756e7420697320746865207a65726f2061646472657373604482015290519081900360640190fd5b6001600160a01b038216600090815260026020526040902054829060ff1615610712576040805162461bcd60e51b815260206004820152601a60248201527f74686973206163636f756e742069732070726f68696269746564000000000000604482015290519081900360640190fd5b6001600160a01b038316600081815260026020908152604091829020805460ff191660011790819055825160ff919091161515815291513393927fab0ab2fa6ff81b10c5afab4726a665d4379f2d0acaaafbe4c4d737ade05a8e4692908290030190a3505050565b6001546001600160a01b03168156fea265627a7a723158202de28748604bbf6ae2d808f5bce6f6be4745c47d1001ff66ab9d31073482587364736f6c634300050d0032",
  "source": "pragma solidity 0.5.13;\n\nimport \"./Pauser.sol\";\n\ncontract Prohibiter is Pauser {\n    address public prohibiter = address(0);\n    mapping(address => bool) public prohibiteds;\n\n    event Prohibition(address indexed prohibited, bool status, address indexed sender);\n\n    modifier onlyProhibiter() {\n        require(msg.sender == prohibiter, \"the sender is not the prohibiter\");\n        _;\n    }\n\n    modifier onlyNotProhibited(address _account) {\n        require(!prohibiteds[_account], \"this account is prohibited\");\n        _;\n    }\n\n    modifier onlyProhibited(address _account) {\n        require(prohibiteds[_account], \"this account is not prohibited\");\n        _;\n    }\n\n    function prohibit(address _account) public onlyProhibiter whenNotPaused isNotZeroAddress(_account) onlyNotProhibited(_account) {\n        prohibiteds[_account] = true;\n        emit Prohibition(_account, prohibiteds[_account], msg.sender);\n    }\n\n    function unprohibit(address _account) public onlyProhibiter whenNotPaused isNotZeroAddress(_account) onlyProhibited(_account) {\n        prohibiteds[_account] = false;\n        emit Prohibition(_account, prohibiteds[_account], msg.sender);\n    }\n}",
  "sourcePath": "/Users/usr0103665/wallet/contracts-Arbitrum-L2/contracts/Roles/Prohibiter.sol",
  "compiler": {
    "name": "solc",
    "version": "0.5.13+commit.5b0b510c.Emscripten.clang"
  },
  "schemaVersion": "3.0.16",
  "updatedAt": "2022-09-20T05:45:50.459Z",
  "devdoc": {
    "methods": {}
  },
  "userdoc": {
    "methods": {}
  }
}