{
  "contractName": "Rescuer",
  "abi": [
    {
      "anonymous": false,
      "inputs": [
        {
          "indexed": false,
          "internalType": "bool",
          "name": "status",
          "type": "bool"
        },
        {
          "indexed": true,
          "internalType": "address",
          "name": "sender",
          "type": "address"
        }
      ],
      "name": "Pause",
      "type": "event"
    },
    {
      "anonymous": false,
      "inputs": [
        {
          "indexed": true,
          "internalType": "contract IERC20",
          "name": "tokenAddr",
          "type": "address"
        },
        {
          "indexed": true,
          "internalType": "address",
          "name": "toAddr",
          "type": "address"
        },
        {
          "indexed": false,
          "internalType": "uint256",
          "name": "amount",
          "type": "uint256"
        }
      ],
      "name": "Rescue",
      "type": "event"
    },
    {
      "constant": false,
      "inputs": [],
      "name": "pause",
      "outputs": [],
      "payable": false,
      "stateMutability": "nonpayable",
      "type": "function"
    },
    {
      "constant": true,
      "inputs": [],
      "name": "paused",
      "outputs": [
        {
          "internalType": "bool",
          "name": "",
          "type": "bool"
        }
      ],
      "payable": false,
      "stateMutability": "view",
      "type": "function"
    },
    {
      "constant": true,
      "inputs": [],
      "name": "pauser",
      "outputs": [
        {
          "internalType": "address",
          "name": "",
          "type": "address"
        }
      ],
      "payable": false,
      "stateMutability": "view",
      "type": "function"
    },
    {
      "constant": true,
      "inputs": [],
      "name": "rescuer",
      "outputs": [
        {
          "internalType": "address",
          "name": "",
          "type": "address"
        }
      ],
      "payable": false,
      "stateMutability": "view",
      "type": "function"
    },
    {
      "constant": false,
      "inputs": [],
      "name": "unpause",
      "outputs": [],
      "payable": false,
      "stateMutability": "nonpayable",
      "type": "function"
    },
    {
      "constant": false,
      "inputs": [
        {
          "internalType": "contract IERC20",
          "name": "_tokenContract",
          "type": "address"
        },
        {
          "internalType": "address",
          "name": "_to",
          "type": "address"
        },
        {
          "internalType": "uint256",
          "name": "_amount",
          "type": "uint256"
        }
      ],
      "name": "rescue",
      "outputs": [],
      "payable": false,
      "stateMutability": "nonpayable",
      "type": "function"
    }
  ],
  "bytecode": "0x6080604052600080546001600160a81b0319169055600180546001600160a01b031916905534801561003057600080fd5b506106e3806100406000396000f3fe608060405234801561001057600080fd5b50600436106100625760003560e01c806320ff430b1461006757806338a631831461009f5780633f4ba83a146100c35780635c975abb146100cb5780638456cb59146100e75780639fd0506d146100ef575b600080fd5b61009d6004803603606081101561007d57600080fd5b506001600160a01b038135811691602081013590911690604001356100f7565b005b6100a761021b565b604080516001600160a01b039092168252519081900360200190f35b61009d61022a565b6100d3610339565b604080519115158252519081900360200190f35b61009d610349565b6100a761045a565b600054600160a01b900460ff1615610152576040805162461bcd60e51b81526020600482015260196024820152781d1a1a5cc81a5cc818481c185d5cd9590818dbdb9d1c9858dd603a1b604482015290519081900360640190fd5b6001546001600160a01b031633146101b1576040805162461bcd60e51b815260206004820152601d60248201527f7468652073656e646572206973206e6f74207468652072657363756572000000604482015290519081900360640190fd5b6101cb6001600160a01b038416838363ffffffff61046916565b816001600160a01b0316836001600160a01b03167fe01920728668d89f092ef9cb92036bad90964bb622eec508d2c3ffe1d582efb2836040518082815260200191505060405180910390a3505050565b6001546001600160a01b031681565b6000546001600160a01b03163314610289576040805162461bcd60e51b815260206004820152601c60248201527f7468652073656e646572206973206e6f74207468652070617573657200000000604482015290519081900360640190fd5b600054600160a01b900460ff166102e7576040805162461bcd60e51b815260206004820152601d60248201527f74686973206973206e6f7420612070617573656420636f6e7472616374000000604482015290519081900360640190fd5b6000805460ff60a01b19169081905560408051600160a01b90920460ff16151582525133917f5a9dfee0981174e5203ccf9368a8cabb254f9dea6ca43f96b4bbd10c69415d8a919081900360200190a2565b600054600160a01b900460ff1681565b6000546001600160a01b031633146103a8576040805162461bcd60e51b815260206004820152601c60248201527f7468652073656e646572206973206e6f74207468652070617573657200000000604482015290519081900360640190fd5b600054600160a01b900460ff1615610403576040805162461bcd60e51b81526020600482015260196024820152781d1a1a5cc81a5cc818481c185d5cd9590818dbdb9d1c9858dd603a1b604482015290519081900360640190fd5b6000805460ff60a01b1916600160a01b90811791829055604080519190920460ff1615158152905133917f5a9dfee0981174e5203ccf9368a8cabb254f9dea6ca43f96b4bbd10c69415d8a919081900360200190a2565b6000546001600160a01b031681565b604080516001600160a01b038416602482015260448082018490528251808303909101815260649091019091526020810180516001600160e01b031663a9059cbb60e01b1790526104bb9084906104c0565b505050565b6104d2826001600160a01b031661067e565b610523576040805162461bcd60e51b815260206004820152601f60248201527f5361666545524332303a2063616c6c20746f206e6f6e2d636f6e747261637400604482015290519081900360640190fd5b60006060836001600160a01b0316836040518082805190602001908083835b602083106105615780518252601f199092019160209182019101610542565b6001836020036101000a0380198251168184511680821785525050505050509050019150506000604051808303816000865af19150503d80600081146105c3576040519150601f19603f3d011682016040523d82523d6000602084013e6105c8565b606091505b50915091508161061f576040805162461bcd60e51b815260206004820181905260248201527f5361666545524332303a206c6f772d6c6576656c2063616c6c206661696c6564604482015290519081900360640190fd5b8051156106785780806020019051602081101561063b57600080fd5b50516106785760405162461bcd60e51b815260040180806020018281038252602a815260200180610685602a913960400191505060405180910390fd5b50505050565b3b15159056fe5361666545524332303a204552433230206f7065726174696f6e20646964206e6f742073756363656564a265627a7a7231582071ae03c74f4fb9fb047eb3173657ad6cc0722720d7e6123ed65df562baba740e64736f6c63430005100032",
  "source": "pragma solidity 0.5.16;\n\nimport \"./Pauser.sol\";\nimport { IERC20 } from \"openzeppelin-solidity/contracts/token/ERC20/IERC20.sol\";\nimport { SafeERC20 } from \"openzeppelin-solidity/contracts/token/ERC20/SafeERC20.sol\";\n\ncontract Rescuer is Pauser  {\n    using SafeERC20 for IERC20;\n    address public rescuer = address(0);\n    event Rescue(IERC20 indexed tokenAddr, address indexed toAddr, uint256 amount);\n\n    modifier onlyRescuer() {\n        require(msg.sender == rescuer, \"the sender is not the rescuer\");\n        _;\n    }\n\n    function rescue(IERC20 _tokenContract, address _to, uint256 _amount) public whenNotPaused onlyRescuer {\n        _tokenContract.safeTransfer(_to, _amount);\n        emit Rescue(_tokenContract, _to, _amount);\n    }\n}",
  "sourcePath": "/Users/usr0102794/gyen2022/arbitrum-l2/contracts/contracts/Roles/Rescuer.sol",
  "compiler": {
    "name": "solc",
    "version": "0.5.16+commit.9c3226ce.Emscripten.clang"
  },
  "schemaVersion": "3.0.16",
  "updatedAt": "2023-01-16T08:19:17.768Z",
  "devdoc": {
    "methods": {}
  },
  "userdoc": {
    "methods": {}
  }
}