{
  "contractName": "Token_v3",
  "abi": [
    {
      "constant": false,
      "inputs": [
        {
          "name": "_account",
          "type": "address"
        }
      ],
      "name": "changeMinterAdmin",
      "outputs": [],
      "payable": false,
      "stateMutability": "nonpayable",
      "type": "function"
    },
    {
      "constant": true,
      "inputs": [],
      "name": "name",
      "outputs": [
        {
          "name": "",
          "type": "string"
        }
      ],
      "payable": false,
      "stateMutability": "view",
      "type": "function"
    },
    {
      "constant": true,
      "inputs": [],
      "name": "minter",
      "outputs": [
        {
          "name": "",
          "type": "address"
        }
      ],
      "payable": false,
      "stateMutability": "view",
      "type": "function"
    },
    {
      "constant": false,
      "inputs": [
        {
          "name": "spender",
          "type": "address"
        },
        {
          "name": "value",
          "type": "uint256"
        }
      ],
      "name": "approve",
      "outputs": [
        {
          "name": "",
          "type": "bool"
        }
      ],
      "payable": false,
      "stateMutability": "nonpayable",
      "type": "function"
    },
    {
      "constant": true,
      "inputs": [],
      "name": "totalSupply",
      "outputs": [
        {
          "name": "",
          "type": "uint256"
        }
      ],
      "payable": false,
      "stateMutability": "view",
      "type": "function"
    },
    {
      "constant": false,
      "inputs": [
        {
          "name": "_sender",
          "type": "address"
        },
        {
          "name": "_recipient",
          "type": "address"
        },
        {
          "name": "_amount",
          "type": "uint256"
        }
      ],
      "name": "transferFrom",
      "outputs": [
        {
          "name": "",
          "type": "bool"
        }
      ],
      "payable": false,
      "stateMutability": "nonpayable",
      "type": "function"
    },
    {
      "constant": true,
      "inputs": [
        {
          "name": "",
          "type": "address"
        }
      ],
      "name": "prohibiteds",
      "outputs": [
        {
          "name": "",
          "type": "bool"
        }
      ],
      "payable": false,
      "stateMutability": "view",
      "type": "function"
    },
    {
      "constant": false,
      "inputs": [
        {
          "name": "_account",
          "type": "address"
        }
      ],
      "name": "changeMinter",
      "outputs": [],
      "payable": false,
      "stateMutability": "nonpayable",
      "type": "function"
    },
    {
      "constant": false,
      "inputs": [
        {
          "name": "_account",
          "type": "address"
        }
      ],
      "name": "changePauser",
      "outputs": [],
      "payable": false,
      "stateMutability": "nonpayable",
      "type": "function"
    },
    {
      "constant": false,
      "inputs": [
        {
          "name": "_account",
          "type": "address"
        }
      ],
      "name": "changeWiper",
      "outputs": [],
      "payable": false,
      "stateMutability": "nonpayable",
      "type": "function"
    },
    {
      "constant": true,
      "inputs": [],
      "name": "decimals",
      "outputs": [
        {
          "name": "",
          "type": "uint8"
        }
      ],
      "payable": false,
      "stateMutability": "view",
      "type": "function"
    },
    {
      "constant": true,
      "inputs": [],
      "name": "rescuer",
      "outputs": [
        {
          "name": "",
          "type": "address"
        }
      ],
      "payable": false,
      "stateMutability": "view",
      "type": "function"
    },
    {
      "constant": false,
      "inputs": [
        {
          "name": "spender",
          "type": "address"
        },
        {
          "name": "addedValue",
          "type": "uint256"
        }
      ],
      "name": "increaseAllowance",
      "outputs": [
        {
          "name": "",
          "type": "bool"
        }
      ],
      "payable": false,
      "stateMutability": "nonpayable",
      "type": "function"
    },
    {
      "constant": false,
      "inputs": [],
      "name": "unpause",
      "outputs": [],
      "payable": false,
      "stateMutability": "nonpayable",
      "type": "function"
    },
    {
      "constant": false,
      "inputs": [
        {
          "name": "_account",
          "type": "address"
        },
        {
          "name": "_amount",
          "type": "uint256"
        }
      ],
      "name": "mint",
      "outputs": [],
      "payable": false,
      "stateMutability": "nonpayable",
      "type": "function"
    },
    {
      "constant": false,
      "inputs": [
        {
          "name": "_amount",
          "type": "uint256"
        }
      ],
      "name": "burn",
      "outputs": [],
      "payable": false,
      "stateMutability": "nonpayable",
      "type": "function"
    },
    {
      "constant": true,
      "inputs": [],
      "name": "capper",
      "outputs": [
        {
          "name": "",
          "type": "address"
        }
      ],
      "payable": false,
      "stateMutability": "view",
      "type": "function"
    },
    {
      "constant": true,
      "inputs": [],
      "name": "paused",
      "outputs": [
        {
          "name": "",
          "type": "bool"
        }
      ],
      "payable": false,
      "stateMutability": "view",
      "type": "function"
    },
    {
      "constant": true,
      "inputs": [],
      "name": "capacity",
      "outputs": [
        {
          "name": "",
          "type": "uint256"
        }
      ],
      "payable": false,
      "stateMutability": "view",
      "type": "function"
    },
    {
      "constant": false,
      "inputs": [
        {
          "name": "_account",
          "type": "address"
        }
      ],
      "name": "unprohibit",
      "outputs": [],
      "payable": false,
      "stateMutability": "nonpayable",
      "type": "function"
    },
    {
      "constant": true,
      "inputs": [
        {
          "name": "account",
          "type": "address"
        }
      ],
      "name": "balanceOf",
      "outputs": [
        {
          "name": "",
          "type": "uint256"
        }
      ],
      "payable": false,
      "stateMutability": "view",
      "type": "function"
    },
    {
      "constant": false,
      "inputs": [],
      "name": "pause",
      "outputs": [],
      "payable": false,
      "stateMutability": "nonpayable",
      "type": "function"
    },
    {
      "constant": true,
      "inputs": [],
      "name": "owner",
      "outputs": [
        {
          "name": "",
          "type": "address"
        }
      ],
      "payable": false,
      "stateMutability": "view",
      "type": "function"
    },
    {
      "constant": false,
      "inputs": [
        {
          "name": "_account",
          "type": "address"
        }
      ],
      "name": "changeAdmin",
      "outputs": [],
      "payable": false,
      "stateMutability": "nonpayable",
      "type": "function"
    },
    {
      "constant": false,
      "inputs": [
        {
          "name": "_account",
          "type": "address"
        }
      ],
      "name": "initializeWiper",
      "outputs": [],
      "payable": false,
      "stateMutability": "nonpayable",
      "type": "function"
    },
    {
      "constant": true,
      "inputs": [],
      "name": "symbol",
      "outputs": [
        {
          "name": "",
          "type": "string"
        }
      ],
      "payable": false,
      "stateMutability": "view",
      "type": "function"
    },
    {
      "constant": false,
      "inputs": [
        {
          "name": "_account",
          "type": "address"
        }
      ],
      "name": "wipe",
      "outputs": [],
      "payable": false,
      "stateMutability": "nonpayable",
      "type": "function"
    },
    {
      "constant": true,
      "inputs": [],
      "name": "pauser",
      "outputs": [
        {
          "name": "",
          "type": "address"
        }
      ],
      "payable": false,
      "stateMutability": "view",
      "type": "function"
    },
    {
      "constant": false,
      "inputs": [
        {
          "name": "spender",
          "type": "address"
        },
        {
          "name": "subtractedValue",
          "type": "uint256"
        }
      ],
      "name": "decreaseAllowance",
      "outputs": [
        {
          "name": "",
          "type": "bool"
        }
      ],
      "payable": false,
      "stateMutability": "nonpayable",
      "type": "function"
    },
    {
      "constant": false,
      "inputs": [
        {
          "name": "_account",
          "type": "address"
        }
      ],
      "name": "changeOwner",
      "outputs": [],
      "payable": false,
      "stateMutability": "nonpayable",
      "type": "function"
    },
    {
      "constant": true,
      "inputs": [],
      "name": "minterAdmin",
      "outputs": [
        {
          "name": "",
          "type": "address"
        }
      ],
      "payable": false,
      "stateMutability": "view",
      "type": "function"
    },
    {
      "constant": false,
      "inputs": [
        {
          "name": "_recipient",
          "type": "address"
        },
        {
          "name": "_amount",
          "type": "uint256"
        }
      ],
      "name": "transfer",
      "outputs": [
        {
          "name": "",
          "type": "bool"
        }
      ],
      "payable": false,
      "stateMutability": "nonpayable",
      "type": "function"
    },
    {
      "constant": false,
      "inputs": [
        {
          "name": "_account",
          "type": "address"
        }
      ],
      "name": "changeCapper",
      "outputs": [],
      "payable": false,
      "stateMutability": "nonpayable",
      "type": "function"
    },
    {
      "constant": false,
      "inputs": [
        {
          "name": "_name",
          "type": "string"
        },
        {
          "name": "_symbol",
          "type": "string"
        },
        {
          "name": "_decimals",
          "type": "uint8"
        },
        {
          "name": "_owner",
          "type": "address"
        },
        {
          "name": "_admin",
          "type": "address"
        },
        {
          "name": "_capper",
          "type": "address"
        },
        {
          "name": "_prohibiter",
          "type": "address"
        },
        {
          "name": "_pauser",
          "type": "address"
        },
        {
          "name": "_minterAdmin",
          "type": "address"
        },
        {
          "name": "_minter",
          "type": "address"
        }
      ],
      "name": "initialize",
      "outputs": [],
      "payable": false,
      "stateMutability": "nonpayable",
      "type": "function"
    },
    {
      "constant": false,
      "inputs": [
        {
          "name": "_account",
          "type": "address"
        }
      ],
      "name": "initializeRescuer",
      "outputs": [],
      "payable": false,
      "stateMutability": "nonpayable",
      "type": "function"
    },
    {
      "constant": false,
      "inputs": [
        {
          "name": "_account",
          "type": "address"
        }
      ],
      "name": "prohibit",
      "outputs": [],
      "payable": false,
      "stateMutability": "nonpayable",
      "type": "function"
    },
    {
      "constant": false,
      "inputs": [
        {
          "name": "_account",
          "type": "address"
        }
      ],
      "name": "changeProhibiter",
      "outputs": [],
      "payable": false,
      "stateMutability": "nonpayable",
      "type": "function"
    },
    {
      "constant": true,
      "inputs": [],
      "name": "wiper",
      "outputs": [
        {
          "name": "",
          "type": "address"
        }
      ],
      "payable": false,
      "stateMutability": "view",
      "type": "function"
    },
    {
      "constant": true,
      "inputs": [
        {
          "name": "owner",
          "type": "address"
        },
        {
          "name": "spender",
          "type": "address"
        }
      ],
      "name": "allowance",
      "outputs": [
        {
          "name": "",
          "type": "uint256"
        }
      ],
      "payable": false,
      "stateMutability": "view",
      "type": "function"
    },
    {
      "constant": true,
      "inputs": [],
      "name": "prohibiter",
      "outputs": [
        {
          "name": "",
          "type": "address"
        }
      ],
      "payable": false,
      "stateMutability": "view",
      "type": "function"
    },
    {
      "constant": true,
      "inputs": [],
      "name": "admin",
      "outputs": [
        {
          "name": "",
          "type": "address"
        }
      ],
      "payable": false,
      "stateMutability": "view",
      "type": "function"
    },
    {
      "constant": false,
      "inputs": [
        {
          "name": "_amount",
          "type": "uint256"
        }
      ],
      "name": "cap",
      "outputs": [],
      "payable": false,
      "stateMutability": "nonpayable",
      "type": "function"
    },
    {
      "anonymous": false,
      "inputs": [
        {
          "indexed": true,
          "name": "tokenAddr",
          "type": "address"
        },
        {
          "indexed": true,
          "name": "toAddr",
          "type": "address"
        },
        {
          "indexed": false,
          "name": "amount",
          "type": "uint256"
        }
      ],
      "name": "Rescue",
      "type": "event"
    },
    {
      "anonymous": false,
      "inputs": [
        {
          "indexed": true,
          "name": "oldRescuer",
          "type": "address"
        },
        {
          "indexed": true,
          "name": "newRescuer",
          "type": "address"
        },
        {
          "indexed": true,
          "name": "sender",
          "type": "address"
        }
      ],
      "name": "RescuerChanged",
      "type": "event"
    },
    {
      "anonymous": false,
      "inputs": [
        {
          "indexed": true,
          "name": "addr",
          "type": "address"
        },
        {
          "indexed": false,
          "name": "amount",
          "type": "uint256"
        }
      ],
      "name": "Wipe",
      "type": "event"
    },
    {
      "anonymous": false,
      "inputs": [
        {
          "indexed": true,
          "name": "oldWiper",
          "type": "address"
        },
        {
          "indexed": true,
          "name": "newWiper",
          "type": "address"
        },
        {
          "indexed": true,
          "name": "sender",
          "type": "address"
        }
      ],
      "name": "WiperChanged",
      "type": "event"
    },
    {
      "anonymous": false,
      "inputs": [
        {
          "indexed": true,
          "name": "mintee",
          "type": "address"
        },
        {
          "indexed": false,
          "name": "amount",
          "type": "uint256"
        },
        {
          "indexed": true,
          "name": "sender",
          "type": "address"
        }
      ],
      "name": "Mint",
      "type": "event"
    },
    {
      "anonymous": false,
      "inputs": [
        {
          "indexed": true,
          "name": "burnee",
          "type": "address"
        },
        {
          "indexed": false,
          "name": "amount",
          "type": "uint256"
        },
        {
          "indexed": true,
          "name": "sender",
          "type": "address"
        }
      ],
      "name": "Burn",
      "type": "event"
    },
    {
      "anonymous": false,
      "inputs": [
        {
          "indexed": true,
          "name": "oldOwner",
          "type": "address"
        },
        {
          "indexed": true,
          "name": "newOwner",
          "type": "address"
        },
        {
          "indexed": true,
          "name": "sender",
          "type": "address"
        }
      ],
      "name": "OwnerChanged",
      "type": "event"
    },
    {
      "anonymous": false,
      "inputs": [
        {
          "indexed": true,
          "name": "oldAdmin",
          "type": "address"
        },
        {
          "indexed": true,
          "name": "newAdmin",
          "type": "address"
        },
        {
          "indexed": true,
          "name": "sender",
          "type": "address"
        }
      ],
      "name": "AdminChanged",
      "type": "event"
    },
    {
      "anonymous": false,
      "inputs": [
        {
          "indexed": true,
          "name": "oldMinterAdmin",
          "type": "address"
        },
        {
          "indexed": true,
          "name": "newMinterAdmin",
          "type": "address"
        },
        {
          "indexed": true,
          "name": "sender",
          "type": "address"
        }
      ],
      "name": "MinterAdminChanged",
      "type": "event"
    },
    {
      "anonymous": false,
      "inputs": [
        {
          "indexed": true,
          "name": "oldMinter",
          "type": "address"
        },
        {
          "indexed": true,
          "name": "newMinter",
          "type": "address"
        },
        {
          "indexed": true,
          "name": "sender",
          "type": "address"
        }
      ],
      "name": "MinterChanged",
      "type": "event"
    },
    {
      "anonymous": false,
      "inputs": [
        {
          "indexed": true,
          "name": "oldCapper",
          "type": "address"
        },
        {
          "indexed": true,
          "name": "newCapper",
          "type": "address"
        },
        {
          "indexed": true,
          "name": "sender",
          "type": "address"
        }
      ],
      "name": "CapperChanged",
      "type": "event"
    },
    {
      "anonymous": false,
      "inputs": [
        {
          "indexed": true,
          "name": "oldPauser",
          "type": "address"
        },
        {
          "indexed": true,
          "name": "newPauser",
          "type": "address"
        },
        {
          "indexed": true,
          "name": "sender",
          "type": "address"
        }
      ],
      "name": "PauserChanged",
      "type": "event"
    },
    {
      "anonymous": false,
      "inputs": [
        {
          "indexed": true,
          "name": "oldProhibiter",
          "type": "address"
        },
        {
          "indexed": true,
          "name": "newProhibiter",
          "type": "address"
        },
        {
          "indexed": true,
          "name": "sender",
          "type": "address"
        }
      ],
      "name": "ProhibiterChanged",
      "type": "event"
    },
    {
      "anonymous": false,
      "inputs": [
        {
          "indexed": true,
          "name": "prohibited",
          "type": "address"
        },
        {
          "indexed": false,
          "name": "status",
          "type": "bool"
        },
        {
          "indexed": true,
          "name": "sender",
          "type": "address"
        }
      ],
      "name": "Prohibition",
      "type": "event"
    },
    {
      "anonymous": false,
      "inputs": [
        {
          "indexed": false,
          "name": "status",
          "type": "bool"
        },
        {
          "indexed": true,
          "name": "sender",
          "type": "address"
        }
      ],
      "name": "Pause",
      "type": "event"
    },
    {
      "anonymous": false,
      "inputs": [
        {
          "indexed": true,
          "name": "newCapacity",
          "type": "uint256"
        },
        {
          "indexed": true,
          "name": "sender",
          "type": "address"
        }
      ],
      "name": "Cap",
      "type": "event"
    },
    {
      "anonymous": false,
      "inputs": [
        {
          "indexed": true,
          "name": "from",
          "type": "address"
        },
        {
          "indexed": true,
          "name": "to",
          "type": "address"
        },
        {
          "indexed": false,
          "name": "value",
          "type": "uint256"
        }
      ],
      "name": "Transfer",
      "type": "event"
    },
    {
      "anonymous": false,
      "inputs": [
        {
          "indexed": true,
          "name": "owner",
          "type": "address"
        },
        {
          "indexed": true,
          "name": "spender",
          "type": "address"
        },
        {
          "indexed": false,
          "name": "value",
          "type": "uint256"
        }
      ],
      "name": "Approval",
      "type": "event"
    },
    {
      "constant": false,
      "inputs": [
        {
          "name": "_account",
          "type": "address"
        }
      ],
      "name": "changeRescuer",
      "outputs": [],
      "payable": false,
      "stateMutability": "nonpayable",
      "type": "function"
    },
    {
      "constant": false,
      "inputs": [
        {
          "name": "_tokenContract",
          "type": "address"
        },
        {
          "name": "_to",
          "type": "address"
        },
        {
          "name": "_amount",
          "type": "uint256"
        }
      ],
      "name": "rescue",
      "outputs": [],
      "payable": false,
      "stateMutability": "nonpayable",
      "type": "function"
    }
  ],
  "bytecode": "0x60806040526000603655603780546001600160a01b0319908116909155603880546001600160a81b03191690556039805482169055603b805482169055603c805482169055603d805482169055603e80548216905560418054610100600160a81b031916905560428054909116905534801561007a57600080fd5b506134e38061008a6000396000f3fe608060405234801561001057600080fd5b50600436106102745760003560e01c806370a0823111610151578063a9059cbb116100c3578063cffdd46c11610087578063cffdd46c146108c6578063dcb413c8146108ec578063dd62ed3e146108f4578063dd75049b14610922578063f851a4401461092a578063ff2ad8e41461093257610274565b8063a9059cbb146106b9578063b0e71766146106e5578063b89da6421461070b578063c3a35db91461087a578063c4e1ccf2146108a057610274565b806395d89b411161011557806395d89b4114610629578063988749d1146106315780639fd0506d14610657578063a457c2d71461065f578063a6f9dae11461068b578063a754d48f146106b157610274565b806370a08231146105a75780638456cb59146105cd5780638da5cb5b146105d55780638f283970146105dd578063949a36521461060357610274565b8063313ce567116101ea57806342966c68116101ae57806342966c681461052657806350a6aaf414610543578063597636281461054b5780635c975abb146105715780635cfc1a5114610579578063664dc7241461058157610274565b8063313ce567146104a057806338a63183146104be57806339509351146104c65780633f4ba83a146104f257806340c10f19146104fa57610274565b806320ff430b1161023c57806320ff430b1461039c57806323b872dd146103d25780632ad3ed6d146104085780632c4d4d181461042e5780632cd271e7146104545780632fee80d01461047a57610274565b80630628922d1461027957806306fdde03146102a1578063075461721461031e578063095ea7b31461034257806318160ddd14610382575b600080fd5b61029f6004803603602081101561028f57600080fd5b50356001600160a01b031661094f565b005b6102a9610aa6565b6040805160208082528351818301528351919283929083019185019080838360005b838110156102e35781810151838201526020016102cb565b50505050905090810190601f1680156103105780820380516001836020036101000a031916815260200191505b509250505060405180910390f35b610326610b34565b604080516001600160a01b039092168252519081900360200190f35b61036e6004803603604081101561035857600080fd5b506001600160a01b038135169060200135610b43565b604080519115158252519081900360200190f35b61038a610b59565b60408051918252519081900360200190f35b61029f600480360360608110156103b257600080fd5b506001600160a01b03813581169160208101359091169060400135610b60565b61036e600480360360608110156103e857600080fd5b506001600160a01b03813581169160208101359091169060400135610c7c565b61036e6004803603602081101561041e57600080fd5b50356001600160a01b0316610d9a565b61029f6004803603602081101561044457600080fd5b50356001600160a01b0316610daf565b61029f6004803603602081101561046a57600080fd5b50356001600160a01b0316610ef0565b61029f6004803603602081101561049057600080fd5b50356001600160a01b0316610fe5565b6104a8611138565b6040805160ff9092168252519081900360200190f35b610326611141565b61036e600480360360408110156104dc57600080fd5b506001600160a01b038135169060200135611150565b61029f611191565b61029f6004803603604081101561051057600080fd5b506001600160a01b0381351690602001356112a9565b61029f6004803603602081101561053c57600080fd5b503561144a565b6103266114d2565b61029f6004803603602081101561056157600080fd5b50356001600160a01b03166114e1565b61036e611626565b61038a611636565b61029f6004803603602081101561059757600080fd5b50356001600160a01b031661163c565b61038a600480360360208110156105bd57600080fd5b50356001600160a01b0316611807565b61029f611822565b61032661192e565b61029f600480360360208110156105f357600080fd5b50356001600160a01b031661193d565b61029f6004803603602081101561061957600080fd5b50356001600160a01b0316611a44565b6102a9611b0a565b61029f6004803603602081101561064757600080fd5b50356001600160a01b0316611b63565b610326611ce7565b61036e6004803603604081101561067557600080fd5b506001600160a01b038135169060200135611cf6565b61029f600480360360208110156106a157600080fd5b50356001600160a01b0316611d32565b610326611e89565b61036e600480360360408110156106cf57600080fd5b506001600160a01b038135169060200135611e98565b61029f600480360360208110156106fb57600080fd5b50356001600160a01b0316611fac565b61029f600480360361014081101561072257600080fd5b81019060208101813564010000000081111561073d57600080fd5b82018360208201111561074f57600080fd5b8035906020019184600183028401116401000000008311171561077157600080fd5b91908080601f01602080910402602001604051908101604052809392919081815260200183838082843760009201919091525092959493602081019350359150506401000000008111156107c457600080fd5b8201836020820111156107d657600080fd5b803590602001918460018302840111640100000000831117156107f857600080fd5b91908080601f0160208091040260200160405190810160405280939291908181526020018383808284376000920191909152509295505060ff8335169350506001600160a01b0360208301358116926040810135821692506060810135821691608082013581169160a081013582169160c082013581169160e00135166120f1565b61029f6004803603602081101561089057600080fd5b50356001600160a01b03166124d7565b61029f600480360360208110156108b657600080fd5b50356001600160a01b0316612592565b61029f600480360360208110156108dc57600080fd5b50356001600160a01b031661276c565b6103266128b1565b61038a6004803603604081101561090a57600080fd5b506001600160a01b03813581169160200135166128c5565b6103266128f0565b6103266128ff565b61029f6004803603602081101561094857600080fd5b503561290e565b603e546001600160a01b031633146109b15760408051600160e51b62461bcd02815260206004820152601b60248201527f7468652073656e646572206973206e6f7420746865206f776e65720000000000604482015290519081900360640190fd5b603854600160a01b900460ff1615610a015760408051600160e51b62461bcd0281526020600482015260196024820152600080516020613348833981519152604482015290519081900360640190fd5b806001600160a01b038116610a4e5760408051600160e51b62461bcd02815260206004820181905260248201526000805160206132de833981519152604482015290519081900360640190fd5b603d80546001600160a01b038481166001600160a01b03198316179283905560405191811692339291169083907f4a85a5117c27071f301f0a758ea45cef77712d3d8358f0883b21c46ee1693d6790600090a4505050565b603f805460408051602060026001851615610100026000190190941693909304601f81018490048402820184019092528181529291830182828015610b2c5780601f10610b0157610100808354040283529160200191610b2c565b820191906000526020600020905b815481529060010190602001808311610b0f57829003601f168201915b505050505081565b603c546001600160a01b031681565b6000610b50338484612a59565b50600192915050565b6035545b90565b603854600160a01b900460ff1615610bb05760408051600160e51b62461bcd0281526020600482015260196024820152600080516020613348833981519152604482015290519081900360640190fd5b6042546001600160a01b03163314610c125760408051600160e51b62461bcd02815260206004820152601d60248201527f7468652073656e646572206973206e6f74207468652072657363756572000000604482015290519081900360640190fd5b610c2c6001600160a01b038416838363ffffffff612b4b16565b816001600160a01b0316836001600160a01b03167fe01920728668d89f092ef9cb92036bad90964bb622eec508d2c3ffe1d582efb2836040518082815260200191505060405180910390a3505050565b603854600090600160a01b900460ff1615610ccf5760408051600160e51b62461bcd0281526020600482015260196024820152600080516020613348833981519152604482015290519081900360640190fd5b6001600160a01b0384166000908152603a6020526040902054849060ff1615610d425760408051600160e51b62461bcd02815260206004820152601a60248201527f74686973206163636f756e742069732070726f68696269746564000000000000604482015290519081900360640190fd5b8280600010610d8557604051600160e51b62461bcd0281526004018080602001828103825260238152602001806133b76023913960400191505060405180910390fd5b610d90868686612ba5565b9695505050505050565b603a6020526000908152604090205460ff1681565b603d546001600160a01b03163314610dfb57604051600160e51b62461bcd0281526004018080602001828103825260218152602001806133686021913960400191505060405180910390fd5b603854600160a01b900460ff1615610e4b5760408051600160e51b62461bcd0281526020600482015260196024820152600080516020613348833981519152604482015290519081900360640190fd5b806001600160a01b038116610e985760408051600160e51b62461bcd02815260206004820181905260248201526000805160206132de833981519152604482015290519081900360640190fd5b603c80546001600160a01b038481166001600160a01b03198316179283905560405191811692339291169083907f6970e71b2bda096f4eb3290c554af7a888cca0ef8b95da09c55b23c6bb30e38190600090a4505050565b603b546001600160a01b03163314610f405760408051600160e51b62461bcd02815260206004820152601b602482015260008051602061329c833981519152604482015290519081900360640190fd5b806001600160a01b038116610f8d5760408051600160e51b62461bcd02815260206004820181905260248201526000805160206132de833981519152604482015290519081900360640190fd5b603880546001600160a01b038481166001600160a01b03198316179283905560405191811692339291169083907f8b1ee37fa817a066fe12c7c9bf109c0c9f8f03ef0a5cfe0c03d5196e8c2e465790600090a4505050565b603b546001600160a01b031633146110355760408051600160e51b62461bcd02815260206004820152601b602482015260008051602061329c833981519152604482015290519081900360640190fd5b603854600160a01b900460ff16156110855760408051600160e51b62461bcd0281526020600482015260196024820152600080516020613348833981519152604482015290519081900360640190fd5b806001600160a01b0381166110d25760408051600160e51b62461bcd02815260206004820181905260248201526000805160206132de833981519152604482015290519081900360640190fd5b604180546001600160a01b03848116610100908102610100600160a81b0319841617938490556040519281900482169333939190049091169083907fd8d09cf07cabd1c0519931ab387ce1b6e580584a26fb2787b8ed7f446c34603f90600090a4505050565b60415460ff1681565b6042546001600160a01b031681565b3360008181526034602090815260408083206001600160a01b03871684529091528120549091610b5091859061118c908663ffffffff612bf716565b612a59565b6038546001600160a01b031633146111f35760408051600160e51b62461bcd02815260206004820152601c60248201527f7468652073656e646572206973206e6f74207468652070617573657200000000604482015290519081900360640190fd5b603854600160a01b900460ff166112545760408051600160e51b62461bcd02815260206004820152601d60248201527f74686973206973206e6f7420612070617573656420636f6e7472616374000000604482015290519081900360640190fd5b60388054600160a01b60ff0219169081905560408051600160a01b90920460ff16151582525133917f5a9dfee0981174e5203ccf9368a8cabb254f9dea6ca43f96b4bbd10c69415d8a919081900360200190a2565b603c546001600160a01b0316331461130b5760408051600160e51b62461bcd02815260206004820152601c60248201527f7468652073656e646572206973206e6f7420746865206d696e74657200000000604482015290519081900360640190fd5b603854600160a01b900460ff161561135b5760408051600160e51b62461bcd0281526020600482015260196024820152600080516020613348833981519152604482015290519081900360640190fd5b61137381611367610b59565b9063ffffffff612bf716565b6036548111156113b757604051600160e51b62461bcd0281526004018080602001828103825260218152602001806134976021913960400191505060405180910390fd5b81806000106113fa57604051600160e51b62461bcd0281526004018080602001828103825260238152602001806133b76023913960400191505060405180910390fd5b6114048484612c5b565b60408051848152905133916001600160a01b038716917fbcad3d7d3dfccb90d49c6063bf70f828901fefc88937d90af74e58e6e55bc39d9181900360200190a350505050565b808060001061148d57604051600160e51b62461bcd0281526004018080602001828103825260238152602001806133b76023913960400191505060405180910390fd5b6114973383612d50565b604080518381529051339182917fdbdf9b8e4b75e75b162d151ec8fc7f0561cabab5fcccfa2600be62223e4300c49181900360200190a35050565b6037546001600160a01b031681565b603b546001600160a01b031633146115315760408051600160e51b62461bcd02815260206004820152601b602482015260008051602061329c833981519152604482015290519081900360640190fd5b603854600160a01b900460ff16156115815760408051600160e51b62461bcd0281526020600482015260196024820152600080516020613348833981519152604482015290519081900360640190fd5b806001600160a01b0381166115ce5760408051600160e51b62461bcd02815260206004820181905260248201526000805160206132de833981519152604482015290519081900360640190fd5b604280546001600160a01b038481166001600160a01b03198316179283905560405191811692339291169083907f4e26e78832abd61f25bef51e06a1c7575a525edb4d215e56d6c4fbbe363cc03390600090a4505050565b603854600160a01b900460ff1681565b60365481565b6039546001600160a01b0316331461169e5760408051600160e51b62461bcd02815260206004820181905260248201527f7468652073656e646572206973206e6f74207468652070726f68696269746572604482015290519081900360640190fd5b603854600160a01b900460ff16156116ee5760408051600160e51b62461bcd0281526020600482015260196024820152600080516020613348833981519152604482015290519081900360640190fd5b806001600160a01b03811661173b5760408051600160e51b62461bcd02815260206004820181905260248201526000805160206132de833981519152604482015290519081900360640190fd5b6001600160a01b0382166000908152603a6020526040902054829060ff166117ad5760408051600160e51b62461bcd02815260206004820152601e60248201527f74686973206163636f756e74206973206e6f742070726f686962697465640000604482015290519081900360640190fd5b6001600160a01b0383166000818152603a60209081526040808320805460ff191690558051928352513393927fab0ab2fa6ff81b10c5afab4726a665d4379f2d0acaaafbe4c4d737ade05a8e4692908290030190a3505050565b6001600160a01b031660009081526033602052604090205490565b6038546001600160a01b031633146118845760408051600160e51b62461bcd02815260206004820152601c60248201527f7468652073656e646572206973206e6f74207468652070617573657200000000604482015290519081900360640190fd5b603854600160a01b900460ff16156118d45760408051600160e51b62461bcd0281526020600482015260196024820152600080516020613348833981519152604482015290519081900360640190fd5b60388054600160a01b60ff021916600160a01b90811791829055604080519190920460ff1615158152905133917f5a9dfee0981174e5203ccf9368a8cabb254f9dea6ca43f96b4bbd10c69415d8a919081900360200190a2565b603e546001600160a01b031681565b603e546001600160a01b0316331461199f5760408051600160e51b62461bcd02815260206004820152601b60248201527f7468652073656e646572206973206e6f7420746865206f776e65720000000000604482015290519081900360640190fd5b806001600160a01b0381166119ec5760408051600160e51b62461bcd02815260206004820181905260248201526000805160206132de833981519152604482015290519081900360640190fd5b603b80546001600160a01b038481166001600160a01b03198316179283905560405191811692339291169083907f4eb572e99196bed0270fbd5b17a948e19c3f50a97838cb0d2a75a823ff8e6c5090600090a4505050565b806001600160a01b038116611a915760408051600160e51b62461bcd02815260206004820181905260248201526000805160206132de833981519152604482015290519081900360640190fd5b60415461010090046001600160a01b031615611ae157604051600160e51b62461bcd0281526004018080602001828103825260248152602001806132fe6024913960400191505060405180910390fd5b50604180546001600160a01b0390921661010002610100600160a81b0319909216919091179055565b604080548151602060026001841615610100026000190190931692909204601f81018390048302820183018452808252909291830182828015610b2c5780601f10610b0157610100808354040283529160200191610b2c565b603854600160a01b900460ff1615611bb35760408051600160e51b62461bcd0281526020600482015260196024820152600080516020613348833981519152604482015290519081900360640190fd5b60415461010090046001600160a01b03163314611c1a5760408051600160e51b62461bcd02815260206004820152601b60248201527f7468652073656e646572206973206e6f74207468652077697065720000000000604482015290519081900360640190fd5b6001600160a01b0381166000908152603a6020526040902054819060ff16611c8c5760408051600160e51b62461bcd02815260206004820152601e60248201527f74686973206163636f756e74206973206e6f742070726f686962697465640000604482015290519081900360640190fd5b6000611c9783611807565b9050611ca38382612d50565b6040805182815290516001600160a01b038516917f2d2c7da251295f4d722a8ddaf337627952c957ce21b2757c852e47fe81b3a2af919081900360200190a2505050565b6038546001600160a01b031681565b3360008181526034602090815260408083206001600160a01b03871684529091528120549091610b5091859061118c908663ffffffff612e2e16565b603e546001600160a01b03163314611d945760408051600160e51b62461bcd02815260206004820152601b60248201527f7468652073656e646572206973206e6f7420746865206f776e65720000000000604482015290519081900360640190fd5b603854600160a01b900460ff1615611de45760408051600160e51b62461bcd0281526020600482015260196024820152600080516020613348833981519152604482015290519081900360640190fd5b806001600160a01b038116611e315760408051600160e51b62461bcd02815260206004820181905260248201526000805160206132de833981519152604482015290519081900360640190fd5b603e80546001600160a01b038481166001600160a01b03198316179283905560405191811692339291169083907f381c0d11398486654573703c51ee8210ce9461764d133f9f0e53b6a53970533190600090a4505050565b603d546001600160a01b031681565b603854600090600160a01b900460ff1615611eeb5760408051600160e51b62461bcd0281526020600482015260196024820152600080516020613348833981519152604482015290519081900360640190fd5b336000818152603a602052604090205460ff1615611f535760408051600160e51b62461bcd02815260206004820152601a60248201527f74686973206163636f756e742069732070726f68696269746564000000000000604482015290519081900360640190fd5b8280600010611f9657604051600160e51b62461bcd0281526004018080602001828103825260238152602001806133b76023913960400191505060405180910390fd5b611fa1338686612e8e565b506001949350505050565b603b546001600160a01b03163314611ffc5760408051600160e51b62461bcd02815260206004820152601b602482015260008051602061329c833981519152604482015290519081900360640190fd5b603854600160a01b900460ff161561204c5760408051600160e51b62461bcd0281526020600482015260196024820152600080516020613348833981519152604482015290519081900360640190fd5b806001600160a01b0381166120995760408051600160e51b62461bcd02815260206004820181905260248201526000805160206132de833981519152604482015290519081900360640190fd5b603780546001600160a01b038481166001600160a01b03198316179283905560405191811692339291169083907fc4d5c17597bd0c5594a7545f36de213c6a58e2f235b165887331fe368618197090600090a4505050565b600054610100900460ff168061210a575061210a612fd8565b80612118575060005460ff16155b61215657604051600160e51b62461bcd02815260040180806020018281038252602e815260200180613389602e913960400191505060405180910390fd5b600054610100900460ff16158015612181576000805460ff1961ff0019909116610100171660011790555b6001600160a01b0388166121df5760408051600160e51b62461bcd02815260206004820152601a60248201527f5f6f776e657220697320746865207a65726f2061646472657373000000000000604482015290519081900360640190fd5b6001600160a01b03871661223d5760408051600160e51b62461bcd02815260206004820152601a60248201527f5f61646d696e20697320746865207a65726f2061646472657373000000000000604482015290519081900360640190fd5b6001600160a01b03861661229b5760408051600160e51b62461bcd02815260206004820152601b60248201527f5f63617070657220697320746865207a65726f20616464726573730000000000604482015290519081900360640190fd5b6001600160a01b0385166122f95760408051600160e51b62461bcd02815260206004820152601f60248201527f5f70726f6869626974657220697320746865207a65726f206164647265737300604482015290519081900360640190fd5b6001600160a01b0384166123575760408051600160e51b62461bcd02815260206004820152601b60248201527f5f70617573657220697320746865207a65726f20616464726573730000000000604482015290519081900360640190fd5b6001600160a01b0383166123b55760408051600160e51b62461bcd02815260206004820181905260248201527f5f6d696e74657241646d696e20697320746865207a65726f2061646472657373604482015290519081900360640190fd5b6001600160a01b0382166124135760408051600160e51b62461bcd02815260206004820152601b60248201527f5f6d696e74657220697320746865207a65726f20616464726573730000000000604482015290519081900360640190fd5b8a5161242690603f9060208e01906131e0565b50895161243a9060409060208d01906131e0565b506041805460ff191660ff8b16179055603e80546001600160a01b03199081166001600160a01b038b811691909117909255603b805482168a8416179055603780548216898416179055603980548216888416179055603880548216878416179055603d80548216868416179055603c805490911691841691909117905580156124ca576000805461ff00191690555b5050505050505050505050565b806001600160a01b0381166125245760408051600160e51b62461bcd02815260206004820181905260248201526000805160206132de833981519152604482015290519081900360640190fd5b6042546001600160a01b03161561256f57604051600160e51b62461bcd0281526004018080602001828103825260268152602001806133226026913960400191505060405180910390fd5b50604280546001600160a01b0319166001600160a01b0392909216919091179055565b6039546001600160a01b031633146125f45760408051600160e51b62461bcd02815260206004820181905260248201527f7468652073656e646572206973206e6f74207468652070726f68696269746572604482015290519081900360640190fd5b603854600160a01b900460ff16156126445760408051600160e51b62461bcd0281526020600482015260196024820152600080516020613348833981519152604482015290519081900360640190fd5b806001600160a01b0381166126915760408051600160e51b62461bcd02815260206004820181905260248201526000805160206132de833981519152604482015290519081900360640190fd5b6001600160a01b0382166000908152603a6020526040902054829060ff16156127045760408051600160e51b62461bcd02815260206004820152601a60248201527f74686973206163636f756e742069732070726f68696269746564000000000000604482015290519081900360640190fd5b6001600160a01b0383166000818152603a6020908152604091829020805460ff191660011790819055825160ff919091161515815291513393927fab0ab2fa6ff81b10c5afab4726a665d4379f2d0acaaafbe4c4d737ade05a8e4692908290030190a3505050565b603b546001600160a01b031633146127bc5760408051600160e51b62461bcd02815260206004820152601b602482015260008051602061329c833981519152604482015290519081900360640190fd5b603854600160a01b900460ff161561280c5760408051600160e51b62461bcd0281526020600482015260196024820152600080516020613348833981519152604482015290519081900360640190fd5b806001600160a01b0381166128595760408051600160e51b62461bcd02815260206004820181905260248201526000805160206132de833981519152604482015290519081900360640190fd5b603980546001600160a01b038481166001600160a01b03198316179283905560405191811692339291169083907f85ae865187b1d7c0069f5fab638cbfcb8f3f9d23bc090e1084abc0dc42def0d290600090a4505050565b60415461010090046001600160a01b031681565b6001600160a01b03918216600090815260346020908152604080832093909416825291909152205490565b6039546001600160a01b031681565b603b546001600160a01b031681565b6037546001600160a01b031633146129705760408051600160e51b62461bcd02815260206004820152601c60248201527f7468652073656e646572206973206e6f74207468652063617070657200000000604482015290519081900360640190fd5b603854600160a01b900460ff16156129c05760408051600160e51b62461bcd0281526020600482015260196024820152600080516020613348833981519152604482015290519081900360640190fd5b8080600010612a0357604051600160e51b62461bcd0281526004018080602001828103825260238152602001806133b76023913960400191505060405180910390fd5b81612a0c610b59565b1115612a4c57604051600160e51b62461bcd0281526004018080602001828103825260298152602001806134446029913960400191505060405180910390fd5b612a5582612fde565b5050565b6001600160a01b038316612aa157604051600160e51b62461bcd0281526004018080602001828103825260248152602001806134206024913960400191505060405180910390fd5b6001600160a01b038216612ae957604051600160e51b62461bcd0281526004018080602001828103825260228152602001806132bc6022913960400191505060405180910390fd5b6001600160a01b03808416600081815260346020908152604080832094871680845294825291829020859055815185815291517f8c5be1e5ebec7d5bd14f71427d1e84f3dd0314c0f7b2291e5b200ac8c7c3b9259281900390910190a3505050565b604080516001600160a01b038416602482015260448082018490528251808303909101815260649091019091526020810180516001600160e01b0316600160e01b63a9059cbb02179052612ba0908490613013565b505050565b6000612bb2848484612e8e565b6001600160a01b038416600090815260346020908152604080832033808552925290912054612bed91869161118c908663ffffffff612e2e16565b5060019392505050565b600082820183811015612c545760408051600160e51b62461bcd02815260206004820152601b60248201527f536166654d6174683a206164646974696f6e206f766572666c6f770000000000604482015290519081900360640190fd5b9392505050565b6001600160a01b038216612cb95760408051600160e51b62461bcd02815260206004820152601f60248201527f45524332303a206d696e7420746f20746865207a65726f206164647265737300604482015290519081900360640190fd5b603554612ccc908263ffffffff612bf716565b6035556001600160a01b038216600090815260336020526040902054612cf8908263ffffffff612bf716565b6001600160a01b03831660008181526033602090815260408083209490945583518581529351929391927fddf252ad1be2c89b69c2b068fc378daa952ba7f163c4a11628f55a4df523b3ef9281900390910190a35050565b6001600160a01b038216612d9857604051600160e51b62461bcd0281526004018080602001828103825260218152602001806133da6021913960400191505060405180910390fd5b603554612dab908263ffffffff612e2e16565b6035556001600160a01b038216600090815260336020526040902054612dd7908263ffffffff612e2e16565b6001600160a01b0383166000818152603360209081526040808320949094558351858152935191937fddf252ad1be2c89b69c2b068fc378daa952ba7f163c4a11628f55a4df523b3ef929081900390910190a35050565b600082821115612e885760408051600160e51b62461bcd02815260206004820152601e60248201527f536166654d6174683a207375627472616374696f6e206f766572666c6f770000604482015290519081900360640190fd5b50900390565b6001600160a01b038316612ed657604051600160e51b62461bcd0281526004018080602001828103825260258152602001806133fb6025913960400191505060405180910390fd5b6001600160a01b038216612f1e57604051600160e51b62461bcd0281526004018080602001828103825260238152602001806132796023913960400191505060405180910390fd5b6001600160a01b038316600090815260336020526040902054612f47908263ffffffff612e2e16565b6001600160a01b038085166000908152603360205260408082209390935590841681522054612f7c908263ffffffff612bf716565b6001600160a01b0380841660008181526033602090815260409182902094909455805185815290519193928716927fddf252ad1be2c89b69c2b068fc378daa952ba7f163c4a11628f55a4df523b3ef92918290030190a3505050565b303b1590565b6036819055604051339082907f3bb5a3ed42af6c70969e54bbe40e4bba09c07f42c120cbec4ac0ee7eb0057fc990600090a350565b613025826001600160a01b03166131da565b6130795760408051600160e51b62461bcd02815260206004820152601f60248201527f5361666545524332303a2063616c6c20746f206e6f6e2d636f6e747261637400604482015290519081900360640190fd5b60006060836001600160a01b0316836040518082805190602001908083835b602083106130b75780518252601f199092019160209182019101613098565b6001836020036101000a0380198251168184511680821785525050505050509050019150506000604051808303816000865af19150503d8060008114613119576040519150601f19603f3d011682016040523d82523d6000602084013e61311e565b606091505b5091509150816131785760408051600160e51b62461bcd02815260206004820181905260248201527f5361666545524332303a206c6f772d6c6576656c2063616c6c206661696c6564604482015290519081900360640190fd5b8051156131d45780806020019051602081101561319457600080fd5b50516131d457604051600160e51b62461bcd02815260040180806020018281038252602a81526020018061346d602a913960400191505060405180910390fd5b50505050565b3b151590565b828054600181600116156101000203166002900490600052602060002090601f016020900481019282601f1061322157805160ff191683800117855561324e565b8280016001018555821561324e579182015b8281111561324e578251825591602001919060010190613233565b5061325a92915061325e565b5090565b610b5d91905b8082111561325a576000815560010161326456fe45524332303a207472616e7366657220746f20746865207a65726f20616464726573737468652073656e646572206973206e6f74207468652061646d696e000000000045524332303a20617070726f766520746f20746865207a65726f206164647265737374686973206163636f756e7420697320746865207a65726f20616464726573737468652077697065722063616e206f6e6c7920626520696e69746961746564206f6e636574686520726573637565722063616e206f6e6c7920626520696e69746961746564206f6e63657468697320697320612070617573656420636f6e7472616374000000000000007468652073656e646572206973206e6f7420746865206d696e74657241646d696e436f6e747261637420696e7374616e63652068617320616c7265616479206265656e20696e697469616c697a65647468697320616d6f756e74206973206e6f742061206e61747572616c206e756d62657245524332303a206275726e2066726f6d20746865207a65726f206164647265737345524332303a207472616e736665722066726f6d20746865207a65726f206164647265737345524332303a20617070726f76652066726f6d20746865207a65726f20616464726573737468697320616d6f756e74206973206c657373207468616e2074686520746f74616c79537570706c795361666545524332303a204552433230206f7065726174696f6e20646964206e6f7420737563636565647468697320616d6f756e74206973206d6f7265207468616e206361706163697479a165627a7a723058206006c056d6dfd19edd4c23cefc22a693453972b9bc28627299ca8416fa96eb4a0029",
  "source": "pragma solidity 0.5.8;\n\nimport \"./Token_v2.sol\";\nimport \"./Roles/Rescuer.sol\";\nimport { IERC20 } from \"openzeppelin-solidity/contracts/token/ERC20/IERC20.sol\";\nimport { SafeERC20 } from \"openzeppelin-solidity/contracts/token/ERC20/SafeERC20.sol\";\n\ncontract Token_v3 is Token_v2, Rescuer {\n    using SafeERC20 for IERC20;\n    event Rescue(IERC20 indexed tokenAddr, address indexed toAddr, uint256 amount);\n    event RescuerChanged(address indexed oldRescuer, address indexed newRescuer, address indexed sender);\n\n    // only admin can change rescuer\n    function changeRescuer(address _account) public onlyAdmin whenNotPaused isNotZeroAddress(_account) {\n        address old = rescuer;\n        rescuer = _account;\n        emit RescuerChanged(old, rescuer, msg.sender);\n    }\n\n    // rescue locked ERC20 Tokens\n    function rescue(IERC20 _tokenContract, address _to, uint256 _amount) public whenNotPaused onlyRescuer {\n        _tokenContract.safeTransfer(_to, _amount);\n        emit Rescue(_tokenContract, _to, _amount);\n    }\n}",
  "sourcePath": "/Users/usr0102794/gyen2022/contracts/contracts/Token_v3.sol",
  "compiler": {
    "name": "solc",
    "version": "0.5.8+commit.23d335f2.Emscripten.clang"
  },
  "schemaVersion": "3.0.16",
  "updatedAt": "2022-03-01T04:03:44.937Z",
  "devdoc": {
    "methods": {
      "allowance(address,address)": {
        "details": "See `IERC20.allowance`."
      },
      "approve(address,uint256)": {
        "details": "See `IERC20.approve`.     * Requirements:     * - `spender` cannot be the zero address."
      },
      "balanceOf(address)": {
        "details": "See `IERC20.balanceOf`."
      },
      "changeAdmin(address)": {
        "details": "\"whenNotPaused\" modifier should not be used here"
      },
      "changePauser(address)": {
        "details": "\"whenNotPaused\" modifier should not be used here"
      },
      "decreaseAllowance(address,uint256)": {
        "details": "Atomically decreases the allowance granted to `spender` by the caller.     * This is an alternative to `approve` that can be used as a mitigation for problems described in `IERC20.approve`.     * Emits an `Approval` event indicating the updated allowance.     * Requirements:     * - `spender` cannot be the zero address. - `spender` must have allowance for the caller of at least `subtractedValue`."
      },
      "increaseAllowance(address,uint256)": {
        "details": "Atomically increases the allowance granted to `spender` by the caller.     * This is an alternative to `approve` that can be used as a mitigation for problems described in `IERC20.approve`.     * Emits an `Approval` event indicating the updated allowance.     * Requirements:     * - `spender` cannot be the zero address."
      },
      "totalSupply()": {
        "details": "See `IERC20.totalSupply`."
      }
    }
  },
  "userdoc": {
    "methods": {
      "changeAdmin(address)": {
        "notice": "Change Admin"
      },
      "changePauser(address)": {
        "notice": "Change Pauser"
      }
    }
  }
}