{
  "contractName": "Token_v1",
  "abi": [
    {
      "constant": false,
      "inputs": [
        {
          "name": "_account",
          "type": "address"
        }
      ],
      "name": "changeMinterAdmin",
      "outputs": [],
      "payable": false,
      "stateMutability": "nonpayable",
      "type": "function"
    },
    {
      "constant": true,
      "inputs": [],
      "name": "name",
      "outputs": [
        {
          "name": "",
          "type": "string"
        }
      ],
      "payable": false,
      "stateMutability": "view",
      "type": "function"
    },
    {
      "constant": false,
      "inputs": [
        {
          "name": "spender",
          "type": "address"
        },
        {
          "name": "value",
          "type": "uint256"
        }
      ],
      "name": "approve",
      "outputs": [
        {
          "name": "",
          "type": "bool"
        }
      ],
      "payable": false,
      "stateMutability": "nonpayable",
      "type": "function"
    },
    {
      "constant": true,
      "inputs": [],
      "name": "totalSupply",
      "outputs": [
        {
          "name": "",
          "type": "uint256"
        }
      ],
      "payable": false,
      "stateMutability": "view",
      "type": "function"
    },
    {
      "constant": true,
      "inputs": [
        {
          "name": "",
          "type": "address"
        }
      ],
      "name": "isProhibited",
      "outputs": [
        {
          "name": "",
          "type": "bool"
        }
      ],
      "payable": false,
      "stateMutability": "view",
      "type": "function"
    },
    {
      "constant": false,
      "inputs": [
        {
          "name": "_account",
          "type": "address"
        }
      ],
      "name": "changeMinter",
      "outputs": [],
      "payable": false,
      "stateMutability": "nonpayable",
      "type": "function"
    },
    {
      "constant": false,
      "inputs": [
        {
          "name": "_account",
          "type": "address"
        }
      ],
      "name": "changePauser",
      "outputs": [],
      "payable": false,
      "stateMutability": "nonpayable",
      "type": "function"
    },
    {
      "constant": true,
      "inputs": [],
      "name": "decimals",
      "outputs": [
        {
          "name": "",
          "type": "uint8"
        }
      ],
      "payable": false,
      "stateMutability": "view",
      "type": "function"
    },
    {
      "constant": false,
      "inputs": [
        {
          "name": "spender",
          "type": "address"
        },
        {
          "name": "addedValue",
          "type": "uint256"
        }
      ],
      "name": "increaseAllowance",
      "outputs": [
        {
          "name": "",
          "type": "bool"
        }
      ],
      "payable": false,
      "stateMutability": "nonpayable",
      "type": "function"
    },
    {
      "constant": false,
      "inputs": [],
      "name": "unpause",
      "outputs": [],
      "payable": false,
      "stateMutability": "nonpayable",
      "type": "function"
    },
    {
      "constant": true,
      "inputs": [],
      "name": "capacity",
      "outputs": [
        {
          "name": "",
          "type": "uint256"
        }
      ],
      "payable": false,
      "stateMutability": "view",
      "type": "function"
    },
    {
      "constant": false,
      "inputs": [
        {
          "name": "_account",
          "type": "address"
        }
      ],
      "name": "unprohibit",
      "outputs": [],
      "payable": false,
      "stateMutability": "nonpayable",
      "type": "function"
    },
    {
      "constant": true,
      "inputs": [
        {
          "name": "account",
          "type": "address"
        }
      ],
      "name": "balanceOf",
      "outputs": [
        {
          "name": "",
          "type": "uint256"
        }
      ],
      "payable": false,
      "stateMutability": "view",
      "type": "function"
    },
    {
      "constant": false,
      "inputs": [],
      "name": "pause",
      "outputs": [],
      "payable": false,
      "stateMutability": "nonpayable",
      "type": "function"
    },
    {
      "constant": false,
      "inputs": [
        {
          "name": "_account",
          "type": "address"
        }
      ],
      "name": "changeAdmin",
      "outputs": [],
      "payable": false,
      "stateMutability": "nonpayable",
      "type": "function"
    },
    {
      "constant": true,
      "inputs": [],
      "name": "symbol",
      "outputs": [
        {
          "name": "",
          "type": "string"
        }
      ],
      "payable": false,
      "stateMutability": "view",
      "type": "function"
    },
    {
      "constant": false,
      "inputs": [
        {
          "name": "spender",
          "type": "address"
        },
        {
          "name": "subtractedValue",
          "type": "uint256"
        }
      ],
      "name": "decreaseAllowance",
      "outputs": [
        {
          "name": "",
          "type": "bool"
        }
      ],
      "payable": false,
      "stateMutability": "nonpayable",
      "type": "function"
    },
    {
      "constant": false,
      "inputs": [
        {
          "name": "_account",
          "type": "address"
        }
      ],
      "name": "changeOwner",
      "outputs": [],
      "payable": false,
      "stateMutability": "nonpayable",
      "type": "function"
    },
    {
      "constant": false,
      "inputs": [
        {
          "name": "_account",
          "type": "address"
        }
      ],
      "name": "changeCapper",
      "outputs": [],
      "payable": false,
      "stateMutability": "nonpayable",
      "type": "function"
    },
    {
      "constant": false,
      "inputs": [
        {
          "name": "_account",
          "type": "address"
        }
      ],
      "name": "prohibit",
      "outputs": [],
      "payable": false,
      "stateMutability": "nonpayable",
      "type": "function"
    },
    {
      "constant": false,
      "inputs": [
        {
          "name": "_account",
          "type": "address"
        }
      ],
      "name": "changeProhibiter",
      "outputs": [],
      "payable": false,
      "stateMutability": "nonpayable",
      "type": "function"
    },
    {
      "constant": true,
      "inputs": [
        {
          "name": "owner",
          "type": "address"
        },
        {
          "name": "spender",
          "type": "address"
        }
      ],
      "name": "allowance",
      "outputs": [
        {
          "name": "",
          "type": "uint256"
        }
      ],
      "payable": false,
      "stateMutability": "view",
      "type": "function"
    },
    {
      "anonymous": false,
      "inputs": [
        {
          "indexed": true,
          "name": "mintee",
          "type": "address"
        },
        {
          "indexed": false,
          "name": "amount",
          "type": "uint256"
        },
        {
          "indexed": true,
          "name": "sender",
          "type": "address"
        }
      ],
      "name": "Mint",
      "type": "event"
    },
    {
      "anonymous": false,
      "inputs": [
        {
          "indexed": true,
          "name": "burnee",
          "type": "address"
        },
        {
          "indexed": false,
          "name": "amount",
          "type": "uint256"
        },
        {
          "indexed": true,
          "name": "sender",
          "type": "address"
        }
      ],
      "name": "Burn",
      "type": "event"
    },
    {
      "anonymous": false,
      "inputs": [
        {
          "indexed": true,
          "name": "oldOwner",
          "type": "address"
        },
        {
          "indexed": true,
          "name": "newOwner",
          "type": "address"
        },
        {
          "indexed": true,
          "name": "sender",
          "type": "address"
        }
      ],
      "name": "OwnerChanged",
      "type": "event"
    },
    {
      "anonymous": false,
      "inputs": [
        {
          "indexed": true,
          "name": "oldAdmin",
          "type": "address"
        },
        {
          "indexed": true,
          "name": "newAdmin",
          "type": "address"
        },
        {
          "indexed": true,
          "name": "sender",
          "type": "address"
        }
      ],
      "name": "AdminChanged",
      "type": "event"
    },
    {
      "anonymous": false,
      "inputs": [
        {
          "indexed": true,
          "name": "oldMinterAdmin",
          "type": "address"
        },
        {
          "indexed": true,
          "name": "newMinterAdmin",
          "type": "address"
        },
        {
          "indexed": true,
          "name": "sender",
          "type": "address"
        }
      ],
      "name": "MinterAdminChanged",
      "type": "event"
    },
    {
      "anonymous": false,
      "inputs": [
        {
          "indexed": true,
          "name": "oldMinter",
          "type": "address"
        },
        {
          "indexed": true,
          "name": "newMinter",
          "type": "address"
        },
        {
          "indexed": true,
          "name": "sender",
          "type": "address"
        }
      ],
      "name": "MinterChanged",
      "type": "event"
    },
    {
      "anonymous": false,
      "inputs": [
        {
          "indexed": true,
          "name": "oldCapper",
          "type": "address"
        },
        {
          "indexed": true,
          "name": "newCapper",
          "type": "address"
        },
        {
          "indexed": true,
          "name": "sender",
          "type": "address"
        }
      ],
      "name": "CapperChanged",
      "type": "event"
    },
    {
      "anonymous": false,
      "inputs": [
        {
          "indexed": true,
          "name": "oldPauser",
          "type": "address"
        },
        {
          "indexed": true,
          "name": "newPauser",
          "type": "address"
        },
        {
          "indexed": true,
          "name": "sender",
          "type": "address"
        }
      ],
      "name": "PauserChanged",
      "type": "event"
    },
    {
      "anonymous": false,
      "inputs": [
        {
          "indexed": true,
          "name": "oldProhibiter",
          "type": "address"
        },
        {
          "indexed": true,
          "name": "newProhibiter",
          "type": "address"
        },
        {
          "indexed": true,
          "name": "sender",
          "type": "address"
        }
      ],
      "name": "ProhibiterChanged",
      "type": "event"
    },
    {
      "anonymous": false,
      "inputs": [
        {
          "indexed": false,
          "name": "prohibited",
          "type": "address"
        },
        {
          "indexed": false,
          "name": "status",
          "type": "bool"
        },
        {
          "indexed": false,
          "name": "sender",
          "type": "address"
        }
      ],
      "name": "Prohibition",
      "type": "event"
    },
    {
      "anonymous": false,
      "inputs": [
        {
          "indexed": true,
          "name": "newCapacity",
          "type": "uint256"
        },
        {
          "indexed": true,
          "name": "sender",
          "type": "address"
        }
      ],
      "name": "Cap",
      "type": "event"
    },
    {
      "anonymous": false,
      "inputs": [
        {
          "indexed": false,
          "name": "status",
          "type": "bool"
        },
        {
          "indexed": false,
          "name": "sender",
          "type": "address"
        }
      ],
      "name": "Pause",
      "type": "event"
    },
    {
      "anonymous": false,
      "inputs": [
        {
          "indexed": true,
          "name": "from",
          "type": "address"
        },
        {
          "indexed": true,
          "name": "to",
          "type": "address"
        },
        {
          "indexed": false,
          "name": "value",
          "type": "uint256"
        }
      ],
      "name": "Transfer",
      "type": "event"
    },
    {
      "anonymous": false,
      "inputs": [
        {
          "indexed": true,
          "name": "owner",
          "type": "address"
        },
        {
          "indexed": true,
          "name": "spender",
          "type": "address"
        },
        {
          "indexed": false,
          "name": "value",
          "type": "uint256"
        }
      ],
      "name": "Approval",
      "type": "event"
    },
    {
      "constant": false,
      "inputs": [
        {
          "name": "_name",
          "type": "string"
        },
        {
          "name": "_symbol",
          "type": "string"
        },
        {
          "name": "_decimals",
          "type": "uint8"
        },
        {
          "name": "_owner",
          "type": "address"
        },
        {
          "name": "_admin",
          "type": "address"
        },
        {
          "name": "_capper",
          "type": "address"
        },
        {
          "name": "_prohibiter",
          "type": "address"
        },
        {
          "name": "_pauser",
          "type": "address"
        },
        {
          "name": "_minterAdmin",
          "type": "address"
        },
        {
          "name": "_minter",
          "type": "address"
        }
      ],
      "name": "initialize",
      "outputs": [],
      "payable": false,
      "stateMutability": "nonpayable",
      "type": "function"
    },
    {
      "constant": false,
      "inputs": [
        {
          "name": "_amount",
          "type": "uint256"
        }
      ],
      "name": "cap",
      "outputs": [],
      "payable": false,
      "stateMutability": "nonpayable",
      "type": "function"
    },
    {
      "constant": false,
      "inputs": [
        {
          "name": "_account",
          "type": "address"
        },
        {
          "name": "_amount",
          "type": "uint256"
        }
      ],
      "name": "mint",
      "outputs": [],
      "payable": false,
      "stateMutability": "nonpayable",
      "type": "function"
    },
    {
      "constant": false,
      "inputs": [
        {
          "name": "_recipient",
          "type": "address"
        },
        {
          "name": "_amount",
          "type": "uint256"
        }
      ],
      "name": "transfer",
      "outputs": [
        {
          "name": "",
          "type": "bool"
        }
      ],
      "payable": false,
      "stateMutability": "nonpayable",
      "type": "function"
    },
    {
      "constant": false,
      "inputs": [
        {
          "name": "_sender",
          "type": "address"
        },
        {
          "name": "_recipient",
          "type": "address"
        },
        {
          "name": "_amount",
          "type": "uint256"
        }
      ],
      "name": "transferFrom",
      "outputs": [
        {
          "name": "",
          "type": "bool"
        }
      ],
      "payable": false,
      "stateMutability": "nonpayable",
      "type": "function"
    },
    {
      "constant": false,
      "inputs": [
        {
          "name": "_amount",
          "type": "uint256"
        }
      ],
      "name": "burn",
      "outputs": [],
      "payable": false,
      "stateMutability": "nonpayable",
      "type": "function"
    }
  ],
  "bytecode": "0x6080604052603680546001600160a81b03191690556000603755603880546001600160a01b03199081169091556039805482169055603b805482169055603c805482169055603d805482169055603e8054909116905534801561006157600080fd5b5061264d806100716000396000f3fe608060405234801561001057600080fd5b50600436106101c45760003560e01c8063664dc724116100f9578063a9059cbb11610097578063c4e1ccf211610071578063c4e1ccf2146106a8578063cffdd46c146106ce578063dd62ed3e146106f4578063ff2ad8e414610722576101c4565b8063a9059cbb146104e7578063b0e7176614610513578063b89da64214610539576101c4565b80638f283970116100d35780638f2839701461046757806395d89b411461048d578063a457c2d714610495578063a6f9dae1146104c1576101c4565b8063664dc7241461041357806370a08231146104395780638456cb591461045f576101c4565b80632cd271e7116101665780633f4ba83a116101405780633f4ba83a146103ba57806340c10f19146103c257806342966c68146103ee5780635cfc1a511461040b576101c4565b80632cd271e71461034a578063313ce56714610370578063395093511461038e576101c4565b806318160ddd116101a257806318160ddd146102ae57806320dbd938146102c857806323b872dd146102ee5780632c4d4d1814610324576101c4565b80630628922d146101c957806306fdde03146101f1578063095ea7b31461026e575b600080fd5b6101ef600480360360208110156101df57600080fd5b50356001600160a01b031661073f565b005b6101f9610896565b6040805160208082528351818301528351919283929083019185019080838360005b8381101561023357818101518382015260200161021b565b50505050905090810190601f1680156102605780820380516001836020036101000a031916815260200191505b509250505060405180910390f35b61029a6004803603604081101561028457600080fd5b506001600160a01b038135169060200135610924565b604080519115158252519081900360200190f35b6102b661093a565b60408051918252519081900360200190f35b61029a600480360360208110156102de57600080fd5b50356001600160a01b0316610941565b61029a6004803603606081101561030457600080fd5b506001600160a01b03813581169160208101359091169060400135610956565b6101ef6004803603602081101561033a57600080fd5b50356001600160a01b0316610a9a565b6101ef6004803603602081101561036057600080fd5b50356001600160a01b0316610bdb565b610378610ce2565b6040805160ff9092168252519081900360200190f35b61029a600480360360408110156103a457600080fd5b506001600160a01b038135169060200135610ceb565b6101ef610d27565b6101ef600480360360408110156103d857600080fd5b506001600160a01b038135169060200135610e43565b6101ef6004803603602081101561040457600080fd5b5035610fe4565b6102b661106c565b6101ef6004803603602081101561042957600080fd5b50356001600160a01b0316611072565b6102b66004803603602081101561044f57600080fd5b50356001600160a01b0316611247565b6101ef611262565b6101ef6004803603602081101561047d57600080fd5b50356001600160a01b0316611372565b6101f9611479565b61029a600480360360408110156104ab57600080fd5b506001600160a01b0381351690602001356114d2565b6101ef600480360360208110156104d757600080fd5b50356001600160a01b031661150e565b61029a600480360360408110156104fd57600080fd5b506001600160a01b038135169060200135611665565b6101ef6004803603602081101561052957600080fd5b50356001600160a01b0316611779565b6101ef600480360361014081101561055057600080fd5b81019060208101813564010000000081111561056b57600080fd5b82018360208201111561057d57600080fd5b8035906020019184600183028401116401000000008311171561059f57600080fd5b91908080601f01602080910402602001604051908101604052809392919081815260200183838082843760009201919091525092959493602081019350359150506401000000008111156105f257600080fd5b82018360208201111561060457600080fd5b8035906020019184600183028401116401000000008311171561062657600080fd5b91908080601f0160208091040260200160405190810160405280939291908181526020018383808284376000920191909152509295505060ff8335169350506001600160a01b0360208301358116926040810135821692506060810135821691608082013581169160a081013582169160c082013581169160e00135166118d0565b6101ef600480360360208110156106be57600080fd5b50356001600160a01b0316611a24565b6101ef600480360360208110156106e457600080fd5b50356001600160a01b0316611c02565b6102b66004803603604081101561070a57600080fd5b506001600160a01b0381358116916020013516611d59565b6101ef6004803603602081101561073857600080fd5b5035611d84565b603e546001600160a01b031633146107a15760408051600160e51b62461bcd02815260206004820152601b60248201527f7468652073656e646572206973206e6f7420746865206f776e65720000000000604482015290519081900360640190fd5b603654600160a01b900460ff16156107f15760408051600160e51b62461bcd02815260206004820152601960248201526000805160206124ff833981519152604482015290519081900360640190fd5b806001600160a01b03811661083e5760408051600160e51b62461bcd02815260206004820181905260248201526000805160206124bb833981519152604482015290519081900360640190fd5b603d80546001600160a01b038481166001600160a01b03198316179283905560405191811692339291169083907f4a85a5117c27071f301f0a758ea45cef77712d3d8358f0883b21c46ee1693d6790600090a4505050565b603f805460408051602060026001851615610100026000190190941693909304601f8101849004840282018401909252818152929183018282801561091c5780601f106108f15761010080835404028352916020019161091c565b820191906000526020600020905b8154815290600101906020018083116108ff57829003601f168201915b505050505081565b6000610931338484611ecf565b50600192915050565b6035545b90565b603a6020526000908152604090205460ff1681565b603654600090600160a01b900460ff16156109a95760408051600160e51b62461bcd02815260206004820152601960248201526000805160206124ff833981519152604482015290519081900360640190fd5b6001600160a01b0384166000908152603a6020526040902054849060ff1615610a1c5760408051600160e51b62461bcd02815260206004820152601c60248201527f74686973206163636f756e7420697320612070726f6869626974656400000000604482015290519081900360640190fd5b8280600010610a5f57604051600160e51b62461bcd0281526004018080602001828103825260248152602001806124db6024913960400191505060405180910390fd5b610a6a868686611fc1565b610a8e8633610a8987610a7d8b33611d59565b9063ffffffff61210b16565b611ecf565b50600195945050505050565b603d546001600160a01b03163314610ae657604051600160e51b62461bcd02815260040180806020018281038252602181526020018061251f6021913960400191505060405180910390fd5b603654600160a01b900460ff1615610b365760408051600160e51b62461bcd02815260206004820152601960248201526000805160206124ff833981519152604482015290519081900360640190fd5b806001600160a01b038116610b835760408051600160e51b62461bcd02815260206004820181905260248201526000805160206124bb833981519152604482015290519081900360640190fd5b603c80546001600160a01b038481166001600160a01b03198316179283905560405191811692339291169083907f6970e71b2bda096f4eb3290c554af7a888cca0ef8b95da09c55b23c6bb30e38190600090a4505050565b603b546001600160a01b03163314610c3d5760408051600160e51b62461bcd02815260206004820152601b60248201527f7468652073656e646572206973206e6f74207468652061646d696e0000000000604482015290519081900360640190fd5b806001600160a01b038116610c8a5760408051600160e51b62461bcd02815260206004820181905260248201526000805160206124bb833981519152604482015290519081900360640190fd5b603680546001600160a01b038481166001600160a01b03198316179283905560405191811692339291169083907f8b1ee37fa817a066fe12c7c9bf109c0c9f8f03ef0a5cfe0c03d5196e8c2e465790600090a4505050565b60415460ff1681565b3360008181526034602090815260408083206001600160a01b03871684529091528120549091610931918590610a89908663ffffffff61216b16565b6036546001600160a01b03163314610d895760408051600160e51b62461bcd02815260206004820152601c60248201527f7468652073656e646572206973206e6f74207468652070617573657200000000604482015290519081900360640190fd5b603654600160a01b900460ff16610dea5760408051600160e51b62461bcd02815260206004820152601d60248201527f74686973206973206e6f7420612070617573656420636f6e7472616374000000604482015290519081900360640190fd5b60368054600160a01b60ff0219169081905560408051600160a01b90920460ff161515825233602083015280517f5a9dfee0981174e5203ccf9368a8cabb254f9dea6ca43f96b4bbd10c69415d8a9281900390910190a1565b603c546001600160a01b03163314610ea55760408051600160e51b62461bcd02815260206004820152601c60248201527f7468652073656e646572206973206e6f7420746865206d696e74657200000000604482015290519081900360640190fd5b603654600160a01b900460ff1615610ef55760408051600160e51b62461bcd02815260206004820152601960248201526000805160206124ff833981519152604482015290519081900360640190fd5b610f0d81610f0161093a565b9063ffffffff61216b16565b603754811115610f5157604051600160e51b62461bcd0281526004018080602001828103825260218152602001806126016021913960400191505060405180910390fd5b8180600010610f9457604051600160e51b62461bcd0281526004018080602001828103825260248152602001806124db6024913960400191505060405180910390fd5b610f9e84846121cf565b60408051848152905133916001600160a01b038716917fbcad3d7d3dfccb90d49c6063bf70f828901fefc88937d90af74e58e6e55bc39d9181900360200190a350505050565b808060001061102757604051600160e51b62461bcd0281526004018080602001828103825260248152602001806124db6024913960400191505060405180910390fd5b61103133836122c4565b604080518381529051339182917fdbdf9b8e4b75e75b162d151ec8fc7f0561cabab5fcccfa2600be62223e4300c49181900360200190a35050565b60375481565b6039546001600160a01b031633146110d45760408051600160e51b62461bcd02815260206004820181905260248201527f7468652073656e646572206973206e6f74207468652070726f68696269746572604482015290519081900360640190fd5b603654600160a01b900460ff16156111245760408051600160e51b62461bcd02815260206004820152601960248201526000805160206124ff833981519152604482015290519081900360640190fd5b806001600160a01b0381166111715760408051600160e51b62461bcd02815260206004820181905260248201526000805160206124bb833981519152604482015290519081900360640190fd5b6001600160a01b0382166000908152603a6020526040902054829060ff166111e35760408051600160e51b62461bcd02815260206004820181905260248201527f74686973206163636f756e74206973206e6f7420612070726f68696269746564604482015290519081900360640190fd5b6001600160a01b0383166000818152603a60209081526040808320805460ff191690558051938452908301919091523382820152517fab0ab2fa6ff81b10c5afab4726a665d4379f2d0acaaafbe4c4d737ade05a8e469181900360600190a1505050565b6001600160a01b031660009081526033602052604090205490565b6036546001600160a01b031633146112c45760408051600160e51b62461bcd02815260206004820152601c60248201527f7468652073656e646572206973206e6f74207468652070617573657200000000604482015290519081900360640190fd5b603654600160a01b900460ff16156113145760408051600160e51b62461bcd02815260206004820152601960248201526000805160206124ff833981519152604482015290519081900360640190fd5b60368054600160a01b60ff021916600160a01b90811791829055604080519190920460ff161515815233602082015281517f5a9dfee0981174e5203ccf9368a8cabb254f9dea6ca43f96b4bbd10c69415d8a929181900390910190a1565b603e546001600160a01b031633146113d45760408051600160e51b62461bcd02815260206004820152601b60248201527f7468652073656e646572206973206e6f7420746865206f776e65720000000000604482015290519081900360640190fd5b806001600160a01b0381166114215760408051600160e51b62461bcd02815260206004820181905260248201526000805160206124bb833981519152604482015290519081900360640190fd5b603b80546001600160a01b038481166001600160a01b03198316179283905560405191811692339291169083907f4eb572e99196bed0270fbd5b17a948e19c3f50a97838cb0d2a75a823ff8e6c5090600090a4505050565b604080548151602060026001841615610100026000190190931692909204601f8101839004830282018301845280825290929183018282801561091c5780601f106108f15761010080835404028352916020019161091c565b3360008181526034602090815260408083206001600160a01b03871684529091528120549091610931918590610a89908663ffffffff61210b16565b603e546001600160a01b031633146115705760408051600160e51b62461bcd02815260206004820152601b60248201527f7468652073656e646572206973206e6f7420746865206f776e65720000000000604482015290519081900360640190fd5b603654600160a01b900460ff16156115c05760408051600160e51b62461bcd02815260206004820152601960248201526000805160206124ff833981519152604482015290519081900360640190fd5b806001600160a01b03811661160d5760408051600160e51b62461bcd02815260206004820181905260248201526000805160206124bb833981519152604482015290519081900360640190fd5b603e80546001600160a01b038481166001600160a01b03198316179283905560405191811692339291169083907f381c0d11398486654573703c51ee8210ce9461764d133f9f0e53b6a53970533190600090a4505050565b603654600090600160a01b900460ff16156116b85760408051600160e51b62461bcd02815260206004820152601960248201526000805160206124ff833981519152604482015290519081900360640190fd5b336000818152603a602052604090205460ff16156117205760408051600160e51b62461bcd02815260206004820152601c60248201527f74686973206163636f756e7420697320612070726f6869626974656400000000604482015290519081900360640190fd5b828060001061176357604051600160e51b62461bcd0281526004018080602001828103825260248152602001806124db6024913960400191505060405180910390fd5b61176e338686611fc1565b506001949350505050565b603b546001600160a01b031633146117db5760408051600160e51b62461bcd02815260206004820152601b60248201527f7468652073656e646572206973206e6f74207468652061646d696e0000000000604482015290519081900360640190fd5b603654600160a01b900460ff161561182b5760408051600160e51b62461bcd02815260206004820152601960248201526000805160206124ff833981519152604482015290519081900360640190fd5b806001600160a01b0381166118785760408051600160e51b62461bcd02815260206004820181905260248201526000805160206124bb833981519152604482015290519081900360640190fd5b603880546001600160a01b038481166001600160a01b03198316179283905560405191811692339291169083907fc4d5c17597bd0c5594a7545f36de213c6a58e2f235b165887331fe368618197090600090a4505050565b600054610100900460ff16806118e957506118e96123a2565b806118f7575060005460ff16155b61193557604051600160e51b62461bcd02815260040180806020018281038252602e815260200180612540602e913960400191505060405180910390fd5b600054610100900460ff16158015611960576000805460ff1961ff0019909116610100171660011790555b8a5161197390603f9060208e01906123dd565b5089516119879060409060208d01906123dd565b506041805460ff191660ff8b16179055603e80546001600160a01b03199081166001600160a01b038b811691909117909255603b805482168a8416179055603880548216898416179055603980548216888416179055603680548216878416179055603d80548216868416179055603c80549091169184169190911790558015611a17576000805461ff00191690555b5050505050505050505050565b6039546001600160a01b03163314611a865760408051600160e51b62461bcd02815260206004820181905260248201527f7468652073656e646572206973206e6f74207468652070726f68696269746572604482015290519081900360640190fd5b603654600160a01b900460ff1615611ad65760408051600160e51b62461bcd02815260206004820152601960248201526000805160206124ff833981519152604482015290519081900360640190fd5b806001600160a01b038116611b235760408051600160e51b62461bcd02815260206004820181905260248201526000805160206124bb833981519152604482015290519081900360640190fd5b6001600160a01b0382166000908152603a6020526040902054829060ff1615611b965760408051600160e51b62461bcd02815260206004820152601c60248201527f74686973206163636f756e7420697320612070726f6869626974656400000000604482015290519081900360640190fd5b6001600160a01b0383166000818152603a6020908152604091829020805460ff191660011790819055825193845260ff161515908301523382820152517fab0ab2fa6ff81b10c5afab4726a665d4379f2d0acaaafbe4c4d737ade05a8e469181900360600190a1505050565b603b546001600160a01b03163314611c645760408051600160e51b62461bcd02815260206004820152601b60248201527f7468652073656e646572206973206e6f74207468652061646d696e0000000000604482015290519081900360640190fd5b603654600160a01b900460ff1615611cb45760408051600160e51b62461bcd02815260206004820152601960248201526000805160206124ff833981519152604482015290519081900360640190fd5b806001600160a01b038116611d015760408051600160e51b62461bcd02815260206004820181905260248201526000805160206124bb833981519152604482015290519081900360640190fd5b603980546001600160a01b038481166001600160a01b03198316179283905560405191811692339291169083907f85ae865187b1d7c0069f5fab638cbfcb8f3f9d23bc090e1084abc0dc42def0d290600090a4505050565b6001600160a01b03918216600090815260346020908152604080832093909416825291909152205490565b6038546001600160a01b03163314611de65760408051600160e51b62461bcd02815260206004820152601c60248201527f7468652073656e646572206973206e6f74207468652063617070657200000000604482015290519081900360640190fd5b603654600160a01b900460ff1615611e365760408051600160e51b62461bcd02815260206004820152601960248201526000805160206124ff833981519152604482015290519081900360640190fd5b8080600010611e7957604051600160e51b62461bcd0281526004018080602001828103825260248152602001806124db6024913960400191505060405180910390fd5b81611e8261093a565b1115611ec257604051600160e51b62461bcd0281526004018080602001828103825260298152602001806125d86029913960400191505060405180910390fd5b611ecb826123a8565b5050565b6001600160a01b038316611f1757604051600160e51b62461bcd0281526004018080602001828103825260248152602001806125b46024913960400191505060405180910390fd5b6001600160a01b038216611f5f57604051600160e51b62461bcd0281526004018080602001828103825260228152602001806124996022913960400191505060405180910390fd5b6001600160a01b03808416600081815260346020908152604080832094871680845294825291829020859055815185815291517f8c5be1e5ebec7d5bd14f71427d1e84f3dd0314c0f7b2291e5b200ac8c7c3b9259281900390910190a3505050565b6001600160a01b03831661200957604051600160e51b62461bcd02815260040180806020018281038252602581526020018061258f6025913960400191505060405180910390fd5b6001600160a01b03821661205157604051600160e51b62461bcd0281526004018080602001828103825260238152602001806124766023913960400191505060405180910390fd5b6001600160a01b03831660009081526033602052604090205461207a908263ffffffff61210b16565b6001600160a01b0380851660009081526033602052604080822093909355908416815220546120af908263ffffffff61216b16565b6001600160a01b0380841660008181526033602090815260409182902094909455805185815290519193928716927fddf252ad1be2c89b69c2b068fc378daa952ba7f163c4a11628f55a4df523b3ef92918290030190a3505050565b6000828211156121655760408051600160e51b62461bcd02815260206004820152601e60248201527f536166654d6174683a207375627472616374696f6e206f766572666c6f770000604482015290519081900360640190fd5b50900390565b6000828201838110156121c85760408051600160e51b62461bcd02815260206004820152601b60248201527f536166654d6174683a206164646974696f6e206f766572666c6f770000000000604482015290519081900360640190fd5b9392505050565b6001600160a01b03821661222d5760408051600160e51b62461bcd02815260206004820152601f60248201527f45524332303a206d696e7420746f20746865207a65726f206164647265737300604482015290519081900360640190fd5b603554612240908263ffffffff61216b16565b6035556001600160a01b03821660009081526033602052604090205461226c908263ffffffff61216b16565b6001600160a01b03831660008181526033602090815260408083209490945583518581529351929391927fddf252ad1be2c89b69c2b068fc378daa952ba7f163c4a11628f55a4df523b3ef9281900390910190a35050565b6001600160a01b03821661230c57604051600160e51b62461bcd02815260040180806020018281038252602181526020018061256e6021913960400191505060405180910390fd5b60355461231f908263ffffffff61210b16565b6035556001600160a01b03821660009081526033602052604090205461234b908263ffffffff61210b16565b6001600160a01b0383166000818152603360209081526040808320949094558351858152935191937fddf252ad1be2c89b69c2b068fc378daa952ba7f163c4a11628f55a4df523b3ef929081900390910190a35050565b303b1590565b6037819055604051339082907f3bb5a3ed42af6c70969e54bbe40e4bba09c07f42c120cbec4ac0ee7eb0057fc990600090a350565b828054600181600116156101000203166002900490600052602060002090601f016020900481019282601f1061241e57805160ff191683800117855561244b565b8280016001018555821561244b579182015b8281111561244b578251825591602001919060010190612430565b5061245792915061245b565b5090565b61093e91905b80821115612457576000815560010161246156fe45524332303a207472616e7366657220746f20746865207a65726f206164647265737345524332303a20617070726f766520746f20746865207a65726f206164647265737374686973206163636f756e7420697320746865207a65726f20616464726573737468697320616d6f756e74206973206e6f7420616e206e61747572616c206e756d6265727468697320697320612070617573656420636f6e7472616374000000000000007468652073656e646572206973206e6f7420746865206d696e74657241646d696e436f6e747261637420696e7374616e63652068617320616c7265616479206265656e20696e697469616c697a656445524332303a206275726e2066726f6d20746865207a65726f206164647265737345524332303a207472616e736665722066726f6d20746865207a65726f206164647265737345524332303a20617070726f76652066726f6d20746865207a65726f20616464726573737468697320616d6f756e74206973206c657373207468616e2074686520746f74616c79537570706c797468697320616d6f756e74206973206d6f7265207468616e206361706163697479a165627a7a723058204bca0fb9329484e6ef33a871d54963f131f0289d419cd46d4eb9806af7e224b00029",
  "source": "pragma solidity ^0.5.8;\n\nimport \"@openzeppelin/upgrades/contracts/Initializable.sol\";\nimport \"openzeppelin-solidity/contracts/token/ERC20/ERC20.sol\";\nimport \"./Roles/Owner.sol\";\n\ncontract Token_v1 is Initializable, ERC20, Owner {\n    string public name;\n    string public symbol;\n    uint8 public decimals;\n\n    event Mint(address indexed mintee, uint256 amount, address indexed sender);\n    event Burn(address indexed burnee, uint256 amount, address indexed sender);\n\n    function initialize(\n        string memory _name,\n        string memory _symbol,\n        uint8 _decimals,\n        address _owner,\n        address _admin,\n        address _capper,\n        address _prohibiter,\n        address _pauser,\n        address _minterAdmin,\n        address _minter\n        ) public initializer {\n            name = _name;\n            symbol = _symbol;\n            decimals = _decimals;\n            owner = _owner;\n            admin = _admin;\n            capper = _capper;\n            prohibiter = _prohibiter;\n            pauser = _pauser;\n            minterAdmin = _minterAdmin;\n            minter = _minter;\n    }\n\n    function cap(uint256 _amount) public onlyCapper whenNotPaused isNaturalNumber(_amount) {\n        require(totalSupply() <= _amount, \"this amount is less than the totalySupply\");\n        _cap(_amount);\n    }\n\n    function mint(address _account, uint256 _amount) public onlyMinter whenNotPaused notMoreThanCapacity(totalSupply().add(_amount)) isNaturalNumber(_amount) {\n        _mint(_account, _amount);\n        emit Mint(_account, _amount, msg.sender);\n    }\n\n    function transfer(address _recipient, uint256 _amount) public whenNotPaused onlyNotProhibited(msg.sender) isNaturalNumber(_amount) returns (bool) {\n        _transfer(msg.sender, _recipient, _amount);\n        return true;\n    }\n\n    function transferFrom(address _sender, address _recipient, uint256 _amount) public whenNotPaused onlyNotProhibited(_sender) isNaturalNumber(_amount) returns (bool) {\n        _transfer(_sender, _recipient, _amount);\n        _approve(_sender, msg.sender, allowance(_sender, msg.sender).sub(_amount));\n        return true;\n    }\n\n    function burn(uint256 _amount) public isNaturalNumber(_amount) {\n        _burn(msg.sender, _amount);\n        emit Burn(msg.sender, _amount, msg.sender);\n    }\n}",
  "sourcePath": "/Users/usr0101757/Projects/GYEN/gyen-solidity/contracts/Token_v1.sol",
  "compiler": {
    "name": "solc",
    "version": "0.5.8+commit.23d335f2.Emscripten.clang"
  },
  "schemaVersion": "3.0.11",
  "updatedAt": "2019-10-04T06:18:09.093Z",
  "devdoc": {
    "methods": {
      "allowance(address,address)": {
        "details": "See `IERC20.allowance`."
      },
      "approve(address,uint256)": {
        "details": "See `IERC20.approve`.     * Requirements:     * - `spender` cannot be the zero address."
      },
      "balanceOf(address)": {
        "details": "See `IERC20.balanceOf`."
      },
      "decreaseAllowance(address,uint256)": {
        "details": "Atomically decreases the allowance granted to `spender` by the caller.     * This is an alternative to `approve` that can be used as a mitigation for problems described in `IERC20.approve`.     * Emits an `Approval` event indicating the updated allowance.     * Requirements:     * - `spender` cannot be the zero address. - `spender` must have allowance for the caller of at least `subtractedValue`."
      },
      "increaseAllowance(address,uint256)": {
        "details": "Atomically increases the allowance granted to `spender` by the caller.     * This is an alternative to `approve` that can be used as a mitigation for problems described in `IERC20.approve`.     * Emits an `Approval` event indicating the updated allowance.     * Requirements:     * - `spender` cannot be the zero address."
      },
      "totalSupply()": {
        "details": "See `IERC20.totalSupply`."
      }
    }
  },
  "userdoc": {
    "methods": {}
  }
}