{
  "contractName": "Token_v1",
  "abi": [
    {
      "constant": false,
      "inputs": [
        {
          "name": "_account",
          "type": "address"
        }
      ],
      "name": "changeMinterAdmin",
      "outputs": [],
      "payable": false,
      "stateMutability": "nonpayable",
      "type": "function"
    },
    {
      "constant": true,
      "inputs": [],
      "name": "name",
      "outputs": [
        {
          "name": "",
          "type": "string"
        }
      ],
      "payable": false,
      "stateMutability": "view",
      "type": "function"
    },
    {
      "constant": true,
      "inputs": [],
      "name": "minter",
      "outputs": [
        {
          "name": "",
          "type": "address"
        }
      ],
      "payable": false,
      "stateMutability": "view",
      "type": "function"
    },
    {
      "constant": false,
      "inputs": [
        {
          "name": "spender",
          "type": "address"
        },
        {
          "name": "value",
          "type": "uint256"
        }
      ],
      "name": "approve",
      "outputs": [
        {
          "name": "",
          "type": "bool"
        }
      ],
      "payable": false,
      "stateMutability": "nonpayable",
      "type": "function"
    },
    {
      "constant": true,
      "inputs": [],
      "name": "totalSupply",
      "outputs": [
        {
          "name": "",
          "type": "uint256"
        }
      ],
      "payable": false,
      "stateMutability": "view",
      "type": "function"
    },
    {
      "constant": true,
      "inputs": [
        {
          "name": "",
          "type": "address"
        }
      ],
      "name": "prohibiteds",
      "outputs": [
        {
          "name": "",
          "type": "bool"
        }
      ],
      "payable": false,
      "stateMutability": "view",
      "type": "function"
    },
    {
      "constant": false,
      "inputs": [
        {
          "name": "_account",
          "type": "address"
        }
      ],
      "name": "changeMinter",
      "outputs": [],
      "payable": false,
      "stateMutability": "nonpayable",
      "type": "function"
    },
    {
      "constant": false,
      "inputs": [
        {
          "name": "_account",
          "type": "address"
        }
      ],
      "name": "changePauser",
      "outputs": [],
      "payable": false,
      "stateMutability": "nonpayable",
      "type": "function"
    },
    {
      "constant": true,
      "inputs": [],
      "name": "decimals",
      "outputs": [
        {
          "name": "",
          "type": "uint8"
        }
      ],
      "payable": false,
      "stateMutability": "view",
      "type": "function"
    },
    {
      "constant": false,
      "inputs": [
        {
          "name": "spender",
          "type": "address"
        },
        {
          "name": "addedValue",
          "type": "uint256"
        }
      ],
      "name": "increaseAllowance",
      "outputs": [
        {
          "name": "",
          "type": "bool"
        }
      ],
      "payable": false,
      "stateMutability": "nonpayable",
      "type": "function"
    },
    {
      "constant": false,
      "inputs": [],
      "name": "unpause",
      "outputs": [],
      "payable": false,
      "stateMutability": "nonpayable",
      "type": "function"
    },
    {
      "constant": true,
      "inputs": [],
      "name": "capper",
      "outputs": [
        {
          "name": "",
          "type": "address"
        }
      ],
      "payable": false,
      "stateMutability": "view",
      "type": "function"
    },
    {
      "constant": true,
      "inputs": [],
      "name": "paused",
      "outputs": [
        {
          "name": "",
          "type": "bool"
        }
      ],
      "payable": false,
      "stateMutability": "view",
      "type": "function"
    },
    {
      "constant": true,
      "inputs": [],
      "name": "capacity",
      "outputs": [
        {
          "name": "",
          "type": "uint256"
        }
      ],
      "payable": false,
      "stateMutability": "view",
      "type": "function"
    },
    {
      "constant": false,
      "inputs": [
        {
          "name": "_account",
          "type": "address"
        }
      ],
      "name": "unprohibit",
      "outputs": [],
      "payable": false,
      "stateMutability": "nonpayable",
      "type": "function"
    },
    {
      "constant": true,
      "inputs": [
        {
          "name": "account",
          "type": "address"
        }
      ],
      "name": "balanceOf",
      "outputs": [
        {
          "name": "",
          "type": "uint256"
        }
      ],
      "payable": false,
      "stateMutability": "view",
      "type": "function"
    },
    {
      "constant": false,
      "inputs": [],
      "name": "pause",
      "outputs": [],
      "payable": false,
      "stateMutability": "nonpayable",
      "type": "function"
    },
    {
      "constant": true,
      "inputs": [],
      "name": "owner",
      "outputs": [
        {
          "name": "",
          "type": "address"
        }
      ],
      "payable": false,
      "stateMutability": "view",
      "type": "function"
    },
    {
      "constant": false,
      "inputs": [
        {
          "name": "_account",
          "type": "address"
        }
      ],
      "name": "changeAdmin",
      "outputs": [],
      "payable": false,
      "stateMutability": "nonpayable",
      "type": "function"
    },
    {
      "constant": true,
      "inputs": [],
      "name": "symbol",
      "outputs": [
        {
          "name": "",
          "type": "string"
        }
      ],
      "payable": false,
      "stateMutability": "view",
      "type": "function"
    },
    {
      "constant": true,
      "inputs": [],
      "name": "pauser",
      "outputs": [
        {
          "name": "",
          "type": "address"
        }
      ],
      "payable": false,
      "stateMutability": "view",
      "type": "function"
    },
    {
      "constant": false,
      "inputs": [
        {
          "name": "spender",
          "type": "address"
        },
        {
          "name": "subtractedValue",
          "type": "uint256"
        }
      ],
      "name": "decreaseAllowance",
      "outputs": [
        {
          "name": "",
          "type": "bool"
        }
      ],
      "payable": false,
      "stateMutability": "nonpayable",
      "type": "function"
    },
    {
      "constant": false,
      "inputs": [
        {
          "name": "_account",
          "type": "address"
        }
      ],
      "name": "changeOwner",
      "outputs": [],
      "payable": false,
      "stateMutability": "nonpayable",
      "type": "function"
    },
    {
      "constant": true,
      "inputs": [],
      "name": "minterAdmin",
      "outputs": [
        {
          "name": "",
          "type": "address"
        }
      ],
      "payable": false,
      "stateMutability": "view",
      "type": "function"
    },
    {
      "constant": false,
      "inputs": [
        {
          "name": "_account",
          "type": "address"
        }
      ],
      "name": "changeCapper",
      "outputs": [],
      "payable": false,
      "stateMutability": "nonpayable",
      "type": "function"
    },
    {
      "constant": false,
      "inputs": [
        {
          "name": "_account",
          "type": "address"
        }
      ],
      "name": "prohibit",
      "outputs": [],
      "payable": false,
      "stateMutability": "nonpayable",
      "type": "function"
    },
    {
      "constant": false,
      "inputs": [
        {
          "name": "_account",
          "type": "address"
        }
      ],
      "name": "changeProhibiter",
      "outputs": [],
      "payable": false,
      "stateMutability": "nonpayable",
      "type": "function"
    },
    {
      "constant": true,
      "inputs": [
        {
          "name": "owner",
          "type": "address"
        },
        {
          "name": "spender",
          "type": "address"
        }
      ],
      "name": "allowance",
      "outputs": [
        {
          "name": "",
          "type": "uint256"
        }
      ],
      "payable": false,
      "stateMutability": "view",
      "type": "function"
    },
    {
      "constant": true,
      "inputs": [],
      "name": "prohibiter",
      "outputs": [
        {
          "name": "",
          "type": "address"
        }
      ],
      "payable": false,
      "stateMutability": "view",
      "type": "function"
    },
    {
      "constant": true,
      "inputs": [],
      "name": "admin",
      "outputs": [
        {
          "name": "",
          "type": "address"
        }
      ],
      "payable": false,
      "stateMutability": "view",
      "type": "function"
    },
    {
      "anonymous": false,
      "inputs": [
        {
          "indexed": true,
          "name": "mintee",
          "type": "address"
        },
        {
          "indexed": false,
          "name": "amount",
          "type": "uint256"
        },
        {
          "indexed": true,
          "name": "sender",
          "type": "address"
        }
      ],
      "name": "Mint",
      "type": "event"
    },
    {
      "anonymous": false,
      "inputs": [
        {
          "indexed": true,
          "name": "burnee",
          "type": "address"
        },
        {
          "indexed": false,
          "name": "amount",
          "type": "uint256"
        },
        {
          "indexed": true,
          "name": "sender",
          "type": "address"
        }
      ],
      "name": "Burn",
      "type": "event"
    },
    {
      "anonymous": false,
      "inputs": [
        {
          "indexed": true,
          "name": "oldOwner",
          "type": "address"
        },
        {
          "indexed": true,
          "name": "newOwner",
          "type": "address"
        },
        {
          "indexed": true,
          "name": "sender",
          "type": "address"
        }
      ],
      "name": "OwnerChanged",
      "type": "event"
    },
    {
      "anonymous": false,
      "inputs": [
        {
          "indexed": true,
          "name": "oldAdmin",
          "type": "address"
        },
        {
          "indexed": true,
          "name": "newAdmin",
          "type": "address"
        },
        {
          "indexed": true,
          "name": "sender",
          "type": "address"
        }
      ],
      "name": "AdminChanged",
      "type": "event"
    },
    {
      "anonymous": false,
      "inputs": [
        {
          "indexed": true,
          "name": "oldMinterAdmin",
          "type": "address"
        },
        {
          "indexed": true,
          "name": "newMinterAdmin",
          "type": "address"
        },
        {
          "indexed": true,
          "name": "sender",
          "type": "address"
        }
      ],
      "name": "MinterAdminChanged",
      "type": "event"
    },
    {
      "anonymous": false,
      "inputs": [
        {
          "indexed": true,
          "name": "oldMinter",
          "type": "address"
        },
        {
          "indexed": true,
          "name": "newMinter",
          "type": "address"
        },
        {
          "indexed": true,
          "name": "sender",
          "type": "address"
        }
      ],
      "name": "MinterChanged",
      "type": "event"
    },
    {
      "anonymous": false,
      "inputs": [
        {
          "indexed": true,
          "name": "oldCapper",
          "type": "address"
        },
        {
          "indexed": true,
          "name": "newCapper",
          "type": "address"
        },
        {
          "indexed": true,
          "name": "sender",
          "type": "address"
        }
      ],
      "name": "CapperChanged",
      "type": "event"
    },
    {
      "anonymous": false,
      "inputs": [
        {
          "indexed": true,
          "name": "oldPauser",
          "type": "address"
        },
        {
          "indexed": true,
          "name": "newPauser",
          "type": "address"
        },
        {
          "indexed": true,
          "name": "sender",
          "type": "address"
        }
      ],
      "name": "PauserChanged",
      "type": "event"
    },
    {
      "anonymous": false,
      "inputs": [
        {
          "indexed": true,
          "name": "oldProhibiter",
          "type": "address"
        },
        {
          "indexed": true,
          "name": "newProhibiter",
          "type": "address"
        },
        {
          "indexed": true,
          "name": "sender",
          "type": "address"
        }
      ],
      "name": "ProhibiterChanged",
      "type": "event"
    },
    {
      "anonymous": false,
      "inputs": [
        {
          "indexed": false,
          "name": "prohibited",
          "type": "address"
        },
        {
          "indexed": false,
          "name": "status",
          "type": "bool"
        },
        {
          "indexed": false,
          "name": "sender",
          "type": "address"
        }
      ],
      "name": "Prohibition",
      "type": "event"
    },
    {
      "anonymous": false,
      "inputs": [
        {
          "indexed": true,
          "name": "newCapacity",
          "type": "uint256"
        },
        {
          "indexed": true,
          "name": "sender",
          "type": "address"
        }
      ],
      "name": "Cap",
      "type": "event"
    },
    {
      "anonymous": false,
      "inputs": [
        {
          "indexed": false,
          "name": "status",
          "type": "bool"
        },
        {
          "indexed": false,
          "name": "sender",
          "type": "address"
        }
      ],
      "name": "Pause",
      "type": "event"
    },
    {
      "anonymous": false,
      "inputs": [
        {
          "indexed": true,
          "name": "from",
          "type": "address"
        },
        {
          "indexed": true,
          "name": "to",
          "type": "address"
        },
        {
          "indexed": false,
          "name": "value",
          "type": "uint256"
        }
      ],
      "name": "Transfer",
      "type": "event"
    },
    {
      "anonymous": false,
      "inputs": [
        {
          "indexed": true,
          "name": "owner",
          "type": "address"
        },
        {
          "indexed": true,
          "name": "spender",
          "type": "address"
        },
        {
          "indexed": false,
          "name": "value",
          "type": "uint256"
        }
      ],
      "name": "Approval",
      "type": "event"
    },
    {
      "constant": false,
      "inputs": [
        {
          "name": "_name",
          "type": "string"
        },
        {
          "name": "_symbol",
          "type": "string"
        },
        {
          "name": "_decimals",
          "type": "uint8"
        },
        {
          "name": "_owner",
          "type": "address"
        },
        {
          "name": "_admin",
          "type": "address"
        },
        {
          "name": "_capper",
          "type": "address"
        },
        {
          "name": "_prohibiter",
          "type": "address"
        },
        {
          "name": "_pauser",
          "type": "address"
        },
        {
          "name": "_minterAdmin",
          "type": "address"
        },
        {
          "name": "_minter",
          "type": "address"
        }
      ],
      "name": "initialize",
      "outputs": [],
      "payable": false,
      "stateMutability": "nonpayable",
      "type": "function"
    },
    {
      "constant": false,
      "inputs": [
        {
          "name": "_amount",
          "type": "uint256"
        }
      ],
      "name": "cap",
      "outputs": [],
      "payable": false,
      "stateMutability": "nonpayable",
      "type": "function"
    },
    {
      "constant": false,
      "inputs": [
        {
          "name": "_account",
          "type": "address"
        },
        {
          "name": "_amount",
          "type": "uint256"
        }
      ],
      "name": "mint",
      "outputs": [],
      "payable": false,
      "stateMutability": "nonpayable",
      "type": "function"
    },
    {
      "constant": false,
      "inputs": [
        {
          "name": "_recipient",
          "type": "address"
        },
        {
          "name": "_amount",
          "type": "uint256"
        }
      ],
      "name": "transfer",
      "outputs": [
        {
          "name": "",
          "type": "bool"
        }
      ],
      "payable": false,
      "stateMutability": "nonpayable",
      "type": "function"
    },
    {
      "constant": false,
      "inputs": [
        {
          "name": "_sender",
          "type": "address"
        },
        {
          "name": "_recipient",
          "type": "address"
        },
        {
          "name": "_amount",
          "type": "uint256"
        }
      ],
      "name": "transferFrom",
      "outputs": [
        {
          "name": "",
          "type": "bool"
        }
      ],
      "payable": false,
      "stateMutability": "nonpayable",
      "type": "function"
    },
    {
      "constant": false,
      "inputs": [
        {
          "name": "_amount",
          "type": "uint256"
        }
      ],
      "name": "burn",
      "outputs": [],
      "payable": false,
      "stateMutability": "nonpayable",
      "type": "function"
    }
  ],
  "bytecode": "0x6080604052603680546001600160a81b03191690556000603755603880546001600160a01b03199081169091556039805482169055603b805482169055603c805482169055603d805482169055603e8054909116905534801561006157600080fd5b5061277a806100716000396000f3fe608060405234801561001057600080fd5b506004361061021c5760003560e01c806370a0823111610125578063a9059cbb116100ad578063cffdd46c1161007c578063cffdd46c14610772578063dd62ed3e14610798578063dd75049b146107c6578063f851a440146107ce578063ff2ad8e4146107d65761021c565b8063a9059cbb1461058b578063b0e71766146105b7578063b89da642146105dd578063c4e1ccf21461074c5761021c565b806395d89b41116100f457806395d89b41146105215780639fd0506d14610529578063a457c2d714610531578063a6f9dae11461055d578063a754d48f146105835761021c565b806370a08231146104c55780638456cb59146104eb5780638da5cb5b146104f35780638f283970146104fb5761021c565b8063313ce567116101a857806342966c681161017757806342966c681461046a57806350a6aaf4146104875780635c975abb1461048f5780635cfc1a5114610497578063664dc7241461049f5761021c565b8063313ce567146103ec578063395093511461040a5780633f4ba83a1461043657806340c10f191461043e5761021c565b806318160ddd116101ef57806318160ddd1461032a57806323b872dd146103445780632ad3ed6d1461037a5780632c4d4d18146103a05780632cd271e7146103c65761021c565b80630628922d1461022157806306fdde031461024957806307546172146102c6578063095ea7b3146102ea575b600080fd5b6102476004803603602081101561023757600080fd5b50356001600160a01b03166107f3565b005b61025161094a565b6040805160208082528351818301528351919283929083019185019080838360005b8381101561028b578181015183820152602001610273565b50505050905090810190601f1680156102b85780820380516001836020036101000a031916815260200191505b509250505060405180910390f35b6102ce6109d8565b604080516001600160a01b039092168252519081900360200190f35b6103166004803603604081101561030057600080fd5b506001600160a01b0381351690602001356109e7565b604080519115158252519081900360200190f35b6103326109fd565b60408051918252519081900360200190f35b6103166004803603606081101561035a57600080fd5b506001600160a01b03813581169160208101359091169060400135610a04565b6103166004803603602081101561039057600080fd5b50356001600160a01b0316610b48565b610247600480360360208110156103b657600080fd5b50356001600160a01b0316610b5d565b610247600480360360208110156103dc57600080fd5b50356001600160a01b0316610c9e565b6103f4610da5565b6040805160ff9092168252519081900360200190f35b6103166004803603604081101561042057600080fd5b506001600160a01b038135169060200135610dae565b610247610dea565b6102476004803603604081101561045457600080fd5b506001600160a01b038135169060200135610f06565b6102476004803603602081101561048057600080fd5b50356110a7565b6102ce61112f565b61031661113e565b61033261114e565b610247600480360360208110156104b557600080fd5b50356001600160a01b0316611154565b610332600480360360208110156104db57600080fd5b50356001600160a01b0316611329565b610247611344565b6102ce611454565b6102476004803603602081101561051157600080fd5b50356001600160a01b0316611463565b61025161156a565b6102ce6115c3565b6103166004803603604081101561054757600080fd5b506001600160a01b0381351690602001356115d2565b6102476004803603602081101561057357600080fd5b50356001600160a01b031661160e565b6102ce611765565b610316600480360360408110156105a157600080fd5b506001600160a01b038135169060200135611774565b610247600480360360208110156105cd57600080fd5b50356001600160a01b0316611888565b61024760048036036101408110156105f457600080fd5b81019060208101813564010000000081111561060f57600080fd5b82018360208201111561062157600080fd5b8035906020019184600183028401116401000000008311171561064357600080fd5b91908080601f016020809104026020016040519081016040528093929190818152602001838380828437600092019190915250929594936020810193503591505064010000000081111561069657600080fd5b8201836020820111156106a857600080fd5b803590602001918460018302840111640100000000831117156106ca57600080fd5b91908080601f0160208091040260200160405190810160405280939291908181526020018383808284376000920191909152509295505060ff8335169350506001600160a01b0360208301358116926040810135821692506060810135821691608082013581169160a081013582169160c082013581169160e00135166119df565b6102476004803603602081101561076257600080fd5b50356001600160a01b0316611b33565b6102476004803603602081101561078857600080fd5b50356001600160a01b0316611d11565b610332600480360360408110156107ae57600080fd5b506001600160a01b0381358116916020013516611e68565b6102ce611e93565b6102ce611ea2565b610247600480360360208110156107ec57600080fd5b5035611eb1565b603e546001600160a01b031633146108555760408051600160e51b62461bcd02815260206004820152601b60248201527f7468652073656e646572206973206e6f7420746865206f776e65720000000000604482015290519081900360640190fd5b603654600160a01b900460ff16156108a55760408051600160e51b62461bcd028152602060048201526019602482015260008051602061262c833981519152604482015290519081900360640190fd5b806001600160a01b0381166108f25760408051600160e51b62461bcd02815260206004820181905260248201526000805160206125e8833981519152604482015290519081900360640190fd5b603d80546001600160a01b038481166001600160a01b03198316179283905560405191811692339291169083907f4a85a5117c27071f301f0a758ea45cef77712d3d8358f0883b21c46ee1693d6790600090a4505050565b603f805460408051602060026001851615610100026000190190941693909304601f810184900484028201840190925281815292918301828280156109d05780601f106109a5576101008083540402835291602001916109d0565b820191906000526020600020905b8154815290600101906020018083116109b357829003601f168201915b505050505081565b603c546001600160a01b031681565b60006109f4338484611ffc565b50600192915050565b6035545b90565b603654600090600160a01b900460ff1615610a575760408051600160e51b62461bcd028152602060048201526019602482015260008051602061262c833981519152604482015290519081900360640190fd5b6001600160a01b0384166000908152603a6020526040902054849060ff1615610aca5760408051600160e51b62461bcd02815260206004820152601c60248201527f74686973206163636f756e7420697320612070726f6869626974656400000000604482015290519081900360640190fd5b8280600010610b0d57604051600160e51b62461bcd0281526004018080602001828103825260248152602001806126086024913960400191505060405180910390fd5b610b188686866120ee565b610b3c8633610b3787610b2b8b33611e68565b9063ffffffff61223816565b611ffc565b50600195945050505050565b603a6020526000908152604090205460ff1681565b603d546001600160a01b03163314610ba957604051600160e51b62461bcd02815260040180806020018281038252602181526020018061264c6021913960400191505060405180910390fd5b603654600160a01b900460ff1615610bf95760408051600160e51b62461bcd028152602060048201526019602482015260008051602061262c833981519152604482015290519081900360640190fd5b806001600160a01b038116610c465760408051600160e51b62461bcd02815260206004820181905260248201526000805160206125e8833981519152604482015290519081900360640190fd5b603c80546001600160a01b038481166001600160a01b03198316179283905560405191811692339291169083907f6970e71b2bda096f4eb3290c554af7a888cca0ef8b95da09c55b23c6bb30e38190600090a4505050565b603b546001600160a01b03163314610d005760408051600160e51b62461bcd02815260206004820152601b60248201527f7468652073656e646572206973206e6f74207468652061646d696e0000000000604482015290519081900360640190fd5b806001600160a01b038116610d4d5760408051600160e51b62461bcd02815260206004820181905260248201526000805160206125e8833981519152604482015290519081900360640190fd5b603680546001600160a01b038481166001600160a01b03198316179283905560405191811692339291169083907f8b1ee37fa817a066fe12c7c9bf109c0c9f8f03ef0a5cfe0c03d5196e8c2e465790600090a4505050565b60415460ff1681565b3360008181526034602090815260408083206001600160a01b038716845290915281205490916109f4918590610b37908663ffffffff61229816565b6036546001600160a01b03163314610e4c5760408051600160e51b62461bcd02815260206004820152601c60248201527f7468652073656e646572206973206e6f74207468652070617573657200000000604482015290519081900360640190fd5b603654600160a01b900460ff16610ead5760408051600160e51b62461bcd02815260206004820152601d60248201527f74686973206973206e6f7420612070617573656420636f6e7472616374000000604482015290519081900360640190fd5b60368054600160a01b60ff0219169081905560408051600160a01b90920460ff161515825233602083015280517f5a9dfee0981174e5203ccf9368a8cabb254f9dea6ca43f96b4bbd10c69415d8a9281900390910190a1565b603c546001600160a01b03163314610f685760408051600160e51b62461bcd02815260206004820152601c60248201527f7468652073656e646572206973206e6f7420746865206d696e74657200000000604482015290519081900360640190fd5b603654600160a01b900460ff1615610fb85760408051600160e51b62461bcd028152602060048201526019602482015260008051602061262c833981519152604482015290519081900360640190fd5b610fd081610fc46109fd565b9063ffffffff61229816565b60375481111561101457604051600160e51b62461bcd02815260040180806020018281038252602181526020018061272e6021913960400191505060405180910390fd5b818060001061105757604051600160e51b62461bcd0281526004018080602001828103825260248152602001806126086024913960400191505060405180910390fd5b61106184846122fc565b60408051848152905133916001600160a01b038716917fbcad3d7d3dfccb90d49c6063bf70f828901fefc88937d90af74e58e6e55bc39d9181900360200190a350505050565b80806000106110ea57604051600160e51b62461bcd0281526004018080602001828103825260248152602001806126086024913960400191505060405180910390fd5b6110f433836123f1565b604080518381529051339182917fdbdf9b8e4b75e75b162d151ec8fc7f0561cabab5fcccfa2600be62223e4300c49181900360200190a35050565b6038546001600160a01b031681565b603654600160a01b900460ff1681565b60375481565b6039546001600160a01b031633146111b65760408051600160e51b62461bcd02815260206004820181905260248201527f7468652073656e646572206973206e6f74207468652070726f68696269746572604482015290519081900360640190fd5b603654600160a01b900460ff16156112065760408051600160e51b62461bcd028152602060048201526019602482015260008051602061262c833981519152604482015290519081900360640190fd5b806001600160a01b0381166112535760408051600160e51b62461bcd02815260206004820181905260248201526000805160206125e8833981519152604482015290519081900360640190fd5b6001600160a01b0382166000908152603a6020526040902054829060ff166112c55760408051600160e51b62461bcd02815260206004820181905260248201527f74686973206163636f756e74206973206e6f7420612070726f68696269746564604482015290519081900360640190fd5b6001600160a01b0383166000818152603a60209081526040808320805460ff191690558051938452908301919091523382820152517fab0ab2fa6ff81b10c5afab4726a665d4379f2d0acaaafbe4c4d737ade05a8e469181900360600190a1505050565b6001600160a01b031660009081526033602052604090205490565b6036546001600160a01b031633146113a65760408051600160e51b62461bcd02815260206004820152601c60248201527f7468652073656e646572206973206e6f74207468652070617573657200000000604482015290519081900360640190fd5b603654600160a01b900460ff16156113f65760408051600160e51b62461bcd028152602060048201526019602482015260008051602061262c833981519152604482015290519081900360640190fd5b60368054600160a01b60ff021916600160a01b90811791829055604080519190920460ff161515815233602082015281517f5a9dfee0981174e5203ccf9368a8cabb254f9dea6ca43f96b4bbd10c69415d8a929181900390910190a1565b603e546001600160a01b031681565b603e546001600160a01b031633146114c55760408051600160e51b62461bcd02815260206004820152601b60248201527f7468652073656e646572206973206e6f7420746865206f776e65720000000000604482015290519081900360640190fd5b806001600160a01b0381166115125760408051600160e51b62461bcd02815260206004820181905260248201526000805160206125e8833981519152604482015290519081900360640190fd5b603b80546001600160a01b038481166001600160a01b03198316179283905560405191811692339291169083907f4eb572e99196bed0270fbd5b17a948e19c3f50a97838cb0d2a75a823ff8e6c5090600090a4505050565b604080548151602060026001841615610100026000190190931692909204601f810183900483028201830184528082529092918301828280156109d05780601f106109a5576101008083540402835291602001916109d0565b6036546001600160a01b031681565b3360008181526034602090815260408083206001600160a01b038716845290915281205490916109f4918590610b37908663ffffffff61223816565b603e546001600160a01b031633146116705760408051600160e51b62461bcd02815260206004820152601b60248201527f7468652073656e646572206973206e6f7420746865206f776e65720000000000604482015290519081900360640190fd5b603654600160a01b900460ff16156116c05760408051600160e51b62461bcd028152602060048201526019602482015260008051602061262c833981519152604482015290519081900360640190fd5b806001600160a01b03811661170d5760408051600160e51b62461bcd02815260206004820181905260248201526000805160206125e8833981519152604482015290519081900360640190fd5b603e80546001600160a01b038481166001600160a01b03198316179283905560405191811692339291169083907f381c0d11398486654573703c51ee8210ce9461764d133f9f0e53b6a53970533190600090a4505050565b603d546001600160a01b031681565b603654600090600160a01b900460ff16156117c75760408051600160e51b62461bcd028152602060048201526019602482015260008051602061262c833981519152604482015290519081900360640190fd5b336000818152603a602052604090205460ff161561182f5760408051600160e51b62461bcd02815260206004820152601c60248201527f74686973206163636f756e7420697320612070726f6869626974656400000000604482015290519081900360640190fd5b828060001061187257604051600160e51b62461bcd0281526004018080602001828103825260248152602001806126086024913960400191505060405180910390fd5b61187d3386866120ee565b506001949350505050565b603b546001600160a01b031633146118ea5760408051600160e51b62461bcd02815260206004820152601b60248201527f7468652073656e646572206973206e6f74207468652061646d696e0000000000604482015290519081900360640190fd5b603654600160a01b900460ff161561193a5760408051600160e51b62461bcd028152602060048201526019602482015260008051602061262c833981519152604482015290519081900360640190fd5b806001600160a01b0381166119875760408051600160e51b62461bcd02815260206004820181905260248201526000805160206125e8833981519152604482015290519081900360640190fd5b603880546001600160a01b038481166001600160a01b03198316179283905560405191811692339291169083907fc4d5c17597bd0c5594a7545f36de213c6a58e2f235b165887331fe368618197090600090a4505050565b600054610100900460ff16806119f857506119f86124cf565b80611a06575060005460ff16155b611a4457604051600160e51b62461bcd02815260040180806020018281038252602e81526020018061266d602e913960400191505060405180910390fd5b600054610100900460ff16158015611a6f576000805460ff1961ff0019909116610100171660011790555b8a51611a8290603f9060208e019061250a565b508951611a969060409060208d019061250a565b506041805460ff191660ff8b16179055603e80546001600160a01b03199081166001600160a01b038b811691909117909255603b805482168a8416179055603880548216898416179055603980548216888416179055603680548216878416179055603d80548216868416179055603c80549091169184169190911790558015611b26576000805461ff00191690555b5050505050505050505050565b6039546001600160a01b03163314611b955760408051600160e51b62461bcd02815260206004820181905260248201527f7468652073656e646572206973206e6f74207468652070726f68696269746572604482015290519081900360640190fd5b603654600160a01b900460ff1615611be55760408051600160e51b62461bcd028152602060048201526019602482015260008051602061262c833981519152604482015290519081900360640190fd5b806001600160a01b038116611c325760408051600160e51b62461bcd02815260206004820181905260248201526000805160206125e8833981519152604482015290519081900360640190fd5b6001600160a01b0382166000908152603a6020526040902054829060ff1615611ca55760408051600160e51b62461bcd02815260206004820152601c60248201527f74686973206163636f756e7420697320612070726f6869626974656400000000604482015290519081900360640190fd5b6001600160a01b0383166000818152603a6020908152604091829020805460ff191660011790819055825193845260ff161515908301523382820152517fab0ab2fa6ff81b10c5afab4726a665d4379f2d0acaaafbe4c4d737ade05a8e469181900360600190a1505050565b603b546001600160a01b03163314611d735760408051600160e51b62461bcd02815260206004820152601b60248201527f7468652073656e646572206973206e6f74207468652061646d696e0000000000604482015290519081900360640190fd5b603654600160a01b900460ff1615611dc35760408051600160e51b62461bcd028152602060048201526019602482015260008051602061262c833981519152604482015290519081900360640190fd5b806001600160a01b038116611e105760408051600160e51b62461bcd02815260206004820181905260248201526000805160206125e8833981519152604482015290519081900360640190fd5b603980546001600160a01b038481166001600160a01b03198316179283905560405191811692339291169083907f85ae865187b1d7c0069f5fab638cbfcb8f3f9d23bc090e1084abc0dc42def0d290600090a4505050565b6001600160a01b03918216600090815260346020908152604080832093909416825291909152205490565b6039546001600160a01b031681565b603b546001600160a01b031681565b6038546001600160a01b03163314611f135760408051600160e51b62461bcd02815260206004820152601c60248201527f7468652073656e646572206973206e6f74207468652063617070657200000000604482015290519081900360640190fd5b603654600160a01b900460ff1615611f635760408051600160e51b62461bcd028152602060048201526019602482015260008051602061262c833981519152604482015290519081900360640190fd5b8080600010611fa657604051600160e51b62461bcd0281526004018080602001828103825260248152602001806126086024913960400191505060405180910390fd5b81611faf6109fd565b1115611fef57604051600160e51b62461bcd0281526004018080602001828103825260298152602001806127056029913960400191505060405180910390fd5b611ff8826124d5565b5050565b6001600160a01b03831661204457604051600160e51b62461bcd0281526004018080602001828103825260248152602001806126e16024913960400191505060405180910390fd5b6001600160a01b03821661208c57604051600160e51b62461bcd0281526004018080602001828103825260228152602001806125c66022913960400191505060405180910390fd5b6001600160a01b03808416600081815260346020908152604080832094871680845294825291829020859055815185815291517f8c5be1e5ebec7d5bd14f71427d1e84f3dd0314c0f7b2291e5b200ac8c7c3b9259281900390910190a3505050565b6001600160a01b03831661213657604051600160e51b62461bcd0281526004018080602001828103825260258152602001806126bc6025913960400191505060405180910390fd5b6001600160a01b03821661217e57604051600160e51b62461bcd0281526004018080602001828103825260238152602001806125a36023913960400191505060405180910390fd5b6001600160a01b0383166000908152603360205260409020546121a7908263ffffffff61223816565b6001600160a01b0380851660009081526033602052604080822093909355908416815220546121dc908263ffffffff61229816565b6001600160a01b0380841660008181526033602090815260409182902094909455805185815290519193928716927fddf252ad1be2c89b69c2b068fc378daa952ba7f163c4a11628f55a4df523b3ef92918290030190a3505050565b6000828211156122925760408051600160e51b62461bcd02815260206004820152601e60248201527f536166654d6174683a207375627472616374696f6e206f766572666c6f770000604482015290519081900360640190fd5b50900390565b6000828201838110156122f55760408051600160e51b62461bcd02815260206004820152601b60248201527f536166654d6174683a206164646974696f6e206f766572666c6f770000000000604482015290519081900360640190fd5b9392505050565b6001600160a01b03821661235a5760408051600160e51b62461bcd02815260206004820152601f60248201527f45524332303a206d696e7420746f20746865207a65726f206164647265737300604482015290519081900360640190fd5b60355461236d908263ffffffff61229816565b6035556001600160a01b038216600090815260336020526040902054612399908263ffffffff61229816565b6001600160a01b03831660008181526033602090815260408083209490945583518581529351929391927fddf252ad1be2c89b69c2b068fc378daa952ba7f163c4a11628f55a4df523b3ef9281900390910190a35050565b6001600160a01b03821661243957604051600160e51b62461bcd02815260040180806020018281038252602181526020018061269b6021913960400191505060405180910390fd5b60355461244c908263ffffffff61223816565b6035556001600160a01b038216600090815260336020526040902054612478908263ffffffff61223816565b6001600160a01b0383166000818152603360209081526040808320949094558351858152935191937fddf252ad1be2c89b69c2b068fc378daa952ba7f163c4a11628f55a4df523b3ef929081900390910190a35050565b303b1590565b6037819055604051339082907f3bb5a3ed42af6c70969e54bbe40e4bba09c07f42c120cbec4ac0ee7eb0057fc990600090a350565b828054600181600116156101000203166002900490600052602060002090601f016020900481019282601f1061254b57805160ff1916838001178555612578565b82800160010185558215612578579182015b8281111561257857825182559160200191906001019061255d565b50612584929150612588565b5090565b610a0191905b80821115612584576000815560010161258e56fe45524332303a207472616e7366657220746f20746865207a65726f206164647265737345524332303a20617070726f766520746f20746865207a65726f206164647265737374686973206163636f756e7420697320746865207a65726f20616464726573737468697320616d6f756e74206973206e6f7420616e206e61747572616c206e756d6265727468697320697320612070617573656420636f6e7472616374000000000000007468652073656e646572206973206e6f7420746865206d696e74657241646d696e436f6e747261637420696e7374616e63652068617320616c7265616479206265656e20696e697469616c697a656445524332303a206275726e2066726f6d20746865207a65726f206164647265737345524332303a207472616e736665722066726f6d20746865207a65726f206164647265737345524332303a20617070726f76652066726f6d20746865207a65726f20616464726573737468697320616d6f756e74206973206c657373207468616e2074686520746f74616c79537570706c797468697320616d6f756e74206973206d6f7265207468616e206361706163697479a165627a7a72305820a710babe797d332e3e0fd2712ab158fe181b5fc0a5aba953dc477587a45a2d4d0029",
  "source": "pragma solidity ^0.5.8;\n\nimport \"@openzeppelin/upgrades/contracts/Initializable.sol\";\nimport \"openzeppelin-solidity/contracts/token/ERC20/ERC20.sol\";\nimport \"./Roles/Owner.sol\";\n\ncontract Token_v1 is Initializable, ERC20, Owner {\n    string public name;\n    string public symbol;\n    uint8 public decimals;\n\n    event Mint(address indexed mintee, uint256 amount, address indexed sender);\n    event Burn(address indexed burnee, uint256 amount, address indexed sender);\n\n    function initialize(\n        string memory _name,\n        string memory _symbol,\n        uint8 _decimals,\n        address _owner,\n        address _admin,\n        address _capper,\n        address _prohibiter,\n        address _pauser,\n        address _minterAdmin,\n        address _minter\n        ) public initializer {\n            name = _name;\n            symbol = _symbol;\n            decimals = _decimals;\n            owner = _owner;\n            admin = _admin;\n            capper = _capper;\n            prohibiter = _prohibiter;\n            pauser = _pauser;\n            minterAdmin = _minterAdmin;\n            minter = _minter;\n    }\n\n    function cap(uint256 _amount) public onlyCapper whenNotPaused isNaturalNumber(_amount) {\n        require(totalSupply() <= _amount, \"this amount is less than the totalySupply\");\n        _cap(_amount);\n    }\n\n    function mint(address _account, uint256 _amount) public onlyMinter whenNotPaused notMoreThanCapacity(totalSupply().add(_amount)) isNaturalNumber(_amount) {\n        _mint(_account, _amount);\n        emit Mint(_account, _amount, msg.sender);\n    }\n\n    function transfer(address _recipient, uint256 _amount) public whenNotPaused onlyNotProhibited(msg.sender) isNaturalNumber(_amount) returns (bool) {\n        _transfer(msg.sender, _recipient, _amount);\n        return true;\n    }\n\n    function transferFrom(address _sender, address _recipient, uint256 _amount) public whenNotPaused onlyNotProhibited(_sender) isNaturalNumber(_amount) returns (bool) {\n        _transfer(_sender, _recipient, _amount);\n        _approve(_sender, msg.sender, allowance(_sender, msg.sender).sub(_amount));\n        return true;\n    }\n\n    function burn(uint256 _amount) public isNaturalNumber(_amount) {\n        _burn(msg.sender, _amount);\n        emit Burn(msg.sender, _amount, msg.sender);\n    }\n}",
  "sourcePath": "/Users/usr0101757/Projects/GYEN/gyen-solidity/contracts/Token_v1.sol",
  "compiler": {
    "name": "solc",
    "version": "0.5.8+commit.23d335f2.Emscripten.clang"
  },
  "schemaVersion": "3.0.16",
  "updatedAt": "2019-10-10T07:02:32.575Z",
  "devdoc": {
    "methods": {
      "allowance(address,address)": {
        "details": "See `IERC20.allowance`."
      },
      "approve(address,uint256)": {
        "details": "See `IERC20.approve`.     * Requirements:     * - `spender` cannot be the zero address."
      },
      "balanceOf(address)": {
        "details": "See `IERC20.balanceOf`."
      },
      "decreaseAllowance(address,uint256)": {
        "details": "Atomically decreases the allowance granted to `spender` by the caller.     * This is an alternative to `approve` that can be used as a mitigation for problems described in `IERC20.approve`.     * Emits an `Approval` event indicating the updated allowance.     * Requirements:     * - `spender` cannot be the zero address. - `spender` must have allowance for the caller of at least `subtractedValue`."
      },
      "increaseAllowance(address,uint256)": {
        "details": "Atomically increases the allowance granted to `spender` by the caller.     * This is an alternative to `approve` that can be used as a mitigation for problems described in `IERC20.approve`.     * Emits an `Approval` event indicating the updated allowance.     * Requirements:     * - `spender` cannot be the zero address."
      },
      "totalSupply()": {
        "details": "See `IERC20.totalSupply`."
      }
    }
  },
  "userdoc": {
    "methods": {}
  }
}