{
  "contractName": "Wiper",
  "abi": [
    {
      "anonymous": false,
      "inputs": [
        {
          "indexed": true,
          "internalType": "address",
          "name": "owner",
          "type": "address"
        },
        {
          "indexed": true,
          "internalType": "address",
          "name": "spender",
          "type": "address"
        },
        {
          "indexed": false,
          "internalType": "uint256",
          "name": "value",
          "type": "uint256"
        }
      ],
      "name": "Approval",
      "type": "event"
    },
    {
      "anonymous": false,
      "inputs": [
        {
          "indexed": false,
          "internalType": "bool",
          "name": "status",
          "type": "bool"
        },
        {
          "indexed": true,
          "internalType": "address",
          "name": "sender",
          "type": "address"
        }
      ],
      "name": "Pause",
      "type": "event"
    },
    {
      "anonymous": false,
      "inputs": [
        {
          "indexed": true,
          "internalType": "address",
          "name": "prohibited",
          "type": "address"
        },
        {
          "indexed": false,
          "internalType": "bool",
          "name": "status",
          "type": "bool"
        },
        {
          "indexed": true,
          "internalType": "address",
          "name": "sender",
          "type": "address"
        }
      ],
      "name": "Prohibition",
      "type": "event"
    },
    {
      "anonymous": false,
      "inputs": [
        {
          "indexed": true,
          "internalType": "address",
          "name": "from",
          "type": "address"
        },
        {
          "indexed": true,
          "internalType": "address",
          "name": "to",
          "type": "address"
        },
        {
          "indexed": false,
          "internalType": "uint256",
          "name": "value",
          "type": "uint256"
        }
      ],
      "name": "Transfer",
      "type": "event"
    },
    {
      "anonymous": false,
      "inputs": [
        {
          "indexed": true,
          "internalType": "address",
          "name": "addr",
          "type": "address"
        },
        {
          "indexed": false,
          "internalType": "uint256",
          "name": "amount",
          "type": "uint256"
        }
      ],
      "name": "Wipe",
      "type": "event"
    },
    {
      "constant": true,
      "inputs": [
        {
          "internalType": "address",
          "name": "owner",
          "type": "address"
        },
        {
          "internalType": "address",
          "name": "spender",
          "type": "address"
        }
      ],
      "name": "allowance",
      "outputs": [
        {
          "internalType": "uint256",
          "name": "",
          "type": "uint256"
        }
      ],
      "payable": false,
      "stateMutability": "view",
      "type": "function"
    },
    {
      "constant": false,
      "inputs": [
        {
          "internalType": "address",
          "name": "spender",
          "type": "address"
        },
        {
          "internalType": "uint256",
          "name": "value",
          "type": "uint256"
        }
      ],
      "name": "approve",
      "outputs": [
        {
          "internalType": "bool",
          "name": "",
          "type": "bool"
        }
      ],
      "payable": false,
      "stateMutability": "nonpayable",
      "type": "function"
    },
    {
      "constant": true,
      "inputs": [
        {
          "internalType": "address",
          "name": "account",
          "type": "address"
        }
      ],
      "name": "balanceOf",
      "outputs": [
        {
          "internalType": "uint256",
          "name": "",
          "type": "uint256"
        }
      ],
      "payable": false,
      "stateMutability": "view",
      "type": "function"
    },
    {
      "constant": false,
      "inputs": [
        {
          "internalType": "address",
          "name": "spender",
          "type": "address"
        },
        {
          "internalType": "uint256",
          "name": "subtractedValue",
          "type": "uint256"
        }
      ],
      "name": "decreaseAllowance",
      "outputs": [
        {
          "internalType": "bool",
          "name": "",
          "type": "bool"
        }
      ],
      "payable": false,
      "stateMutability": "nonpayable",
      "type": "function"
    },
    {
      "constant": false,
      "inputs": [
        {
          "internalType": "address",
          "name": "spender",
          "type": "address"
        },
        {
          "internalType": "uint256",
          "name": "addedValue",
          "type": "uint256"
        }
      ],
      "name": "increaseAllowance",
      "outputs": [
        {
          "internalType": "bool",
          "name": "",
          "type": "bool"
        }
      ],
      "payable": false,
      "stateMutability": "nonpayable",
      "type": "function"
    },
    {
      "constant": false,
      "inputs": [],
      "name": "pause",
      "outputs": [],
      "payable": false,
      "stateMutability": "nonpayable",
      "type": "function"
    },
    {
      "constant": true,
      "inputs": [],
      "name": "paused",
      "outputs": [
        {
          "internalType": "bool",
          "name": "",
          "type": "bool"
        }
      ],
      "payable": false,
      "stateMutability": "view",
      "type": "function"
    },
    {
      "constant": true,
      "inputs": [],
      "name": "pauser",
      "outputs": [
        {
          "internalType": "address",
          "name": "",
          "type": "address"
        }
      ],
      "payable": false,
      "stateMutability": "view",
      "type": "function"
    },
    {
      "constant": false,
      "inputs": [
        {
          "internalType": "address",
          "name": "_account",
          "type": "address"
        }
      ],
      "name": "prohibit",
      "outputs": [],
      "payable": false,
      "stateMutability": "nonpayable",
      "type": "function"
    },
    {
      "constant": true,
      "inputs": [
        {
          "internalType": "address",
          "name": "",
          "type": "address"
        }
      ],
      "name": "prohibiteds",
      "outputs": [
        {
          "internalType": "bool",
          "name": "",
          "type": "bool"
        }
      ],
      "payable": false,
      "stateMutability": "view",
      "type": "function"
    },
    {
      "constant": true,
      "inputs": [],
      "name": "prohibiter",
      "outputs": [
        {
          "internalType": "address",
          "name": "",
          "type": "address"
        }
      ],
      "payable": false,
      "stateMutability": "view",
      "type": "function"
    },
    {
      "constant": true,
      "inputs": [],
      "name": "totalSupply",
      "outputs": [
        {
          "internalType": "uint256",
          "name": "",
          "type": "uint256"
        }
      ],
      "payable": false,
      "stateMutability": "view",
      "type": "function"
    },
    {
      "constant": false,
      "inputs": [
        {
          "internalType": "address",
          "name": "recipient",
          "type": "address"
        },
        {
          "internalType": "uint256",
          "name": "amount",
          "type": "uint256"
        }
      ],
      "name": "transfer",
      "outputs": [
        {
          "internalType": "bool",
          "name": "",
          "type": "bool"
        }
      ],
      "payable": false,
      "stateMutability": "nonpayable",
      "type": "function"
    },
    {
      "constant": false,
      "inputs": [
        {
          "internalType": "address",
          "name": "sender",
          "type": "address"
        },
        {
          "internalType": "address",
          "name": "recipient",
          "type": "address"
        },
        {
          "internalType": "uint256",
          "name": "amount",
          "type": "uint256"
        }
      ],
      "name": "transferFrom",
      "outputs": [
        {
          "internalType": "bool",
          "name": "",
          "type": "bool"
        }
      ],
      "payable": false,
      "stateMutability": "nonpayable",
      "type": "function"
    },
    {
      "constant": false,
      "inputs": [],
      "name": "unpause",
      "outputs": [],
      "payable": false,
      "stateMutability": "nonpayable",
      "type": "function"
    },
    {
      "constant": false,
      "inputs": [
        {
          "internalType": "address",
          "name": "_account",
          "type": "address"
        }
      ],
      "name": "unprohibit",
      "outputs": [],
      "payable": false,
      "stateMutability": "nonpayable",
      "type": "function"
    },
    {
      "constant": true,
      "inputs": [],
      "name": "wiper",
      "outputs": [
        {
          "internalType": "address",
          "name": "",
          "type": "address"
        }
      ],
      "payable": false,
      "stateMutability": "view",
      "type": "function"
    },
    {
      "constant": false,
      "inputs": [
        {
          "internalType": "address",
          "name": "_account",
          "type": "address"
        }
      ],
      "name": "wipe",
      "outputs": [],
      "payable": false,
      "stateMutability": "nonpayable",
      "type": "function"
    }
  ],
  "bytecode": "0x6080604052600080546001600160a81b0319169055600180546001600160a01b031990811690915560068054909116905534801561003c57600080fd5b506111178061004c6000396000f3fe608060405234801561001057600080fd5b50600436106101165760003560e01c80638456cb59116100a2578063a9059cbb11610071578063a9059cbb146102d9578063c4e1ccf214610305578063dcb413c81461032b578063dd62ed3e14610333578063dd75049b1461036157610116565b80638456cb591461025b578063988749d1146102635780639fd0506d14610289578063a457c2d7146102ad57610116565b806339509351116100e957806339509351146101d15780633f4ba83a146101fd5780635c975abb14610207578063664dc7241461020f57806370a082311461023557610116565b8063095ea7b31461011b57806318160ddd1461015b57806323b872dd146101755780632ad3ed6d146101ab575b600080fd5b6101476004803603604081101561013157600080fd5b506001600160a01b038135169060200135610369565b604080519115158252519081900360200190f35b61016361037f565b60408051918252519081900360200190f35b6101476004803603606081101561018b57600080fd5b506001600160a01b03813581169160208101359091169060400135610385565b610147600480360360208110156101c157600080fd5b50356001600160a01b03166103dc565b610147600480360360408110156101e757600080fd5b506001600160a01b0381351690602001356103f1565b61020561042d565b005b61014761053c565b6102056004803603602081101561022557600080fd5b50356001600160a01b031661054c565b6101636004803603602081101561024b57600080fd5b50356001600160a01b031661072b565b610205610746565b6102056004803603602081101561027957600080fd5b50356001600160a01b0316610857565b6102916109db565b604080516001600160a01b039092168252519081900360200190f35b610147600480360360408110156102c357600080fd5b506001600160a01b0381351690602001356109ea565b610147600480360360408110156102ef57600080fd5b506001600160a01b038135169060200135610a26565b6102056004803603602081101561031b57600080fd5b50356001600160a01b0316610a33565b610291610c21565b6101636004803603604081101561034957600080fd5b506001600160a01b0381358116916020013516610c30565b610291610c5b565b6000610376338484610c6a565b50600192915050565b60055490565b6000610392848484610d56565b6001600160a01b0384166000908152600460209081526040808320338085529252909120546103d29186916103cd908663ffffffff610e9a16565b610c6a565b5060019392505050565b60026020526000908152604090205460ff1681565b3360008181526004602090815260408083206001600160a01b038716845290915281205490916103769185906103cd908663ffffffff610ef716565b6000546001600160a01b0316331461048c576040805162461bcd60e51b815260206004820152601c60248201527f7468652073656e646572206973206e6f74207468652070617573657200000000604482015290519081900360640190fd5b600054600160a01b900460ff166104ea576040805162461bcd60e51b815260206004820152601d60248201527f74686973206973206e6f7420612070617573656420636f6e7472616374000000604482015290519081900360640190fd5b6000805460ff60a01b19169081905560408051600160a01b90920460ff16151582525133917f5a9dfee0981174e5203ccf9368a8cabb254f9dea6ca43f96b4bbd10c69415d8a919081900360200190a2565b600054600160a01b900460ff1681565b6001546001600160a01b031633146105ab576040805162461bcd60e51b815260206004820181905260248201527f7468652073656e646572206973206e6f74207468652070726f68696269746572604482015290519081900360640190fd5b600054600160a01b900460ff1615610606576040805162461bcd60e51b81526020600482015260196024820152781d1a1a5cc81a5cc818481c185d5cd9590818dbdb9d1c9858dd603a1b604482015290519081900360640190fd5b806001600160a01b038116610662576040805162461bcd60e51b815260206004820181905260248201527f74686973206163636f756e7420697320746865207a65726f2061646472657373604482015290519081900360640190fd5b6001600160a01b038216600090815260026020526040902054829060ff166106d1576040805162461bcd60e51b815260206004820152601e60248201527f74686973206163636f756e74206973206e6f742070726f686962697465640000604482015290519081900360640190fd5b6001600160a01b0383166000818152600260209081526040808320805460ff191690558051928352513393927fab0ab2fa6ff81b10c5afab4726a665d4379f2d0acaaafbe4c4d737ade05a8e4692908290030190a3505050565b6001600160a01b031660009081526003602052604090205490565b6000546001600160a01b031633146107a5576040805162461bcd60e51b815260206004820152601c60248201527f7468652073656e646572206973206e6f74207468652070617573657200000000604482015290519081900360640190fd5b600054600160a01b900460ff1615610800576040805162461bcd60e51b81526020600482015260196024820152781d1a1a5cc81a5cc818481c185d5cd9590818dbdb9d1c9858dd603a1b604482015290519081900360640190fd5b6000805460ff60a01b1916600160a01b90811791829055604080519190920460ff1615158152905133917f5a9dfee0981174e5203ccf9368a8cabb254f9dea6ca43f96b4bbd10c69415d8a919081900360200190a2565b600054600160a01b900460ff16156108b2576040805162461bcd60e51b81526020600482015260196024820152781d1a1a5cc81a5cc818481c185d5cd9590818dbdb9d1c9858dd603a1b604482015290519081900360640190fd5b6006546001600160a01b03163314610911576040805162461bcd60e51b815260206004820152601b60248201527f7468652073656e646572206973206e6f74207468652077697065720000000000604482015290519081900360640190fd5b6001600160a01b038116600090815260026020526040902054819060ff16610980576040805162461bcd60e51b815260206004820152601e60248201527f74686973206163636f756e74206973206e6f742070726f686962697465640000604482015290519081900360640190fd5b600061098b8361072b565b90506109978382610f58565b6040805182815290516001600160a01b038516917f2d2c7da251295f4d722a8ddaf337627952c957ce21b2757c852e47fe81b3a2af919081900360200190a2505050565b6000546001600160a01b031681565b3360008181526004602090815260408083206001600160a01b038716845290915281205490916103769185906103cd908663ffffffff610e9a16565b6000610376338484610d56565b6001546001600160a01b03163314610a92576040805162461bcd60e51b815260206004820181905260248201527f7468652073656e646572206973206e6f74207468652070726f68696269746572604482015290519081900360640190fd5b600054600160a01b900460ff1615610aed576040805162461bcd60e51b81526020600482015260196024820152781d1a1a5cc81a5cc818481c185d5cd9590818dbdb9d1c9858dd603a1b604482015290519081900360640190fd5b806001600160a01b038116610b49576040805162461bcd60e51b815260206004820181905260248201527f74686973206163636f756e7420697320746865207a65726f2061646472657373604482015290519081900360640190fd5b6001600160a01b038216600090815260026020526040902054829060ff1615610bb9576040805162461bcd60e51b815260206004820152601a60248201527f74686973206163636f756e742069732070726f68696269746564000000000000604482015290519081900360640190fd5b6001600160a01b038316600081815260026020908152604091829020805460ff191660011790819055825160ff919091161515815291513393927fab0ab2fa6ff81b10c5afab4726a665d4379f2d0acaaafbe4c4d737ade05a8e4692908290030190a3505050565b6006546001600160a01b031681565b6001600160a01b03918216600090815260046020908152604080832093909416825291909152205490565b6001546001600160a01b031681565b6001600160a01b038316610caf5760405162461bcd60e51b81526004018080602001828103825260248152602001806110bf6024913960400191505060405180910390fd5b6001600160a01b038216610cf45760405162461bcd60e51b81526004018080602001828103825260228152602001806110576022913960400191505060405180910390fd5b6001600160a01b03808416600081815260046020908152604080832094871680845294825291829020859055815185815291517f8c5be1e5ebec7d5bd14f71427d1e84f3dd0314c0f7b2291e5b200ac8c7c3b9259281900390910190a3505050565b6001600160a01b038316610d9b5760405162461bcd60e51b815260040180806020018281038252602581526020018061109a6025913960400191505060405180910390fd5b6001600160a01b038216610de05760405162461bcd60e51b81526004018080602001828103825260238152602001806110346023913960400191505060405180910390fd5b6001600160a01b038316600090815260036020526040902054610e09908263ffffffff610e9a16565b6001600160a01b038085166000908152600360205260408082209390935590841681522054610e3e908263ffffffff610ef716565b6001600160a01b0380841660008181526003602090815260409182902094909455805185815290519193928716927fddf252ad1be2c89b69c2b068fc378daa952ba7f163c4a11628f55a4df523b3ef92918290030190a3505050565b600082821115610ef1576040805162461bcd60e51b815260206004820152601e60248201527f536166654d6174683a207375627472616374696f6e206f766572666c6f770000604482015290519081900360640190fd5b50900390565b600082820183811015610f51576040805162461bcd60e51b815260206004820152601b60248201527f536166654d6174683a206164646974696f6e206f766572666c6f770000000000604482015290519081900360640190fd5b9392505050565b6001600160a01b038216610f9d5760405162461bcd60e51b81526004018080602001828103825260218152602001806110796021913960400191505060405180910390fd5b600554610fb0908263ffffffff610e9a16565b6005556001600160a01b038216600090815260036020526040902054610fdc908263ffffffff610e9a16565b6001600160a01b0383166000818152600360209081526040808320949094558351858152935191937fddf252ad1be2c89b69c2b068fc378daa952ba7f163c4a11628f55a4df523b3ef929081900390910190a3505056fe45524332303a207472616e7366657220746f20746865207a65726f206164647265737345524332303a20617070726f766520746f20746865207a65726f206164647265737345524332303a206275726e2066726f6d20746865207a65726f206164647265737345524332303a207472616e736665722066726f6d20746865207a65726f206164647265737345524332303a20617070726f76652066726f6d20746865207a65726f2061646472657373a265627a7a723158204e4d4a2dbea14428219efb0546afedea261150075438724575db9553c051f8d064736f6c63430005100032",
  "source": "pragma solidity 0.5.16;\n\nimport \"./Prohibiter.sol\";\nimport \"openzeppelin-solidity/contracts/token/ERC20/ERC20.sol\";\n\ncontract Wiper is Prohibiter, ERC20  {\n    address public wiper = address(0);\n    event Wipe(address indexed addr, uint256 amount);\n\n    modifier onlyWiper() {\n        require(msg.sender == wiper, \"the sender is not the wiper\");\n        _;\n    }\n\n    function wipe(address _account) public whenNotPaused onlyWiper onlyProhibited(_account) {\n        uint256 _balance = balanceOf(_account);\n        _burn(_account, _balance);\n        emit Wipe(_account, _balance);\n    }\n}",
  "sourcePath": "/Users/usr0102794/gyen2022/arbitrum-l2/contracts/contracts/Roles/Wiper.sol",
  "compiler": {
    "name": "solc",
    "version": "0.5.16+commit.9c3226ce.Emscripten.clang"
  },
  "schemaVersion": "3.0.16",
  "updatedAt": "2023-01-16T08:19:17.770Z",
  "devdoc": {
    "methods": {
      "allowance(address,address)": {
        "details": "See `IERC20.allowance`."
      },
      "approve(address,uint256)": {
        "details": "See `IERC20.approve`.     * Requirements:     * - `spender` cannot be the zero address."
      },
      "balanceOf(address)": {
        "details": "See `IERC20.balanceOf`."
      },
      "decreaseAllowance(address,uint256)": {
        "details": "Atomically decreases the allowance granted to `spender` by the caller.     * This is an alternative to `approve` that can be used as a mitigation for problems described in `IERC20.approve`.     * Emits an `Approval` event indicating the updated allowance.     * Requirements:     * - `spender` cannot be the zero address. - `spender` must have allowance for the caller of at least `subtractedValue`."
      },
      "increaseAllowance(address,uint256)": {
        "details": "Atomically increases the allowance granted to `spender` by the caller.     * This is an alternative to `approve` that can be used as a mitigation for problems described in `IERC20.approve`.     * Emits an `Approval` event indicating the updated allowance.     * Requirements:     * - `spender` cannot be the zero address."
      },
      "totalSupply()": {
        "details": "See `IERC20.totalSupply`."
      },
      "transfer(address,uint256)": {
        "details": "See `IERC20.transfer`.     * Requirements:     * - `recipient` cannot be the zero address. - the caller must have a balance of at least `amount`."
      },
      "transferFrom(address,address,uint256)": {
        "details": "See `IERC20.transferFrom`.     * Emits an `Approval` event indicating the updated allowance. This is not required by the EIP. See the note at the beginning of `ERC20`;     * Requirements: - `sender` and `recipient` cannot be the zero address. - `sender` must have a balance of at least `value`. - the caller must have allowance for `sender`'s tokens of at least `amount`."
      }
    }
  },
  "userdoc": {
    "methods": {}
  }
}